{"abi":[{"type":"function","name":"FEE_DENOMINATOR","inputs":[],"outputs":[{"name":"","type":"uint256","internalType":"uint256"}],"stateMutability":"view"},{"type":"function","name":"HYPE_TOKEN_INDEX","inputs":[],"outputs":[{"name":"","type":"uint64","internalType":"uint64"}],"stateMutability":"view"},{"type":"function","name":"USDC_TOKEN_INDEX","inputs":[],"outputs":[{"name":"","type":"uint64","internalType":"uint64"}],"stateMutability":"view"},{"type":"function","name":"coreUserExists","inputs":[{"name":"account","type":"address","internalType":"address"}],"outputs":[{"name":"","type":"bool","internalType":"bool"}],"stateMutability":"nonpayable"},{"type":"function","name":"forceAccountActivation","inputs":[{"name":"account","type":"address","internalType":"address"}],"outputs":[],"stateMutability":"nonpayable"},{"type":"function","name":"forceDelegation","inputs":[{"name":"account","type":"address","internalType":"address"},{"name":"validator","type":"address","internalType":"address"},{"name":"amount","type":"uint64","internalType":"uint64"},{"name":"lockedUntilTimestamp","type":"uint64","internalType":"uint64"}],"outputs":[],"stateMutability":"nonpayable"},{"type":"function","name":"forcePerpBalance","inputs":[{"name":"account","type":"address","internalType":"address"},{"name":"usd","type":"uint64","internalType":"uint64"}],"outputs":[],"stateMutability":"payable"},{"type":"function","name":"forcePerpPositionLeverage","inputs":[{"name":"account","type":"address","internalType":"address"},{"name":"perp","type":"uint16","internalType":"uint16"},{"name":"leverage","type":"uint32","internalType":"uint32"}],"outputs":[],"stateMutability":"payable"},{"type":"function","name":"forceSpotBalance","inputs":[{"name":"account","type":"address","internalType":"address"},{"name":"token","type":"uint64","internalType":"uint64"},{"name":"_wei","type":"uint64","internalType":"uint64"}],"outputs":[],"stateMutability":"payable"},{"type":"function","name":"forceStakingBalance","inputs":[{"name":"account","type":"address","internalType":"address"},{"name":"_wei","type":"uint64","internalType":"uint64"}],"outputs":[],"stateMutability":"payable"},{"type":"function","name":"forceVaultEquity","inputs":[{"name":"account","type":"address","internalType":"address"},{"name":"vault","type":"address","internalType":"address"},{"name":"usd","type":"uint64","internalType":"uint64"},{"name":"lockedUntilTimestamp","type":"uint64","internalType":"uint64"}],"outputs":[],"stateMutability":"payable"},{"type":"function","name":"perpMakerFee","inputs":[],"outputs":[{"name":"","type":"uint16","internalType":"uint16"}],"stateMutability":"view"},{"type":"function","name":"readAccountMarginSummary","inputs":[{"name":"perp_dex_index","type":"uint16","internalType":"uint16"},{"name":"user","type":"address","internalType":"address"}],"outputs":[{"name":"","type":"tuple","internalType":"struct PrecompileLib.AccountMarginSummary","components":[{"name":"accountValue","type":"int64","internalType":"int64"},{"name":"marginUsed","type":"uint64","internalType":"uint64"},{"name":"ntlPos","type":"uint64","internalType":"uint64"},{"name":"rawUsd","type":"int64","internalType":"int64"}]}],"stateMutability":"nonpayable"},{"type":"function","name":"readDelegations","inputs":[{"name":"user","type":"address","internalType":"address"}],"outputs":[{"name":"userDelegations","type":"tuple[]","internalType":"struct PrecompileLib.Delegation[]","components":[{"name":"validator","type":"address","internalType":"address"},{"name":"amount","type":"uint64","internalType":"uint64"},{"name":"lockedUntilTimestamp","type":"uint64","internalType":"uint64"}]}],"stateMutability":"nonpayable"},{"type":"function","name":"readDelegatorSummary","inputs":[{"name":"user","type":"address","internalType":"address"}],"outputs":[{"name":"summary","type":"tuple","internalType":"struct PrecompileLib.DelegatorSummary","components":[{"name":"delegated","type":"uint64","internalType":"uint64"},{"name":"undelegated","type":"uint64","internalType":"uint64"},{"name":"totalPendingWithdrawal","type":"uint64","internalType":"uint64"},{"name":"nPendingWithdrawals","type":"uint64","internalType":"uint64"}]}],"stateMutability":"nonpayable"},{"type":"function","name":"readMarkPx","inputs":[{"name":"perp","type":"uint32","internalType":"uint32"}],"outputs":[{"name":"","type":"uint64","internalType":"uint64"}],"stateMutability":"nonpayable"},{"type":"function","name":"readOraclePx","inputs":[{"name":"perp","type":"uint32","internalType":"uint32"}],"outputs":[{"name":"","type":"uint64","internalType":"uint64"}],"stateMutability":"nonpayable"},{"type":"function","name":"readPerpAssetInfo","inputs":[{"name":"perp","type":"uint32","internalType":"uint32"}],"outputs":[{"name":"","type":"tuple","internalType":"struct PrecompileLib.PerpAssetInfo","components":[{"name":"coin","type":"string","internalType":"string"},{"name":"marginTableId","type":"uint32","internalType":"uint32"},{"name":"szDecimals","type":"uint8","internalType":"uint8"},{"name":"maxLeverage","type":"uint8","internalType":"uint8"},{"name":"onlyIsolated","type":"bool","internalType":"bool"}]}],"stateMutability":"nonpayable"},{"type":"function","name":"readPerpBalance","inputs":[{"name":"account","type":"address","internalType":"address"}],"outputs":[{"name":"","type":"uint64","internalType":"uint64"}],"stateMutability":"nonpayable"},{"type":"function","name":"readPosition","inputs":[{"name":"user","type":"address","internalType":"address"},{"name":"perp","type":"uint16","internalType":"uint16"}],"outputs":[{"name":"","type":"tuple","internalType":"struct PrecompileLib.Position","components":[{"name":"szi","type":"int64","internalType":"int64"},{"name":"entryNtl","type":"uint64","internalType":"uint64"},{"name":"isolatedRawUsd","type":"int64","internalType":"int64"},{"name":"leverage","type":"uint32","internalType":"uint32"},{"name":"isIsolated","type":"bool","internalType":"bool"}]}],"stateMutability":"nonpayable"},{"type":"function","name":"readSpotBalance","inputs":[{"name":"account","type":"address","internalType":"address"},{"name":"token","type":"uint64","internalType":"uint64"}],"outputs":[{"name":"","type":"tuple","internalType":"struct PrecompileLib.SpotBalance","components":[{"name":"total","type":"uint64","internalType":"uint64"},{"name":"hold","type":"uint64","internalType":"uint64"},{"name":"entryNtl","type":"uint64","internalType":"uint64"}]}],"stateMutability":"nonpayable"},{"type":"function","name":"readSpotInfo","inputs":[{"name":"spotMarketId","type":"uint32","internalType":"uint32"}],"outputs":[{"name":"","type":"tuple","internalType":"struct PrecompileLib.SpotInfo","components":[{"name":"name","type":"string","internalType":"string"},{"name":"tokens","type":"uint64[2]","internalType":"uint64[2]"}]}],"stateMutability":"nonpayable"},{"type":"function","name":"readSpotPx","inputs":[{"name":"spotMarketId","type":"uint32","internalType":"uint32"}],"outputs":[{"name":"","type":"uint64","internalType":"uint64"}],"stateMutability":"nonpayable"},{"type":"function","name":"readTokenInfo","inputs":[{"name":"token","type":"uint32","internalType":"uint32"}],"outputs":[{"name":"","type":"tuple","internalType":"struct PrecompileLib.TokenInfo","components":[{"name":"name","type":"string","internalType":"string"},{"name":"spots","type":"uint64[]","internalType":"uint64[]"},{"name":"deployerTradingFeeShare","type":"uint64","internalType":"uint64"},{"name":"deployer","type":"address","internalType":"address"},{"name":"evmContract","type":"address","internalType":"address"},{"name":"szDecimals","type":"uint8","internalType":"uint8"},{"name":"weiDecimals","type":"uint8","internalType":"uint8"},{"name":"evmExtraWeiDecimals","type":"int8","internalType":"int8"}]}],"stateMutability":"nonpayable"},{"type":"function","name":"readUserVaultEquity","inputs":[{"name":"user","type":"address","internalType":"address"},{"name":"vault","type":"address","internalType":"address"}],"outputs":[{"name":"","type":"tuple","internalType":"struct PrecompileLib.UserVaultEquity","components":[{"name":"equity","type":"uint64","internalType":"uint64"},{"name":"lockedUntilTimestamp","type":"uint64","internalType":"uint64"}]}],"stateMutability":"view"},{"type":"function","name":"readWithdrawable","inputs":[{"name":"account","type":"address","internalType":"address"}],"outputs":[{"name":"","type":"tuple","internalType":"struct PrecompileLib.Withdrawable","components":[{"name":"withdrawable","type":"uint64","internalType":"uint64"}]}],"stateMutability":"nonpayable"},{"type":"function","name":"registerPerpAssetInfo","inputs":[{"name":"perpIndex","type":"uint16","internalType":"uint16"},{"name":"perpAssetInfo","type":"tuple","internalType":"struct PrecompileLib.PerpAssetInfo","components":[{"name":"coin","type":"string","internalType":"string"},{"name":"marginTableId","type":"uint32","internalType":"uint32"},{"name":"szDecimals","type":"uint8","internalType":"uint8"},{"name":"maxLeverage","type":"uint8","internalType":"uint8"},{"name":"onlyIsolated","type":"bool","internalType":"bool"}]}],"outputs":[],"stateMutability":"nonpayable"},{"type":"function","name":"registerSpotInfo","inputs":[{"name":"spotIndex","type":"uint32","internalType":"uint32"},{"name":"spotInfo","type":"tuple","internalType":"struct PrecompileLib.SpotInfo","components":[{"name":"name","type":"string","internalType":"string"},{"name":"tokens","type":"uint64[2]","internalType":"uint64[2]"}]}],"outputs":[],"stateMutability":"nonpayable"},{"type":"function","name":"registerTokenInfo","inputs":[{"name":"index","type":"uint64","internalType":"uint64"},{"name":"tokenInfo","type":"tuple","internalType":"struct PrecompileLib.TokenInfo","components":[{"name":"name","type":"string","internalType":"string"},{"name":"spots","type":"uint64[]","internalType":"uint64[]"},{"name":"deployerTradingFeeShare","type":"uint64","internalType":"uint64"},{"name":"deployer","type":"address","internalType":"address"},{"name":"evmContract","type":"address","internalType":"address"},{"name":"szDecimals","type":"uint8","internalType":"uint8"},{"name":"weiDecimals","type":"uint8","internalType":"uint8"},{"name":"evmExtraWeiDecimals","type":"int8","internalType":"int8"}]}],"outputs":[],"stateMutability":"nonpayable"},{"type":"function","name":"registerTokenInfo","inputs":[{"name":"index","type":"uint64","internalType":"uint64"}],"outputs":[],"stateMutability":"nonpayable"},{"type":"function","name":"registerValidator","inputs":[{"name":"validator","type":"address","internalType":"address"}],"outputs":[],"stateMutability":"nonpayable"},{"type":"function","name":"setPerpMakerFee","inputs":[{"name":"bps","type":"uint16","internalType":"uint16"}],"outputs":[],"stateMutability":"nonpayable"},{"type":"function","name":"setSpotMakerFee","inputs":[{"name":"bps","type":"uint16","internalType":"uint16"}],"outputs":[],"stateMutability":"nonpayable"},{"type":"function","name":"setUseRealL1Read","inputs":[{"name":"_useRealL1Read","type":"bool","internalType":"bool"}],"outputs":[],"stateMutability":"nonpayable"},{"type":"function","name":"spotMakerFee","inputs":[],"outputs":[{"name":"","type":"uint16","internalType":"uint16"}],"stateMutability":"view"},{"type":"function","name":"tokenExists","inputs":[{"name":"token","type":"uint32","internalType":"uint32"}],"outputs":[{"name":"","type":"bool","internalType":"bool"}],"stateMutability":"view"},{"type":"function","name":"useRealL1Read","inputs":[],"outputs":[{"name":"","type":"bool","internalType":"bool"}],"stateMutability":"view"},{"type":"error","name":"PrecompileLib__AccountMarginSummaryPrecompileFailed","inputs":[]},{"type":"error","name":"PrecompileLib__CoreUserExistsPrecompileFailed","inputs":[]},{"type":"error","name":"PrecompileLib__DelegationsPrecompileFailed","inputs":[]},{"type":"error","name":"PrecompileLib__DelegatorSummaryPrecompileFailed","inputs":[]},{"type":"error","name":"PrecompileLib__MarkPxPrecompileFailed","inputs":[]},{"type":"error","name":"PrecompileLib__OraclePxPrecompileFailed","inputs":[]},{"type":"error","name":"PrecompileLib__PerpAssetInfoPrecompileFailed","inputs":[]},{"type":"error","name":"PrecompileLib__PositionPrecompileFailed","inputs":[]},{"type":"error","name":"PrecompileLib__SpotBalancePrecompileFailed","inputs":[]},{"type":"error","name":"PrecompileLib__SpotInfoPrecompileFailed","inputs":[]},{"type":"error","name":"PrecompileLib__SpotPxPrecompileFailed","inputs":[]},{"type":"error","name":"PrecompileLib__TokenInfoPrecompileFailed","inputs":[]},{"type":"error","name":"PrecompileLib__WithdrawablePrecompileFailed","inputs":[]},{"type":"error","name":"SafeCastOverflowedUintDowncast","inputs":[{"name":"bits","type":"uint8","internalType":"uint8"},{"name":"value","type":"uint256","internalType":"uint256"}]}],"bytecode":{"object":"0x60a0604052348015600e575f5ffd5b50601b603a60201b60201c565b67ffffffffffffffff1660808167ffffffffffffffff16815250506056565b5f6103e646146049576096604d565b6104515b61ffff16905090565b608051618fc261006e5f395f612e000152618fc25ff3fe608060405260043610610219575f3560e01c80637ea558c8116101225780639fca5169116100aa578063e2e858311161006e578063e2e858311461080f578063f0f301671461084b578063faf2773a14610887578063fe95987c146108b1578063ff1e91b5146108d957610219565b80639fca51691461071b578063b4fcd37c14610743578063cfdc26941461077f578063d73792a9146107bb578063dfefb2e2146107e557610219565b806397fba546116100f157806397fba5461461061757806397fdd86a146106535780639898728c1461067b57806399c9189d146106a35780639dbfb13f146106df57610219565b80637ea558c81461056b5780637fa6938314610595578063915711ba146105b157806397bc0e94146105db57610219565b80632f9c29a2116101a5578063554e110811610174578063554e11081461048d5780635e3dcdab146104b5578063629138f4146104df57806368ba86521461050757806371291d1b1461054357610219565b80632f9c29a2146103b157806332480ac9146103ed57806348bb769b14610415578063507a97c31461045157610219565b80630dcb1548116101ec5780630dcb1548146102b9578063106b7799146102e15780631246b2e61461031d578063180ed246146103395780631db9707c1461037557610219565b8063012755c21461021d5780630810bf021461025957806308c616861461028157806308dda1da1461029d575b5f5ffd5b348015610228575f5ffd5b50610243600480360381019061023e919061623d565b6108f5565b60405161025091906162ca565b60405180910390f35b348015610264575f5ffd5b5061027f600480360381019061027a91906162e3565b610a56565b005b61029b6004803603810190610296919061630e565b610abb565b005b6102b760048036038101906102b2919061623d565b610c34565b005b3480156102c4575f5ffd5b506102df60048036038101906102da91906165f6565b610ca7565b005b3480156102ec575f5ffd5b5061030760048036038101906103029190616650565b610cf6565b604051610314919061668a565b60405180910390f35b610337600480360381019061033291906166da565b610d9a565b005b348015610344575f5ffd5b5061035f600480360381019061035a919061672a565b610eef565b60405161036c9190616795565b60405180910390f35b348015610380575f5ffd5b5061039b600480360381019061039691906162e3565b6111d5565b6040516103a891906168a5565b60405180910390f35b3480156103bc575f5ffd5b506103d760048036038101906103d29190616650565b6114c5565b6040516103e491906168df565b60405180910390f35b3480156103f8575f5ffd5b50610413600480360381019061040e9190616b22565b6114ff565b005b348015610420575f5ffd5b5061043b60048036038101906104369190616650565b611676565b6040516104489190616cac565b60405180910390f35b34801561045c575f5ffd5b50610477600480360381019061047291906162e3565b611810565b604051610484919061668a565b60405180910390f35b348015610498575f5ffd5b506104b360048036038101906104ae9190616ccc565b6118ec565b005b3480156104c0575f5ffd5b506104c9611b6b565b6040516104d6919061668a565b60405180910390f35b3480156104ea575f5ffd5b5061050560048036038101906105009190616cf7565b611b6f565b005b348015610512575f5ffd5b5061052d600480360381019061052891906162e3565b611bd8565b60405161053a9190616d3c565b60405180910390f35b34801561054e575f5ffd5b5061056960048036038101906105649190616d55565b611c88565b005b348015610576575f5ffd5b5061057f611dfa565b60405161058c91906168df565b60405180910390f35b6105af60048036038101906105aa9190616d55565b611e0d565b005b3480156105bc575f5ffd5b506105c561212f565b6040516105d29190616dc8565b60405180910390f35b3480156105e6575f5ffd5b5061060160048036038101906105fc9190616650565b612142565b60405161060e9190616e81565b60405180910390f35b348015610622575f5ffd5b5061063d60048036038101906106389190616ea1565b6122de565b60405161064a9190616f60565b60405180910390f35b34801561065e575f5ffd5b5061067960048036038101906106749190616cf7565b612478565b005b348015610686575f5ffd5b506106a1600480360381019061069c9190617048565b6124e2565b005b3480156106ae575f5ffd5b506106c960048036038101906106c49190616650565b6125a1565b6040516106d6919061668a565b60405180910390f35b3480156106ea575f5ffd5b50610705600480360381019061070091906162e3565b612645565b60405161071291906168df565b60405180910390f35b348015610726575f5ffd5b50610741600480360381019061073c91906162e3565b612719565b005b34801561074e575f5ffd5b5061076960048036038101906107649190616650565b612731565b60405161077691906171f6565b60405180910390f35b34801561078a575f5ffd5b506107a560048036038101906107a091906162e3565b612a9b565b6040516107b29190617269565b60405180910390f35b3480156107c6575f5ffd5b506107cf612d26565b6040516107dc919061729a565b60405180910390f35b3480156107f0575f5ffd5b506107f9612d2d565b6040516108069190616dc8565b60405180910390f35b34801561081a575f5ffd5b5061083560048036038101906108309190616650565b612d41565b604051610842919061668a565b60405180910390f35b348015610856575f5ffd5b50610871600480360381019061086c91906172b3565b612de5565b60405161087e9190617344565b60405180910390f35b348015610892575f5ffd5b5061089b612dfe565b6040516108a8919061668a565b60405180910390f35b3480156108bc575f5ffd5b506108d760048036038101906108d2919061735d565b612e22565b005b6108f360048036038101906108ee919061623d565b612e3f565b005b6108fd615ec1565b5f1515600f5f8573ffffffffffffffffffffffffffffffffffffffff1673ffffffffffffffffffffffffffffffffffffffff1681526020019081526020015f205f8467ffffffffffffffff1667ffffffffffffffff1681526020019081526020015f205f9054906101000a900460ff1615151480156109885750600960049054906101000a900460ff165b1561099e576109978383612f67565b9050610a50565b6040518060600160405280600d5f8673ffffffffffffffffffffffffffffffffffffffff1673ffffffffffffffffffffffffffffffffffffffff1681526020019081526020015f206001015f8567ffffffffffffffff1667ffffffffffffffff1681526020019081526020015f205f9054906101000a900467ffffffffffffffff1667ffffffffffffffff1681526020015f67ffffffffffffffff1681526020015f67ffffffffffffffff1681525090505b92915050565b610a61816001613024565b6001600d5f8373ffffffffffffffffffffffffffffffffffffffff1673ffffffffffffffffffffffffffffffffffffffff1681526020019081526020015f205f015f6101000a81548160ff02191690831515021790555050565b5f1515600d5f8573ffffffffffffffffffffffffffffffffffffffff1673ffffffffffffffffffffffffffffffffffffffff1681526020019081526020015f205f015f9054906101000a900460ff16151503610b1b57610b1a83610a56565b5b5f1515600f5f8573ffffffffffffffffffffffffffffffffffffffff1673ffffffffffffffffffffffffffffffffffffffff1681526020019081526020015f205f8467ffffffffffffffff1667ffffffffffffffff1681526020019081526020015f205f9054906101000a900460ff16151503610ba657610b9b826118ec565b610ba58383613598565b5b80600d5f8573ffffffffffffffffffffffffffffffffffffffff1673ffffffffffffffffffffffffffffffffffffffff1681526020019081526020015f206001015f8467ffffffffffffffff1667ffffffffffffffff1681526020019081526020015f205f6101000a81548167ffffffffffffffff021916908367ffffffffffffffff160217905550505050565b610c3d82610a56565b80600d5f8473ffffffffffffffffffffffffffffffffffffffff1673ffffffffffffffffffffffffffffffffffffffff1681526020019081526020015f206003015f6101000a81548167ffffffffffffffff021916908367ffffffffffffffff1602179055505050565b80600c5f8463ffffffff1663ffffffff1681526020019081526020015f205f820151815f019081610cd89190617596565b506020820151816001019081610cee919061783f565b509050505050565b5f5f60145f8463ffffffff1663ffffffff1681526020019081526020015f205f9054906101000a900467ffffffffffffffff1667ffffffffffffffff16148015610d4c5750600960049054906101000a900460ff165b15610d6157610d5a8261370a565b9050610d95565b60145f8363ffffffff1663ffffffff1681526020019081526020015f205f9054906101000a900467ffffffffffffffff1690505b919050565b5f1515600d5f8573ffffffffffffffffffffffffffffffffffffffff1673ffffffffffffffffffffffffffffffffffffffff1681526020019081526020015f205f015f9054906101000a900460ff16151503610dfa57610df983610a56565b5b5f151560115f8573ffffffffffffffffffffffffffffffffffffffff1673ffffffffffffffffffffffffffffffffffffffff1681526020019081526020015f205f8461ffff1663ffffffff1681526020019081526020015f205f9054906101000a900460ff16151503610e7257610e718383613773565b5b80600d5f8573ffffffffffffffffffffffffffffffffffffffff1673ffffffffffffffffffffffffffffffffffffffff1681526020019081526020015f206008015f8461ffff1661ffff1681526020019081526020015f205f0160186101000a81548163ffffffff021916908363ffffffff160217905550505050565b610ef7615efd565b5f600d5f8573ffffffffffffffffffffffffffffffffffffffff1673ffffffffffffffffffffffffffffffffffffffff1681526020019081526020015f206002015f8473ffffffffffffffffffffffffffffffffffffffff1673ffffffffffffffffffffffffffffffffffffffff1681526020019081526020015f206040518060400160405290815f82015f9054906101000a900467ffffffffffffffff1667ffffffffffffffff1667ffffffffffffffff1681526020015f820160089054906101000a900467ffffffffffffffff1667ffffffffffffffff1667ffffffffffffffff168152505090505f5f601d5f8673ffffffffffffffffffffffffffffffffffffffff1673ffffffffffffffffffffffffffffffffffffffff1681526020019081526020015f20541461106957601d5f8573ffffffffffffffffffffffffffffffffffffffff1673ffffffffffffffffffffffffffffffffffffffff1681526020019081526020015f2054611073565b670de0b6b3a76400005b90505f5f601c5f8873ffffffffffffffffffffffffffffffffffffffff1673ffffffffffffffffffffffffffffffffffffffff1681526020019081526020015f205f8773ffffffffffffffffffffffffffffffffffffffff1673ffffffffffffffffffffffffffffffffffffffff1681526020019081526020015f20541461117357601c5f8773ffffffffffffffffffffffffffffffffffffffff1673ffffffffffffffffffffffffffffffffffffffff1681526020019081526020015f205f8673ffffffffffffffffffffffffffffffffffffffff1673ffffffffffffffffffffffffffffffffffffffff1681526020019081526020015f205461117d565b670de0b6b3a76400005b90505f82146111c9578082845f015167ffffffffffffffff166111a0919061769c565b6111aa919061796b565b835f019067ffffffffffffffff16908167ffffffffffffffff16815250505b82935050505092915050565b60605f1515600d5f8473ffffffffffffffffffffffffffffffffffffffff1673ffffffffffffffffffffffffffffffffffffffff1681526020019081526020015f205f015f9054906101000a900460ff1615151480156112415750600960049054906101000a900460ff165b156112565761124f8261391c565b90506114c0565b5f61129f600d5f8573ffffffffffffffffffffffffffffffffffffffff1673ffffffffffffffffffffffffffffffffffffffff1681526020019081526020015f206004016139ea565b9050805167ffffffffffffffff8111156112bc576112bb6163ab565b5b6040519080825280602002602001820160405280156112f557816020015b6112e2615f29565b8152602001906001900390816112da5790505b5091505f5b82518110156114bd578181815181106113165761131561799b565b5b60200260200101518382815181106113315761133061799b565b5b60200260200101515f019073ffffffffffffffffffffffffffffffffffffffff16908173ffffffffffffffffffffffffffffffffffffffff1681525050611392848383815181106113855761138461799b565b5b6020026020010151613a09565b8382815181106113a5576113a461799b565b5b60200260200101516020019067ffffffffffffffff16908167ffffffffffffffff1681525050600d5f8573ffffffffffffffffffffffffffffffffffffffff1673ffffffffffffffffffffffffffffffffffffffff1681526020019081526020015f206006015f83838151811061141f5761141e61799b565b5b602002602001015173ffffffffffffffffffffffffffffffffffffffff1673ffffffffffffffffffffffffffffffffffffffff1681526020019081526020015f206001015f9054906101000a900467ffffffffffffffff1683828151811061148a5761148961799b565b5b60200260200101516040019067ffffffffffffffff16908167ffffffffffffffff168152505080806001019150506112fa565b50505b919050565b5f5f600a5f8463ffffffff1667ffffffffffffffff1681526020019081526020015f205f0180546114f5906173b5565b9050119050919050565b80600a5f8467ffffffffffffffff1667ffffffffffffffff1681526020019081526020015f205f820151815f0190816115389190617596565b50602082015181600101908161154e9190617a89565b506040820151816002015f6101000a81548167ffffffffffffffff021916908367ffffffffffffffff16021790555060608201518160020160086101000a81548173ffffffffffffffffffffffffffffffffffffffff021916908373ffffffffffffffffffffffffffffffffffffffff1602179055506080820151816003015f6101000a81548173ffffffffffffffffffffffffffffffffffffffff021916908373ffffffffffffffffffffffffffffffffffffffff16021790555060a08201518160030160146101000a81548160ff021916908360ff16021790555060c08201518160030160156101000a81548160ff021916908360ff16021790555060e08201518160030160166101000a81548160ff02191690835f0b60ff1602179055509050505050565b61167e615f71565b5f600c5f8463ffffffff1663ffffffff1681526020019081526020015f205f0180546116a9906173b5565b90501480156116c45750600960049054906101000a900460ff165b156116d9576116d282613bde565b905061180b565b600c5f8363ffffffff1663ffffffff1681526020019081526020015f206040518060400160405290815f82018054611710906173b5565b80601f016020809104026020016040519081016040528092919081815260200182805461173c906173b5565b80156117875780601f1061175e57610100808354040283529160200191611787565b820191905f5260205f20905b81548152906001019060200180831161176a57829003601f168201915b50505050508152602001600182016002806020026040519081016040528092919082600280156117ff576020028201915f905b82829054906101000a900467ffffffffffffffff1667ffffffffffffffff16815260200190600801906020826007010492830192600103820291508084116117ba5790505b50505050508152505090505b919050565b5f5f1515600d5f8473ffffffffffffffffffffffffffffffffffffffff1673ffffffffffffffffffffffffffffffffffffffff1681526020019081526020015f205f015f9054906101000a900460ff16151514801561187b5750600960049054906101000a900460ff165b156118905761188982613c54565b90506118e7565b600d5f8373ffffffffffffffffffffffffffffffffffffffff1673ffffffffffffffffffffffffffffffffffffffff1681526020019081526020015f206007015f9054906101000a900467ffffffffffffffff1690505b919050565b5f600a5f8367ffffffffffffffff1667ffffffffffffffff1681526020019081526020015f205f01805461191f906173b5565b905011611b685761192e615f91565b61193782613cd1565b9050600173ffffffffffffffffffffffffffffffffffffffff16816080015173ffffffffffffffffffffffffffffffffffffffff16036119775750611b68565b80600a5f8467ffffffffffffffff1667ffffffffffffffff1681526020019081526020015f205f820151815f0190816119b09190617596565b5060208201518160010190816119c69190617a89565b506040820151816002015f6101000a81548167ffffffffffffffff021916908367ffffffffffffffff16021790555060608201518160020160086101000a81548173ffffffffffffffffffffffffffffffffffffffff021916908373ffffffffffffffffffffffffffffffffffffffff1602179055506080820151816003015f6101000a81548173ffffffffffffffffffffffffffffffffffffffff021916908373ffffffffffffffffffffffffffffffffffffffff16021790555060a08201518160030160146101000a81548160ff021916908360ff16021790555060c08201518160030160156101000a81548160ff021916908360ff16021790555060e08201518160030160166101000a81548160ff02191690835f0b60ff1602179055509050505f8267ffffffffffffffff161480611b0d575061010c8267ffffffffffffffff16145b80611b2357506101688267ffffffffffffffff16145b15611b6657600160235f8467ffffffffffffffff1667ffffffffffffffff1681526020019081526020015f205f6101000a81548160ff0219169083151502179055505b505b50565b5f81565b620f42408161ffff161115611bb9576040517f08c379a0000000000000000000000000000000000000000000000000000000008152600401611bb090617be2565b60405180910390fd5b8060095f6101000a81548161ffff021916908361ffff16021790555050565b611be061600e565b5f1515600d5f8473ffffffffffffffffffffffffffffffffffffffff1673ffffffffffffffffffffffffffffffffffffffff1681526020019081526020015f205f015f9054906101000a900460ff161515148015611c4a5750600960049054906101000a900460ff165b15611c77576040518060200160405280611c6384613c54565b67ffffffffffffffff168152509050611c83565b611c8082613e27565b90505b919050565b611c9184610a56565b60405180606001604052808473ffffffffffffffffffffffffffffffffffffffff1681526020018367ffffffffffffffff1681526020018267ffffffffffffffff16815250600d5f8673ffffffffffffffffffffffffffffffffffffffff1673ffffffffffffffffffffffffffffffffffffffff1681526020019081526020015f206006015f8573ffffffffffffffffffffffffffffffffffffffff1673ffffffffffffffffffffffffffffffffffffffff1681526020019081526020015f205f820151815f015f6101000a81548173ffffffffffffffffffffffffffffffffffffffff021916908373ffffffffffffffffffffffffffffffffffffffff1602179055506020820151815f0160146101000a81548167ffffffffffffffff021916908367ffffffffffffffff1602179055506040820151816001015f6101000a81548167ffffffffffffffff021916908367ffffffffffffffff16021790555090505050505050565b600960049054906101000a900460ff1681565b611e1684610a56565b600d5f8573ffffffffffffffffffffffffffffffffffffffff1673ffffffffffffffffffffffffffffffffffffffff1681526020019081526020015f206002015f8473ffffffffffffffffffffffffffffffffffffffff1673ffffffffffffffffffffffffffffffffffffffff1681526020019081526020015f205f015f9054906101000a900467ffffffffffffffff1660165f8573ffffffffffffffffffffffffffffffffffffffff1673ffffffffffffffffffffffffffffffffffffffff1681526020019081526020015f205f8282829054906101000a900467ffffffffffffffff16611f059190617c00565b92506101000a81548167ffffffffffffffff021916908367ffffffffffffffff1602179055508160165f8573ffffffffffffffffffffffffffffffffffffffff1673ffffffffffffffffffffffffffffffffffffffff1681526020019081526020015f205f8282829054906101000a900467ffffffffffffffff16611f8a9190617c3b565b92506101000a81548167ffffffffffffffff021916908367ffffffffffffffff16021790555081600d5f8673ffffffffffffffffffffffffffffffffffffffff1673ffffffffffffffffffffffffffffffffffffffff1681526020019081526020015f206002015f8573ffffffffffffffffffffffffffffffffffffffff1673ffffffffffffffffffffffffffffffffffffffff1681526020019081526020015f205f015f6101000a81548167ffffffffffffffff021916908367ffffffffffffffff1602179055505f8167ffffffffffffffff1611612084576103e8610e10426120759190617c76565b61207f919061769c565b612086565b805b600d5f8673ffffffffffffffffffffffffffffffffffffffff1673ffffffffffffffffffffffffffffffffffffffff1681526020019081526020015f206002015f8573ffffffffffffffffffffffffffffffffffffffff1673ffffffffffffffffffffffffffffffffffffffff1681526020019081526020015f205f0160086101000a81548167ffffffffffffffff021916908367ffffffffffffffff16021790555050505050565b60095f9054906101000a900461ffff1681565b61214a61602a565b5f600b5f8463ffffffff1663ffffffff1681526020019081526020015f205f018054612175906173b5565b90501480156121905750600960049054906101000a900460ff165b156121a55761219e826140ee565b90506122d9565b600b5f8363ffffffff1663ffffffff1681526020019081526020015f206040518060a00160405290815f820180546121dc906173b5565b80601f0160208091040260200160405190810160405280929190818152602001828054612208906173b5565b80156122535780601f1061222a57610100808354040283529160200191612253565b820191905f5260205f20905b81548152906001019060200180831161223657829003601f168201915b50505050508152602001600182015f9054906101000a900463ffffffff1663ffffffff1663ffffffff1681526020016001820160049054906101000a900460ff1660ff1660ff1681526020016001820160059054906101000a900460ff1660ff1660ff1681526020016001820160069054906101000a900460ff16151515158152505090505b919050565b6122e6616063565b5f1515600d5f8573ffffffffffffffffffffffffffffffffffffffff1673ffffffffffffffffffffffffffffffffffffffff1681526020019081526020015f205f015f9054906101000a900460ff1615151480156123505750600960049054906101000a900460ff165b156123665761235f838361415e565b9050612472565b600d5f8473ffffffffffffffffffffffffffffffffffffffff1673ffffffffffffffffffffffffffffffffffffffff1681526020019081526020015f206008015f8361ffff1661ffff1681526020019081526020015f206040518060a00160405290815f82015f9054906101000a900460070b60070b60070b81526020015f820160089054906101000a900467ffffffffffffffff1667ffffffffffffffff1667ffffffffffffffff1681526020015f820160109054906101000a900460070b60070b60070b81526020015f820160189054906101000a900463ffffffff1663ffffffff1663ffffffff1681526020015f8201601c9054906101000a900460ff16151515158152505090505b92915050565b620f42408161ffff1611156124c2576040517f08c379a00000000000000000000000000000000000000000000000000000000081526004016124b990617be2565b60405180910390fd5b80600960026101000a81548161ffff021916908361ffff16021790555050565b80600b5f8461ffff1663ffffffff1681526020019081526020015f205f820151815f0190816125119190617596565b506020820151816001015f6101000a81548163ffffffff021916908363ffffffff16021790555060408201518160010160046101000a81548160ff021916908360ff16021790555060608201518160010160056101000a81548160ff021916908360ff16021790555060808201518160010160066101000a81548160ff0219169083151502179055509050505050565b5f5f60155f8463ffffffff1663ffffffff1681526020019081526020015f205f9054906101000a900467ffffffffffffffff1667ffffffffffffffff161480156125f75750600960049054906101000a900460ff165b1561260c5761260582614221565b9050612640565b60155f8363ffffffff1663ffffffff1681526020019081526020015f205f9054906101000a900467ffffffffffffffff1690505b919050565b5f5f1515600d5f8473ffffffffffffffffffffffffffffffffffffffff1673ffffffffffffffffffffffffffffffffffffffff1681526020019081526020015f205f015f9054906101000a900460ff1615151480156126b05750600960049054906101000a900460ff165b156126c5576126be82614290565b9050612714565b600d5f8373ffffffffffffffffffffffffffffffffffffffff1673ffffffffffffffffffffffffffffffffffffffff1681526020019081526020015f205f015f9054906101000a900460ff1690505b919050565b61272d81601a6142f990919063ffffffff16565b5050565b612739615f91565b5f5f600a5f8563ffffffff1667ffffffffffffffff1681526020019081526020015f2060030160149054906101000a900460ff1660ff161480156127ec57505f73ffffffffffffffffffffffffffffffffffffffff16600a5f8563ffffffff1667ffffffffffffffff1681526020019081526020015f2060020160089054906101000a900473ffffffffffffffffffffffffffffffffffffffff1673ffffffffffffffffffffffffffffffffffffffff16145b90508080156128075750600960049054906101000a900460ff165b1561281d5761281583613cd1565b915050612a96565b600a5f8463ffffffff1667ffffffffffffffff1681526020019081526020015f20604051806101000160405290815f82018054612859906173b5565b80601f0160208091040260200160405190810160405280929190818152602001828054612885906173b5565b80156128d05780601f106128a7576101008083540402835291602001916128d0565b820191905f5260205f20905b8154815290600101906020018083116128b357829003601f168201915b505050505081526020016001820180548060200260200160405190810160405280929190818152602001828054801561295957602002820191905f5260205f20905f905b82829054906101000a900467ffffffffffffffff1667ffffffffffffffff16815260200190600801906020826007010492830192600103820291508084116129145790505b50505050508152602001600282015f9054906101000a900467ffffffffffffffff1667ffffffffffffffff1667ffffffffffffffff1681526020016002820160089054906101000a900473ffffffffffffffffffffffffffffffffffffffff1673ffffffffffffffffffffffffffffffffffffffff1673ffffffffffffffffffffffffffffffffffffffff168152602001600382015f9054906101000a900473ffffffffffffffffffffffffffffffffffffffff1673ffffffffffffffffffffffffffffffffffffffff1673ffffffffffffffffffffffffffffffffffffffff1681526020016003820160149054906101000a900460ff1660ff1660ff1681526020016003820160159054906101000a900460ff1660ff1660ff1681526020016003820160169054906101000a90045f0b5f0b5f0b815250509150505b919050565b612aa36160a5565b5f1515600d5f8473ffffffffffffffffffffffffffffffffffffffff1673ffffffffffffffffffffffffffffffffffffffff1681526020019081526020015f205f015f9054906101000a900460ff161515148015612b0d5750600960049054906101000a900460ff165b15612b2257612b1b82614326565b9050612d21565b5f612b6b600d5f8573ffffffffffffffffffffffffffffffffffffffff1673ffffffffffffffffffffffffffffffffffffffff1681526020019081526020015f206004016139ea565b90505f5b8151811015612bd657612b9c84838381518110612b8f57612b8e61799b565b5b6020026020010151613a09565b835f01818151612bac9190617c3b565b91509067ffffffffffffffff16908167ffffffffffffffff16815250508080600101915050612b6f565b50600d5f8473ffffffffffffffffffffffffffffffffffffffff1673ffffffffffffffffffffffffffffffffffffffff1681526020019081526020015f206003015f9054906101000a900467ffffffffffffffff16826020019067ffffffffffffffff16908167ffffffffffffffff16815250505f5b612c566017614396565b811015612d1e575f612c7a612c758360176143f090919063ffffffff16565b61446b565b90508473ffffffffffffffffffffffffffffffffffffffff16815f015173ffffffffffffffffffffffffffffffffffffffff1603612d1057836060018051809190612cc490617ca9565b67ffffffffffffffff1667ffffffffffffffff1681525050806020015184604001818151612cf29190617c3b565b91509067ffffffffffffffff16908167ffffffffffffffff16815250505b508080600101915050612c4c565b50505b919050565b620f424081565b600960029054906101000a900461ffff1681565b5f5f60135f8463ffffffff1663ffffffff1681526020019081526020015f205f9054906101000a900467ffffffffffffffff1667ffffffffffffffff16148015612d975750600960049054906101000a900460ff165b15612dac57612da5826144f5565b9050612de0565b60135f8363ffffffff1663ffffffff1681526020019081526020015f205f9054906101000a900467ffffffffffffffff1690505b919050565b612ded6160f1565b612df68261455e565b905092915050565b7f000000000000000000000000000000000000000000000000000000000000000081565b80600960046101000a81548160ff02191690831515021790555050565b5f1515600d5f8473ffffffffffffffffffffffffffffffffffffffff1673ffffffffffffffffffffffffffffffffffffffff1681526020019081526020015f205f015f9054906101000a900460ff16151503612e9f57612e9e82610a56565b5b5f1515600e5f8473ffffffffffffffffffffffffffffffffffffffff1673ffffffffffffffffffffffffffffffffffffffff1681526020019081526020015f205f9054906101000a900460ff16151503612efd57612efc8261490a565b5b80600d5f8473ffffffffffffffffffffffffffffffffffffffff1673ffffffffffffffffffffffffffffffffffffffff1681526020019081526020015f206007015f6101000a81548167ffffffffffffffff021916908367ffffffffffffffff1602179055505050565b612f6f615ec1565b612f77614917565b15612f8d57612f8683836149b0565b905061301e565b5f612fbb6108018585604051602001612fa7929190617ce7565b604051602081830303815290604052614a99565b90505f8151036130065760405180606001604052805f67ffffffffffffffff1681526020015f67ffffffffffffffff1681526020015f67ffffffffffffffff1681525091505061301e565b8080602001905181019061301a9190617d83565b9150505b92915050565b5f600e5f8473ffffffffffffffffffffffffffffffffffffffff1673ffffffffffffffffffffffffffffffffffffffff1681526020019081526020015f205f9054906101000a900460ff169050801561307d5750613594565b5f600d5f8573ffffffffffffffffffffffffffffffffffffffff1673ffffffffffffffffffffffffffffffffffffffff1681526020019081526020015f2090505f6130c785614290565b9050801580156130d5575083155b156130e257505050613594565b6001600e5f8773ffffffffffffffffffffffffffffffffffffffff1673ffffffffffffffffffffffffffffffffffffffff1681526020019081526020015f205f6101000a81548160ff0219169083151502179055506001825f015f6101000a81548160ff02191690831515021790555061315b85613c54565b826007015f6101000a81548167ffffffffffffffff021916908367ffffffffffffffff16021790555061318c6160a5565b61319586614326565b90508060200151836003015f6101000a81548167ffffffffffffffff021916908367ffffffffffffffff1602179055505f816060015190505f8167ffffffffffffffff1611156132fa575f62093a80426131ef9190617c76565b90505f5f90505b8267ffffffffffffffff168110156132f7575f5f6001856132179190617c00565b67ffffffffffffffff16831490508061324b5784866040015161323a9190617dae565b67ffffffffffffffff16915061328c565b8285876040015161325c9190617dae565b67ffffffffffffffff16613270919061769c565b866040015167ffffffffffffffff166132899190617dde565b91505b6132e86132d860405180606001604052808e73ffffffffffffffffffffffffffffffffffffffff1681526020018567ffffffffffffffff1681526020018763ffffffff16815250614e09565b6017614e5890919063ffffffff16565b505080806001019150506131f6565b50505b60606133058861391c565b90505f5f90505b8151811015613470578181815181106133285761332761799b565b5b6020026020010151866006015f8484815181106133485761334761799b565b5b60200260200101515f015173ffffffffffffffffffffffffffffffffffffffff1673ffffffffffffffffffffffffffffffffffffffff1681526020019081526020015f205f820151815f015f6101000a81548173ffffffffffffffffffffffffffffffffffffffff021916908373ffffffffffffffffffffffffffffffffffffffff1602179055506020820151815f0160146101000a81548167ffffffffffffffff021916908367ffffffffffffffff1602179055506040820151816001015f6101000a81548167ffffffffffffffff021916908367ffffffffffffffff1602179055509050506134628282815181106134455761344461799b565b5b60200260200101515f0151876004016142f990919063ffffffff16565b50808060010191505061330c565b5061347b5f89614f50565b600d5f8a73ffffffffffffffffffffffffffffffffffffffff1673ffffffffffffffffffffffffffffffffffffffff1681526020019081526020015f20600a015f5f61ffff1681526020019081526020015f205f820151815f015f6101000a81548167ffffffffffffffff021916908360070b67ffffffffffffffff1602179055506020820151815f0160086101000a81548167ffffffffffffffff021916908367ffffffffffffffff1602179055506040820151815f0160106101000a81548167ffffffffffffffff021916908367ffffffffffffffff1602179055506060820151815f0160186101000a81548167ffffffffffffffff021916908360070b67ffffffffffffffff1602179055509050505050505050505b5050565b6135a18261490a565b5f1515600d5f8473ffffffffffffffffffffffffffffffffffffffff1673ffffffffffffffffffffffffffffffffffffffff1681526020019081526020015f205f015f9054906101000a900460ff1615150315613706576001600f5f8473ffffffffffffffffffffffffffffffffffffffff1673ffffffffffffffffffffffffffffffffffffffff1681526020019081526020015f205f8367ffffffffffffffff1667ffffffffffffffff1681526020019081526020015f205f6101000a81548160ff02191690831515021790555061367a8282612f67565b5f0151600d5f8473ffffffffffffffffffffffffffffffffffffffff1673ffffffffffffffffffffffffffffffffffffffff1681526020019081526020015f206001015f8367ffffffffffffffff1667ffffffffffffffff1681526020019081526020015f205f6101000a81548167ffffffffffffffff021916908367ffffffffffffffff1602179055505b5050565b5f613713614917565b156137285761372182614fc4565b905061376e565b5f613754610807846040516020016137409190617e20565b604051602081830303815290604052614a99565b90508080602001905181019061376a9190617e39565b9150505b919050565b600160115f8473ffffffffffffffffffffffffffffffffffffffff1673ffffffffffffffffffffffffffffffffffffffff1681526020019081526020015f205f8361ffff1663ffffffff1681526020019081526020015f205f6101000a81548160ff0219169083151502179055506137eb828261415e565b600d5f8473ffffffffffffffffffffffffffffffffffffffff1673ffffffffffffffffffffffffffffffffffffffff1681526020019081526020015f206008015f8361ffff1661ffff1681526020019081526020015f205f820151815f015f6101000a81548167ffffffffffffffff021916908360070b67ffffffffffffffff1602179055506020820151815f0160086101000a81548167ffffffffffffffff021916908367ffffffffffffffff1602179055506040820151815f0160106101000a81548167ffffffffffffffff021916908360070b67ffffffffffffffff1602179055506060820151815f0160186101000a81548163ffffffff021916908363ffffffff1602179055506080820151815f01601c6101000a81548160ff0219169083151502179055509050505050565b6060613926614917565b1561393b57613934826150a3565b90506139e5565b5f613967610804846040516020016139539190617e64565b604051602081830303815290604052614a99565b90505f8151036139cd575f67ffffffffffffffff81111561398b5761398a6163ab565b5b6040519080825280602002602001820160405280156139c457816020015b6139b1615f29565b8152602001906001900390816139a95790505b509150506139e5565b808060200190518101906139e19190617fb2565b9150505b919050565b60605f6139f8835f01615183565b905060608190508092505050919050565b5f5f601f5490505f5f601e5f8773ffffffffffffffffffffffffffffffffffffffff1673ffffffffffffffffffffffffffffffffffffffff1681526020019081526020015f205f8673ffffffffffffffffffffffffffffffffffffffff1673ffffffffffffffffffffffffffffffffffffffff1681526020019081526020015f205414613b0e57601e5f8673ffffffffffffffffffffffffffffffffffffffff1673ffffffffffffffffffffffffffffffffffffffff1681526020019081526020015f205f8573ffffffffffffffffffffffffffffffffffffffff1673ffffffffffffffffffffffffffffffffffffffff1681526020019081526020015f2054613b18565b670de0b6b3a76400005b9050613bd48183600d5f8973ffffffffffffffffffffffffffffffffffffffff1673ffffffffffffffffffffffffffffffffffffffff1681526020019081526020015f206006015f8873ffffffffffffffffffffffffffffffffffffffff1673ffffffffffffffffffffffffffffffffffffffff1681526020019081526020015f205f0160149054906101000a900467ffffffffffffffff1667ffffffffffffffff16613bc5919061769c565b613bcf919061796b565b6151dc565b9250505092915050565b613be6615f71565b613bee614917565b15613c0957613c028263ffffffff16615237565b9050613c4f565b5f613c3561080b84604051602001613c219190617e20565b604051602081830303815290604052614a99565b905080806020019051810190613c4b9190618159565b9150505b919050565b5f613c5d614917565b15613c7257613c6b8261531d565b9050613ccc565b5f613c9e61080384604051602001613c8a9190617e64565b604051602081830303815290604052614a99565b90505f815103613cb1575f915050613ccc565b80806020019051810190613cc591906181d9565b5f01519150505b919050565b613cd9615f91565b613ce1614917565b15613cfc57613cf58263ffffffff166153ff565b9050613e22565b5f613d2861080c84604051602001613d149190617e20565b604051602081830303815290604052614a99565b90505f815103613e0a5760405180610100016040528060405180602001604052805f81525081526020015f67ffffffffffffffff811115613d6c57613d6b6163ab565b5b604051908082528060200260200182016040528015613d9a5781602001602082028036833780820191505090505b5081526020015f67ffffffffffffffff168152602001600173ffffffffffffffffffffffffffffffffffffffff168152602001600173ffffffffffffffffffffffffffffffffffffffff1681526020015f60ff1681526020015f60ff1681526020015f5f0b815250915050613e22565b80806020019051810190613e1e91906183c0565b9150505b919050565b613e2f61600e565b5f613e398361455e565b90505f5f90505f5f90505b613e8960225f8773ffffffffffffffffffffffffffffffffffffffff1673ffffffffffffffffffffffffffffffffffffffff1681526020019081526020015f206154e5565b8110156140a2575f613ee08260225f8973ffffffffffffffffffffffffffffffffffffffff1673ffffffffffffffffffffffffffffffffffffffff1681526020019081526020015f206154f890919063ffffffff16565b90505f600d5f8873ffffffffffffffffffffffffffffffffffffffff1673ffffffffffffffffffffffffffffffffffffffff1681526020019081526020015f206008015f8361ffff1661ffff1681526020019081526020015f206040518060a00160405290815f82015f9054906101000a900460070b60070b60070b81526020015f820160089054906101000a900467ffffffffffffffff1667ffffffffffffffff1667ffffffffffffffff1681526020015f820160109054906101000a900460070b60070b60070b81526020015f820160189054906101000a900463ffffffff1663ffffffff1663ffffffff1681526020015f8201601c9054906101000a900460ff16151515158152505090505f613ffc8361ffff16612d41565b90505f5f90505f835f015160070b13156140265781835f015161401f9190618407565b9050614050565b5f835f015160070b121561404f5781835f015161404290618443565b61404c9190618407565b90505b5b5f836060015163ffffffff16846020015161406b9190617dae565b9050614083600a8361407d9190617dae565b8261550f565b8761408e9190617c3b565b965050505050508080600101915050613e44565b505f81835f01516140b39190618489565b90505f5f8260070b136140c6575f6140c8565b815b905060405180602001604052808267ffffffffffffffff16815250945050505050919050565b6140f661602a565b6140fe614917565b156141135761410c8261553b565b9050614159565b5f61413f61080a8460405160200161412b9190617e20565b604051602081830303815290604052614a99565b90508080602001905181019061415591906185b5565b9150505b919050565b614166616063565b61416e614917565b156141845761417d8383615621565b905061421b565b5f6141b2610800858560405160200161419e9291906185fc565b604051602081830303815290604052614a99565b90505f815103614203576040518060a001604052805f60070b81526020015f67ffffffffffffffff1681526020015f60070b81526020015f63ffffffff1681526020015f151581525091505061421b565b8080602001905181019061421791906186d6565b9150505b92915050565b5f61422a614917565b156142455761423e8263ffffffff1661570a565b905061428b565b5f6142716108088460405160200161425d9190617e20565b604051602081830303815290604052614a99565b9050808060200190518101906142879190617e39565b9150505b919050565b5f614299614917565b156142ae576142a7826157e9565b90506142f4565b5f6142da610810846040516020016142c69190617e64565b604051602081830303815290604052614a99565b9050808060200190518101906142f09190618701565b9150505b919050565b5f61431e835f018373ffffffffffffffffffffffffffffffffffffffff165f1b6158cb565b905092915050565b61432e6160a5565b614336614917565b1561434b5761434482615932565b9050614391565b5f614377610805846040516020016143639190617e64565b604051602081830303815290604052614a99565b90508080602001905181019061438d91906187a1565b9150505b919050565b5f815f015f9054906101000a90046fffffffffffffffffffffffffffffffff16825f0160109054906101000a90046fffffffffffffffffffffffffffffffff16036fffffffffffffffffffffffffffffffff169050919050565b5f6143fa83614396565b821061440b5761440a6032615a18565b5b826001015f83855f015f9054906101000a90046fffffffffffffffffffffffffffffffff16016fffffffffffffffffffffffffffffffff166fffffffffffffffffffffffffffffffff1681526020019081526020015f2054905092915050565b61447361612f565b6060825f1c901c815f019073ffffffffffffffffffffffffffffffffffffffff16908173ffffffffffffffffffffffffffffffffffffffff16815250506020825f1c901c816020019067ffffffffffffffff16908167ffffffffffffffff1681525050815f1c816040019063ffffffff16908163ffffffff1681525050919050565b5f6144fe614917565b156145135761450c82615a29565b9050614559565b5f61453f6108068460405160200161452b9190617e20565b604051602081830303815290604052614a99565b9050808060200190518101906145559190617e39565b9150505b919050565b6145666160f1565b5f5f90505f5f90505f5f90505f5f90505f5f90505f5f90505b6145c460225f8a73ffffffffffffffffffffffffffffffffffffffff1673ffffffffffffffffffffffffffffffffffffffff1681526020019081526020015f206154e5565b811015614839575f61461b8260225f8c73ffffffffffffffffffffffffffffffffffffffff1673ffffffffffffffffffffffffffffffffffffffff1681526020019081526020015f206154f890919063ffffffff16565b90505f600d5f8b73ffffffffffffffffffffffffffffffffffffffff1673ffffffffffffffffffffffffffffffffffffffff1681526020019081526020015f206008015f8361ffff1661ffff1681526020019081526020015f206040518060a00160405290815f82015f9054906101000a900460070b60070b60070b81526020015f820160089054906101000a900467ffffffffffffffff1667ffffffffffffffff1667ffffffffffffffff1681526020015f820160109054906101000a900460070b60070b60070b81526020015f820160189054906101000a900463ffffffff1663ffffffff1663ffffffff1681526020015f8201601c9054906101000a900460ff16151515158152505090505f816060015190505f61473f8461ffff16612d41565b90508163ffffffff1683602001516147579190617dae565b886147629190617c3b565b97505f835f015190505f8160070b13156147c6575f82826147839190618407565b9050808c6147919190617c3b565b9b508363ffffffff16816147a59190617dae565b8b6147b09190617c3b565b9a5080896147be9190617c3b565b985050614827565b5f8160070b1215614826575f82826147dd90618443565b6147e79190618407565b9050808c6147f59190617c3b565b9b508363ffffffff16816148099190617dae565b8b6148149190617c3b565b9a5080886148229190617c3b565b9750505b5b5050505050808060010191505061457f565b505f8484600d5f8b73ffffffffffffffffffffffffffffffffffffffff1673ffffffffffffffffffffffffffffffffffffffff1681526020019081526020015f206007015f9054906101000a900467ffffffffffffffff1661489b9190617c00565b6148a59190617c3b565b90505f8284836148b59190618489565b6148bf91906187cc565b905060405180608001604052808360070b81526020018767ffffffffffffffff1681526020018867ffffffffffffffff1681526020018260070b815250975050505050505050919050565b614914815f613024565b50565b5f614920615b08565b1580156149ab575073999999999999999999999999999999999999999973ffffffffffffffffffffffffffffffffffffffff16637ea558c86040518163ffffffff1660e01b8152600401602060405180830381865afa158015614985573d5f5f3e3d5ffd5b505050506040513d601f19601f820116820180604052508101906149a99190618701565b155b905090565b6149b8615ec1565b5f5f61080173ffffffffffffffffffffffffffffffffffffffff1685856040516020016149e6929190617ce7565b604051602081830303815290604052604051614a02919061886f565b5f60405180830381855afa9150503d805f8114614a3a576040519150601f19603f3d011682016040523d82523d5f602084013e614a3f565b606091505b509150915081614a7b576040517f062879da00000000000000000000000000000000000000000000000000000000815260040160405180910390fd5b80806020019051810190614a8f9190617d83565b9250505092915050565b60605f737109709ecfa91a80626ff3989d68f67f5b1dd12d73ffffffffffffffffffffffffffffffffffffffff166356ca623e856040518263ffffffff1660e01b8152600401614ae99190617e64565b5f60405180830381865afa158015614b03573d5f5f3e3d5ffd5b505050506040513d5f823e3d601f19601f82011682018060405250810190614b2b9190618885565b737109709ecfa91a80626ff3989d68f67f5b1dd12d73ffffffffffffffffffffffffffffffffffffffff166371aad10d856040518263ffffffff1660e01b8152600401614b789190618914565b5f60405180830381865afa158015614b92573d5f5f3e3d5ffd5b505050506040513d5f823e3d601f19601f82011682018060405250810190614bba9190618885565b604051602001614bcb9291906189e0565b60405160208183030381529060405290505f5f90508015614d55575f614bf043615b9a565b604051602001614c009190618a56565b6040516020818303038152906040529050737109709ecfa91a80626ff3989d68f67f5b1dd12d73ffffffffffffffffffffffffffffffffffffffff166356ca623e876040518263ffffffff1660e01b8152600401614c5e9190617e64565b5f60405180830381865afa158015614c78573d5f5f3e3d5ffd5b505050506040513d5f823e3d601f19601f82011682018060405250810190614ca09190618885565b737109709ecfa91a80626ff3989d68f67f5b1dd12d73ffffffffffffffffffffffffffffffffffffffff166371aad10d876040518263ffffffff1660e01b8152600401614ced9190618914565b5f60405180830381865afa158015614d07573d5f5f3e3d5ffd5b505050506040513d5f823e3d601f19601f82011682018060405250810190614d2f9190618885565b82604051602001614d4293929190618ac7565b6040516020818303038152906040529250505b737109709ecfa91a80626ff3989d68f67f5b1dd12d73ffffffffffffffffffffffffffffffffffffffff16631206c8a8836040518263ffffffff1660e01b8152600401614da29190618bb5565b5f604051808303815f875af1925050508015614de057506040513d5f823e3d601f19601f82011682018060405250810190614ddd9190618c86565b60015b614dfc5760405180602001604052805f81525092505050614e03565b8093505050505b92915050565b5f816040015163ffffffff1664ffffffffff166020836020015167ffffffffffffffff16901b6060845f015173ffffffffffffffffffffffffffffffffffffffff16901b17175f1b9050919050565b5f825f0160109054906101000a90046fffffffffffffffffffffffffffffffff169050825f015f9054906101000a90046fffffffffffffffffffffffffffffffff166fffffffffffffffffffffffffffffffff16600182016fffffffffffffffffffffffffffffffff1603614ed257614ed16041615a18565b5b81836001015f836fffffffffffffffffffffffffffffffff166fffffffffffffffffffffffffffffffff1681526020019081526020015f208190555060018101835f0160106101000a8154816fffffffffffffffffffffffffffffffff02191690836fffffffffffffffffffffffffffffffff160217905550505050565b614f586160f1565b614f60614917565b15614f7657614f6f8383615cc1565b9050614fbe565b5f614fa461080f8585604051602001614f90929190618ccd565b604051602081830303815290604052614a99565b905080806020019051810190614fba9190618d69565b9150505b92915050565b5f5f5f61080773ffffffffffffffffffffffffffffffffffffffff1684604051602001614ff19190617e20565b60405160208183030381529060405260405161500d919061886f565b5f60405180830381855afa9150503d805f8114615045576040519150601f19603f3d011682016040523d82523d5f602084013e61504a565b606091505b509150915081615086576040517f3a3e04c500000000000000000000000000000000000000000000000000000000815260040160405180910390fd5b8080602001905181019061509a9190617e39565b92505050919050565b60605f5f61080473ffffffffffffffffffffffffffffffffffffffff16846040516020016150d19190617e64565b6040516020818303038152906040526040516150ed919061886f565b5f60405180830381855afa9150503d805f8114615125576040519150601f19603f3d011682016040523d82523d5f602084013e61512a565b606091505b509150915081615166576040517f56debe6600000000000000000000000000000000000000000000000000000000815260040160405180910390fd5b8080602001905181019061517a9190617fb2565b92505050919050565b6060815f018054806020026020016040519081016040528092919081815260200182805480156151d057602002820191905f5260205f20905b8154815260200190600101908083116151bc575b50505050509050919050565b5f67ffffffffffffffff801682111561522f576040826040517f6dfcc650000000000000000000000000000000000000000000000000000000008152600401615226929190618dcd565b60405180910390fd5b819050919050565b61523f615f71565b5f5f61080b73ffffffffffffffffffffffffffffffffffffffff168460405160200161526b919061668a565b604051602081830303815290604052604051615287919061886f565b5f60405180830381855afa9150503d805f81146152bf576040519150601f19603f3d011682016040523d82523d5f602084013e6152c4565b606091505b509150915081615300576040517f87ae2f6300000000000000000000000000000000000000000000000000000000815260040160405180910390fd5b808060200190518101906153149190618159565b92505050919050565b5f5f5f61080373ffffffffffffffffffffffffffffffffffffffff168460405160200161534a9190617e64565b604051602081830303815290604052604051615366919061886f565b5f60405180830381855afa9150503d805f811461539e576040519150601f19603f3d011682016040523d82523d5f602084013e6153a3565b606091505b5091509150816153df576040517f70a5e2e600000000000000000000000000000000000000000000000000000000815260040160405180910390fd5b808060200190518101906153f391906181d9565b5f015192505050919050565b615407615f91565b5f5f61080c73ffffffffffffffffffffffffffffffffffffffff1684604051602001615433919061668a565b60405160208183030381529060405260405161544f919061886f565b5f60405180830381855afa9150503d805f8114615487576040519150601f19603f3d011682016040523d82523d5f602084013e61548c565b606091505b5091509150816154c8576040517fee6b81c500000000000000000000000000000000000000000000000000000000815260040160405180910390fd5b808060200190518101906154dc91906183c0565b92505050919050565b5f6154f1825f01615daa565b9050919050565b5f615505835f0183615db9565b5f1c905092915050565b5f8167ffffffffffffffff168367ffffffffffffffff16116155315781615533565b825b905092915050565b61554361602a565b5f5f61080a73ffffffffffffffffffffffffffffffffffffffff168460405160200161556f9190617e20565b60405160208183030381529060405260405161558b919061886f565b5f60405180830381855afa9150503d805f81146155c3576040519150601f19603f3d011682016040523d82523d5f602084013e6155c8565b606091505b509150915081615604576040517f784fcee800000000000000000000000000000000000000000000000000000000815260040160405180910390fd5b8080602001905181019061561891906185b5565b92505050919050565b615629616063565b5f5f61080073ffffffffffffffffffffffffffffffffffffffff1685856040516020016156579291906185fc565b604051602081830303815290604052604051615673919061886f565b5f60405180830381855afa9150503d805f81146156ab576040519150601f19603f3d011682016040523d82523d5f602084013e6156b0565b606091505b5091509150816156ec576040517f7de84ab700000000000000000000000000000000000000000000000000000000815260040160405180910390fd5b8080602001905181019061570091906186d6565b9250505092915050565b5f5f5f61080873ffffffffffffffffffffffffffffffffffffffff1684604051602001615737919061668a565b604051602081830303815290604052604051615753919061886f565b5f60405180830381855afa9150503d805f811461578b576040519150601f19603f3d011682016040523d82523d5f602084013e615790565b606091505b5091509150816157cc576040517f98c3442600000000000000000000000000000000000000000000000000000000815260040160405180910390fd5b808060200190518101906157e09190617e39565b92505050919050565b5f5f5f61081073ffffffffffffffffffffffffffffffffffffffff16846040516020016158169190617e64565b604051602081830303815290604052604051615832919061886f565b5f60405180830381855afa9150503d805f811461586a576040519150601f19603f3d011682016040523d82523d5f602084013e61586f565b606091505b5091509150816158ab576040517fafa9572000000000000000000000000000000000000000000000000000000000815260040160405180910390fd5b808060200190518101906158bf9190618e2d565b5f015192505050919050565b5f6158d68383615de0565b61592857825f0182908060018154018082558091505060019003905f5260205f20015f9091909190915055825f0180549050836001015f8481526020019081526020015f20819055506001905061592c565b5f90505b92915050565b61593a6160a5565b5f5f61080573ffffffffffffffffffffffffffffffffffffffff16846040516020016159669190617e64565b604051602081830303815290604052604051615982919061886f565b5f60405180830381855afa9150503d805f81146159ba576040519150601f19603f3d011682016040523d82523d5f602084013e6159bf565b606091505b5091509150816159fb576040517f4ffb6d5f00000000000000000000000000000000000000000000000000000000815260040160405180910390fd5b80806020019051810190615a0f91906187a1565b92505050919050565b634e487b715f52806020526024601cfd5b5f5f5f61080673ffffffffffffffffffffffffffffffffffffffff1684604051602001615a569190617e20565b604051602081830303815290604052604051615a72919061886f565b5f60405180830381855afa9150503d805f8114615aaa576040519150601f19603f3d011682016040523d82523d5f602084013e615aaf565b606091505b509150915081615aeb576040517f928da67300000000000000000000000000000000000000000000000000000000815260040160405180910390fd5b80806020019051810190615aff9190617e39565b92505050919050565b5f737109709ecfa91a80626ff3989d68f67f5b1dd12d73ffffffffffffffffffffffffffffffffffffffff16632f103f226040518163ffffffff1660e01b8152600401602060405180830381865afa925050508015615b8557506040513d601f19601f82011682018060405250810190615b829190618e82565b60015b615b91575f9050615b97565b60019150505b90565b60605f5f90505f8390505b5f8114615bce578180615bb790618ead565b925050601081615bc7919061796b565b9050615ba5565b5f8267ffffffffffffffff811115615be957615be86163ab565b5b6040519080825280601f01601f191660200182016040528015615c1b5781602001600182028036833780820191505090505b5090505f5f90505b83811015615cb557601086615c389190618ef4565b9250615c4383615e00565b8260018387615c529190617dde565b615c5c9190617dde565b81518110615c6d57615c6c61799b565b5b60200101907effffffffffffffffffffffffffffffffffffffffffffffffffffffffffffff191690815f1a905350601086615ca8919061796b565b9550806001019050615c23565b50809350505050919050565b615cc96160f1565b5f5f61080f73ffffffffffffffffffffffffffffffffffffffff168585604051602001615cf7929190618ccd565b604051602081830303815290604052604051615d13919061886f565b5f60405180830381855afa9150503d805f8114615d4b576040519150601f19603f3d011682016040523d82523d5f602084013e615d50565b606091505b509150915081615d8c576040517f7cf4fff200000000000000000000000000000000000000000000000000000000815260040160405180910390fd5b80806020019051810190615da09190618d69565b9250505092915050565b5f815f01805490509050919050565b5f825f018281548110615dcf57615dce61799b565b5b905f5260205f200154905092915050565b5f5f836001015f8481526020019081526020015f20541415905092915050565b5f8160ff165f11158015615e18575060098260ff1611155b15615e5657817f300000000000000000000000000000000000000000000000000000000000000060f81c615e4c9190618f24565b60f81b9050615ebc565b8160ff16600a11158015615e6e5750600f8260ff1611155b15615eb857600a827f610000000000000000000000000000000000000000000000000000000000000060f81c615ea49190618f24565b615eae9190618f58565b60f81b9050615ebc565b5f5ffd5b919050565b60405180606001604052805f67ffffffffffffffff1681526020015f67ffffffffffffffff1681526020015f67ffffffffffffffff1681525090565b60405180604001604052805f67ffffffffffffffff1681526020015f67ffffffffffffffff1681525090565b60405180606001604052805f73ffffffffffffffffffffffffffffffffffffffff1681526020015f67ffffffffffffffff1681526020015f67ffffffffffffffff1681525090565b604051806040016040528060608152602001615f8b616173565b81525090565b60405180610100016040528060608152602001606081526020015f67ffffffffffffffff1681526020015f73ffffffffffffffffffffffffffffffffffffffff1681526020015f73ffffffffffffffffffffffffffffffffffffffff1681526020015f60ff1681526020015f60ff1681526020015f5f0b81525090565b60405180602001604052805f67ffffffffffffffff1681525090565b6040518060a00160405280606081526020015f63ffffffff1681526020015f60ff1681526020015f60ff1681526020015f151581525090565b6040518060a001604052805f60070b81526020015f67ffffffffffffffff1681526020015f60070b81526020015f63ffffffff1681526020015f151581525090565b60405180608001604052805f67ffffffffffffffff1681526020015f67ffffffffffffffff1681526020015f67ffffffffffffffff1681526020015f67ffffffffffffffff1681525090565b60405180608001604052805f60070b81526020015f67ffffffffffffffff1681526020015f67ffffffffffffffff1681526020015f60070b81525090565b60405180606001604052805f73ffffffffffffffffffffffffffffffffffffffff1681526020015f67ffffffffffffffff1681526020015f63ffffffff1681525090565b6040518060400160405280600290602082028036833780820191505090505090565b5f604051905090565b5f5ffd5b5f5ffd5b5f73ffffffffffffffffffffffffffffffffffffffff82169050919050565b5f6161cf826161a6565b9050919050565b6161df816161c5565b81146161e9575f5ffd5b50565b5f813590506161fa816161d6565b92915050565b5f67ffffffffffffffff82169050919050565b61621c81616200565b8114616226575f5ffd5b50565b5f8135905061623781616213565b92915050565b5f5f604083850312156162535761625261619e565b5b5f616260858286016161ec565b925050602061627185828601616229565b9150509250929050565b61628481616200565b82525050565b606082015f82015161629e5f85018261627b565b5060208201516162b1602085018261627b565b5060408201516162c4604085018261627b565b50505050565b5f6060820190506162dd5f83018461628a565b92915050565b5f602082840312156162f8576162f761619e565b5b5f616305848285016161ec565b91505092915050565b5f5f5f606084860312156163255761632461619e565b5b5f616332868287016161ec565b935050602061634386828701616229565b925050604061635486828701616229565b9150509250925092565b5f63ffffffff82169050919050565b6163768161635e565b8114616380575f5ffd5b50565b5f813590506163918161636d565b92915050565b5f5ffd5b5f601f19601f8301169050919050565b7f4e487b71000000000000000000000000000000000000000000000000000000005f52604160045260245ffd5b6163e18261639b565b810181811067ffffffffffffffff82111715616400576163ff6163ab565b5b80604052505050565b5f616412616195565b905061641e82826163d8565b919050565b5f5ffd5b5f5ffd5b5f5ffd5b5f67ffffffffffffffff821115616449576164486163ab565b5b6164528261639b565b9050602081019050919050565b828183375f83830152505050565b5f61647f61647a8461642f565b616409565b90508281526020810184848401111561649b5761649a61642b565b5b6164a684828561645f565b509392505050565b5f82601f8301126164c2576164c1616427565b5b81356164d284826020860161646d565b91505092915050565b5f67ffffffffffffffff8211156164f5576164f46163ab565b5b602082029050919050565b5f5ffd5b5f616516616511846164db565b616409565b905080602084028301858111156165305761652f616500565b5b835b8181101561655957806165458882616229565b845260208401935050602081019050616532565b5050509392505050565b5f82601f83011261657757616576616427565b5b6002616584848285616504565b91505092915050565b5f606082840312156165a2576165a1616397565b5b6165ac6040616409565b90505f82013567ffffffffffffffff8111156165cb576165ca616423565b5b6165d7848285016164ae565b5f8301525060206165ea84828501616563565b60208301525092915050565b5f5f6040838503121561660c5761660b61619e565b5b5f61661985828601616383565b925050602083013567ffffffffffffffff81111561663a576166396161a2565b5b6166468582860161658d565b9150509250929050565b5f602082840312156166655761666461619e565b5b5f61667284828501616383565b91505092915050565b61668481616200565b82525050565b5f60208201905061669d5f83018461667b565b92915050565b5f61ffff82169050919050565b6166b9816166a3565b81146166c3575f5ffd5b50565b5f813590506166d4816166b0565b92915050565b5f5f5f606084860312156166f1576166f061619e565b5b5f6166fe868287016161ec565b935050602061670f868287016166c6565b925050604061672086828701616383565b9150509250925092565b5f5f604083850312156167405761673f61619e565b5b5f61674d858286016161ec565b925050602061675e858286016161ec565b9150509250929050565b604082015f82015161677c5f85018261627b565b50602082015161678f602085018261627b565b50505050565b5f6040820190506167a85f830184616768565b92915050565b5f81519050919050565b5f82825260208201905092915050565b5f819050602082019050919050565b6167e0816161c5565b82525050565b606082015f8201516167fa5f8501826167d7565b50602082015161680d602085018261627b565b506040820151616820604085018261627b565b50505050565b5f61683183836167e6565b60608301905092915050565b5f602082019050919050565b5f616853826167ae565b61685d81856167b8565b9350616868836167c8565b805f5b8381101561689857815161687f8882616826565b975061688a8361683d565b92505060018101905061686b565b5085935050505092915050565b5f6020820190508181035f8301526168bd8184616849565b905092915050565b5f8115159050919050565b6168d9816168c5565b82525050565b5f6020820190506168f25f8301846168d0565b92915050565b5f67ffffffffffffffff821115616912576169116163ab565b5b602082029050602081019050919050565b5f616935616930846168f8565b616409565b9050808382526020820190506020840283018581111561695857616957616500565b5b835b81811015616981578061696d8882616229565b84526020840193505060208101905061695a565b5050509392505050565b5f82601f83011261699f5761699e616427565b5b81356169af848260208601616923565b91505092915050565b5f60ff82169050919050565b6169cd816169b8565b81146169d7575f5ffd5b50565b5f813590506169e8816169c4565b92915050565b5f815f0b9050919050565b616a02816169ee565b8114616a0c575f5ffd5b50565b5f81359050616a1d816169f9565b92915050565b5f6101008284031215616a3957616a38616397565b5b616a44610100616409565b90505f82013567ffffffffffffffff811115616a6357616a62616423565b5b616a6f848285016164ae565b5f83015250602082013567ffffffffffffffff811115616a9257616a91616423565b5b616a9e8482850161698b565b6020830152506040616ab284828501616229565b6040830152506060616ac6848285016161ec565b6060830152506080616ada848285016161ec565b60808301525060a0616aee848285016169da565b60a08301525060c0616b02848285016169da565b60c08301525060e0616b1684828501616a0f565b60e08301525092915050565b5f5f60408385031215616b3857616b3761619e565b5b5f616b4585828601616229565b925050602083013567ffffffffffffffff811115616b6657616b656161a2565b5b616b7285828601616a23565b9150509250929050565b5f81519050919050565b5f82825260208201905092915050565b8281835e5f83830152505050565b5f616bae82616b7c565b616bb88185616b86565b9350616bc8818560208601616b96565b616bd18161639b565b840191505092915050565b5f60029050919050565b5f81905092915050565b5f819050919050565b5f616c04838361627b565b60208301905092915050565b5f602082019050919050565b616c2581616bdc565b616c2f8184616be6565b9250616c3a82616bf0565b805f5b83811015616c6a578151616c518782616bf9565b9650616c5c83616c10565b925050600181019050616c3d565b505050505050565b5f606083015f8301518482035f860152616c8c8282616ba4565b9150506020830151616ca16020860182616c1c565b508091505092915050565b5f6020820190508181035f830152616cc48184616c72565b905092915050565b5f60208284031215616ce157616ce061619e565b5b5f616cee84828501616229565b91505092915050565b5f60208284031215616d0c57616d0b61619e565b5b5f616d19848285016166c6565b91505092915050565b602082015f820151616d365f85018261627b565b50505050565b5f602082019050616d4f5f830184616d22565b92915050565b5f5f5f5f60808587031215616d6d57616d6c61619e565b5b5f616d7a878288016161ec565b9450506020616d8b878288016161ec565b9350506040616d9c87828801616229565b9250506060616dad87828801616229565b91505092959194509250565b616dc2816166a3565b82525050565b5f602082019050616ddb5f830184616db9565b92915050565b616dea8161635e565b82525050565b616df9816169b8565b82525050565b616e08816168c5565b82525050565b5f60a083015f8301518482035f860152616e288282616ba4565b9150506020830151616e3d6020860182616de1565b506040830151616e506040860182616df0565b506060830151616e636060860182616df0565b506080830151616e766080860182616dff565b508091505092915050565b5f6020820190508181035f830152616e998184616e0e565b905092915050565b5f5f60408385031215616eb757616eb661619e565b5b5f616ec4858286016161ec565b9250506020616ed5858286016166c6565b9150509250929050565b5f8160070b9050919050565b616ef481616edf565b82525050565b60a082015f820151616f0e5f850182616eeb565b506020820151616f21602085018261627b565b506040820151616f346040850182616eeb565b506060820151616f476060850182616de1565b506080820151616f5a6080850182616dff565b50505050565b5f60a082019050616f735f830184616efa565b92915050565b616f82816168c5565b8114616f8c575f5ffd5b50565b5f81359050616f9d81616f79565b92915050565b5f60a08284031215616fb857616fb7616397565b5b616fc260a0616409565b90505f82013567ffffffffffffffff811115616fe157616fe0616423565b5b616fed848285016164ae565b5f83015250602061700084828501616383565b6020830152506040617014848285016169da565b6040830152506060617028848285016169da565b606083015250608061703c84828501616f8f565b60808301525092915050565b5f5f6040838503121561705e5761705d61619e565b5b5f61706b858286016166c6565b925050602083013567ffffffffffffffff81111561708c5761708b6161a2565b5b61709885828601616fa3565b9150509250929050565b5f81519050919050565b5f82825260208201905092915050565b5f819050602082019050919050565b5f602082019050919050565b5f6170e1826170a2565b6170eb81856170ac565b93506170f6836170bc565b805f5b8381101561712657815161710d8882616bf9565b9750617118836170cb565b9250506001810190506170f9565b5085935050505092915050565b61713c816169ee565b82525050565b5f61010083015f8301518482035f86015261715d8282616ba4565b9150506020830151848203602086015261717782826170d7565b915050604083015161718c604086018261627b565b50606083015161719f60608601826167d7565b5060808301516171b260808601826167d7565b5060a08301516171c560a0860182616df0565b5060c08301516171d860c0860182616df0565b5060e08301516171eb60e0860182617133565b508091505092915050565b5f6020820190508181035f83015261720e8184617142565b905092915050565b608082015f82015161722a5f85018261627b565b50602082015161723d602085018261627b565b506040820151617250604085018261627b565b506060820151617263606085018261627b565b50505050565b5f60808201905061727c5f830184617216565b92915050565b5f819050919050565b61729481617282565b82525050565b5f6020820190506172ad5f83018461728b565b92915050565b5f5f604083850312156172c9576172c861619e565b5b5f6172d6858286016166c6565b92505060206172e7858286016161ec565b9150509250929050565b608082015f8201516173055f850182616eeb565b506020820151617318602085018261627b565b50604082015161732b604085018261627b565b50606082015161733e6060850182616eeb565b50505050565b5f6080820190506173575f8301846172f1565b92915050565b5f602082840312156173725761737161619e565b5b5f61737f84828501616f8f565b91505092915050565b7f4e487b71000000000000000000000000000000000000000000000000000000005f52602260045260245ffd5b5f60028204905060018216806173cc57607f821691505b6020821081036173df576173de617388565b5b50919050565b5f819050815f5260205f209050919050565b5f6020601f8301049050919050565b5f82821b905092915050565b5f600883026174417fffffffffffffffffffffffffffffffffffffffffffffffffffffffffffffffff82617406565b61744b8683617406565b95508019841693508086168417925050509392505050565b5f819050919050565b5f61748661748161747c84617282565b617463565b617282565b9050919050565b5f819050919050565b61749f8361746c565b6174b36174ab8261748d565b848454617412565b825550505050565b5f5f905090565b6174ca6174bb565b6174d5818484617496565b505050565b5f5b828110156174fb576174f05f8284016174c2565b6001810190506174dc565b505050565b601f82111561754e578282111561754d5761751a816173e5565b617523836173f7565b61752c856173f7565b6020861015617539575f90505b808301617548828403826174da565b505050505b5b505050565b5f82821c905092915050565b5f61756e5f1984600802617553565b1980831691505092915050565b5f617586838361755f565b9150826002028217905092915050565b61759f82616b7c565b67ffffffffffffffff8111156175b8576175b76163ab565b5b6175c282546173b5565b6175cd828285617500565b5f60209050601f8311600181146175fe575f84156175ec578287015190505b6175f6858261757b565b86555061765d565b601f19841661760c866173e5565b5f5b828110156176335784890151825560018201915060208501945060208101905061760e565b86831015617650578489015161764c601f89168261755f565b8355505b6001600288020188555050505b505050505050565b5f60029050919050565b7f4e487b71000000000000000000000000000000000000000000000000000000005f52601160045260245ffd5b5f6176a682617282565b91506176b183617282565b92508282026176bf81617282565b915082820484148315176176d6576176d561766f565b5b5092915050565b5f819050600460016004038301049050919050565b5f819050919050565b5f5b8281101561771c576177115f8284016174c2565b6001810190506176fd565b505050565b6177517fffffffffffffffffffffffffffffffffffffffffffffffffffffffffffffffff83602003600802617553565b815481168255505050565b818310156177b15761776d826176dd565b617776846176dd565b61777f836176f2565b818101600860048806025f81111561779f5761779e8160018403617721565b5b6177ab848603836176fb565b50505050505b505050565b680100000000000000008211156177d0576177cf6163ab565b5b6177d981617665565b6177e483828461775c565b505050565b5f6177f48251616200565b80915050919050565b5f6008830261781467ffffffffffffffff82617406565b61781e8683617406565b95508019841693508086168417925050509392505050565b5f819050919050565b61784882616bdc565b67ffffffffffffffff811115617861576178606163ab565b5b61786b81836177b6565b61787483616bf0565b61787d836176f2565b600483045f5b818110156178de575f5f5b60048110156178cc576178a0866177e9565b6178a981617836565b6178b78184600802866177fd565b9350602088019750505060018101905061788e565b50808285015550600181019050617883565b506004810284035f811115617935575f5f5b8281101561792d57617901866177e9565b61790a81617836565b6179188184600802866177fd565b935060208801975050506001810190506178f0565b508083850155505b50505050505050565b7f4e487b71000000000000000000000000000000000000000000000000000000005f52601260045260245ffd5b5f61797582617282565b915061798083617282565b9250826179905761798f61793e565b5b828204905092915050565b7f4e487b71000000000000000000000000000000000000000000000000000000005f52603260045260245ffd5b5f81549050919050565b5f819050600460016004038301049050919050565b5f819050815f5260205f209050919050565b81831015617a4e57617a0a826179d2565b617a13846179d2565b617a1c836179e7565b818101600860048806025f811115617a3c57617a3b8160018403617721565b5b617a48848603836176fb565b50505050505b505050565b68010000000000000000821115617a6d57617a6c6163ab565b5b617a76816179c8565b828255617a848382846179f9565b505050565b617a92826170a2565b67ffffffffffffffff811115617aab57617aaa6163ab565b5b617ab58183617a53565b617abe836170bc565b617ac7836179e7565b600483045f5b81811015617b28575f5f5b6004811015617b1657617aea866177e9565b617af381617836565b617b018184600802866177fd565b93506020880197505050600181019050617ad8565b50808285015550600181019050617acd565b506004810284035f811115617b7f575f5f5b82811015617b7757617b4b866177e9565b617b5481617836565b617b628184600802866177fd565b93506020880197505050600181019050617b3a565b508083850155505b50505050505050565b5f82825260208201905092915050565b7f66656520746f6f206869676800000000000000000000000000000000000000005f82015250565b5f617bcc600c83617b88565b9150617bd782617b98565b602082019050919050565b5f6020820190508181035f830152617bf981617bc0565b9050919050565b5f617c0a82616200565b9150617c1583616200565b9250828203905067ffffffffffffffff811115617c3557617c3461766f565b5b92915050565b5f617c4582616200565b9150617c5083616200565b9250828201905067ffffffffffffffff811115617c7057617c6f61766f565b5b92915050565b5f617c8082617282565b9150617c8b83617282565b9250828201905080821115617ca357617ca261766f565b5b92915050565b5f617cb382616200565b915067ffffffffffffffff8203617ccd57617ccc61766f565b5b600182019050919050565b617ce1816161c5565b82525050565b5f604082019050617cfa5f830185617cd8565b617d07602083018461667b565b9392505050565b5f81519050617d1c81616213565b92915050565b5f60608284031215617d3757617d36616397565b5b617d416060616409565b90505f617d5084828501617d0e565b5f830152506020617d6384828501617d0e565b6020830152506040617d7784828501617d0e565b60408301525092915050565b5f60608284031215617d9857617d9761619e565b5b5f617da584828501617d22565b91505092915050565b5f617db882616200565b9150617dc383616200565b925082617dd357617dd261793e565b5b828204905092915050565b5f617de882617282565b9150617df383617282565b9250828203905081811115617e0b57617e0a61766f565b5b92915050565b617e1a8161635e565b82525050565b5f602082019050617e335f830184617e11565b92915050565b5f60208284031215617e4e57617e4d61619e565b5b5f617e5b84828501617d0e565b91505092915050565b5f602082019050617e775f830184617cd8565b92915050565b5f67ffffffffffffffff821115617e9757617e966163ab565b5b602082029050602081019050919050565b5f81519050617eb6816161d6565b92915050565b5f60608284031215617ed157617ed0616397565b5b617edb6060616409565b90505f617eea84828501617ea8565b5f830152506020617efd84828501617d0e565b6020830152506040617f1184828501617d0e565b60408301525092915050565b5f617f2f617f2a84617e7d565b616409565b90508083825260208201905060608402830185811115617f5257617f51616500565b5b835b81811015617f7b5780617f678882617ebc565b845260208401935050606081019050617f54565b5050509392505050565b5f82601f830112617f9957617f98616427565b5b8151617fa9848260208601617f1d565b91505092915050565b5f60208284031215617fc757617fc661619e565b5b5f82015167ffffffffffffffff811115617fe457617fe36161a2565b5b617ff084828501617f85565b91505092915050565b5f61800b6180068461642f565b616409565b9050828152602081018484840111156180275761802661642b565b5b618032848285616b96565b509392505050565b5f82601f83011261804e5761804d616427565b5b815161805e848260208601617ff9565b91505092915050565b5f618079618074846164db565b616409565b9050806020840283018581111561809357618092616500565b5b835b818110156180bc57806180a88882617d0e565b845260208401935050602081019050618095565b5050509392505050565b5f82601f8301126180da576180d9616427565b5b60026180e7848285618067565b91505092915050565b5f6060828403121561810557618104616397565b5b61810f6040616409565b90505f82015167ffffffffffffffff81111561812e5761812d616423565b5b61813a8482850161803a565b5f83015250602061814d848285016180c6565b60208301525092915050565b5f6020828403121561816e5761816d61619e565b5b5f82015167ffffffffffffffff81111561818b5761818a6161a2565b5b618197848285016180f0565b91505092915050565b5f602082840312156181b5576181b4616397565b5b6181bf6020616409565b90505f6181ce84828501617d0e565b5f8301525092915050565b5f602082840312156181ee576181ed61619e565b5b5f6181fb848285016181a0565b91505092915050565b5f618216618211846168f8565b616409565b9050808382526020820190506020840283018581111561823957618238616500565b5b835b81811015618262578061824e8882617d0e565b84526020840193505060208101905061823b565b5050509392505050565b5f82601f8301126182805761827f616427565b5b8151618290848260208601618204565b91505092915050565b5f815190506182a7816169c4565b92915050565b5f815190506182bb816169f9565b92915050565b5f61010082840312156182d7576182d6616397565b5b6182e2610100616409565b90505f82015167ffffffffffffffff81111561830157618300616423565b5b61830d8482850161803a565b5f83015250602082015167ffffffffffffffff8111156183305761832f616423565b5b61833c8482850161826c565b602083015250604061835084828501617d0e565b604083015250606061836484828501617ea8565b606083015250608061837884828501617ea8565b60808301525060a061838c84828501618299565b60a08301525060c06183a084828501618299565b60c08301525060e06183b4848285016182ad565b60e08301525092915050565b5f602082840312156183d5576183d461619e565b5b5f82015167ffffffffffffffff8111156183f2576183f16161a2565b5b6183fe848285016182c1565b91505092915050565b5f61841182616200565b915061841c83616200565b925082820261842a81616200565b915080821461843c5761843b61766f565b5b5092915050565b5f61844d82616edf565b91507fffffffffffffffffffffffffffffffffffffffffffffffff8000000000000000820361847f5761847e61766f565b5b815f039050919050565b5f61849382616edf565b915061849e83616edf565b92508282039050677fffffffffffffff81137fffffffffffffffffffffffffffffffffffffffffffffffff8000000000000000821217156184e2576184e161766f565b5b92915050565b5f815190506184f68161636d565b92915050565b5f8151905061850a81616f79565b92915050565b5f60a0828403121561852557618524616397565b5b61852f60a0616409565b90505f82015167ffffffffffffffff81111561854e5761854d616423565b5b61855a8482850161803a565b5f83015250602061856d848285016184e8565b602083015250604061858184828501618299565b604083015250606061859584828501618299565b60608301525060806185a9848285016184fc565b60808301525092915050565b5f602082840312156185ca576185c961619e565b5b5f82015167ffffffffffffffff8111156185e7576185e66161a2565b5b6185f384828501618510565b91505092915050565b5f60408201905061860f5f830185617cd8565b61861c6020830184616db9565b9392505050565b61862c81616edf565b8114618636575f5ffd5b50565b5f8151905061864781618623565b92915050565b5f60a0828403121561866257618661616397565b5b61866c60a0616409565b90505f61867b84828501618639565b5f83015250602061868e84828501617d0e565b60208301525060406186a284828501618639565b60408301525060606186b6848285016184e8565b60608301525060806186ca848285016184fc565b60808301525092915050565b5f60a082840312156186eb576186ea61619e565b5b5f6186f88482850161864d565b91505092915050565b5f602082840312156187165761871561619e565b5b5f618723848285016184fc565b91505092915050565b5f6080828403121561874157618740616397565b5b61874b6080616409565b90505f61875a84828501617d0e565b5f83015250602061876d84828501617d0e565b602083015250604061878184828501617d0e565b604083015250606061879584828501617d0e565b60608301525092915050565b5f608082840312156187b6576187b561619e565b5b5f6187c38482850161872c565b91505092915050565b5f6187d682616edf565b91506187e183616edf565b925082820190507fffffffffffffffffffffffffffffffffffffffffffffffff80000000000000008112677fffffffffffffff821317156188255761882461766f565b5b92915050565b5f81519050919050565b5f81905092915050565b5f6188498261882b565b6188538185618835565b9350618863818560208601616b96565b80840191505092915050565b5f61887a828461883f565b915081905092915050565b5f6020828403121561889a5761889961619e565b5b5f82015167ffffffffffffffff8111156188b7576188b66161a2565b5b6188c38482850161803a565b91505092915050565b5f82825260208201905092915050565b5f6188e68261882b565b6188f081856188cc565b9350618900818560208601616b96565b6189098161639b565b840191505092915050565b5f6020820190508181035f83015261892c81846188dc565b905092915050565b7f5b7b22746f223a22000000000000000000000000000000000000000000000000815250565b5f81905092915050565b5f61896e82616b7c565b618978818561895a565b9350618988818560208601616b96565b80840191505092915050565b7f222c2264617461223a2200000000000000000000000000000000000000000000815250565b7f227d2c226c6174657374225d0000000000000000000000000000000000000000815250565b5f6189ea82618934565b6008820191506189fa8285618964565b9150618a0582618994565b600a82019150618a158284618964565b9150618a20826189ba565b600c820191508190509392505050565b7f3078000000000000000000000000000000000000000000000000000000000000815250565b5f618a6082618a30565b600282019150618a708284618964565b915081905092915050565b7f227d2c2200000000000000000000000000000000000000000000000000000000815250565b7f225d000000000000000000000000000000000000000000000000000000000000815250565b5f618ad182618934565b600882019150618ae18286618964565b9150618aec82618994565b600a82019150618afc8285618964565b9150618b0782618a7b565b600482019150618b178284618964565b9150618b2282618aa1565b600282019150819050949350505050565b7f6574685f63616c6c0000000000000000000000000000000000000000000000005f82015250565b5f618b67600883617b88565b9150618b7282618b33565b602082019050919050565b5f618b8782616b7c565b618b918185617b88565b9350618ba1818560208601616b96565b618baa8161639b565b840191505092915050565b5f6040820190508181035f830152618bcc81618b5b565b90508181036020830152618be08184618b7d565b905092915050565b5f67ffffffffffffffff821115618c0257618c016163ab565b5b618c0b8261639b565b9050602081019050919050565b5f618c2a618c2584618be8565b616409565b905082815260208101848484011115618c4657618c4561642b565b5b618c51848285616b96565b509392505050565b5f82601f830112618c6d57618c6c616427565b5b8151618c7d848260208601618c18565b91505092915050565b5f60208284031215618c9b57618c9a61619e565b5b5f82015167ffffffffffffffff811115618cb857618cb76161a2565b5b618cc484828501618c59565b91505092915050565b5f604082019050618ce05f830185617e11565b618ced6020830184617cd8565b9392505050565b5f60808284031215618d0957618d08616397565b5b618d136080616409565b90505f618d2284828501618639565b5f830152506020618d3584828501617d0e565b6020830152506040618d4984828501617d0e565b6040830152506060618d5d84828501618639565b60608301525092915050565b5f60808284031215618d7e57618d7d61619e565b5b5f618d8b84828501618cf4565b91505092915050565b5f819050919050565b5f618db7618db2618dad84618d94565b617463565b6169b8565b9050919050565b618dc781618d9d565b82525050565b5f604082019050618de05f830185618dbe565b618ded602083018461728b565b9392505050565b5f60208284031215618e0957618e08616397565b5b618e136020616409565b90505f618e22848285016184fc565b5f8301525092915050565b5f60208284031215618e4257618e4161619e565b5b5f618e4f84828501618df4565b91505092915050565b618e6181617282565b8114618e6b575f5ffd5b50565b5f81519050618e7c81618e58565b92915050565b5f60208284031215618e9757618e9661619e565b5b5f618ea484828501618e6e565b91505092915050565b5f618eb782617282565b91507fffffffffffffffffffffffffffffffffffffffffffffffffffffffffffffffff8203618ee957618ee861766f565b5b600182019050919050565b5f618efe82617282565b9150618f0983617282565b925082618f1957618f1861793e565b5b828206905092915050565b5f618f2e826169b8565b9150618f39836169b8565b9250828201905060ff811115618f5257618f5161766f565b5b92915050565b5f618f62826169b8565b9150618f6d836169b8565b9250828203905060ff811115618f8657618f8561766f565b5b9291505056fea264697066735822122095f83dfc605ac3b76f148ed5113afb3bd592d90b8e85de1d947883103fa8997564736f6c63430008210033","linkReferences":{}},"methodIdentifiers":{"FEE_DENOMINATOR()":"d73792a9","HYPE_TOKEN_INDEX()":"faf2773a","USDC_TOKEN_INDEX()":"5e3dcdab","coreUserExists(address)":"9dbfb13f","forceAccountActivation(address)":"0810bf02","forceDelegation(address,address,uint64,uint64)":"71291d1b","forcePerpBalance(address,uint64)":"ff1e91b5","forcePerpPositionLeverage(address,uint16,uint32)":"1246b2e6","forceSpotBalance(address,uint64,uint64)":"08c61686","forceStakingBalance(address,uint64)":"08dda1da","forceVaultEquity(address,address,uint64,uint64)":"7fa69383","perpMakerFee()":"dfefb2e2","readAccountMarginSummary(uint16,address)":"f0f30167","readDelegations(address)":"1db9707c","readDelegatorSummary(address)":"cfdc2694","readMarkPx(uint32)":"e2e85831","readOraclePx(uint32)":"106b7799","readPerpAssetInfo(uint32)":"97bc0e94","readPerpBalance(address)":"507a97c3","readPosition(address,uint16)":"97fba546","readSpotBalance(address,uint64)":"012755c2","readSpotInfo(uint32)":"48bb769b","readSpotPx(uint32)":"99c9189d","readTokenInfo(uint32)":"b4fcd37c","readUserVaultEquity(address,address)":"180ed246","readWithdrawable(address)":"68ba8652","registerPerpAssetInfo(uint16,(string,uint32,uint8,uint8,bool))":"9898728c","registerSpotInfo(uint32,(string,uint64[2]))":"0dcb1548","registerTokenInfo(uint64)":"554e1108","registerTokenInfo(uint64,(string,uint64[],uint64,address,address,uint8,uint8,int8))":"32480ac9","registerValidator(address)":"9fca5169","setPerpMakerFee(uint16)":"97fdd86a","setSpotMakerFee(uint16)":"629138f4","setUseRealL1Read(bool)":"fe95987c","spotMakerFee()":"915711ba","tokenExists(uint32)":"2f9c29a2","useRealL1Read()":"7ea558c8"},"id":55}