{"abi":[{"type":"function","name":"FEE_DENOMINATOR","inputs":[],"outputs":[{"name":"","type":"uint256","internalType":"uint256"}],"stateMutability":"view"},{"type":"function","name":"HYPE_TOKEN_INDEX","inputs":[],"outputs":[{"name":"","type":"uint64","internalType":"uint64"}],"stateMutability":"view"},{"type":"function","name":"USDC_TOKEN_INDEX","inputs":[],"outputs":[{"name":"","type":"uint64","internalType":"uint64"}],"stateMutability":"view"},{"type":"function","name":"_getMaxLeverage","inputs":[{"name":"perpIndex","type":"uint16","internalType":"uint16"}],"outputs":[{"name":"","type":"uint32","internalType":"uint32"}],"stateMutability":"view"},{"type":"function","name":"_liquidateUser","inputs":[{"name":"user","type":"address","internalType":"address"}],"outputs":[],"stateMutability":"nonpayable"},{"type":"function","name":"coreUserExists","inputs":[{"name":"account","type":"address","internalType":"address"}],"outputs":[{"name":"","type":"bool","internalType":"bool"}],"stateMutability":"nonpayable"},{"type":"function","name":"executeNativeTransfer","inputs":[{"name":"","type":"address","internalType":"address"},{"name":"from","type":"address","internalType":"address"},{"name":"value","type":"uint256","internalType":"uint256"}],"outputs":[],"stateMutability":"payable"},{"type":"function","name":"executePerpLimitOrder","inputs":[{"name":"sender","type":"address","internalType":"address"},{"name":"action","type":"tuple","internalType":"struct CoreState.LimitOrderAction","components":[{"name":"asset","type":"uint32","internalType":"uint32"},{"name":"isBuy","type":"bool","internalType":"bool"},{"name":"limitPx","type":"uint64","internalType":"uint64"},{"name":"sz","type":"uint64","internalType":"uint64"},{"name":"reduceOnly","type":"bool","internalType":"bool"},{"name":"encodedTif","type":"uint8","internalType":"uint8"},{"name":"cloid","type":"uint128","internalType":"uint128"}]}],"outputs":[],"stateMutability":"nonpayable"},{"type":"function","name":"executeSpotLimitOrder","inputs":[{"name":"sender","type":"address","internalType":"address"},{"name":"action","type":"tuple","internalType":"struct CoreState.LimitOrderAction","components":[{"name":"asset","type":"uint32","internalType":"uint32"},{"name":"isBuy","type":"bool","internalType":"bool"},{"name":"limitPx","type":"uint64","internalType":"uint64"},{"name":"sz","type":"uint64","internalType":"uint64"},{"name":"reduceOnly","type":"bool","internalType":"bool"},{"name":"encodedTif","type":"uint8","internalType":"uint8"},{"name":"cloid","type":"uint128","internalType":"uint128"}]}],"outputs":[],"stateMutability":"nonpayable"},{"type":"function","name":"executeSpotSend","inputs":[{"name":"sender","type":"address","internalType":"address"},{"name":"action","type":"tuple","internalType":"struct CoreState.SpotSendAction","components":[{"name":"destination","type":"address","internalType":"address"},{"name":"token","type":"uint64","internalType":"uint64"},{"name":"_wei","type":"uint64","internalType":"uint64"}]}],"outputs":[],"stateMutability":"nonpayable"},{"type":"function","name":"executeStakingDeposit","inputs":[{"name":"sender","type":"address","internalType":"address"},{"name":"action","type":"tuple","internalType":"struct CoreState.StakingDepositAction","components":[{"name":"_wei","type":"uint64","internalType":"uint64"}]}],"outputs":[],"stateMutability":"nonpayable"},{"type":"function","name":"executeStakingWithdraw","inputs":[{"name":"sender","type":"address","internalType":"address"},{"name":"action","type":"tuple","internalType":"struct CoreState.StakingWithdrawAction","components":[{"name":"_wei","type":"uint64","internalType":"uint64"}]}],"outputs":[],"stateMutability":"nonpayable"},{"type":"function","name":"executeTokenDelegate","inputs":[{"name":"sender","type":"address","internalType":"address"},{"name":"action","type":"tuple","internalType":"struct CoreState.TokenDelegateAction","components":[{"name":"validator","type":"address","internalType":"address"},{"name":"_wei","type":"uint64","internalType":"uint64"},{"name":"isUndelegate","type":"bool","internalType":"bool"}]}],"outputs":[],"stateMutability":"nonpayable"},{"type":"function","name":"executeTokenTransfer","inputs":[{"name":"","type":"address","internalType":"address"},{"name":"token","type":"uint64","internalType":"uint64"},{"name":"from","type":"address","internalType":"address"},{"name":"value","type":"uint256","internalType":"uint256"}],"outputs":[],"stateMutability":"payable"},{"type":"function","name":"executeUsdClassTransfer","inputs":[{"name":"sender","type":"address","internalType":"address"},{"name":"action","type":"tuple","internalType":"struct CoreState.UsdClassTransferAction","components":[{"name":"ntl","type":"uint64","internalType":"uint64"},{"name":"toPerp","type":"bool","internalType":"bool"}]}],"outputs":[],"stateMutability":"nonpayable"},{"type":"function","name":"executeVaultTransfer","inputs":[{"name":"sender","type":"address","internalType":"address"},{"name":"action","type":"tuple","internalType":"struct CoreState.VaultTransferAction","components":[{"name":"vault","type":"address","internalType":"address"},{"name":"isDeposit","type":"bool","internalType":"bool"},{"name":"usd","type":"uint64","internalType":"uint64"}]}],"outputs":[],"stateMutability":"nonpayable"},{"type":"function","name":"forceAccountActivation","inputs":[{"name":"account","type":"address","internalType":"address"}],"outputs":[],"stateMutability":"nonpayable"},{"type":"function","name":"forceDelegation","inputs":[{"name":"account","type":"address","internalType":"address"},{"name":"validator","type":"address","internalType":"address"},{"name":"amount","type":"uint64","internalType":"uint64"},{"name":"lockedUntilTimestamp","type":"uint64","internalType":"uint64"}],"outputs":[],"stateMutability":"nonpayable"},{"type":"function","name":"forcePerpBalance","inputs":[{"name":"account","type":"address","internalType":"address"},{"name":"usd","type":"uint64","internalType":"uint64"}],"outputs":[],"stateMutability":"payable"},{"type":"function","name":"forcePerpPositionLeverage","inputs":[{"name":"account","type":"address","internalType":"address"},{"name":"perp","type":"uint16","internalType":"uint16"},{"name":"leverage","type":"uint32","internalType":"uint32"}],"outputs":[],"stateMutability":"payable"},{"type":"function","name":"forceSpotBalance","inputs":[{"name":"account","type":"address","internalType":"address"},{"name":"token","type":"uint64","internalType":"uint64"},{"name":"_wei","type":"uint64","internalType":"uint64"}],"outputs":[],"stateMutability":"payable"},{"type":"function","name":"forceStakingBalance","inputs":[{"name":"account","type":"address","internalType":"address"},{"name":"_wei","type":"uint64","internalType":"uint64"}],"outputs":[],"stateMutability":"payable"},{"type":"function","name":"forceVaultEquity","inputs":[{"name":"account","type":"address","internalType":"address"},{"name":"vault","type":"address","internalType":"address"},{"name":"usd","type":"uint64","internalType":"uint64"},{"name":"lockedUntilTimestamp","type":"uint64","internalType":"uint64"}],"outputs":[],"stateMutability":"payable"},{"type":"function","name":"isLiquidatable","inputs":[{"name":"user","type":"address","internalType":"address"}],"outputs":[{"name":"","type":"bool","internalType":"bool"}],"stateMutability":"nonpayable"},{"type":"function","name":"liquidatePositions","inputs":[],"outputs":[],"stateMutability":"nonpayable"},{"type":"function","name":"perpMakerFee","inputs":[],"outputs":[{"name":"","type":"uint16","internalType":"uint16"}],"stateMutability":"view"},{"type":"function","name":"processPendingOrders","inputs":[],"outputs":[],"stateMutability":"nonpayable"},{"type":"function","name":"readAccountMarginSummary","inputs":[{"name":"perp_dex_index","type":"uint16","internalType":"uint16"},{"name":"user","type":"address","internalType":"address"}],"outputs":[{"name":"","type":"tuple","internalType":"struct PrecompileLib.AccountMarginSummary","components":[{"name":"accountValue","type":"int64","internalType":"int64"},{"name":"marginUsed","type":"uint64","internalType":"uint64"},{"name":"ntlPos","type":"uint64","internalType":"uint64"},{"name":"rawUsd","type":"int64","internalType":"int64"}]}],"stateMutability":"nonpayable"},{"type":"function","name":"readDelegations","inputs":[{"name":"user","type":"address","internalType":"address"}],"outputs":[{"name":"userDelegations","type":"tuple[]","internalType":"struct PrecompileLib.Delegation[]","components":[{"name":"validator","type":"address","internalType":"address"},{"name":"amount","type":"uint64","internalType":"uint64"},{"name":"lockedUntilTimestamp","type":"uint64","internalType":"uint64"}]}],"stateMutability":"nonpayable"},{"type":"function","name":"readDelegatorSummary","inputs":[{"name":"user","type":"address","internalType":"address"}],"outputs":[{"name":"summary","type":"tuple","internalType":"struct PrecompileLib.DelegatorSummary","components":[{"name":"delegated","type":"uint64","internalType":"uint64"},{"name":"undelegated","type":"uint64","internalType":"uint64"},{"name":"totalPendingWithdrawal","type":"uint64","internalType":"uint64"},{"name":"nPendingWithdrawals","type":"uint64","internalType":"uint64"}]}],"stateMutability":"nonpayable"},{"type":"function","name":"readMarkPx","inputs":[{"name":"perp","type":"uint32","internalType":"uint32"}],"outputs":[{"name":"","type":"uint64","internalType":"uint64"}],"stateMutability":"nonpayable"},{"type":"function","name":"readOraclePx","inputs":[{"name":"perp","type":"uint32","internalType":"uint32"}],"outputs":[{"name":"","type":"uint64","internalType":"uint64"}],"stateMutability":"nonpayable"},{"type":"function","name":"readPerpAssetInfo","inputs":[{"name":"perp","type":"uint32","internalType":"uint32"}],"outputs":[{"name":"","type":"tuple","internalType":"struct PrecompileLib.PerpAssetInfo","components":[{"name":"coin","type":"string","internalType":"string"},{"name":"marginTableId","type":"uint32","internalType":"uint32"},{"name":"szDecimals","type":"uint8","internalType":"uint8"},{"name":"maxLeverage","type":"uint8","internalType":"uint8"},{"name":"onlyIsolated","type":"bool","internalType":"bool"}]}],"stateMutability":"nonpayable"},{"type":"function","name":"readPerpBalance","inputs":[{"name":"account","type":"address","internalType":"address"}],"outputs":[{"name":"","type":"uint64","internalType":"uint64"}],"stateMutability":"nonpayable"},{"type":"function","name":"readPosition","inputs":[{"name":"user","type":"address","internalType":"address"},{"name":"perp","type":"uint16","internalType":"uint16"}],"outputs":[{"name":"","type":"tuple","internalType":"struct PrecompileLib.Position","components":[{"name":"szi","type":"int64","internalType":"int64"},{"name":"entryNtl","type":"uint64","internalType":"uint64"},{"name":"isolatedRawUsd","type":"int64","internalType":"int64"},{"name":"leverage","type":"uint32","internalType":"uint32"},{"name":"isIsolated","type":"bool","internalType":"bool"}]}],"stateMutability":"nonpayable"},{"type":"function","name":"readSpotBalance","inputs":[{"name":"account","type":"address","internalType":"address"},{"name":"token","type":"uint64","internalType":"uint64"}],"outputs":[{"name":"","type":"tuple","internalType":"struct PrecompileLib.SpotBalance","components":[{"name":"total","type":"uint64","internalType":"uint64"},{"name":"hold","type":"uint64","internalType":"uint64"},{"name":"entryNtl","type":"uint64","internalType":"uint64"}]}],"stateMutability":"nonpayable"},{"type":"function","name":"readSpotInfo","inputs":[{"name":"spotMarketId","type":"uint32","internalType":"uint32"}],"outputs":[{"name":"","type":"tuple","internalType":"struct PrecompileLib.SpotInfo","components":[{"name":"name","type":"string","internalType":"string"},{"name":"tokens","type":"uint64[2]","internalType":"uint64[2]"}]}],"stateMutability":"nonpayable"},{"type":"function","name":"readSpotPx","inputs":[{"name":"spotMarketId","type":"uint32","internalType":"uint32"}],"outputs":[{"name":"","type":"uint64","internalType":"uint64"}],"stateMutability":"nonpayable"},{"type":"function","name":"readTokenInfo","inputs":[{"name":"token","type":"uint32","internalType":"uint32"}],"outputs":[{"name":"","type":"tuple","internalType":"struct PrecompileLib.TokenInfo","components":[{"name":"name","type":"string","internalType":"string"},{"name":"spots","type":"uint64[]","internalType":"uint64[]"},{"name":"deployerTradingFeeShare","type":"uint64","internalType":"uint64"},{"name":"deployer","type":"address","internalType":"address"},{"name":"evmContract","type":"address","internalType":"address"},{"name":"szDecimals","type":"uint8","internalType":"uint8"},{"name":"weiDecimals","type":"uint8","internalType":"uint8"},{"name":"evmExtraWeiDecimals","type":"int8","internalType":"int8"}]}],"stateMutability":"nonpayable"},{"type":"function","name":"readUserVaultEquity","inputs":[{"name":"user","type":"address","internalType":"address"},{"name":"vault","type":"address","internalType":"address"}],"outputs":[{"name":"","type":"tuple","internalType":"struct PrecompileLib.UserVaultEquity","components":[{"name":"equity","type":"uint64","internalType":"uint64"},{"name":"lockedUntilTimestamp","type":"uint64","internalType":"uint64"}]}],"stateMutability":"view"},{"type":"function","name":"readWithdrawable","inputs":[{"name":"account","type":"address","internalType":"address"}],"outputs":[{"name":"","type":"tuple","internalType":"struct PrecompileLib.Withdrawable","components":[{"name":"withdrawable","type":"uint64","internalType":"uint64"}]}],"stateMutability":"nonpayable"},{"type":"function","name":"registerPerpAssetInfo","inputs":[{"name":"perpIndex","type":"uint16","internalType":"uint16"},{"name":"perpAssetInfo","type":"tuple","internalType":"struct PrecompileLib.PerpAssetInfo","components":[{"name":"coin","type":"string","internalType":"string"},{"name":"marginTableId","type":"uint32","internalType":"uint32"},{"name":"szDecimals","type":"uint8","internalType":"uint8"},{"name":"maxLeverage","type":"uint8","internalType":"uint8"},{"name":"onlyIsolated","type":"bool","internalType":"bool"}]}],"outputs":[],"stateMutability":"nonpayable"},{"type":"function","name":"registerSpotInfo","inputs":[{"name":"spotIndex","type":"uint32","internalType":"uint32"},{"name":"spotInfo","type":"tuple","internalType":"struct PrecompileLib.SpotInfo","components":[{"name":"name","type":"string","internalType":"string"},{"name":"tokens","type":"uint64[2]","internalType":"uint64[2]"}]}],"outputs":[],"stateMutability":"nonpayable"},{"type":"function","name":"registerTokenInfo","inputs":[{"name":"index","type":"uint64","internalType":"uint64"},{"name":"tokenInfo","type":"tuple","internalType":"struct PrecompileLib.TokenInfo","components":[{"name":"name","type":"string","internalType":"string"},{"name":"spots","type":"uint64[]","internalType":"uint64[]"},{"name":"deployerTradingFeeShare","type":"uint64","internalType":"uint64"},{"name":"deployer","type":"address","internalType":"address"},{"name":"evmContract","type":"address","internalType":"address"},{"name":"szDecimals","type":"uint8","internalType":"uint8"},{"name":"weiDecimals","type":"uint8","internalType":"uint8"},{"name":"evmExtraWeiDecimals","type":"int8","internalType":"int8"}]}],"outputs":[],"stateMutability":"nonpayable"},{"type":"function","name":"registerTokenInfo","inputs":[{"name":"index","type":"uint64","internalType":"uint64"}],"outputs":[],"stateMutability":"nonpayable"},{"type":"function","name":"registerValidator","inputs":[{"name":"validator","type":"address","internalType":"address"}],"outputs":[],"stateMutability":"nonpayable"},{"type":"function","name":"setMarkPx","inputs":[{"name":"perp","type":"uint32","internalType":"uint32"},{"name":"priceDiffBps","type":"uint64","internalType":"uint64"},{"name":"isIncrease","type":"bool","internalType":"bool"}],"outputs":[],"stateMutability":"nonpayable"},{"type":"function","name":"setMarkPx","inputs":[{"name":"perp","type":"uint32","internalType":"uint32"},{"name":"markPx","type":"uint64","internalType":"uint64"}],"outputs":[],"stateMutability":"nonpayable"},{"type":"function","name":"setPerpMakerFee","inputs":[{"name":"bps","type":"uint16","internalType":"uint16"}],"outputs":[],"stateMutability":"nonpayable"},{"type":"function","name":"setSpotMakerFee","inputs":[{"name":"bps","type":"uint16","internalType":"uint16"}],"outputs":[],"stateMutability":"nonpayable"},{"type":"function","name":"setSpotPx","inputs":[{"name":"spotMarketId","type":"uint32","internalType":"uint32"},{"name":"spotPx","type":"uint64","internalType":"uint64"}],"outputs":[],"stateMutability":"nonpayable"},{"type":"function","name":"setSpotPx","inputs":[{"name":"spotMarketId","type":"uint32","internalType":"uint32"},{"name":"priceDiffBps","type":"uint64","internalType":"uint64"},{"name":"isIncrease","type":"bool","internalType":"bool"}],"outputs":[],"stateMutability":"nonpayable"},{"type":"function","name":"setStakingYieldIndex","inputs":[{"name":"multiplier","type":"uint256","internalType":"uint256"}],"outputs":[],"stateMutability":"nonpayable"},{"type":"function","name":"setUseRealL1Read","inputs":[{"name":"_useRealL1Read","type":"bool","internalType":"bool"}],"outputs":[],"stateMutability":"nonpayable"},{"type":"function","name":"setVaultMultiplier","inputs":[{"name":"vault","type":"address","internalType":"address"},{"name":"multiplier","type":"uint256","internalType":"uint256"}],"outputs":[],"stateMutability":"nonpayable"},{"type":"function","name":"spotMakerFee","inputs":[],"outputs":[{"name":"","type":"uint16","internalType":"uint16"}],"stateMutability":"view"},{"type":"function","name":"tokenExists","inputs":[{"name":"token","type":"uint32","internalType":"uint32"}],"outputs":[{"name":"","type":"bool","internalType":"bool"}],"stateMutability":"view"},{"type":"function","name":"useRealL1Read","inputs":[],"outputs":[{"name":"","type":"bool","internalType":"bool"}],"stateMutability":"view"},{"type":"event","name":"SlotFound","inputs":[{"name":"who","type":"address","indexed":false,"internalType":"address"},{"name":"fsig","type":"bytes4","indexed":false,"internalType":"bytes4"},{"name":"keysHash","type":"bytes32","indexed":false,"internalType":"bytes32"},{"name":"slot","type":"uint256","indexed":false,"internalType":"uint256"}],"anonymous":false},{"type":"event","name":"WARNING_UninitedSlot","inputs":[{"name":"who","type":"address","indexed":false,"internalType":"address"},{"name":"slot","type":"uint256","indexed":false,"internalType":"uint256"}],"anonymous":false},{"type":"error","name":"PrecompileLib__AccountMarginSummaryPrecompileFailed","inputs":[]},{"type":"error","name":"PrecompileLib__CoreUserExistsPrecompileFailed","inputs":[]},{"type":"error","name":"PrecompileLib__DelegationsPrecompileFailed","inputs":[]},{"type":"error","name":"PrecompileLib__DelegatorSummaryPrecompileFailed","inputs":[]},{"type":"error","name":"PrecompileLib__MarkPxPrecompileFailed","inputs":[]},{"type":"error","name":"PrecompileLib__OraclePxPrecompileFailed","inputs":[]},{"type":"error","name":"PrecompileLib__PerpAssetInfoPrecompileFailed","inputs":[]},{"type":"error","name":"PrecompileLib__PositionPrecompileFailed","inputs":[]},{"type":"error","name":"PrecompileLib__SpotBalancePrecompileFailed","inputs":[]},{"type":"error","name":"PrecompileLib__SpotInfoPrecompileFailed","inputs":[]},{"type":"error","name":"PrecompileLib__SpotPxPrecompileFailed","inputs":[]},{"type":"error","name":"PrecompileLib__TokenInfoPrecompileFailed","inputs":[]},{"type":"error","name":"PrecompileLib__VaultEquityPrecompileFailed","inputs":[]},{"type":"error","name":"PrecompileLib__WithdrawablePrecompileFailed","inputs":[]},{"type":"error","name":"SafeCastOverflowedUintDowncast","inputs":[{"name":"bits","type":"uint8","internalType":"uint8"},{"name":"value","type":"uint256","internalType":"uint256"}]},{"type":"error","name":"SafeERC20FailedOperation","inputs":[{"name":"token","type":"address","internalType":"address"}]}],"bytecode":{"object":"0x60a060405234801561000f575f5ffd5b5061001e61003e60201b60201c565b67ffffffffffffffff1660808167ffffffffffffffff168152505061005c565b5f6103e6461461004f576096610053565b6104515b61ffff16905090565b60805162015408620000af5f395f8181613f87015281816140e2015281816141ce015281816145a301528181615c3201528181615d7701528181615e300152818161677a01526180d20152620154085ff3fe608060405260043610620003d9575f3560e01c80637fa6938311620001fe578063c126d047116200011a578063e2e8583111620000ae578063f0f301671162000078578063f0f301671462000e65578063faf2773a1462000ea8578063fe95987c1462000ed7578063ff1e91b51462000f0457620003d9565b8063e2e858311462000da8578063ea32ee881462000deb578063eb03dd6b1462000e18578063ec1e4e011462000e3857620003d9565b8063d73792a911620000f0578063d73792a91462000d04578063db2d1cb51462000d33578063db40297c1462000d60578063dfefb2e21462000d7957620003d9565b8063c126d0471462000c67578063ccd9349c1462000c94578063cfdc26941462000cc157620003d9565b80639898728c11620001925780639c93e15911620001685780639c93e1591462000b875780639dbfb13f1462000bb45780639fca51691462000bf7578063b4fcd37c1462000c2457620003d9565b80639898728c1462000aea57806399c9189d1462000b175780639a6538b41462000b5a57620003d9565b806394a0b77111620001d457806394a0b7711462000a0a57806397bc0e941462000a3757806397fba5461462000a7a57806397fdd86a1462000abd57620003d9565b80637fa69383146200098e5780638dca414d14620009ae578063915711ba14620009db57620003d9565b806335c4a8b111620002fa5780636040b052116200028e57806368ba8652116200025857806368ba865214620008cf57806371291d1b1462000912578063757428fb146200093f5780637ea558c8146200095f57620003d9565b80636040b052146200082f5780636272f20a146200085c578063629138f414620008895780636780a7d414620008b657620003d9565b8063507a97c311620002d0578063507a97c31462000763578063554e110814620007a657806355784c5114620007d35780635e3dcdab146200080057620003d9565b806335c4a8b114620006b057806336d92dc614620006dd57806348bb769b146200072057620003d9565b80631246b2e611620003725780631db9707c11620003485780631db9707c14620005d0578063233cc86a14620006135780632f9c29a2146200064057806332480ac9146200068357620003d9565b80631246b2e61462000540578063132ce2d61462000560578063180ed246146200058d57620003d9565b806308c6168611620003b457806308c61686146200049057806308dda1da14620004b05780630dcb154814620004d0578063106b779914620004fd57620003d9565b8063012755c214620003dd578063042e02cf14620004205780630810bf021462000463575b5f5ffd5b348015620003e9575f5ffd5b5062000408600480360381019062000402919062010893565b62000f24565b6040516200041791906201092f565b60405180910390f35b3480156200042c575f5ffd5b506200044b60048036038101906200044591906201094a565b6200108c565b6040516200045a919062010996565b60405180910390f35b3480156200046f575f5ffd5b506200048e60048036038101906200048891906201094a565b62001498565b005b620004ae6004803603810190620004a89190620109b1565b620014ff565b005b620004ce6004803603810190620004c8919062010893565b62001680565b005b348015620004dc575f5ffd5b50620004fb6004803603810190620004f5919062010ce2565b620016f5565b005b34801562000509575f5ffd5b5062000528600480360381019062000522919062010d46565b62001748565b60405162000537919062010d87565b60405180910390f35b6200055e600480360381019062000558919062010dde565b620017f1565b005b3480156200056c575f5ffd5b506200058b600480360381019062000585919062010faf565b6200194c565b005b34801562000599575f5ffd5b50620005b86004803603810190620005b2919062010ff5565b62001e76565b604051620005c791906201106b565b60405180910390f35b348015620005dc575f5ffd5b50620005fb6004803603810190620005f591906201094a565b62002167565b6040516200060a919062011193565b60405180910390f35b3480156200061f575f5ffd5b506200063e6004803603810190620006389190620111b5565b6200247b565b005b3480156200064c575f5ffd5b506200066b600480360381019062000665919062010d46565b62002579565b6040516200067a919062010996565b60405180910390f35b3480156200068f575f5ffd5b50620006ae6004803603810190620006a8919062011435565b620025b5565b005b348015620006bc575f5ffd5b50620006db6004803603810190620006d5919062011505565b62002730565b005b348015620006e9575f5ffd5b506200070860048036038101906200070291906201154a565b6200335c565b6040516200071791906201158b565b60405180910390f35b3480156200072c575f5ffd5b506200074b600480360381019062000745919062010d46565b62003393565b6040516200075a9190620116f0565b60405180910390f35b3480156200076f575f5ffd5b506200078e60048036038101906200078891906201094a565b62003540565b6040516200079d919062010d87565b60405180910390f35b348015620007b2575f5ffd5b50620007d16004803603810190620007cb919062011712565b62003621565b005b348015620007df575f5ffd5b50620007fe6004803603810190620007f891906201177a565b620038b0565b005b3480156200080c575f5ffd5b5062000817620038f6565b60405162000826919062010d87565b60405180910390f35b3480156200083b575f5ffd5b506200085a600480360381019062000854919062010faf565b620038fa565b005b34801562000868575f5ffd5b50620008876004803603810190620008819190620117bf565b62003c0d565b005b34801562000895575f5ffd5b50620008b46004803603810190620008ae91906201154a565b62003c54565b005b348015620008c2575f5ffd5b50620008cd62003cc0565b005b348015620008db575f5ffd5b50620008fa6004803603810190620008f491906201094a565b62003d57565b60405162000909919062011820565b60405180910390f35b3480156200091e575f5ffd5b506200093d60048036038101906200093791906201183b565b62003e10565b005b6200095d6004803603810190620009579190620118aa565b62003f84565b005b3480156200096b575f5ffd5b50620009766200425f565b60405162000985919062010996565b60405180910390f35b620009ac6004803603810190620009a691906201183b565b62004272565b005b348015620009ba575f5ffd5b50620009d96004803603810190620009d391906201196f565b620045a0565b005b348015620009e7575f5ffd5b50620009f262004d86565b60405162000a019190620119c5565b60405180910390f35b34801562000a16575f5ffd5b5062000a35600480360381019062000a2f9190620117bf565b62004d99565b005b34801562000a43575f5ffd5b5062000a62600480360381019062000a5c919062010d46565b62004de0565b60405162000a71919062011a90565b60405180910390f35b34801562000a86575f5ffd5b5062000aa5600480360381019062000a9f919062011ab2565b62004f8d565b60405162000ab4919062011b84565b60405180910390f35b34801562000ac9575f5ffd5b5062000ae8600480360381019062000ae291906201154a565b6200512e565b005b34801562000af6575f5ffd5b5062000b15600480360381019062000b0f919062011c56565b6200519b565b005b34801562000b23575f5ffd5b5062000b42600480360381019062000b3c919062010d46565b6200525c565b60405162000b51919062010d87565b60405180910390f35b34801562000b66575f5ffd5b5062000b85600480360381019062000b7f919062011d26565b62005305565b005b34801562000b93575f5ffd5b5062000bb2600480360381019062000bac919062011dab565b62005c2f565b005b34801562000bc0575f5ffd5b5062000bdf600480360381019062000bd991906201094a565b62005f4f565b60405162000bee919062010996565b60405180910390f35b34801562000c03575f5ffd5b5062000c22600480360381019062000c1c91906201094a565b62006028565b005b34801562000c30575f5ffd5b5062000c4f600480360381019062000c49919062010d46565b62006042565b60405162000c5e919062011f62565b60405180910390f35b34801562000c73575f5ffd5b5062000c92600480360381019062000c8c919062011f84565b620063be565b005b34801562000ca0575f5ffd5b5062000cbf600480360381019062000cb99190620111b5565b620063c8565b005b34801562000ccd575f5ffd5b5062000cec600480360381019062000ce691906201094a565b620064c6565b60405162000cfb91906201200f565b60405180910390f35b34801562000d10575f5ffd5b5062000d1b62006770565b60405162000d2a91906201203b565b60405180910390f35b34801562000d3f575f5ffd5b5062000d5e600480360381019062000d58919062012096565b62006777565b005b34801562000d6c575f5ffd5b5062000d7762006a5f565b005b34801562000d85575f5ffd5b5062000d90620072ed565b60405162000d9f9190620119c5565b60405180910390f35b34801562000db4575f5ffd5b5062000dd3600480360381019062000dcd919062010d46565b62007301565b60405162000de2919062010d87565b60405180910390f35b34801562000df7575f5ffd5b5062000e16600480360381019062000e10919062012131565b620073aa565b005b62000e36600480360381019062000e30919062012176565b6200784a565b005b34801562000e44575f5ffd5b5062000e63600480360381019062000e5d91906201094a565b62007d7b565b005b34801562000e71575f5ffd5b5062000e90600480360381019062000e8a9190620121e5565b620080b3565b60405162000e9f919062012285565b60405180910390f35b34801562000eb4575f5ffd5b5062000ebf620080d0565b60405162000ece919062010d87565b60405180910390f35b34801562000ee3575f5ffd5b5062000f02600480360381019062000efc9190620122a0565b620080f4565b005b62000f22600480360381019062000f1c919062010893565b62008111565b005b62000f2e6201046e565b5f1515600f5f8573ffffffffffffffffffffffffffffffffffffffff1673ffffffffffffffffffffffffffffffffffffffff1681526020019081526020015f205f8467ffffffffffffffff1667ffffffffffffffff1681526020019081526020015f205f9054906101000a900460ff16151514801562000fba5750600960049054906101000a900460ff165b1562000fd45762000fcc83836200823f565b905062001086565b6040518060600160405280600d5f8673ffffffffffffffffffffffffffffffffffffffff1673ffffffffffffffffffffffffffffffffffffffff1681526020019081526020015f206001015f8567ffffffffffffffff1667ffffffffffffffff1681526020019081526020015f205f9054906101000a900467ffffffffffffffff1667ffffffffffffffff1681526020015f67ffffffffffffffff1681526020015f67ffffffffffffffff1681525090505b92915050565b5f5f5f90505f5f90505f5f90505f5f90505f620010e560225f8973ffffffffffffffffffffffffffffffffffffffff1673ffffffffffffffffffffffffffffffffffffffff1681526020019081526020015f206200830c565b90505f8190505b5f811115620013ef575f62001155600183620011099190620122fd565b60225f8c73ffffffffffffffffffffffffffffffffffffffff1673ffffffffffffffffffffffffffffffffffffffff1681526020019081526020015f206200832190919063ffffffff16565b90505f600d5f8b73ffffffffffffffffffffffffffffffffffffffff1673ffffffffffffffffffffffffffffffffffffffff1681526020019081526020015f206008015f8361ffff1661ffff1681526020019081526020015f206040518060a00160405290815f82015f9054906101000a900460070b60070b60070b81526020015f820160089054906101000a900467ffffffffffffffff1667ffffffffffffffff1667ffffffffffffffff1681526020015f820160109054906101000a900460070b60070b60070b81526020015f820160189054906101000a900463ffffffff1663ffffffff1663ffffffff1681526020015f8201601c9054906101000a900460ff16151515158152505090505f815f015160070b14620013d7575f620012818361ffff1662007301565b90505f825f015190505f62001296826200833a565b8460200151620012a7919062012364565b90505f8184620012b891906201239b565b83620012c5919062012401565b9050808b620012d5919062012446565b9a50600d5f8f73ffffffffffffffffffffffffffffffffffffffff1673ffffffffffffffffffffffffffffffffffffffff1681526020019081526020015f206009015f8761ffff1661ffff1681526020019081526020015f205f9054906101000a900467ffffffffffffffff168a6200134f9190620124ac565b99505f846200135e856200833a565b6200136a9190620124ee565b9050808d6200137a9190620124ac565b9c505f62001388886200335c565b90505f816113886200139b919062012533565b63ffffffff1690506127108184620013b49190620124ee565b620013c0919062012364565b8c620013cd9190620124ac565b9b50505050505050505b50508080620013e6906201256a565b915050620010ec565b505f8567ffffffffffffffff160362001410575f9550505050505062001493565b5f8484600d5f8b73ffffffffffffffffffffffffffffffffffffffff1673ffffffffffffffffffffffffffffffffffffffff1681526020019081526020015f206007015f9054906101000a900467ffffffffffffffff1662001473919062012446565b6200147f919062012446565b90508260070b8160070b1296505050505050505b919050565b620014a581600162008361565b6001600d5f8373ffffffffffffffffffffffffffffffffffffffff1673ffffffffffffffffffffffffffffffffffffffff1681526020019081526020015f205f015f6101000a81548160ff02191690831515021790555050565b5f1515600d5f8573ffffffffffffffffffffffffffffffffffffffff1673ffffffffffffffffffffffffffffffffffffffff1681526020019081526020015f205f015f9054906101000a900460ff161515036200156257620015618362001498565b5b5f1515600f5f8573ffffffffffffffffffffffffffffffffffffffff1673ffffffffffffffffffffffffffffffffffffffff1681526020019081526020015f205f8467ffffffffffffffff1667ffffffffffffffff1681526020019081526020015f205f9054906101000a900460ff16151503620015f257620015e58262003621565b620015f1838362008908565b5b80600d5f8573ffffffffffffffffffffffffffffffffffffffff1673ffffffffffffffffffffffffffffffffffffffff1681526020019081526020015f206001015f8467ffffffffffffffff1667ffffffffffffffff1681526020019081526020015f205f6101000a81548167ffffffffffffffff021916908367ffffffffffffffff160217905550505050565b6200168b8262001498565b80600d5f8473ffffffffffffffffffffffffffffffffffffffff1673ffffffffffffffffffffffffffffffffffffffff1681526020019081526020015f206003015f6101000a81548167ffffffffffffffff021916908367ffffffffffffffff1602179055505050565b80600c5f8463ffffffff1663ffffffff1681526020019081526020015f205f820151815f019081620017289190620127cf565b50602082015181600101908162001740919062012a88565b509050505050565b5f5f60145f8463ffffffff1663ffffffff1681526020019081526020015f205f9054906101000a900467ffffffffffffffff1667ffffffffffffffff161480156200179f5750600960049054906101000a900460ff165b15620017b857620017b08262008a7f565b9050620017ec565b60145f8363ffffffff1663ffffffff1681526020019081526020015f205f9054906101000a900467ffffffffffffffff1690505b919050565b5f1515600d5f8573ffffffffffffffffffffffffffffffffffffffff1673ffffffffffffffffffffffffffffffffffffffff1681526020019081526020015f205f015f9054906101000a900460ff161515036200185457620018538362001498565b5b5f151560115f8573ffffffffffffffffffffffffffffffffffffffff1673ffffffffffffffffffffffffffffffffffffffff1681526020019081526020015f205f8461ffff1663ffffffff1681526020019081526020015f205f9054906101000a900460ff16151503620018cf57620018ce838362008af4565b5b80600d5f8573ffffffffffffffffffffffffffffffffffffffff1673ffffffffffffffffffffffffffffffffffffffff1681526020019081526020015f206008015f8461ffff1661ffff1681526020019081526020015f205f0160186101000a81548163ffffffff021916908363ffffffff160217905550505050565b8162001961825f015163ffffffff1662008c9f565b5f620019738263ffffffff1662008cb7565b602001515f600281106200198c576200198b62012ba5565b5b602002015190505f620019a58363ffffffff1662008cb7565b60200151600160028110620019bf57620019be62012ba5565b5b60200201519050600f5f8573ffffffffffffffffffffffffffffffffffffffff1673ffffffffffffffffffffffffffffffffffffffff1681526020019081526020015f205f8367ffffffffffffffff1667ffffffffffffffff1681526020019081526020015f205f9054906101000a900460ff1662001a505762001a438262003621565b62001a4f848362008908565b5b600f5f8573ffffffffffffffffffffffffffffffffffffffff1673ffffffffffffffffffffffffffffffffffffffff1681526020019081526020015f205f8267ffffffffffffffff1667ffffffffffffffff1681526020019081526020015f205f9054906101000a900460ff1662001ada5762001acd8162003621565b62001ad9848262008908565b5b5f62001aef865f015163ffffffff1662008c9f565b90505f62001afd8262008da8565b90505f81602001515f6002811062001b1a5762001b1962012ba5565b5b602002015190505f826020015160016002811062001b3d5762001b3c62012ba5565b5b602002015190505f600a5f8467ffffffffffffffff1667ffffffffffffffff1681526020019081526020015f2060030160149054906101000a900460ff1690505f600a5f8567ffffffffffffffff1667ffffffffffffffff1681526020019081526020015f2060030160159054906101000a900460ff1690505f62001bd083600a62001bca919062012d22565b62008e2c565b62001bdb886200525c565b62001be79190620124ee565b90505f8167ffffffffffffffff1614801562001c105750600960049054906101000a900460ff16155b1562001c53576040517f08c379a000000000000000000000000000000000000000000000000000000000815260040162001c4a9062012e1c565b60405180910390fd5b62001c5f8c8262008e8a565b1562001ca6575f8c6060015190508c602001511562001c8e5762001c888e878786868662008ee1565b62001c9f565b62001c9e8e8787868686620091e6565b5b5062001e67565b601960405180604001604052808f73ffffffffffffffffffffffffffffffffffffffff1681526020018e815250908060018154018082558091505060019003905f5260205f2090600302015f909190919091505f820151815f015f6101000a81548173ffffffffffffffffffffffffffffffffffffffff021916908373ffffffffffffffffffffffffffffffffffffffff1602179055506020820151816001015f820151815f015f6101000a81548163ffffffff021916908363ffffffff1602179055506020820151815f0160046101000a81548160ff0219169083151502179055506040820151815f0160056101000a81548167ffffffffffffffff021916908367ffffffffffffffff1602179055506060820151815f01600d6101000a81548167ffffffffffffffff021916908367ffffffffffffffff1602179055506080820151815f0160156101000a81548160ff02191690831515021790555060a0820151815f0160166101000a81548160ff021916908360ff16021790555060c0820151816001015f6101000a8154816fffffffffffffffffffffffffffffffff02191690836fffffffffffffffffffffffffffffffff160217905550505050505b50505050505050505050505050565b62001e80620104aa565b5f600d5f8573ffffffffffffffffffffffffffffffffffffffff1673ffffffffffffffffffffffffffffffffffffffff1681526020019081526020015f206002015f8473ffffffffffffffffffffffffffffffffffffffff1673ffffffffffffffffffffffffffffffffffffffff1681526020019081526020015f206040518060400160405290815f82015f9054906101000a900467ffffffffffffffff1667ffffffffffffffff1667ffffffffffffffff1681526020015f820160089054906101000a900467ffffffffffffffff1667ffffffffffffffff1667ffffffffffffffff168152505090505f5f601d5f8673ffffffffffffffffffffffffffffffffffffffff1673ffffffffffffffffffffffffffffffffffffffff1681526020019081526020015f20541462001ff457601d5f8573ffffffffffffffffffffffffffffffffffffffff1673ffffffffffffffffffffffffffffffffffffffff1681526020019081526020015f205462001ffe565b670de0b6b3a76400005b90505f5f601c5f8873ffffffffffffffffffffffffffffffffffffffff1673ffffffffffffffffffffffffffffffffffffffff1681526020019081526020015f205f8773ffffffffffffffffffffffffffffffffffffffff1673ffffffffffffffffffffffffffffffffffffffff1681526020019081526020015f2054146200210057601c5f8773ffffffffffffffffffffffffffffffffffffffff1673ffffffffffffffffffffffffffffffffffffffff1681526020019081526020015f205f8673ffffffffffffffffffffffffffffffffffffffff1673ffffffffffffffffffffffffffffffffffffffff1681526020019081526020015f20546200210a565b670de0b6b3a76400005b90505f82146200215b578082845f015167ffffffffffffffff16620021309190620128bd565b6200213c919062012e3c565b835f019067ffffffffffffffff16908167ffffffffffffffff16815250505b82935050505092915050565b60605f1515600d5f8473ffffffffffffffffffffffffffffffffffffffff1673ffffffffffffffffffffffffffffffffffffffff1681526020019081526020015f205f015f9054906101000a900460ff161515148015620021d45750600960049054906101000a900460ff165b15620021ed57620021e5826200953f565b905062002476565b5f62002238600d5f8573ffffffffffffffffffffffffffffffffffffffff1673ffffffffffffffffffffffffffffffffffffffff1681526020019081526020015f2060040162009622565b9050805167ffffffffffffffff81111562002258576200225762010a5c565b5b6040519080825280602002602001820160405280156200229557816020015b62002281620104d6565b815260200190600190039081620022775790505b5091505f5b82518110156200247357818181518110620022ba57620022b962012ba5565b5b6020026020010151838281518110620022d857620022d762012ba5565b5b60200260200101515f019073ffffffffffffffffffffffffffffffffffffffff16908173ffffffffffffffffffffffffffffffffffffffff16815250506200233e8483838151811062002330576200232f62012ba5565b5b602002602001015162009643565b83828151811062002354576200235362012ba5565b5b60200260200101516020019067ffffffffffffffff16908167ffffffffffffffff1681525050600d5f8573ffffffffffffffffffffffffffffffffffffffff1673ffffffffffffffffffffffffffffffffffffffff1681526020019081526020015f206006015f838381518110620023d157620023d062012ba5565b5b602002602001015173ffffffffffffffffffffffffffffffffffffffff1673ffffffffffffffffffffffffffffffffffffffff1681526020019081526020015f206001015f9054906101000a900467ffffffffffffffff168382815181106200243f576200243e62012ba5565b5b60200260200101516040019067ffffffffffffffff16908167ffffffffffffffff168152505080806001019150506200229a565b50505b919050565b5f620024878462007301565b90508115620025045761271083612710620024a39190620124ac565b82620024b09190620124ee565b620024bc919062012364565b60135f8663ffffffff1663ffffffff1681526020019081526020015f205f6101000a81548167ffffffffffffffff021916908367ffffffffffffffff16021790555062002573565b6127108361271062002517919062012e73565b82620025249190620124ee565b62002530919062012364565b60135f8663ffffffff1663ffffffff1681526020019081526020015f205f6101000a81548167ffffffffffffffff021916908367ffffffffffffffff1602179055505b50505050565b5f5f600a5f8463ffffffff1667ffffffffffffffff1681526020019081526020015f205f018054620025ab90620125c3565b9050119050919050565b80600a5f8467ffffffffffffffff1667ffffffffffffffff1681526020019081526020015f205f820151815f019081620025f09190620127cf565b50602082015181600101908162002608919062012f89565b506040820151816002015f6101000a81548167ffffffffffffffff021916908367ffffffffffffffff16021790555060608201518160020160086101000a81548173ffffffffffffffffffffffffffffffffffffffff021916908373ffffffffffffffffffffffffffffffffffffffff1602179055506080820151816003015f6101000a81548173ffffffffffffffffffffffffffffffffffffffff021916908373ffffffffffffffffffffffffffffffffffffffff16021790555060a08201518160030160146101000a81548160ff021916908360ff16021790555060c08201518160030160156101000a81548160ff021916908360ff16021790555060e08201518160030160166101000a81548160ff02191690835f0b60ff1602179055509050505050565b818160200151600f5f8373ffffffffffffffffffffffffffffffffffffffff1673ffffffffffffffffffffffffffffffffffffffff1681526020019081526020015f205f8267ffffffffffffffff1667ffffffffffffffff1681526020019081526020015f205f9054906101000a900460ff16620027c057620027b38162003621565b620027bf828262008908565b5b835f1515600d5f8373ffffffffffffffffffffffffffffffffffffffff1673ffffffffffffffffffffffffffffffffffffffff1681526020019081526020015f205f015f9054906101000a900460ff16151503156200335557835f01518460200151600f5f8373ffffffffffffffffffffffffffffffffffffffff1673ffffffffffffffffffffffffffffffffffffffff1681526020019081526020015f205f8267ffffffffffffffff1667ffffffffffffffff1681526020019081526020015f205f9054906101000a900460ff16620028ac576200289f8162003621565b620028ab828262008908565b5b600d5f8873ffffffffffffffffffffffffffffffffffffffff1673ffffffffffffffffffffffffffffffffffffffff1681526020019081526020015f206001015f876020015167ffffffffffffffff1667ffffffffffffffff1681526020019081526020015f205f9054906101000a900467ffffffffffffffff1667ffffffffffffffff16866040015167ffffffffffffffff16111562002984576040517f08c379a00000000000000000000000000000000000000000000000000000000081526004016200297b90620130f4565b60405180910390fd5b5f1515600d5f885f015173ffffffffffffffffffffffffffffffffffffffff1673ffffffffffffffffffffffffffffffffffffffff1681526020019081526020015f205f015f9054906101000a900460ff161515148015620029fe5750612710620029f2875f015162009820565b67ffffffffffffffff16115b1562002dc15762002a0f87620098f7565b6001600d5f885f015173ffffffffffffffffffffffffffffffffffffffff1673ffffffffffffffffffffffffffffffffffffffff1681526020019081526020015f205f015f6101000a81548160ff0219169083151502179055508560400151600d5f8973ffffffffffffffffffffffffffffffffffffffff1673ffffffffffffffffffffffffffffffffffffffff1681526020019081526020015f206001015f886020015167ffffffffffffffff1667ffffffffffffffff1681526020019081526020015f205f8282829054906101000a900467ffffffffffffffff1662002af8919062012e73565b92506101000a81548167ffffffffffffffff021916908367ffffffffffffffff160217905550856040015160125f8973ffffffffffffffffffffffffffffffffffffffff1673ffffffffffffffffffffffffffffffffffffffff1681526020019081526020015f205f886020015167ffffffffffffffff1667ffffffffffffffff1681526020019081526020015f205f9054906101000a900467ffffffffffffffff1662002ba79190620124ac565b600d5f885f015173ffffffffffffffffffffffffffffffffffffffff1673ffffffffffffffffffffffffffffffffffffffff1681526020019081526020015f206001015f886020015167ffffffffffffffff1667ffffffffffffffff1681526020019081526020015f205f8282829054906101000a900467ffffffffffffffff1662002c349190620124ac565b92506101000a81548167ffffffffffffffff021916908367ffffffffffffffff1602179055505f60125f8973ffffffffffffffffffffffffffffffffffffffff1673ffffffffffffffffffffffffffffffffffffffff1681526020019081526020015f205f886020015167ffffffffffffffff1667ffffffffffffffff1681526020019081526020015f205f6101000a81548167ffffffffffffffff021916908367ffffffffffffffff1602179055506001600e5f885f015173ffffffffffffffffffffffffffffffffffffffff1673ffffffffffffffffffffffffffffffffffffffff1681526020019081526020015f205f6101000a81548160ff0219169083151502179055506001600f5f885f015173ffffffffffffffffffffffffffffffffffffffff1673ffffffffffffffffffffffffffffffffffffffff1681526020019081526020015f205f886020015167ffffffffffffffff1667ffffffffffffffff1681526020019081526020015f205f6101000a81548160ff02191690831515021790555062003352565b5f62002dd1876020015162009b78565b90508660400151600d5f8a73ffffffffffffffffffffffffffffffffffffffff1673ffffffffffffffffffffffffffffffffffffffff1681526020019081526020015f206001015f896020015167ffffffffffffffff1667ffffffffffffffff1681526020019081526020015f205f8282829054906101000a900467ffffffffffffffff1662002e62919062012e73565b92506101000a81548167ffffffffffffffff021916908367ffffffffffffffff1602179055508073ffffffffffffffffffffffffffffffffffffffff16875f015173ffffffffffffffffffffffffffffffffffffffff161462002f7d578660400151600d5f895f015173ffffffffffffffffffffffffffffffffffffffff1673ffffffffffffffffffffffffffffffffffffffff1681526020019081526020015f206001015f896020015167ffffffffffffffff1667ffffffffffffffff1681526020019081526020015f205f8282829054906101000a900467ffffffffffffffff1662002f519190620124ac565b92506101000a81548167ffffffffffffffff021916908367ffffffffffffffff16021790555062003350565b5f62002f8862009bef565b67ffffffffffffffff16886020015167ffffffffffffffff160362003135576402540be400886040015167ffffffffffffffff1662002fc89190620128bd565b905062002ffa82828473ffffffffffffffffffffffffffffffffffffffff163162002ff4919062013114565b62009c0f565b737109709ecfa91a80626ff3989d68f67f5b1dd12d73ffffffffffffffffffffffffffffffffffffffff166306447d56836040518263ffffffff1660e01b81526004016200304991906201315f565b5f604051808303815f87803b15801562003061575f5ffd5b505af115801562003074573d5f5f3e3d5ffd5b505050505f8973ffffffffffffffffffffffffffffffffffffffff168261753090604051620030a390620131ab565b5f60405180830381858888f193505050503d805f8114620030e0576040519150601f19603f3d011682016040523d82523d5f602084013e620030e5565b606091505b50509050806200312c576040517f08c379a000000000000000000000000000000000000000000000000000000000815260040162003123906201320f565b60405180910390fd5b50505062003352565b5f600a5f8a6020015167ffffffffffffffff1667ffffffffffffffff1681526020019081526020015f206003015f9054906101000a900473ffffffffffffffffffffffffffffffffffffffff169050620031cc8960400151600a5f8c6020015167ffffffffffffffff1667ffffffffffffffff1681526020019081526020015f2060030160169054906101000a90045f0b62009ca1565b9150620031d862009d2e565b73ffffffffffffffffffffffffffffffffffffffff168173ffffffffffffffffffffffffffffffffffffffff1614620032a257620032a18184848473ffffffffffffffffffffffffffffffffffffffff166370a08231886040518263ffffffff1660e01b81526004016200324d91906201315f565b602060405180830381865afa15801562003269573d5f5f3e3d5ffd5b505050506040513d601f19601f820116820180604052508101906200328f919062013245565b6200329b919062013114565b62009d6f565b5b737109709ecfa91a80626ff3989d68f67f5b1dd12d73ffffffffffffffffffffffffffffffffffffffff166306447d56846040518263ffffffff1660e01b8152600401620032f191906201315f565b5f604051808303815f87803b15801562003309575f5ffd5b505af11580156200331c573d5f5f3e3d5ffd5b505050506200334d8a838373ffffffffffffffffffffffffffffffffffffffff1662009d829092919063ffffffff16565b50505b505b50505b5050505050565b5f600b5f8361ffff1663ffffffff1681526020019081526020015f2060010160059054906101000a900460ff1660ff169050919050565b6200339d6201051e565b5f600c5f8463ffffffff1663ffffffff1681526020019081526020015f205f018054620033ca90620125c3565b9050148015620033e65750600960049054906101000a900460ff165b15620033ff57620033f78262008da8565b90506200353b565b600c5f8363ffffffff1663ffffffff1681526020019081526020015f206040518060400160405290815f820180546200343890620125c3565b80601f01602080910402602001604051908101604052809291908181526020018280546200346690620125c3565b8015620034b55780601f106200348b57610100808354040283529160200191620034b5565b820191905f5260205f20905b8154815290600101906020018083116200349757829003601f168201915b50505050508152602001600182016002806020026040519081016040528092919082600280156200352f576020028201915f905b82829054906101000a900467ffffffffffffffff1667ffffffffffffffff1681526020019060080190602082600701049283019260010382029150808411620034e95790505b50505050508152505090505b919050565b5f5f1515600d5f8473ffffffffffffffffffffffffffffffffffffffff1673ffffffffffffffffffffffffffffffffffffffff1681526020019081526020015f205f015f9054906101000a900460ff161515148015620035ac5750600960049054906101000a900460ff165b15620035c557620035bd8262009e05565b90506200361c565b600d5f8373ffffffffffffffffffffffffffffffffffffffff1673ffffffffffffffffffffffffffffffffffffffff1681526020019081526020015f206007015f9054906101000a900467ffffffffffffffff1690505b919050565b5f600a5f8367ffffffffffffffff1667ffffffffffffffff1681526020019081526020015f205f0180546200365690620125c3565b905011620038ad576200366862010540565b620036738262009e90565b9050600173ffffffffffffffffffffffffffffffffffffffff16816080015173ffffffffffffffffffffffffffffffffffffffff1603620036b55750620038ad565b80600a5f8467ffffffffffffffff1667ffffffffffffffff1681526020019081526020015f205f820151815f019081620036f09190620127cf565b50602082015181600101908162003708919062012f89565b506040820151816002015f6101000a81548167ffffffffffffffff021916908367ffffffffffffffff16021790555060608201518160020160086101000a81548173ffffffffffffffffffffffffffffffffffffffff021916908373ffffffffffffffffffffffffffffffffffffffff1602179055506080820151816003015f6101000a81548173ffffffffffffffffffffffffffffffffffffffff021916908373ffffffffffffffffffffffffffffffffffffffff16021790555060a08201518160030160146101000a81548160ff021916908360ff16021790555060c08201518160030160156101000a81548160ff021916908360ff16021790555060e08201518160030160166101000a81548160ff02191690835f0b60ff1602179055509050505f8267ffffffffffffffff16148062003850575061010c8267ffffffffffffffff16145b806200386757506101688267ffffffffffffffff16145b15620038ab57600160235f8467ffffffffffffffff1667ffffffffffffffff1681526020019081526020015f205f6101000a81548160ff0219169083151502179055505b505b50565b80601d5f8473ffffffffffffffffffffffffffffffffffffffff1673ffffffffffffffffffffffffffffffffffffffff1681526020019081526020015f20819055505050565b5f81565b81815f01515f600b5f8361ffff1663ffffffff1681526020019081526020015f2060010160059054906101000a900460ff1660ff160362003950576200394f81620039498361ffff1662009ffa565b6200519b565b5b5f151560115f8473ffffffffffffffffffffffffffffffffffffffff1673ffffffffffffffffffffffffffffffffffffffff1681526020019081526020015f205f8361ffff1663ffffffff1681526020019081526020015f205f9054906101000a900460ff16151503620039d657620039c9826200a078565b620039d5828262008af4565b5b5f835f015190505f600d5f8773ffffffffffffffffffffffffffffffffffffffff1673ffffffffffffffffffffffffffffffffffffffff1681526020019081526020015f206008015f8361ffff1661ffff1681526020019081526020015f206040518060a00160405290815f82015f9054906101000a900460070b60070b60070b81526020015f820160089054906101000a900467ffffffffffffffff1667ffffffffffffffff1667ffffffffffffffff1681526020015f820160109054906101000a900460070b60070b60070b81526020015f820160189054906101000a900463ffffffff1663ffffffff1663ffffffff1681526020015f8201601c9054906101000a900460ff16151515158152505090505f816080015190505f62003b018461ffff1662007301565b67ffffffffffffffff1690505f606462003b1f8661ffff166200a087565b62003b2b9190620128bd565b90505f62003b3d8661ffff166200a0d2565b905062003b558960600151600883604001516200a1c3565b896060019067ffffffffffffffff16908167ffffffffffffffff16815250508362003c015788602001511562003bc557886040015167ffffffffffffffff16821162003bbf5762003ba68a6200a258565b62003bb38a8a856200a737565b62003bbe8a6200a258565b5b62003c00565b886040015167ffffffffffffffff16821062003bff5762003be68a6200a258565b62003bf38a8a856200b473565b62003bfe8a6200a258565b5b5b5b50505050505050505050565b8060135f8463ffffffff1663ffffffff1681526020019081526020015f205f6101000a81548167ffffffffffffffff021916908367ffffffffffffffff1602179055505050565b620f42408161ffff16111562003ca1576040517f08c379a000000000000000000000000000000000000000000000000000000000815260040162003c9890620132c3565b60405180910390fd5b8060095f6101000a81548161ffff021916908361ffff16021790555050565b5f62003ccd60206200c183565b90505f810362003cde575062003d55565b5f8190505b5f81111562003d52575f62003d1160018362003d009190620122fd565b60206200c19890919063ffffffff16565b90505f6010825f1c901c905062003d28816200108c565b1562003d3a5762003d398162007d7b565b5b5050808062003d49906201256a565b91505062003ce3565b50505b565b62003d61620105bd565b5f1515600d5f8473ffffffffffffffffffffffffffffffffffffffff1673ffffffffffffffffffffffffffffffffffffffff1681526020019081526020015f205f015f9054906101000a900460ff16151514801562003dcc5750600960049054906101000a900460ff165b1562003dfd57604051806020016040528062003de88462009e05565b67ffffffffffffffff16815250905062003e0b565b62003e08826200c1af565b90505b919050565b62003e1b8462001498565b60405180606001604052808473ffffffffffffffffffffffffffffffffffffffff1681526020018367ffffffffffffffff1681526020018267ffffffffffffffff16815250600d5f8673ffffffffffffffffffffffffffffffffffffffff1673ffffffffffffffffffffffffffffffffffffffff1681526020019081526020015f206006015f8573ffffffffffffffffffffffffffffffffffffffff1673ffffffffffffffffffffffffffffffffffffffff1681526020019081526020015f205f820151815f015f6101000a81548173ffffffffffffffffffffffffffffffffffffffff021916908373ffffffffffffffffffffffffffffffffffffffff1602179055506020820151815f0160146101000a81548167ffffffffffffffff021916908367ffffffffffffffff1602179055506040820151816001015f6101000a81548167ffffffffffffffff021916908367ffffffffffffffff16021790555090505050505050565b817f0000000000000000000000000000000000000000000000000000000000000000600f5f8373ffffffffffffffffffffffffffffffffffffffff1673ffffffffffffffffffffffffffffffffffffffff1681526020019081526020015f205f8267ffffffffffffffff1667ffffffffffffffff1681526020019081526020015f205f9054906101000a900460ff166200403057620040238162003621565b6200402f828262008908565b5b600d5f8573ffffffffffffffffffffffffffffffffffffffff1673ffffffffffffffffffffffffffffffffffffffff1681526020019081526020015f205f015f9054906101000a900460ff161562004171576200409f6402540be4008462004099919062012e3c565b62008e2c565b600d5f8673ffffffffffffffffffffffffffffffffffffffff1673ffffffffffffffffffffffffffffffffffffffff1681526020019081526020015f206001015f7f000000000000000000000000000000000000000000000000000000000000000067ffffffffffffffff1667ffffffffffffffff1681526020019081526020015f205f8282829054906101000a900467ffffffffffffffff16620041459190620124ac565b92506101000a81548167ffffffffffffffff021916908367ffffffffffffffff16021790555062004258565b6200418e6402540be4008462004188919062012e3c565b62008e2c565b60125f8673ffffffffffffffffffffffffffffffffffffffff1673ffffffffffffffffffffffffffffffffffffffff1681526020019081526020015f205f7f000000000000000000000000000000000000000000000000000000000000000067ffffffffffffffff1667ffffffffffffffff1681526020019081526020015f205f8282829054906101000a900467ffffffffffffffff16620042319190620124ac565b92506101000a81548167ffffffffffffffff021916908367ffffffffffffffff1602179055505b5050505050565b600960049054906101000a900460ff1681565b6200427d8462001498565b600d5f8573ffffffffffffffffffffffffffffffffffffffff1673ffffffffffffffffffffffffffffffffffffffff1681526020019081526020015f206002015f8473ffffffffffffffffffffffffffffffffffffffff1673ffffffffffffffffffffffffffffffffffffffff1681526020019081526020015f205f015f9054906101000a900467ffffffffffffffff1660165f8573ffffffffffffffffffffffffffffffffffffffff1673ffffffffffffffffffffffffffffffffffffffff1681526020019081526020015f205f8282829054906101000a900467ffffffffffffffff166200436e919062012e73565b92506101000a81548167ffffffffffffffff021916908367ffffffffffffffff1602179055508160165f8573ffffffffffffffffffffffffffffffffffffffff1673ffffffffffffffffffffffffffffffffffffffff1681526020019081526020015f205f8282829054906101000a900467ffffffffffffffff16620043f59190620124ac565b92506101000a81548167ffffffffffffffff021916908367ffffffffffffffff16021790555081600d5f8673ffffffffffffffffffffffffffffffffffffffff1673ffffffffffffffffffffffffffffffffffffffff1681526020019081526020015f206002015f8573ffffffffffffffffffffffffffffffffffffffff1673ffffffffffffffffffffffffffffffffffffffff1681526020019081526020015f205f015f6101000a81548167ffffffffffffffff021916908367ffffffffffffffff1602179055505f8167ffffffffffffffff1611620044f5576103e8610e1042620044e3919062013114565b620044ef9190620128bd565b620044f7565b805b600d5f8673ffffffffffffffffffffffffffffffffffffffff1673ffffffffffffffffffffffffffffffffffffffff1681526020019081526020015f206002015f8573ffffffffffffffffffffffffffffffffffffffff1673ffffffffffffffffffffffffffffffffffffffff1681526020019081526020015f205f0160086101000a81548167ffffffffffffffff021916908367ffffffffffffffff16021790555050505050565b817f0000000000000000000000000000000000000000000000000000000000000000600f5f8373ffffffffffffffffffffffffffffffffffffffff1673ffffffffffffffffffffffffffffffffffffffff1681526020019081526020015f205f8267ffffffffffffffff1667ffffffffffffffff1681526020019081526020015f205f9054906101000a900460ff166200464c576200463f8162003621565b6200464b828262008908565b5b835f1515600d5f8373ffffffffffffffffffffffffffffffffffffffff1673ffffffffffffffffffffffffffffffffffffffff1681526020019081526020015f205f015f9054906101000a900460ff161515031562004d7f575f620046b2601a6200c497565b14620046db57620046d1845f0151601a6200c4ac90919063ffffffff16565b620046da575f5ffd5b5b5f600d5f8773ffffffffffffffffffffffffffffffffffffffff1673ffffffffffffffffffffffffffffffffffffffff1681526020019081526020015f206006015f865f015173ffffffffffffffffffffffffffffffffffffffff1673ffffffffffffffffffffffffffffffffffffffff1681526020019081526020015f2090506200476b86865f015162009643565b815f0160146101000a81548167ffffffffffffffff021916908367ffffffffffffffff160217905550601f54601e5f8873ffffffffffffffffffffffffffffffffffffffff1673ffffffffffffffffffffffffffffffffffffffff1681526020019081526020015f205f875f015173ffffffffffffffffffffffffffffffffffffffff1673ffffffffffffffffffffffffffffffffffffffff1681526020019081526020015f20819055506200486d855f0151600d5f8973ffffffffffffffffffffffffffffffffffffffff1673ffffffffffffffffffffffffffffffffffffffff1681526020019081526020015f206004016200c4db90919063ffffffff16565b5084604001511562004a9957805f0160149054906101000a900467ffffffffffffffff1667ffffffffffffffff16856020015167ffffffffffffffff1611158015620048e85750806001015f9054906101000a900467ffffffffffffffff1667ffffffffffffffff166103e842620048e69190620128bd565b115b1562004a56578460200151600d5f8873ffffffffffffffffffffffffffffffffffffffff1673ffffffffffffffffffffffffffffffffffffffff1681526020019081526020015f206003015f8282829054906101000a900467ffffffffffffffff16620049569190620124ac565b92506101000a81548167ffffffffffffffff021916908367ffffffffffffffff1602179055508460200151815f0160148282829054906101000a900467ffffffffffffffff16620049a8919062012e73565b92506101000a81548167ffffffffffffffff021916908367ffffffffffffffff1602179055505f815f0160149054906101000a900467ffffffffffffffff1667ffffffffffffffff160362004a505762004a4e855f0151600d5f8973ffffffffffffffffffffffffffffffffffffffff1673ffffffffffffffffffffffffffffffffffffffff1681526020019081526020015f206004016200c50a90919063ffffffff16565b505b62004a93565b6040517f08c379a000000000000000000000000000000000000000000000000000000000815260040162004a8a9062013357565b60405180910390fd5b62004d7d565b600d5f8773ffffffffffffffffffffffffffffffffffffffff1673ffffffffffffffffffffffffffffffffffffffff1681526020019081526020015f206003015f9054906101000a900467ffffffffffffffff1667ffffffffffffffff16856020015167ffffffffffffffff161162004d3f578460200151600d5f8873ffffffffffffffffffffffffffffffffffffffff1673ffffffffffffffffffffffffffffffffffffffff1681526020019081526020015f206003015f8282829054906101000a900467ffffffffffffffff1662004b74919062012e73565b92506101000a81548167ffffffffffffffff021916908367ffffffffffffffff1602179055508460200151600d5f8873ffffffffffffffffffffffffffffffffffffffff1673ffffffffffffffffffffffffffffffffffffffff1681526020019081526020015f206006015f875f015173ffffffffffffffffffffffffffffffffffffffff1673ffffffffffffffffffffffffffffffffffffffff1681526020019081526020015f205f0160148282829054906101000a900467ffffffffffffffff1662004c439190620124ac565b92506101000a81548167ffffffffffffffff021916908367ffffffffffffffff16021790555062004c936103e8620151804262004c81919062013114565b62004c8d9190620128bd565b62008e2c565b600d5f8873ffffffffffffffffffffffffffffffffffffffff1673ffffffffffffffffffffffffffffffffffffffff1681526020019081526020015f206006015f875f015173ffffffffffffffffffffffffffffffffffffffff1673ffffffffffffffffffffffffffffffffffffffff1681526020019081526020015f206001015f6101000a81548167ffffffffffffffff021916908367ffffffffffffffff16021790555062004d7c565b6040517f08c379a000000000000000000000000000000000000000000000000000000000815260040162004d7390620133c5565b60405180910390fd5b5b505b5050505050565b60095f9054906101000a900461ffff1681565b8060155f8463ffffffff1663ffffffff1681526020019081526020015f205f6101000a81548167ffffffffffffffff021916908367ffffffffffffffff1602179055505050565b62004dea620105d9565b5f600b5f8463ffffffff1663ffffffff1681526020019081526020015f205f01805462004e1790620125c3565b905014801562004e335750600960049054906101000a900460ff165b1562004e4c5762004e448262009ffa565b905062004f88565b600b5f8363ffffffff1663ffffffff1681526020019081526020015f206040518060a00160405290815f8201805462004e8590620125c3565b80601f016020809104026020016040519081016040528092919081815260200182805462004eb390620125c3565b801562004f025780601f1062004ed85761010080835404028352916020019162004f02565b820191905f5260205f20905b81548152906001019060200180831162004ee457829003601f168201915b50505050508152602001600182015f9054906101000a900463ffffffff1663ffffffff1663ffffffff1681526020016001820160049054906101000a900460ff1660ff1660ff1681526020016001820160059054906101000a900460ff1660ff1660ff1681526020016001820160069054906101000a900460ff16151515158152505090505b919050565b62004f9762010612565b5f1515600d5f8573ffffffffffffffffffffffffffffffffffffffff1673ffffffffffffffffffffffffffffffffffffffff1681526020019081526020015f205f015f9054906101000a900460ff161515148015620050025750600960049054906101000a900460ff165b156200501c576200501483836200c539565b905062005128565b600d5f8473ffffffffffffffffffffffffffffffffffffffff1673ffffffffffffffffffffffffffffffffffffffff1681526020019081526020015f206008015f8361ffff1661ffff1681526020019081526020015f206040518060a00160405290815f82015f9054906101000a900460070b60070b60070b81526020015f820160089054906101000a900467ffffffffffffffff1667ffffffffffffffff1667ffffffffffffffff1681526020015f820160109054906101000a900460070b60070b60070b81526020015f820160189054906101000a900463ffffffff1663ffffffff1663ffffffff1681526020015f8201601c9054906101000a900460ff16151515158152505090505b92915050565b620f42408161ffff1611156200517b576040517f08c379a00000000000000000000000000000000000000000000000000000000081526004016200517290620132c3565b60405180910390fd5b80600960026101000a81548161ffff021916908361ffff16021790555050565b80600b5f8461ffff1663ffffffff1681526020019081526020015f205f820151815f019081620051cc9190620127cf565b506020820151816001015f6101000a81548163ffffffff021916908363ffffffff16021790555060408201518160010160046101000a81548160ff021916908360ff16021790555060608201518160010160056101000a81548160ff021916908360ff16021790555060808201518160010160066101000a81548160ff0219169083151502179055509050505050565b5f5f60155f8463ffffffff1663ffffffff1681526020019081526020015f205f9054906101000a900467ffffffffffffffff1667ffffffffffffffff16148015620052b35750600960049054906101000a900460ff165b15620052cc57620052c4826200c60c565b905062005300565b60155f8363ffffffff1663ffffffff1681526020019081526020015f205f9054906101000a900467ffffffffffffffff1690505b919050565b81815f015160105f8373ffffffffffffffffffffffffffffffffffffffff1673ffffffffffffffffffffffffffffffffffffffff1681526020019081526020015f205f8273ffffffffffffffffffffffffffffffffffffffff1673ffffffffffffffffffffffffffffffffffffffff1681526020019081526020015f205f9054906101000a900460ff16620053ac576200539f826200a078565b620053ab82826200c687565b5b835f1515600d5f8373ffffffffffffffffffffffffffffffffffffffff1673ffffffffffffffffffffffffffffffffffffffff1681526020019081526020015f205f015f9054906101000a900460ff161515031562005c28576200541485855f015162001e76565b5f0151600d5f8773ffffffffffffffffffffffffffffffffffffffff1673ffffffffffffffffffffffffffffffffffffffff1681526020019081526020015f206002015f865f015173ffffffffffffffffffffffffffffffffffffffff1673ffffffffffffffffffffffffffffffffffffffff1681526020019081526020015f205f015f6101000a81548167ffffffffffffffff021916908367ffffffffffffffff160217905550601d5f855f015173ffffffffffffffffffffffffffffffffffffffff1673ffffffffffffffffffffffffffffffffffffffff1681526020019081526020015f2054601c5f8773ffffffffffffffffffffffffffffffffffffffff1673ffffffffffffffffffffffffffffffffffffffff1681526020019081526020015f205f865f015173ffffffffffffffffffffffffffffffffffffffff1673ffffffffffffffffffffffffffffffffffffffff1681526020019081526020015f2081905550836020015115620058f357600d5f8673ffffffffffffffffffffffffffffffffffffffff1673ffffffffffffffffffffffffffffffffffffffff1681526020019081526020015f206007015f9054906101000a900467ffffffffffffffff1667ffffffffffffffff16846040015167ffffffffffffffff1611620058b0578360400151600d5f8773ffffffffffffffffffffffffffffffffffffffff1673ffffffffffffffffffffffffffffffffffffffff1681526020019081526020015f206002015f865f015173ffffffffffffffffffffffffffffffffffffffff1673ffffffffffffffffffffffffffffffffffffffff1681526020019081526020015f205f015f8282829054906101000a900467ffffffffffffffff16620056a29190620124ac565b92506101000a81548167ffffffffffffffff021916908367ffffffffffffffff1602179055506103e86201518042620056dc919062013114565b620056e89190620128bd565b600d5f8773ffffffffffffffffffffffffffffffffffffffff1673ffffffffffffffffffffffffffffffffffffffff1681526020019081526020015f206002015f865f015173ffffffffffffffffffffffffffffffffffffffff1673ffffffffffffffffffffffffffffffffffffffff1681526020019081526020015f205f0160086101000a81548167ffffffffffffffff021916908367ffffffffffffffff1602179055508360400151600d5f8773ffffffffffffffffffffffffffffffffffffffff1673ffffffffffffffffffffffffffffffffffffffff1681526020019081526020015f206007015f8282829054906101000a900467ffffffffffffffff16620057f6919062012e73565b92506101000a81548167ffffffffffffffff021916908367ffffffffffffffff160217905550836040015160165f865f015173ffffffffffffffffffffffffffffffffffffffff1673ffffffffffffffffffffffffffffffffffffffff1681526020019081526020015f205f8282829054906101000a900467ffffffffffffffff16620058849190620124ac565b92506101000a81548167ffffffffffffffff021916908367ffffffffffffffff160217905550620058ed565b6040517f08c379a0000000000000000000000000000000000000000000000000000000008152600401620058e490620130f4565b60405180910390fd5b62005c27565b5f600d5f8773ffffffffffffffffffffffffffffffffffffffff1673ffffffffffffffffffffffffffffffffffffffff1681526020019081526020015f206002015f865f015173ffffffffffffffffffffffffffffffffffffffff1673ffffffffffffffffffffffffffffffffffffffff1681526020019081526020015f2090505f856040015167ffffffffffffffff161462005995578460400151620059ad565b805f015f9054906101000a900467ffffffffffffffff165b856040019067ffffffffffffffff16908167ffffffffffffffff16815250506305f5e10060165f875f015173ffffffffffffffffffffffffffffffffffffffff1673ffffffffffffffffffffffffffffffffffffffff1681526020019081526020015f205f9054906101000a900467ffffffffffffffff1662005a31919062012364565b67ffffffffffffffff16856040015167ffffffffffffffff16101562005a8e576040517f08c379a000000000000000000000000000000000000000000000000000000000815260040162005a859062013433565b60405180910390fd5b805f015f9054906101000a900467ffffffffffffffff1667ffffffffffffffff16856040015167ffffffffffffffff161115801562005afd5750426103e8825f0160089054906101000a900467ffffffffffffffff1662005af0919062012364565b67ffffffffffffffff1611155b1562005be8578460400151815f015f8282829054906101000a900467ffffffffffffffff1662005b2e919062012e73565b92506101000a81548167ffffffffffffffff021916908367ffffffffffffffff1602179055508460400151600d5f8873ffffffffffffffffffffffffffffffffffffffff1673ffffffffffffffffffffffffffffffffffffffff1681526020019081526020015f206007015f8282829054906101000a900467ffffffffffffffff1662005bbc9190620124ac565b92506101000a81548167ffffffffffffffff021916908367ffffffffffffffff16021790555062005c25565b6040517f08c379a000000000000000000000000000000000000000000000000000000000815260040162005c1c90620134a1565b60405180910390fd5b505b5b5050505050565b817f0000000000000000000000000000000000000000000000000000000000000000600f5f8373ffffffffffffffffffffffffffffffffffffffff1673ffffffffffffffffffffffffffffffffffffffff1681526020019081526020015f205f8267ffffffffffffffff1667ffffffffffffffff1681526020019081526020015f205f9054906101000a900460ff1662005cdb5762005cce8162003621565b62005cda828262008908565b5b835f1515600d5f8373ffffffffffffffffffffffffffffffffffffffff1673ffffffffffffffffffffffffffffffffffffffff1681526020019081526020015f205f015f9054906101000a900460ff161515031562005f4857600d5f8673ffffffffffffffffffffffffffffffffffffffff1673ffffffffffffffffffffffffffffffffffffffff1681526020019081526020015f206001015f7f000000000000000000000000000000000000000000000000000000000000000067ffffffffffffffff1667ffffffffffffffff1681526020019081526020015f205f9054906101000a900467ffffffffffffffff1667ffffffffffffffff16845f015167ffffffffffffffff161162005f4757835f0151600d5f8773ffffffffffffffffffffffffffffffffffffffff1673ffffffffffffffffffffffffffffffffffffffff1681526020019081526020015f206001015f7f000000000000000000000000000000000000000000000000000000000000000067ffffffffffffffff1667ffffffffffffffff1681526020019081526020015f205f8282829054906101000a900467ffffffffffffffff1662005e93919062012e73565b92506101000a81548167ffffffffffffffff021916908367ffffffffffffffff160217905550835f0151600d5f8773ffffffffffffffffffffffffffffffffffffffff1673ffffffffffffffffffffffffffffffffffffffff1681526020019081526020015f206003015f8282829054906101000a900467ffffffffffffffff1662005f209190620124ac565b92506101000a81548167ffffffffffffffff021916908367ffffffffffffffff1602179055505b5b5050505050565b5f5f1515600d5f8473ffffffffffffffffffffffffffffffffffffffff1673ffffffffffffffffffffffffffffffffffffffff1681526020019081526020015f205f015f9054906101000a900460ff16151514801562005fbb5750600960049054906101000a900460ff165b1562005fd45762005fcc826200c7ff565b905062006023565b600d5f8373ffffffffffffffffffffffffffffffffffffffff1673ffffffffffffffffffffffffffffffffffffffff1681526020019081526020015f205f015f9054906101000a900460ff1690505b919050565b6200603e81601a6200c4db90919063ffffffff16565b5050565b6200604c62010540565b5f5f600a5f8563ffffffff1667ffffffffffffffff1681526020019081526020015f2060030160149054906101000a900460ff1660ff161480156200610057505f73ffffffffffffffffffffffffffffffffffffffff16600a5f8563ffffffff1667ffffffffffffffff1681526020019081526020015f2060020160089054906101000a900473ffffffffffffffffffffffffffffffffffffffff1673ffffffffffffffffffffffffffffffffffffffff16145b90508080156200611c5750600960049054906101000a900460ff165b1562006136576200612d8362009e90565b915050620063b9565b600a5f8463ffffffff1667ffffffffffffffff1681526020019081526020015f20604051806101000160405290815f820180546200617490620125c3565b80601f0160208091040260200160405190810160405280929190818152602001828054620061a290620125c3565b8015620061f15780601f10620061c757610100808354040283529160200191620061f1565b820191905f5260205f20905b815481529060010190602001808311620061d357829003601f168201915b50505050508152602001600182018054806020026020016040519081016040528092919081815260200182805480156200627c57602002820191905f5260205f20905f905b82829054906101000a900467ffffffffffffffff1667ffffffffffffffff1681526020019060080190602082600701049283019260010382029150808411620062365790505b50505050508152602001600282015f9054906101000a900467ffffffffffffffff1667ffffffffffffffff1667ffffffffffffffff1681526020016002820160089054906101000a900473ffffffffffffffffffffffffffffffffffffffff1673ffffffffffffffffffffffffffffffffffffffff1673ffffffffffffffffffffffffffffffffffffffff168152602001600382015f9054906101000a900473ffffffffffffffffffffffffffffffffffffffff1673ffffffffffffffffffffffffffffffffffffffff1673ffffffffffffffffffffffffffffffffffffffff1681526020016003820160149054906101000a900460ff1660ff1660ff1681526020016003820160159054906101000a900460ff1660ff1660ff1681526020016003820160169054906101000a90045f0b5f0b5f0b815250509150505b919050565b80601f8190555050565b5f620063d4846200525c565b90508115620064515761271083612710620063f09190620124ac565b82620063fd9190620124ee565b62006409919062012364565b60155f8663ffffffff1663ffffffff1681526020019081526020015f205f6101000a81548167ffffffffffffffff021916908367ffffffffffffffff160217905550620064c0565b6127108361271062006464919062012e73565b82620064719190620124ee565b6200647d919062012364565b60155f8663ffffffff1663ffffffff1681526020019081526020015f205f6101000a81548167ffffffffffffffff021916908367ffffffffffffffff1602179055505b50505050565b620064d062010654565b5f1515600d5f8473ffffffffffffffffffffffffffffffffffffffff1673ffffffffffffffffffffffffffffffffffffffff1681526020019081526020015f205f015f9054906101000a900460ff1615151480156200653b5750600960049054906101000a900460ff165b1562006554576200654c826200c874565b90506200676b565b5f6200659f600d5f8573ffffffffffffffffffffffffffffffffffffffff1673ffffffffffffffffffffffffffffffffffffffff1681526020019081526020015f2060040162009622565b90505f5b81518110156200661357620065d684838381518110620065c857620065c762012ba5565b5b602002602001015162009643565b835f01818151620065e89190620124ac565b91509067ffffffffffffffff16908167ffffffffffffffff16815250508080600101915050620065a3565b50600d5f8473ffffffffffffffffffffffffffffffffffffffff1673ffffffffffffffffffffffffffffffffffffffff1681526020019081526020015f206003015f9054906101000a900467ffffffffffffffff16826020019067ffffffffffffffff16908167ffffffffffffffff16815250505f5b6200669560176200c8f2565b81101562006768575f620066be620066b88360176200c94c90919063ffffffff16565b6200c9cc565b90508473ffffffffffffffffffffffffffffffffffffffff16815f015173ffffffffffffffffffffffffffffffffffffffff160362006759578360600180518091906200670b90620134c1565b67ffffffffffffffff1667ffffffffffffffff16815250508060200151846040018181516200673b9190620124ac565b91509067ffffffffffffffff16908167ffffffffffffffff16815250505b50808060010191505062006689565b50505b919050565b620f424081565b817f0000000000000000000000000000000000000000000000000000000000000000600f5f8373ffffffffffffffffffffffffffffffffffffffff1673ffffffffffffffffffffffffffffffffffffffff1681526020019081526020015f205f8267ffffffffffffffff1667ffffffffffffffff1681526020019081526020015f205f9054906101000a900460ff166200682357620068168162003621565b62006822828262008908565b5b835f1515600d5f8373ffffffffffffffffffffffffffffffffffffffff1673ffffffffffffffffffffffffffffffffffffffff1681526020019081526020015f205f015f9054906101000a900460ff161515031562006a58575f6200688886620064c6565b90506005816060015167ffffffffffffffff1610620068de576040517f08c379a0000000000000000000000000000000000000000000000000000000008152600401620068d59062013569565b60405180910390fd5b600d5f8773ffffffffffffffffffffffffffffffffffffffff1673ffffffffffffffffffffffffffffffffffffffff1681526020019081526020015f206003015f9054906101000a900467ffffffffffffffff1667ffffffffffffffff16855f015167ffffffffffffffff161162006a5657845f0151600d5f8873ffffffffffffffffffffffffffffffffffffffff1673ffffffffffffffffffffffffffffffffffffffff1681526020019081526020015f206003015f8282829054906101000a900467ffffffffffffffff16620069b7919062012e73565b92506101000a81548167ffffffffffffffff021916908367ffffffffffffffff1602179055505f60405180606001604052808873ffffffffffffffffffffffffffffffffffffffff168152602001875f015167ffffffffffffffff16815260200162093a804262006a29919062013114565b63ffffffff16815250905062006a5462006a43826200ca58565b60176200caa790919063ffffffff16565b505b505b5050505050565b5f60198054905090505b5f811115620072ea575f601960018362006a849190620122fd565b8154811062006a985762006a9762012ba5565b5b905f5260205f2090600302016040518060400160405290815f82015f9054906101000a900473ffffffffffffffffffffffffffffffffffffffff1673ffffffffffffffffffffffffffffffffffffffff1673ffffffffffffffffffffffffffffffffffffffff168152602001600182016040518060e00160405290815f82015f9054906101000a900463ffffffff1663ffffffff1663ffffffff1681526020015f820160049054906101000a900460ff161515151581526020015f820160059054906101000a900467ffffffffffffffff1667ffffffffffffffff1667ffffffffffffffff1681526020015f8201600d9054906101000a900467ffffffffffffffff1667ffffffffffffffff1667ffffffffffffffff1681526020015f820160159054906101000a900460ff161515151581526020015f820160169054906101000a900460ff1660ff1660ff168152602001600182015f9054906101000a90046fffffffffffffffffffffffffffffffff166fffffffffffffffffffffffffffffffff166fffffffffffffffffffffffffffffffff16815250508152505090505f62006c5182602001515f015163ffffffff1662008c9f565b90505f62006c658263ffffffff1662008cb7565b90505f600a5f83602001515f6002811062006c855762006c8462012ba5565b5b602002015167ffffffffffffffff1667ffffffffffffffff1681526020019081526020015f20604051806101000160405290815f8201805462006cc890620125c3565b80601f016020809104026020016040519081016040528092919081815260200182805462006cf690620125c3565b801562006d455780601f1062006d1b5761010080835404028352916020019162006d45565b820191905f5260205f20905b81548152906001019060200180831162006d2757829003601f168201915b505050505081526020016001820180548060200260200160405190810160405280929190818152602001828054801562006dd057602002820191905f5260205f20905f905b82829054906101000a900467ffffffffffffffff1667ffffffffffffffff168152602001906008019060208260070104928301926001038202915080841162006d8a5790505b50505050508152602001600282015f9054906101000a900467ffffffffffffffff1667ffffffffffffffff1667ffffffffffffffff1681526020016002820160089054906101000a900473ffffffffffffffffffffffffffffffffffffffff1673ffffffffffffffffffffffffffffffffffffffff1673ffffffffffffffffffffffffffffffffffffffff168152602001600382015f9054906101000a900473ffffffffffffffffffffffffffffffffffffffff1673ffffffffffffffffffffffffffffffffffffffff1673ffffffffffffffffffffffffffffffffffffffff1681526020016003820160149054906101000a900460ff1660ff1660ff1681526020016003820160159054906101000a900460ff1660ff1660ff1681526020016003820160169054906101000a90045f0b5f0b5f0b8152505090505f62006f298260a00151600a62006f23919062012d22565b62008e2c565b62006f34856200525c565b62006f409190620124ee565b905062006f5285602001518262008e8a565b15620072cf5762006f6b855f015186602001516200194c565b6019600160198054905062006f819190620122fd565b8154811062006f955762006f9462012ba5565b5b905f5260205f209060030201601960018862006fb29190620122fd565b8154811062006fc65762006fc562012ba5565b5b905f5260205f2090600302015f82015f9054906101000a900473ffffffffffffffffffffffffffffffffffffffff16815f015f6101000a81548173ffffffffffffffffffffffffffffffffffffffff021916908373ffffffffffffffffffffffffffffffffffffffff16021790555060018201816001015f82015f9054906101000a900463ffffffff16815f015f6101000a81548163ffffffff021916908363ffffffff1602179055505f820160049054906101000a900460ff16815f0160046101000a81548160ff0219169083151502179055505f820160059054906101000a900467ffffffffffffffff16815f0160056101000a81548167ffffffffffffffff021916908367ffffffffffffffff1602179055505f8201600d9054906101000a900467ffffffffffffffff16815f01600d6101000a81548167ffffffffffffffff021916908367ffffffffffffffff1602179055505f820160159054906101000a900460ff16815f0160156101000a81548160ff0219169083151502179055505f820160169054906101000a900460ff16815f0160166101000a81548160ff021916908360ff160217905550600182015f9054906101000a90046fffffffffffffffffffffffffffffffff16816001015f6101000a8154816fffffffffffffffffffffffffffffffff02191690836fffffffffffffffffffffffffffffffff16021790555050509050506019805480620071e757620071e662013589565b5b600190038181905f5260205f2090600302015f5f82015f6101000a81549073ffffffffffffffffffffffffffffffffffffffff0219169055600182015f5f82015f6101000a81549063ffffffff02191690555f820160046101000a81549060ff02191690555f820160056101000a81549067ffffffffffffffff02191690555f8201600d6101000a81549067ffffffffffffffff02191690555f820160156101000a81549060ff02191690555f820160166101000a81549060ff0219169055600182015f6101000a8154906fffffffffffffffffffffffffffffffff02191690555050505090555b50505050508080620072e1906201256a565b91505062006a69565b50565b600960029054906101000a900461ffff1681565b5f5f60135f8463ffffffff1663ffffffff1681526020019081526020015f205f9054906101000a900467ffffffffffffffff1667ffffffffffffffff16148015620073585750600960049054906101000a900460ff165b15620073715762007369826200cba2565b9050620073a5565b60135f8363ffffffff1663ffffffff1681526020019081526020015f205f9054906101000a900467ffffffffffffffff1690505b919050565b815f600f5f8373ffffffffffffffffffffffffffffffffffffffff1673ffffffffffffffffffffffffffffffffffffffff1681526020019081526020015f205f8267ffffffffffffffff1667ffffffffffffffff1681526020019081526020015f205f9054906101000a900460ff166200743657620074298162003621565b62007435828262008908565b5b835f1515600d5f8373ffffffffffffffffffffffffffffffffffffffff1673ffffffffffffffffffffffffffffffffffffffff1681526020019081526020015f205f015f9054906101000a900460ff161515031562007843578360200151156200768757600d5f8673ffffffffffffffffffffffffffffffffffffffff1673ffffffffffffffffffffffffffffffffffffffff1681526020019081526020015f206001015f5f67ffffffffffffffff1667ffffffffffffffff1681526020019081526020015f205f9054906101000a900467ffffffffffffffff1667ffffffffffffffff1662007529855f01516200cc17565b67ffffffffffffffff16116200768157835f0151600d5f8773ffffffffffffffffffffffffffffffffffffffff1673ffffffffffffffffffffffffffffffffffffffff1681526020019081526020015f206007015f8282829054906101000a900467ffffffffffffffff16620075a09190620124ac565b92506101000a81548167ffffffffffffffff021916908367ffffffffffffffff160217905550620075d4845f01516200cc17565b600d5f8773ffffffffffffffffffffffffffffffffffffffff1673ffffffffffffffffffffffffffffffffffffffff1681526020019081526020015f206001015f5f67ffffffffffffffff1667ffffffffffffffff1681526020019081526020015f205f8282829054906101000a900467ffffffffffffffff166200765a919062012e73565b92506101000a81548167ffffffffffffffff021916908367ffffffffffffffff1602179055505b62007842565b600d5f8673ffffffffffffffffffffffffffffffffffffffff1673ffffffffffffffffffffffffffffffffffffffff1681526020019081526020015f206007015f9054906101000a900467ffffffffffffffff1667ffffffffffffffff16845f015167ffffffffffffffff16116200784157835f0151600d5f8773ffffffffffffffffffffffffffffffffffffffff1673ffffffffffffffffffffffffffffffffffffffff1681526020019081526020015f206007015f8282829054906101000a900467ffffffffffffffff1662007760919062012e73565b92506101000a81548167ffffffffffffffff021916908367ffffffffffffffff16021790555062007794845f01516200cc17565b600d5f8773ffffffffffffffffffffffffffffffffffffffff1673ffffffffffffffffffffffffffffffffffffffff1681526020019081526020015f206001015f5f67ffffffffffffffff1667ffffffffffffffff1681526020019081526020015f205f8282829054906101000a900467ffffffffffffffff166200781a9190620124ac565b92506101000a81548167ffffffffffffffff021916908367ffffffffffffffff1602179055505b5b5b5050505050565b8183600f5f8373ffffffffffffffffffffffffffffffffffffffff1673ffffffffffffffffffffffffffffffffffffffff1681526020019081526020015f205f8267ffffffffffffffff1667ffffffffffffffff1681526020019081526020015f205f9054906101000a900460ff16620078d657620078c98162003621565b620078d5828262008908565b5b600d5f8573ffffffffffffffffffffffffffffffffffffffff1673ffffffffffffffffffffffffffffffffffffffff1681526020019081526020015f205f015f9054906101000a900460ff161562007a1a576200796883600a5f8867ffffffffffffffff1667ffffffffffffffff1681526020019081526020015f2060030160169054906101000a90045f0b6200cc2e565b600d5f8673ffffffffffffffffffffffffffffffffffffffff1673ffffffffffffffffffffffffffffffffffffffff1681526020019081526020015f206001015f8767ffffffffffffffff1667ffffffffffffffff1681526020019081526020015f205f8282829054906101000a900467ffffffffffffffff16620079ee9190620124ac565b92506101000a81548167ffffffffffffffff021916908367ffffffffffffffff16021790555062007d73565b60235f8667ffffffffffffffff1667ffffffffffffffff1681526020019081526020015f205f9054906101000a900460ff161562007c88575f62007a9384600a5f8967ffffffffffffffff1667ffffffffffffffff1681526020019081526020015f2060030160169054906101000a90045f0b6200cc2e565b90505f6305f5e10090508067ffffffffffffffff168267ffffffffffffffff16101562007af7576040517f08c379a000000000000000000000000000000000000000000000000000000000815260040162007aee906201362a565b60405180910390fd5b808262007b05919062012e73565b600d5f8873ffffffffffffffffffffffffffffffffffffffff1673ffffffffffffffffffffffffffffffffffffffff1681526020019081526020015f206001015f8967ffffffffffffffff1667ffffffffffffffff1681526020019081526020015f205f8282829054906101000a900467ffffffffffffffff1662007b8b9190620124ac565b92506101000a81548167ffffffffffffffff021916908367ffffffffffffffff1602179055506001600d5f8873ffffffffffffffffffffffffffffffffffffffff1673ffffffffffffffffffffffffffffffffffffffff1681526020019081526020015f205f015f6101000a81548160ff0219169083151502179055506001600f5f8873ffffffffffffffffffffffffffffffffffffffff1673ffffffffffffffffffffffffffffffffffffffff1681526020019081526020015f205f8967ffffffffffffffff1667ffffffffffffffff1681526020019081526020015f205f6101000a81548160ff021916908315150217905550505062007d72565b62007cc883600a5f8867ffffffffffffffff1667ffffffffffffffff1681526020019081526020015f2060030160169054906101000a90045f0b6200cc2e565b60125f8673ffffffffffffffffffffffffffffffffffffffff1673ffffffffffffffffffffffffffffffffffffffff1681526020019081526020015f205f8767ffffffffffffffff1667ffffffffffffffff1681526020019081526020015f205f8282829054906101000a900467ffffffffffffffff1662007d4b9190620124ac565b92506101000a81548167ffffffffffffffff021916908367ffffffffffffffff1602179055505b5b505050505050565b5f62007dc360225f8473ffffffffffffffffffffffffffffffffffffffff1673ffffffffffffffffffffffffffffffffffffffff1681526020019081526020015f206200830c565b90505f8190505b5f81111562008048575f62007e3360018362007de79190620122fd565b60225f8773ffffffffffffffffffffffffffffffffffffffff1673ffffffffffffffffffffffffffffffffffffffff1681526020019081526020015f206200832190919063ffffffff16565b90505f62007e4285836200ccac565b905062007e5a8160206200ccd890919063ffffffff16565b505f600d5f8773ffffffffffffffffffffffffffffffffffffffff1673ffffffffffffffffffffffffffffffffffffffff1681526020019081526020015f206008015f8461ffff1661ffff1681526020019081526020015f205f015f6101000a81548167ffffffffffffffff021916908360070b67ffffffffffffffff1602179055505f600d5f8773ffffffffffffffffffffffffffffffffffffffff1673ffffffffffffffffffffffffffffffffffffffff1681526020019081526020015f206008015f8461ffff1661ffff1681526020019081526020015f205f0160086101000a81548167ffffffffffffffff021916908367ffffffffffffffff1602179055505f600d5f8773ffffffffffffffffffffffffffffffffffffffff1673ffffffffffffffffffffffffffffffffffffffff1681526020019081526020015f206009015f8461ffff1661ffff1681526020019081526020015f205f6101000a81548167ffffffffffffffff021916908367ffffffffffffffff1602179055506200802f8261ffff1660225f8873ffffffffffffffffffffffffffffffffffffffff1673ffffffffffffffffffffffffffffffffffffffff1681526020019081526020015f206200ccef90919063ffffffff16565b50505080806200803f906201256a565b91505062007dca565b505f600d5f8473ffffffffffffffffffffffffffffffffffffffff1673ffffffffffffffffffffffffffffffffffffffff1681526020019081526020015f206007015f6101000a81548167ffffffffffffffff021916908367ffffffffffffffff1602179055505050565b620080bd620106a0565b620080c8826200cd08565b905092915050565b7f000000000000000000000000000000000000000000000000000000000000000081565b80600960046101000a81548160ff02191690831515021790555050565b5f1515600d5f8473ffffffffffffffffffffffffffffffffffffffff1673ffffffffffffffffffffffffffffffffffffffff1681526020019081526020015f205f015f9054906101000a900460ff161515036200817457620081738262001498565b5b5f1515600e5f8473ffffffffffffffffffffffffffffffffffffffff1673ffffffffffffffffffffffffffffffffffffffff1681526020019081526020015f205f9054906101000a900460ff16151503620081d557620081d4826200a078565b5b80600d5f8473ffffffffffffffffffffffffffffffffffffffff1673ffffffffffffffffffffffffffffffffffffffff1681526020019081526020015f206007015f6101000a81548167ffffffffffffffff021916908367ffffffffffffffff1602179055505050565b620082496201046e565b620082536200d0e3565b156200826d576200826583836200d182565b905062008306565b5f6200829f61080185856040516020016200828a9291906201364a565b6040516020818303038152906040526200d276565b90505f815103620082ec5760405180606001604052805f67ffffffffffffffff1681526020015f67ffffffffffffffff1681526020015f67ffffffffffffffff1681525091505062008306565b80806020019051810190620083029190620136f7565b9150505b92915050565b5f6200831a825f016200d60a565b9050919050565b5f62008330835f01836200d619565b5f1c905092915050565b5f5f8260070b13620083585781620083529062013727565b6200835a565b815b9050919050565b5f600e5f8473ffffffffffffffffffffffffffffffffffffffff1673ffffffffffffffffffffffffffffffffffffffff1681526020019081526020015f205f9054906101000a900460ff1690508015620083bc575062008904565b5f600d5f8573ffffffffffffffffffffffffffffffffffffffff1673ffffffffffffffffffffffffffffffffffffffff1681526020019081526020015f2090505f62008408856200c7ff565b90508015801562008417575083155b15620084265750505062008904565b6001600e5f8773ffffffffffffffffffffffffffffffffffffffff1673ffffffffffffffffffffffffffffffffffffffff1681526020019081526020015f205f6101000a81548160ff0219169083151502179055506001825f015f6101000a81548160ff021916908315150217905550620084a18562009e05565b826007015f6101000a81548167ffffffffffffffff021916908367ffffffffffffffff160217905550620084d462010654565b620084df866200c874565b90508060200151836003015f6101000a81548167ffffffffffffffff021916908367ffffffffffffffff1602179055505f816060015190505f8167ffffffffffffffff16111562008659575f62093a80426200853c919062013114565b90505f5f90505b8267ffffffffffffffff1681101562008656575f5f60018562008567919062012e73565b67ffffffffffffffff1683149050806200859f578486604001516200858d919062012364565b67ffffffffffffffff169150620085e6565b82858760400151620085b2919062012364565b67ffffffffffffffff16620085c89190620128bd565b866040015167ffffffffffffffff16620085e39190620122fd565b91505b620086466200863560405180606001604052808e73ffffffffffffffffffffffffffffffffffffffff1681526020018567ffffffffffffffff1681526020018763ffffffff168152506200ca58565b60176200caa790919063ffffffff16565b5050808060010191505062008543565b50505b606062008666886200953f565b90505f5f90505b8151811015620087de578181815181106200868d576200868c62012ba5565b5b6020026020010151866006015f848481518110620086b057620086af62012ba5565b5b60200260200101515f015173ffffffffffffffffffffffffffffffffffffffff1673ffffffffffffffffffffffffffffffffffffffff1681526020019081526020015f205f820151815f015f6101000a81548173ffffffffffffffffffffffffffffffffffffffff021916908373ffffffffffffffffffffffffffffffffffffffff1602179055506020820151815f0160146101000a81548167ffffffffffffffff021916908367ffffffffffffffff1602179055506040820151816001015f6101000a81548167ffffffffffffffff021916908367ffffffffffffffff160217905550905050620087cf828281518110620087b157620087b062012ba5565b5b60200260200101515f0151876004016200c4db90919063ffffffff16565b5080806001019150506200866d565b50620087eb5f896200d643565b600d5f8a73ffffffffffffffffffffffffffffffffffffffff1673ffffffffffffffffffffffffffffffffffffffff1681526020019081526020015f20600a015f5f61ffff1681526020019081526020015f205f820151815f015f6101000a81548167ffffffffffffffff021916908360070b67ffffffffffffffff1602179055506020820151815f0160086101000a81548167ffffffffffffffff021916908367ffffffffffffffff1602179055506040820151815f0160106101000a81548167ffffffffffffffff021916908367ffffffffffffffff1602179055506060820151815f0160186101000a81548167ffffffffffffffff021916908360070b67ffffffffffffffff1602179055509050505050505050505b5050565b62008913826200a078565b5f1515600d5f8473ffffffffffffffffffffffffffffffffffffffff1673ffffffffffffffffffffffffffffffffffffffff1681526020019081526020015f205f015f9054906101000a900460ff161515031562008a7b576001600f5f8473ffffffffffffffffffffffffffffffffffffffff1673ffffffffffffffffffffffffffffffffffffffff1681526020019081526020015f205f8367ffffffffffffffff1667ffffffffffffffff1681526020019081526020015f205f6101000a81548160ff021916908315150217905550620089ef82826200823f565b5f0151600d5f8473ffffffffffffffffffffffffffffffffffffffff1673ffffffffffffffffffffffffffffffffffffffff1681526020019081526020015f206001015f8367ffffffffffffffff1667ffffffffffffffff1681526020019081526020015f205f6101000a81548167ffffffffffffffff021916908367ffffffffffffffff1602179055505b5050565b5f62008a8a6200d0e3565b1562008aa35762008a9b826200d6c5565b905062008aef565b5f62008ad36108078460405160200162008abe91906201158b565b6040516020818303038152906040526200d276565b90508080602001905181019062008aeb919062013772565b9150505b919050565b600160115f8473ffffffffffffffffffffffffffffffffffffffff1673ffffffffffffffffffffffffffffffffffffffff1681526020019081526020015f205f8361ffff1663ffffffff1681526020019081526020015f205f6101000a81548160ff02191690831515021790555062008b6e82826200c539565b600d5f8473ffffffffffffffffffffffffffffffffffffffff1673ffffffffffffffffffffffffffffffffffffffff1681526020019081526020015f206008015f8361ffff1661ffff1681526020019081526020015f205f820151815f015f6101000a81548167ffffffffffffffff021916908360070b67ffffffffffffffff1602179055506020820151815f0160086101000a81548167ffffffffffffffff021916908367ffffffffffffffff1602179055506040820151815f0160106101000a81548167ffffffffffffffff021916908360070b67ffffffffffffffff1602179055506060820151815f0160186101000a81548163ffffffff021916908363ffffffff1602179055506080820151815f01601c6101000a81548160ff0219169083151502179055509050505050565b5f6127108262008cb0919062012e73565b9050919050565b62008cc16201051e565b5f5f61080b73ffffffffffffffffffffffffffffffffffffffff168460405160200162008cef919062010d87565b60405160208183030381529060405260405162008d0d9190620137e2565b5f60405180830381855afa9150503d805f811462008d47576040519150601f19603f3d011682016040523d82523d5f602084013e62008d4c565b606091505b50915091508162008d89576040517f87ae2f6300000000000000000000000000000000000000000000000000000000815260040160405180910390fd5b8080602001905181019062008d9f919062013984565b92505050919050565b62008db26201051e565b62008dbc6200d0e3565b1562008ddb5762008dd38263ffffffff1662008cb7565b905062008e27565b5f62008e0b61080b8460405160200162008df691906201158b565b6040516020818303038152906040526200d276565b90508080602001905181019062008e23919062013984565b9150505b919050565b5f67ffffffffffffffff801682111562008e82576040826040517f6dfcc65000000000000000000000000000000000000000000000000000000000815260040162008e7992919062013a14565b60405180910390fd5b819050919050565b5f5f836020015162008eb8578267ffffffffffffffff16846040015167ffffffffffffffff16111562008ed5565b8267ffffffffffffffff16846040015167ffffffffffffffff1610155b90508091505092915050565b5f62008f1f6305f5e1008467ffffffffffffffff168467ffffffffffffffff1662008f0d9190620128bd565b62008f19919062012e3c565b62008e2c565b90505f62008f30836008876200a1c3565b90505f8290505f60095f9054906101000a900461ffff1661ffff16111562008fb15762008fae620f424060095f9054906101000a900461ffff1661ffff168567ffffffffffffffff1662008f859190620128bd565b62008f91919062012e3c565b8467ffffffffffffffff1662008fa8919062013114565b62008e2c565b90505b8067ffffffffffffffff16600d5f8b73ffffffffffffffffffffffffffffffffffffffff1673ffffffffffffffffffffffffffffffffffffffff1681526020019081526020015f206001015f8967ffffffffffffffff1667ffffffffffffffff1681526020019081526020015f205f9054906101000a900467ffffffffffffffff1667ffffffffffffffff16101562009081576040517f08c379a00000000000000000000000000000000000000000000000000000000081526004016200907890620130f4565b60405180910390fd5b80600d5f8b73ffffffffffffffffffffffffffffffffffffffff1673ffffffffffffffffffffffffffffffffffffffff1681526020019081526020015f206001015f8967ffffffffffffffff1667ffffffffffffffff1681526020019081526020015f205f8282829054906101000a900467ffffffffffffffff1662009108919062012e73565b92506101000a81548167ffffffffffffffff021916908367ffffffffffffffff16021790555081600d5f8b73ffffffffffffffffffffffffffffffffffffffff1673ffffffffffffffffffffffffffffffffffffffff1681526020019081526020015f206001015f8a67ffffffffffffffff1667ffffffffffffffff1681526020019081526020015f205f8282829054906101000a900467ffffffffffffffff16620091b59190620124ac565b92506101000a81548167ffffffffffffffff021916908367ffffffffffffffff160217905550505050505050505050565b5f620091f5826008866200a1c3565b90505f620092356305f5e1008567ffffffffffffffff168567ffffffffffffffff16620092239190620128bd565b6200922f919062012e3c565b62008e2c565b90508167ffffffffffffffff16600d5f8a73ffffffffffffffffffffffffffffffffffffffff1673ffffffffffffffffffffffffffffffffffffffff1681526020019081526020015f206001015f8967ffffffffffffffff1667ffffffffffffffff1681526020019081526020015f205f9054906101000a900467ffffffffffffffff1667ffffffffffffffff16101562009307576040517f08c379a0000000000000000000000000000000000000000000000000000000008152600401620092fe90620130f4565b60405180910390fd5b5f8190505f60095f9054906101000a900461ffff1661ffff161115620093da575f6200936d620f424060095f9054906101000a900461ffff1661ffff168567ffffffffffffffff166200935b9190620128bd565b62009367919062012e3c565b62008e2c565b90508067ffffffffffffffff168267ffffffffffffffff1611620093c8576040517f08c379a0000000000000000000000000000000000000000000000000000000008152600401620093bf9062013a8d565b60405180910390fd5b8082620093d6919062012e73565b9150505b82600d5f8b73ffffffffffffffffffffffffffffffffffffffff1673ffffffffffffffffffffffffffffffffffffffff1681526020019081526020015f206001015f8a67ffffffffffffffff1667ffffffffffffffff1681526020019081526020015f205f8282829054906101000a900467ffffffffffffffff1662009461919062012e73565b92506101000a81548167ffffffffffffffff021916908367ffffffffffffffff16021790555080600d5f8b73ffffffffffffffffffffffffffffffffffffffff1673ffffffffffffffffffffffffffffffffffffffff1681526020019081526020015f206001015f8967ffffffffffffffff1667ffffffffffffffff1681526020019081526020015f205f8282829054906101000a900467ffffffffffffffff166200950e9190620124ac565b92506101000a81548167ffffffffffffffff021916908367ffffffffffffffff160217905550505050505050505050565b60606200954b6200d0e3565b1562009564576200955c826200d7ad565b90506200961d565b5f62009594610804846040516020016200957f91906201315f565b6040516020818303038152906040526200d276565b90505f81510362009603575f67ffffffffffffffff811115620095bc57620095bb62010a5c565b5b604051908082528060200260200182016040528015620095f957816020015b620095e5620104d6565b815260200190600190039081620095db5790505b509150506200961d565b8080602001905181019062009619919062013c02565b9150505b919050565b60605f62009632835f016200d896565b905060608190508092505050919050565b5f5f601f5490505f5f601e5f8773ffffffffffffffffffffffffffffffffffffffff1673ffffffffffffffffffffffffffffffffffffffff1681526020019081526020015f205f8673ffffffffffffffffffffffffffffffffffffffff1673ffffffffffffffffffffffffffffffffffffffff1681526020019081526020015f2054146200974a57601e5f8673ffffffffffffffffffffffffffffffffffffffff1673ffffffffffffffffffffffffffffffffffffffff1681526020019081526020015f205f8573ffffffffffffffffffffffffffffffffffffffff1673ffffffffffffffffffffffffffffffffffffffff1681526020019081526020015f205462009754565b670de0b6b3a76400005b9050620098168183600d5f8973ffffffffffffffffffffffffffffffffffffffff1673ffffffffffffffffffffffffffffffffffffffff1681526020019081526020015f206006015f8873ffffffffffffffffffffffffffffffffffffffff1673ffffffffffffffffffffffffffffffffffffffff1681526020019081526020015f205f0160149054906101000a900467ffffffffffffffff1667ffffffffffffffff16620098049190620128bd565b62009810919062012e3c565b62008e2c565b9250505092915050565b5f73222222222222222222222222222222222222222273ffffffffffffffffffffffffffffffffffffffff168273ffffffffffffffffffffffffffffffffffffffff1603620098735760969050620098f2565b73200000000000000000000000000000000000000073ffffffffffffffffffffffffffffffffffffffff168273ffffffffffffffffffffffffffffffffffffffff161015620098cd5767ffffffffffffffff9050620098f2565b73200000000000000000000000000000000000000082620098ef919062013c51565b90505b919050565b6305f5e100600d5f8373ffffffffffffffffffffffffffffffffffffffff1673ffffffffffffffffffffffffffffffffffffffff1681526020019081526020015f206001015f5f67ffffffffffffffff1667ffffffffffffffff1681526020019081526020015f205f9054906101000a900467ffffffffffffffff1667ffffffffffffffff161062009a3a576305f5e100600d5f8373ffffffffffffffffffffffffffffffffffffffff1673ffffffffffffffffffffffffffffffffffffffff1681526020019081526020015f206001015f5f67ffffffffffffffff1667ffffffffffffffff1681526020019081526020015f205f8282829054906101000a900467ffffffffffffffff1662009a0e919062012e73565b92506101000a81548167ffffffffffffffff021916908367ffffffffffffffff16021790555062009b75565b6305f5e100600d5f8373ffffffffffffffffffffffffffffffffffffffff1673ffffffffffffffffffffffffffffffffffffffff1681526020019081526020015f206007015f9054906101000a900467ffffffffffffffff1667ffffffffffffffff161062009b37576305f5e100600d5f8373ffffffffffffffffffffffffffffffffffffffff1673ffffffffffffffffffffffffffffffffffffffff1681526020019081526020015f206007015f8282829054906101000a900467ffffffffffffffff1662009b0b919062012e73565b92506101000a81548167ffffffffffffffff021916908367ffffffffffffffff16021790555062009b74565b6040517f08c379a000000000000000000000000000000000000000000000000000000000815260040162009b6b9062013d13565b60405180910390fd5b5b50565b5f62009b8362009bef565b67ffffffffffffffff168267ffffffffffffffff160362009bbb57732222222222222222222222222222222222222222905062009bea565b8167ffffffffffffffff1673200000000000000000000000000000000000000062009be7919062013d33565b90505b919050565b5f6103e6461462009c0257609662009c06565b6104515b61ffff16905090565b7f885cb69240a935d632d79c317109709ecfa91a80626ff3989d68f67f5b1dd12d5f1c73ffffffffffffffffffffffffffffffffffffffff1663c88a5e6d83836040518363ffffffff1660e01b815260040162009c6e92919062013d81565b5f604051808303815f87803b15801562009c86575f5ffd5b505af115801562009c99573d5f5f3e3d5ffd5b505050505050565b5f5f825f0b1462009d1a575f825f0b1362009ced578162009cc29062013dac565b600a62009cd0919062012d22565b8367ffffffffffffffff1662009ce7919062012e3c565b62009d14565b81600a62009cfc919062012d22565b8367ffffffffffffffff1662009d139190620128bd565b5b62009d26565b8267ffffffffffffffff165b905092915050565b5f6103e6461462009d5457736b9e773128f453f5c2c60935ee2de2cbc5390a2462009d6a565b730b80659a4076e9e93c7dbe0f10675a16a3e5c2065b905090565b62009d7d8383835f6200d8f1565b505050565b62009e00838473ffffffffffffffffffffffffffffffffffffffff1663a9059cbb858560405160240162009db892919062013d81565b604051602081830303815290604052915060e01b6020820180517bffffffffffffffffffffffffffffffffffffffffffffffffffffffff83818316178352505050506200db96565b505050565b5f62009e106200d0e3565b1562009e295762009e21826200dc37565b905062009e8b565b5f62009e596108038460405160200162009e4491906201315f565b6040516020818303038152906040526200d276565b90505f81510362009e6e575f91505062009e8b565b8080602001905181019062009e84919062013e37565b5f01519150505b919050565b62009e9a62010540565b62009ea46200d0e3565b1562009ec35762009ebb8263ffffffff166200dd22565b905062009ff5565b5f62009ef361080c8460405160200162009ede91906201158b565b6040516020818303038152906040526200d276565b90505f81510362009fdb5760405180610100016040528060405180602001604052805f81525081526020015f67ffffffffffffffff81111562009f3b5762009f3a62010a5c565b5b60405190808252806020026020018201604052801562009f6a5781602001602082028036833780820191505090505b5081526020015f67ffffffffffffffff168152602001600173ffffffffffffffffffffffffffffffffffffffff168152602001600173ffffffffffffffffffffffffffffffffffffffff1681526020015f60ff1681526020015f60ff1681526020015f5f0b81525091505062009ff5565b8080602001905181019062009ff1919062014052565b9150505b919050565b6200a004620105d9565b6200a00e6200d0e3565b156200a027576200a01f826200a0d2565b90506200a073565b5f6200a05761080a846040516020016200a04291906201158b565b6040516020818303038152906040526200d276565b9050808060200190518101906200a06f919062014184565b9150505b919050565b6200a084815f62008361565b50565b5f5f6200a094836200a0d2565b90508060400151600a6200a0a9919062012d22565b6200a0b4846200de13565b67ffffffffffffffff166200a0ca9190620128bd565b915050919050565b6200a0dc620105d9565b5f5f61080a73ffffffffffffffffffffffffffffffffffffffff16846040516020016200a10a91906201158b565b6040516020818303038152906040526040516200a1289190620137e2565b5f60405180830381855afa9150503d805f81146200a162576040519150601f19603f3d011682016040523d82523d5f602084013e6200a167565b606091505b5091509150816200a1a4576040517f784fcee800000000000000000000000000000000000000000000000000000000815260040160405180910390fd5b808060200190518101906200a1ba919062014184565b92505050919050565b5f8160ff168360ff16036200a1db578390506200a251565b8160ff168360ff1610156200a220575f83836200a1f99190620141d3565b905080600a6200a20a91906201420e565b856200a2179190620124ee565b9150506200a251565b5f82846200a22f9190620141d3565b905080600a6200a24091906201420e565b856200a24d919062012364565b9150505b9392505050565b5f5f90505f5f90505f5f90505f5f90505f5f90505f5f90505b6200a2b860225f8973ffffffffffffffffffffffffffffffffffffffff1673ffffffffffffffffffffffffffffffffffffffff1681526020019081526020015f206200830c565b8110156200a550575f6200a3128260225f8b73ffffffffffffffffffffffffffffffffffffffff1673ffffffffffffffffffffffffffffffffffffffff1681526020019081526020015f206200832190919063ffffffff16565b90505f600d5f8a73ffffffffffffffffffffffffffffffffffffffff1673ffffffffffffffffffffffffffffffffffffffff1681526020019081526020015f206008015f8361ffff1661ffff1681526020019081526020015f206040518060a00160405290815f82015f9054906101000a900460070b60070b60070b81526020015f820160089054906101000a900467ffffffffffffffff1667ffffffffffffffff1667ffffffffffffffff1681526020015f820160109054906101000a900460070b60070b60070b81526020015f820160189054906101000a900463ffffffff1663ffffffff1663ffffffff1681526020015f8201601c9054906101000a900460ff16151515158152505090505f816060015190505f6200a4388461ffff1662007301565b90508163ffffffff1683602001516200a452919062012364565b886200a45f9190620124ac565b97505f835f015190505f8160070b13156200a4cf575f82826200a4839190620124ee565b9050808c6200a4939190620124ac565b9b508363ffffffff16816200a4a9919062012364565b8b6200a4b69190620124ac565b9a5080896200a4c69190620124ac565b9850506200a53d565b5f8160070b12156200a53c575f82826200a4e99062013727565b6200a4f59190620124ee565b9050808c6200a5059190620124ac565b9b508363ffffffff16816200a51b919062012364565b8b6200a5289190620124ac565b9a5080886200a5389190620124ac565b9750505b5b505050505080806001019150506200a271565b505f8484600d5f8a73ffffffffffffffffffffffffffffffffffffffff1673ffffffffffffffffffffffffffffffffffffffff1681526020019081526020015f206007015f9054906101000a900467ffffffffffffffff166200a5b4919062012e73565b6200a5c09190620124ac565b90505f8284836200a5d291906201239b565b6200a5de919062012446565b905060405180608001604052808360070b81526020018767ffffffffffffffff1681526020018867ffffffffffffffff1681526020018260070b815250600d5f8a73ffffffffffffffffffffffffffffffffffffffff1673ffffffffffffffffffffffffffffffffffffffff1681526020019081526020015f20600a015f5f61ffff1681526020019081526020015f205f820151815f015f6101000a81548167ffffffffffffffff021916908360070b67ffffffffffffffff1602179055506020820151815f0160086101000a81548167ffffffffffffffff021916908367ffffffffffffffff1602179055506040820151815f0160106101000a81548167ffffffffffffffff021916908367ffffffffffffffff1602179055506060820151815f0160186101000a81548167ffffffffffffffff021916908360070b67ffffffffffffffff1602179055509050505050505050505050565b5f825f015190505f600d5f8673ffffffffffffffffffffffffffffffffffffffff1673ffffffffffffffffffffffffffffffffffffffff1681526020019081526020015f206008015f8361ffff1661ffff1681526020019081526020015f205f015f9054906101000a900460070b90505f600d5f8773ffffffffffffffffffffffffffffffffffffffff1673ffffffffffffffffffffffffffffffffffffffff1681526020019081526020015f206008015f8461ffff1661ffff1681526020019081526020015f205f0160189054906101000a900463ffffffff1690505f6200a8208562008e2c565b90505f8263ffffffff16116200a86d576040517f08c379a00000000000000000000000000000000000000000000000000000000081526004016200a8649062014294565b60405180910390fd5b5f866060015167ffffffffffffffff16116200a8c0576040517f08c379a00000000000000000000000000000000000000000000000000000000081526004016200a8b79062014302565b60405180910390fd5b5f85116200a905576040517f08c379a00000000000000000000000000000000000000000000000000000000081526004016200a8fc9062014370565b60405180910390fd5b5f600960029054906101000a900461ffff1661ffff1611156200aac4575f8167ffffffffffffffff16876060015167ffffffffffffffff166200a9499190620128bd565b90505f6200a988620f4240600960029054906101000a900461ffff1661ffff16846200a9769190620128bd565b6200a982919062012e3c565b62008e2c565b90508067ffffffffffffffff16600d5f8b73ffffffffffffffffffffffffffffffffffffffff1673ffffffffffffffffffffffffffffffffffffffff1681526020019081526020015f206007015f9054906101000a900467ffffffffffffffff1667ffffffffffffffff1610156200aa37576040517f08c379a00000000000000000000000000000000000000000000000000000000081526004016200aa2e9062014404565b60405180910390fd5b80600d5f8b73ffffffffffffffffffffffffffffffffffffffff1673ffffffffffffffffffffffffffffffffffffffff1681526020019081526020015f206007015f8282829054906101000a900467ffffffffffffffff166200aa9b919062012e73565b92506101000a81548167ffffffffffffffff021916908367ffffffffffffffff16021790555050505b5f8660600151846200aad7919062012446565b90505f8460070b126200ac42578660600151600d5f8a73ffffffffffffffffffffffffffffffffffffffff1673ffffffffffffffffffffffffffffffffffffffff1681526020019081526020015f206008015f8761ffff1661ffff1681526020019081526020015f205f015f8282829054906101000a900460070b6200ab5e919062012446565b92506101000a81548167ffffffffffffffff021916908360070b67ffffffffffffffff1602179055508587606001516200ab999190620124ee565b600d5f8a73ffffffffffffffffffffffffffffffffffffffff1673ffffffffffffffffffffffffffffffffffffffff1681526020019081526020015f206008015f8761ffff1661ffff1681526020019081526020015f205f0160088282829054906101000a900467ffffffffffffffff166200ac169190620124ac565b92506101000a81548167ffffffffffffffff021916908367ffffffffffffffff1602179055506200b33f565b5f8160070b136200b00c575f846200ac5a9062013727565b600d5f8b73ffffffffffffffffffffffffffffffffffffffff1673ffffffffffffffffffffffffffffffffffffffff1681526020019081526020015f206008015f8861ffff1661ffff1681526020019081526020015f205f0160089054906101000a900467ffffffffffffffff166200acd4919062012364565b90505f83826200ace591906201239b565b89606001516200acf6919062012401565b90505f8563ffffffff16876200ad0c9062013727565b600d5f8e73ffffffffffffffffffffffffffffffffffffffff1673ffffffffffffffffffffffffffffffffffffffff1681526020019081526020015f206008015f8b61ffff1661ffff1681526020019081526020015f205f0160089054906101000a900467ffffffffffffffff168c606001516200ad8b9190620124ee565b6200ad97919062012364565b6200ada3919062012364565b90505f8260070b136200ae2257816200adbc9062013727565b600d5f8d73ffffffffffffffffffffffffffffffffffffffff1673ffffffffffffffffffffffffffffffffffffffff1681526020019081526020015f206007015f9054906101000a900467ffffffffffffffff166200ae1c919062012e73565b6200ae84565b81600d5f8d73ffffffffffffffffffffffffffffffffffffffff1673ffffffffffffffffffffffffffffffffffffffff1681526020019081526020015f206007015f9054906101000a900467ffffffffffffffff166200ae839190620124ac565b5b600d5f8d73ffffffffffffffffffffffffffffffffffffffff1673ffffffffffffffffffffffffffffffffffffffff1681526020019081526020015f206007015f6101000a81548167ffffffffffffffff021916908367ffffffffffffffff16021790555083600d5f8d73ffffffffffffffffffffffffffffffffffffffff1673ffffffffffffffffffffffffffffffffffffffff1681526020019081526020015f206008015f8a61ffff1661ffff1681526020019081526020015f205f015f6101000a81548167ffffffffffffffff021916908360070b67ffffffffffffffff16021790555082846200af789062013727565b6200af849190620124ee565b600d5f8d73ffffffffffffffffffffffffffffffffffffffff1673ffffffffffffffffffffffffffffffffffffffff1681526020019081526020015f206008015f8a61ffff1661ffff1681526020019081526020015f205f0160086101000a81548167ffffffffffffffff021916908367ffffffffffffffff1602179055505050506200b33e565b5f846200b0199062013727565b600d5f8b73ffffffffffffffffffffffffffffffffffffffff1673ffffffffffffffffffffffffffffffffffffffff1681526020019081526020015f206008015f8861ffff1661ffff1681526020019081526020015f205f0160089054906101000a900467ffffffffffffffff166200b093919062012364565b90505f83826200b0a491906201239b565b866200b0b09062013727565b6200b0bc919062012401565b90505f8160070b136200b13b57806200b0d59062013727565b600d5f8c73ffffffffffffffffffffffffffffffffffffffff1673ffffffffffffffffffffffffffffffffffffffff1681526020019081526020015f206007015f9054906101000a900467ffffffffffffffff166200b135919062012e73565b6200b19d565b80600d5f8c73ffffffffffffffffffffffffffffffffffffffff1673ffffffffffffffffffffffffffffffffffffffff1681526020019081526020015f206007015f9054906101000a900467ffffffffffffffff166200b19c9190620124ac565b5b600d5f8c73ffffffffffffffffffffffffffffffffffffffff1673ffffffffffffffffffffffffffffffffffffffff1681526020019081526020015f206007015f6101000a81548167ffffffffffffffff021916908367ffffffffffffffff1602179055505f8390505f8663ffffffff1686836200b21c9190620124ee565b6200b228919062012364565b905084600d5f8e73ffffffffffffffffffffffffffffffffffffffff1673ffffffffffffffffffffffffffffffffffffffff1681526020019081526020015f206008015f8b61ffff1661ffff1681526020019081526020015f205f015f6101000a81548167ffffffffffffffff021916908360070b67ffffffffffffffff16021790555085826200b2ba9190620124ee565b600d5f8e73ffffffffffffffffffffffffffffffffffffffff1673ffffffffffffffffffffffffffffffffffffffff1681526020019081526020015f206008015f8b61ffff1661ffff1681526020019081526020015f205f0160086101000a81548167ffffffffffffffff021916908367ffffffffffffffff160217905550505050505b5b5f6200b34c89876200ccac565b90505f8560070b1480156200b36457505f8260070b14155b156200b3dd576200b3808160206200defb90919063ffffffff16565b506200b3d68661ffff1660225f8c73ffffffffffffffffffffffffffffffffffffffff1673ffffffffffffffffffffffffffffffffffffffff1681526020019081526020015f206200df1290919063ffffffff16565b506200b468565b5f8560070b141580156200b3f357505f8260070b145b156200b467576200b40f8160206200ccd890919063ffffffff16565b506200b4658661ffff1660225f8c73ffffffffffffffffffffffffffffffffffffffff1673ffffffffffffffffffffffffffffffffffffffff1681526020019081526020015f206200ccef90919063ffffffff16565b505b5b505050505050505050565b5f825f015190505f600d5f8673ffffffffffffffffffffffffffffffffffffffff1673ffffffffffffffffffffffffffffffffffffffff1681526020019081526020015f206008015f8361ffff1661ffff1681526020019081526020015f205f015f9054906101000a900460070b90505f600d5f8773ffffffffffffffffffffffffffffffffffffffff1673ffffffffffffffffffffffffffffffffffffffff1681526020019081526020015f206008015f8461ffff1661ffff1681526020019081526020015f205f0160189054906101000a900463ffffffff1690505f6200b55c8562008e2c565b90505f8263ffffffff16116200b5a9576040517f08c379a00000000000000000000000000000000000000000000000000000000081526004016200b5a09062014294565b60405180910390fd5b5f866060015167ffffffffffffffff16116200b5fc576040517f08c379a00000000000000000000000000000000000000000000000000000000081526004016200b5f39062014302565b60405180910390fd5b5f85116200b641576040517f08c379a00000000000000000000000000000000000000000000000000000000081526004016200b6389062014370565b60405180910390fd5b5f600960029054906101000a900461ffff1661ffff1611156200b800575f8167ffffffffffffffff16876060015167ffffffffffffffff166200b6859190620128bd565b90505f6200b6c4620f4240600960029054906101000a900461ffff1661ffff16846200b6b29190620128bd565b6200b6be919062012e3c565b62008e2c565b90508067ffffffffffffffff16600d5f8b73ffffffffffffffffffffffffffffffffffffffff1673ffffffffffffffffffffffffffffffffffffffff1681526020019081526020015f206007015f9054906101000a900467ffffffffffffffff1667ffffffffffffffff1610156200b773576040517f08c379a00000000000000000000000000000000000000000000000000000000081526004016200b76a9062014404565b60405180910390fd5b80600d5f8b73ffffffffffffffffffffffffffffffffffffffff1673ffffffffffffffffffffffffffffffffffffffff1681526020019081526020015f206007015f8282829054906101000a900467ffffffffffffffff166200b7d7919062012e73565b92506101000a81548167ffffffffffffffff021916908367ffffffffffffffff16021790555050505b5f8660600151846200b81391906201239b565b90505f8460070b136200b97e578660600151600d5f8a73ffffffffffffffffffffffffffffffffffffffff1673ffffffffffffffffffffffffffffffffffffffff1681526020019081526020015f206008015f8761ffff1661ffff1681526020019081526020015f205f015f8282829054906101000a900460070b6200b89a91906201239b565b92506101000a81548167ffffffffffffffff021916908360070b67ffffffffffffffff1602179055508587606001516200b8d59190620124ee565b600d5f8a73ffffffffffffffffffffffffffffffffffffffff1673ffffffffffffffffffffffffffffffffffffffff1681526020019081526020015f206008015f8761ffff1661ffff1681526020019081526020015f205f0160088282829054906101000a900467ffffffffffffffff166200b9529190620124ac565b92506101000a81548167ffffffffffffffff021916908367ffffffffffffffff1602179055506200c04f565b5f8160070b126200bd27575f84600d5f8b73ffffffffffffffffffffffffffffffffffffffff1673ffffffffffffffffffffffffffffffffffffffff1681526020019081526020015f206008015f8861ffff1661ffff1681526020019081526020015f205f0160089054906101000a900467ffffffffffffffff166200ba05919062012364565b90505f81846200ba1691906201239b565b89606001516200ba27919062012401565b90505f8563ffffffff1687600d5f8e73ffffffffffffffffffffffffffffffffffffffff1673ffffffffffffffffffffffffffffffffffffffff1681526020019081526020015f206008015f8b61ffff1661ffff1681526020019081526020015f205f0160089054906101000a900467ffffffffffffffff168c606001516200bab19190620124ee565b6200babd919062012364565b6200bac9919062012364565b90505f8260070b136200bb4857816200bae29062013727565b600d5f8d73ffffffffffffffffffffffffffffffffffffffff1673ffffffffffffffffffffffffffffffffffffffff1681526020019081526020015f206007015f9054906101000a900467ffffffffffffffff166200bb42919062012e73565b6200bbaa565b81600d5f8d73ffffffffffffffffffffffffffffffffffffffff1673ffffffffffffffffffffffffffffffffffffffff1681526020019081526020015f206007015f9054906101000a900467ffffffffffffffff166200bba99190620124ac565b5b600d5f8d73ffffffffffffffffffffffffffffffffffffffff1673ffffffffffffffffffffffffffffffffffffffff1681526020019081526020015f206007015f6101000a81548167ffffffffffffffff021916908367ffffffffffffffff16021790555083600d5f8d73ffffffffffffffffffffffffffffffffffffffff1673ffffffffffffffffffffffffffffffffffffffff1681526020019081526020015f206008015f8a61ffff1661ffff1681526020019081526020015f205f015f6101000a81548167ffffffffffffffff021916908360070b67ffffffffffffffff16021790555082846200bc9f9190620124ee565b600d5f8d73ffffffffffffffffffffffffffffffffffffffff1673ffffffffffffffffffffffffffffffffffffffff1681526020019081526020015f206008015f8a61ffff1661ffff1681526020019081526020015f205f0160086101000a81548167ffffffffffffffff021916908367ffffffffffffffff1602179055505050506200c04e565b5f84600d5f8b73ffffffffffffffffffffffffffffffffffffffff1673ffffffffffffffffffffffffffffffffffffffff1681526020019081526020015f206008015f8861ffff1661ffff1681526020019081526020015f205f0160089054906101000a900467ffffffffffffffff166200bda3919062012364565b90505f81846200bdb491906201239b565b866200bdc1919062012401565b90505f8160070b136200be4057806200bdda9062013727565b600d5f8c73ffffffffffffffffffffffffffffffffffffffff1673ffffffffffffffffffffffffffffffffffffffff1681526020019081526020015f206007015f9054906101000a900467ffffffffffffffff166200be3a919062012e73565b6200bea2565b80600d5f8c73ffffffffffffffffffffffffffffffffffffffff1673ffffffffffffffffffffffffffffffffffffffff1681526020019081526020015f206007015f9054906101000a900467ffffffffffffffff166200bea19190620124ac565b5b600d5f8c73ffffffffffffffffffffffffffffffffffffffff1673ffffffffffffffffffffffffffffffffffffffff1681526020019081526020015f206007015f6101000a81548167ffffffffffffffff021916908367ffffffffffffffff1602179055505f836200bf149062013727565b90505f8663ffffffff1686836200bf2c9190620124ee565b6200bf38919062012364565b905084600d5f8e73ffffffffffffffffffffffffffffffffffffffff1673ffffffffffffffffffffffffffffffffffffffff1681526020019081526020015f206008015f8b61ffff1661ffff1681526020019081526020015f205f015f6101000a81548167ffffffffffffffff021916908360070b67ffffffffffffffff16021790555085826200bfca9190620124ee565b600d5f8e73ffffffffffffffffffffffffffffffffffffffff1673ffffffffffffffffffffffffffffffffffffffff1681526020019081526020015f206008015f8b61ffff1661ffff1681526020019081526020015f205f0160086101000a81548167ffffffffffffffff021916908367ffffffffffffffff160217905550505050505b5b5f6200c05c89876200ccac565b90505f8560070b1480156200c07457505f8260070b14155b156200c0ed576200c0908160206200defb90919063ffffffff16565b506200c0e68661ffff1660225f8c73ffffffffffffffffffffffffffffffffffffffff1673ffffffffffffffffffffffffffffffffffffffff1681526020019081526020015f206200df1290919063ffffffff16565b506200c178565b5f8560070b141580156200c10357505f8260070b145b156200c177576200c11f8160206200ccd890919063ffffffff16565b506200c1758661ffff1660225f8c73ffffffffffffffffffffffffffffffffffffffff1673ffffffffffffffffffffffffffffffffffffffff1681526020019081526020015f206200ccef90919063ffffffff16565b505b5b505050505050505050565b5f6200c191825f016200d60a565b9050919050565b5f6200c1a7835f01836200d619565b905092915050565b6200c1b9620105bd565b5f6200c1c5836200cd08565b90505f5f90505f5f90505b6200c21760225f8773ffffffffffffffffffffffffffffffffffffffff1673ffffffffffffffffffffffffffffffffffffffff1681526020019081526020015f206200830c565b8110156200c447575f6200c2718260225f8973ffffffffffffffffffffffffffffffffffffffff1673ffffffffffffffffffffffffffffffffffffffff1681526020019081526020015f206200832190919063ffffffff16565b90505f600d5f8873ffffffffffffffffffffffffffffffffffffffff1673ffffffffffffffffffffffffffffffffffffffff1681526020019081526020015f206008015f8361ffff1661ffff1681526020019081526020015f206040518060a00160405290815f82015f9054906101000a900460070b60070b60070b81526020015f820160089054906101000a900467ffffffffffffffff1667ffffffffffffffff1667ffffffffffffffff1681526020015f820160109054906101000a900460070b60070b60070b81526020015f820160189054906101000a900463ffffffff1663ffffffff1663ffffffff1681526020015f8201601c9054906101000a900460ff16151515158152505090505f6200c38f8361ffff1662007301565b90505f5f90505f835f015160070b13156200c3bd5781835f01516200c3b59190620124ee565b90506200c3ec565b5f835f015160070b12156200c3eb5781835f01516200c3dc9062013727565b6200c3e89190620124ee565b90505b5b5f836060015163ffffffff1684602001516200c409919062012364565b90506200c425600a836200c41e919062012364565b826200df2b565b876200c4329190620124ac565b9650505050505080806001019150506200c1d0565b505f81835f01516200c45a91906201239b565b90505f5f8260070b136200c46f575f6200c471565b815b905060405180602001604052808267ffffffffffffffff16815250945050505050919050565b5f6200c4a5825f016200d60a565b9050919050565b5f6200c4d3835f018373ffffffffffffffffffffffffffffffffffffffff165f1b6200df59565b905092915050565b5f6200c502835f018373ffffffffffffffffffffffffffffffffffffffff165f1b6200df79565b905092915050565b5f6200c531835f018373ffffffffffffffffffffffffffffffffffffffff165f1b6200dfe4565b905092915050565b6200c54362010612565b6200c54d6200d0e3565b156200c567576200c55f83836200e0f0565b90506200c606565b5f6200c59961080085856040516020016200c58492919062014424565b6040516020818303038152906040526200d276565b90505f8151036200c5ec576040518060a001604052805f60070b81526020015f67ffffffffffffffff1681526020015f60070b81526020015f63ffffffff1681526020015f15158152509150506200c606565b808060200190518101906200c602919062014516565b9150505b92915050565b5f6200c6176200d0e3565b156200c636576200c62e8263ffffffff166200e1e4565b90506200c682565b5f6200c666610808846040516020016200c65191906201158b565b6040516020818303038152906040526200d276565b9050808060200190518101906200c67e919062013772565b9150505b919050565b600160105f8473ffffffffffffffffffffffffffffffffffffffff1673ffffffffffffffffffffffffffffffffffffffff1681526020019081526020015f205f8373ffffffffffffffffffffffffffffffffffffffff1673ffffffffffffffffffffffffffffffffffffffff1681526020019081526020015f205f6101000a81548160ff0219169083151502179055506200c72382826200e2cc565b600d5f8473ffffffffffffffffffffffffffffffffffffffff1673ffffffffffffffffffffffffffffffffffffffff1681526020019081526020015f206002015f8373ffffffffffffffffffffffffffffffffffffffff1673ffffffffffffffffffffffffffffffffffffffff1681526020019081526020015f205f820151815f015f6101000a81548167ffffffffffffffff021916908367ffffffffffffffff1602179055506020820151815f0160086101000a81548167ffffffffffffffff021916908367ffffffffffffffff1602179055509050505050565b5f6200c80a6200d0e3565b156200c823576200c81b826200e389565b90506200c86f565b5f6200c853610810846040516020016200c83e91906201315f565b6040516020818303038152906040526200d276565b9050808060200190518101906200c86b919062014546565b9150505b919050565b6200c87e62010654565b6200c8886200d0e3565b156200c8a1576200c899826200e474565b90506200c8ed565b5f6200c8d1610805846040516020016200c8bc91906201315f565b6040516020818303038152906040526200d276565b9050808060200190518101906200c8e99190620145f8565b9150505b919050565b5f815f015f9054906101000a90046fffffffffffffffffffffffffffffffff16825f0160109054906101000a90046fffffffffffffffffffffffffffffffff16036fffffffffffffffffffffffffffffffff169050919050565b5f6200c958836200c8f2565b82106200c96c576200c96b60326200e565565b5b826001015f83855f015f9054906101000a90046fffffffffffffffffffffffffffffffff16016fffffffffffffffffffffffffffffffff166fffffffffffffffffffffffffffffffff1681526020019081526020015f2054905092915050565b6200c9d6620106de565b6060825f1c901c815f019073ffffffffffffffffffffffffffffffffffffffff16908173ffffffffffffffffffffffffffffffffffffffff16815250506020825f1c901c816020019067ffffffffffffffff16908167ffffffffffffffff1681525050815f1c816040019063ffffffff16908163ffffffff1681525050919050565b5f816040015163ffffffff1664ffffffffff166020836020015167ffffffffffffffff16901b6060845f015173ffffffffffffffffffffffffffffffffffffffff16901b17175f1b9050919050565b5f825f0160109054906101000a90046fffffffffffffffffffffffffffffffff169050825f015f9054906101000a90046fffffffffffffffffffffffffffffffff166fffffffffffffffffffffffffffffffff16600182016fffffffffffffffffffffffffffffffff16036200cb24576200cb2360416200e565565b5b81836001015f836fffffffffffffffffffffffffffffffff166fffffffffffffffffffffffffffffffff1681526020019081526020015f208190555060018101835f0160106101000a8154816fffffffffffffffffffffffffffffffff02191690836fffffffffffffffffffffffffffffffff160217905550505050565b5f6200cbad6200d0e3565b156200cbc6576200cbbe826200de13565b90506200cc12565b5f6200cbf6610806846040516020016200cbe191906201158b565b6040516020818303038152906040526200d276565b9050808060200190518101906200cc0e919062013772565b9150505b919050565b5f6064826200cc279190620124ee565b9050919050565b5f5f5f835f0b146200cc94575f835f0b136200cc7157826200cc509062013dac565b600a6200cc5e919062012d22565b846200cc6b9190620128bd565b6200cc8e565b82600a6200cc80919062012d22565b846200cc8d919062012e3c565b5b6200cc96565b835b90506200cca38162008e2c565b91505092915050565b5f8161ffff1660108473ffffffffffffffffffffffffffffffffffffffff16901b175f1b905092915050565b5f6200cce7835f01836200dfe4565b905092915050565b5f6200cd00835f01835f1b6200dfe4565b905092915050565b6200cd12620106a0565b5f5f90505f5f90505f5f90505f5f90505f5f90505f5f90505b6200cd7260225f8a73ffffffffffffffffffffffffffffffffffffffff1673ffffffffffffffffffffffffffffffffffffffff1681526020019081526020015f206200830c565b8110156200d00a575f6200cdcc8260225f8c73ffffffffffffffffffffffffffffffffffffffff1673ffffffffffffffffffffffffffffffffffffffff1681526020019081526020015f206200832190919063ffffffff16565b90505f600d5f8b73ffffffffffffffffffffffffffffffffffffffff1673ffffffffffffffffffffffffffffffffffffffff1681526020019081526020015f206008015f8361ffff1661ffff1681526020019081526020015f206040518060a00160405290815f82015f9054906101000a900460070b60070b60070b81526020015f820160089054906101000a900467ffffffffffffffff1667ffffffffffffffff1667ffffffffffffffff1681526020015f820160109054906101000a900460070b60070b60070b81526020015f820160189054906101000a900463ffffffff1663ffffffff1663ffffffff1681526020015f8201601c9054906101000a900460ff16151515158152505090505f816060015190505f6200cef28461ffff1662007301565b90508163ffffffff1683602001516200cf0c919062012364565b886200cf199190620124ac565b97505f835f015190505f8160070b13156200cf89575f82826200cf3d9190620124ee565b9050808c6200cf4d9190620124ac565b9b508363ffffffff16816200cf63919062012364565b8b6200cf709190620124ac565b9a5080896200cf809190620124ac565b9850506200cff7565b5f8160070b12156200cff6575f82826200cfa39062013727565b6200cfaf9190620124ee565b9050808c6200cfbf9190620124ac565b9b508363ffffffff16816200cfd5919062012364565b8b6200cfe29190620124ac565b9a5080886200cff29190620124ac565b9750505b5b505050505080806001019150506200cd2b565b505f8484600d5f8b73ffffffffffffffffffffffffffffffffffffffff1673ffffffffffffffffffffffffffffffffffffffff1681526020019081526020015f206007015f9054906101000a900467ffffffffffffffff166200d06e919062012e73565b6200d07a9190620124ac565b90505f8284836200d08c91906201239b565b6200d098919062012446565b905060405180608001604052808360070b81526020018767ffffffffffffffff1681526020018867ffffffffffffffff1681526020018260070b815250975050505050505050919050565b5f6200d0ee6200e576565b1580156200d17d575073999999999999999999999999999999999999999973ffffffffffffffffffffffffffffffffffffffff16637ea558c86040518163ffffffff1660e01b8152600401602060405180830381865afa1580156200d155573d5f5f3e3d5ffd5b505050506040513d601f19601f820116820180604052508101906200d17b919062014546565b155b905090565b6200d18c6201046e565b5f5f61080173ffffffffffffffffffffffffffffffffffffffff1685856040516020016200d1bc9291906201364a565b6040516020818303038152906040526040516200d1da9190620137e2565b5f60405180830381855afa9150503d805f81146200d214576040519150601f19603f3d011682016040523d82523d5f602084013e6200d219565b606091505b5091509150816200d256576040517f062879da00000000000000000000000000000000000000000000000000000000815260040160405180910390fd5b808060200190518101906200d26c9190620136f7565b9250505092915050565b60605f737109709ecfa91a80626ff3989d68f67f5b1dd12d73ffffffffffffffffffffffffffffffffffffffff166356ca623e856040518263ffffffff1660e01b81526004016200d2c891906201315f565b5f60405180830381865afa1580156200d2e3573d5f5f3e3d5ffd5b505050506040513d5f823e3d601f19601f820116820180604052508101906200d30d919062014628565b737109709ecfa91a80626ff3989d68f67f5b1dd12d73ffffffffffffffffffffffffffffffffffffffff166371aad10d856040518263ffffffff1660e01b81526004016200d35c9190620146c7565b5f60405180830381865afa1580156200d377573d5f5f3e3d5ffd5b505050506040513d5f823e3d601f19601f820116820180604052508101906200d3a1919062014628565b6040516020016200d3b49291906201479b565b60405160208183030381529060405290505f5f905080156200d54f575f6200d3dc436200e60d565b6040516020016200d3ee91906201481b565b6040516020818303038152906040529050737109709ecfa91a80626ff3989d68f67f5b1dd12d73ffffffffffffffffffffffffffffffffffffffff166356ca623e876040518263ffffffff1660e01b81526004016200d44e91906201315f565b5f60405180830381865afa1580156200d469573d5f5f3e3d5ffd5b505050506040513d5f823e3d601f19601f820116820180604052508101906200d493919062014628565b737109709ecfa91a80626ff3989d68f67f5b1dd12d73ffffffffffffffffffffffffffffffffffffffff166371aad10d876040518263ffffffff1660e01b81526004016200d4e29190620146c7565b5f60405180830381865afa1580156200d4fd573d5f5f3e3d5ffd5b505050506040513d5f823e3d601f19601f820116820180604052508101906200d527919062014628565b826040516020016200d53c9392919062014890565b6040516020818303038152906040529250505b737109709ecfa91a80626ff3989d68f67f5b1dd12d73ffffffffffffffffffffffffffffffffffffffff16631206c8a8836040518263ffffffff1660e01b81526004016200d59e919062014998565b5f604051808303815f875af19250505080156200d5df57506040513d5f823e3d601f19601f820116820180604052508101906200d5dc919062014a80565b60015b6200d5fd5760405180602001604052805f815250925050506200d604565b8093505050505b92915050565b5f815f01805490509050919050565b5f825f0182815481106200d632576200d63162012ba5565b5b905f5260205f200154905092915050565b6200d64d620106a0565b6200d6576200d0e3565b156200d671576200d66983836200e74d565b90506200d6bf565b5f6200d6a361080f85856040516020016200d68e92919062014acf565b6040516020818303038152906040526200d276565b9050808060200190518101906200d6bb919062014b7c565b9150505b92915050565b5f5f5f61080773ffffffffffffffffffffffffffffffffffffffff16846040516020016200d6f491906201158b565b6040516020818303038152906040526040516200d7129190620137e2565b5f60405180830381855afa9150503d805f81146200d74c576040519150601f19603f3d011682016040523d82523d5f602084013e6200d751565b606091505b5091509150816200d78e576040517f3a3e04c500000000000000000000000000000000000000000000000000000000815260040160405180910390fd5b808060200190518101906200d7a4919062013772565b92505050919050565b60605f5f61080473ffffffffffffffffffffffffffffffffffffffff16846040516020016200d7dd91906201315f565b6040516020818303038152906040526040516200d7fb9190620137e2565b5f60405180830381855afa9150503d805f81146200d835576040519150601f19603f3d011682016040523d82523d5f602084013e6200d83a565b606091505b5091509150816200d877576040517f56debe6600000000000000000000000000000000000000000000000000000000815260040160405180910390fd5b808060200190518101906200d88d919062013c02565b92505050919050565b6060815f018054806020026020016040519081016040528092919081815260200182805480156200d8e557602002820191905f5260205f20905b8154815260200190600101908083116200d8d0575b50505050509050919050565b5f8473ffffffffffffffffffffffffffffffffffffffff166370a08231856040516024016200d92191906201315f565b6040516020818303038152906040529060e01b6020820180517bffffffffffffffffffffffffffffffffffffffffffffffffffffffff83818316178352505050506040516200d9719190620137e2565b5f60405180830381855afa9150503d805f81146200d9ab576040519150601f19603f3d011682016040523d82523d5f602084013e6200d9b0565b606091505b509150505f818060200190518101906200d9cb919062013245565b90506200da26846200da17876200da086370a0823160e01b6200d9f98c60016200e84190919063ffffffff16565b6200e85690919063ffffffff16565b6200e86b90919063ffffffff16565b6200e88090919063ffffffff16565b82156200db8e575f8673ffffffffffffffffffffffffffffffffffffffff166318160ddd6040516024016040516020818303038152906040529060e01b6020820180517bffffffffffffffffffffffffffffffffffffffffffffffffffffffff83818316178352505050506040516200daa09190620137e2565b5f60405180830381855afa9150503d805f81146200dada576040519150601f19603f3d011682016040523d82523d5f602084013e6200dadf565b606091505b509150505f818060200190518101906200dafa919062013245565b9050828610156200db285785836200db139190620122fd565b816200db209190620122fd565b90506200db46565b82866200db369190620122fd565b816200db43919062013114565b90505b6200db8b816200db7c6318160ddd60e01b6200db6d8c60016200e84190919063ffffffff16565b6200e85690919063ffffffff16565b6200e88090919063ffffffff16565b50505b505050505050565b5f5f60205f8451602086015f885af1806200dbb6576040513d5f823e3d81fd5b3d92505f519150505f82146200dbd15760018114156200dbec565b5f8473ffffffffffffffffffffffffffffffffffffffff163b145b156200dc3157836040517f5274afe70000000000000000000000000000000000000000000000000000000081526004016200dc2891906201315f565b60405180910390fd5b50505050565b5f5f5f61080373ffffffffffffffffffffffffffffffffffffffff16846040516020016200dc6691906201315f565b6040516020818303038152906040526040516200dc849190620137e2565b5f60405180830381855afa9150503d805f81146200dcbe576040519150601f19603f3d011682016040523d82523d5f602084013e6200dcc3565b606091505b5091509150816200dd00576040517f70a5e2e600000000000000000000000000000000000000000000000000000000815260040160405180910390fd5b808060200190518101906200dd16919062013e37565b5f015192505050919050565b6200dd2c62010540565b5f5f61080c73ffffffffffffffffffffffffffffffffffffffff16846040516020016200dd5a919062010d87565b6040516020818303038152906040526040516200dd789190620137e2565b5f60405180830381855afa9150503d805f81146200ddb2576040519150601f19603f3d011682016040523d82523d5f602084013e6200ddb7565b606091505b5091509150816200ddf4576040517fee6b81c500000000000000000000000000000000000000000000000000000000815260040160405180910390fd5b808060200190518101906200de0a919062014052565b92505050919050565b5f5f5f61080673ffffffffffffffffffffffffffffffffffffffff16846040516020016200de4291906201158b565b6040516020818303038152906040526040516200de609190620137e2565b5f60405180830381855afa9150503d805f81146200de9a576040519150601f19603f3d011682016040523d82523d5f602084013e6200de9f565b606091505b5091509150816200dedc576040517f928da67300000000000000000000000000000000000000000000000000000000815260040160405180910390fd5b808060200190518101906200def2919062013772565b92505050919050565b5f6200df0a835f01836200df79565b905092915050565b5f6200df23835f01835f1b6200df79565b905092915050565b5f8167ffffffffffffffff168367ffffffffffffffff16116200df4f57816200df51565b825b905092915050565b5f5f836001015f8481526020019081526020015f20541415905092915050565b5f6200df8683836200df59565b6200dfda57825f0182908060018154018082558091505060019003905f5260205f20015f9091909190915055825f0180549050836001015f8481526020019081526020015f2081905550600190506200dfde565b5f90505b92915050565b5f5f836001015f8481526020019081526020015f205490505f81146200e0e5575f6001826200e0149190620122fd565b90505f6001865f01805490506200e02c9190620122fd565b90508082146200e099575f865f0182815481106200e04f576200e04e62012ba5565b5b905f5260205f200154905080875f0184815481106200e073576200e07262012ba5565b5b905f5260205f20018190555083876001015f8381526020019081526020015f2081905550505b855f018054806200e0af576200e0ae62013589565b5b600190038181905f5260205f20015f90559055856001015f8681526020019081526020015f205f9055600193505050506200e0ea565b5f9150505b92915050565b6200e0fa62010612565b5f5f61080073ffffffffffffffffffffffffffffffffffffffff1685856040516020016200e12a92919062014424565b6040516020818303038152906040526040516200e1489190620137e2565b5f60405180830381855afa9150503d805f81146200e182576040519150601f19603f3d011682016040523d82523d5f602084013e6200e187565b606091505b5091509150816200e1c4576040517f7de84ab700000000000000000000000000000000000000000000000000000000815260040160405180910390fd5b808060200190518101906200e1da919062014516565b9250505092915050565b5f5f5f61080873ffffffffffffffffffffffffffffffffffffffff16846040516020016200e213919062010d87565b6040516020818303038152906040526040516200e2319190620137e2565b5f60405180830381855afa9150503d805f81146200e26b576040519150601f19603f3d011682016040523d82523d5f602084013e6200e270565b606091505b5091509150816200e2ad576040517f98c3442600000000000000000000000000000000000000000000000000000000815260040160405180910390fd5b808060200190518101906200e2c3919062013772565b92505050919050565b6200e2d6620104aa565b6200e2e06200d0e3565b156200e2fa576200e2f283836200e892565b90506200e383565b5f6200e32c61080285856040516020016200e31792919062014bac565b6040516020818303038152906040526200d276565b90505f8151036200e3695760405180604001604052805f67ffffffffffffffff1681526020015f67ffffffffffffffff168152509150506200e383565b808060200190518101906200e37f919062014c2d565b9150505b92915050565b5f5f5f61081073ffffffffffffffffffffffffffffffffffffffff16846040516020016200e3b891906201315f565b6040516020818303038152906040526040516200e3d69190620137e2565b5f60405180830381855afa9150503d805f81146200e410576040519150601f19603f3d011682016040523d82523d5f602084013e6200e415565b606091505b5091509150816200e452576040517fafa9572000000000000000000000000000000000000000000000000000000000815260040160405180910390fd5b808060200190518101906200e468919062014c9d565b5f015192505050919050565b6200e47e62010654565b5f5f61080573ffffffffffffffffffffffffffffffffffffffff16846040516020016200e4ac91906201315f565b6040516020818303038152906040526040516200e4ca9190620137e2565b5f60405180830381855afa9150503d805f81146200e504576040519150601f19603f3d011682016040523d82523d5f602084013e6200e509565b606091505b5091509150816200e546576040517f4ffb6d5f00000000000000000000000000000000000000000000000000000000815260040160405180910390fd5b808060200190518101906200e55c9190620145f8565b92505050919050565b634e487b715f52806020526024601cfd5b5f737109709ecfa91a80626ff3989d68f67f5b1dd12d73ffffffffffffffffffffffffffffffffffffffff16632f103f226040518163ffffffff1660e01b8152600401602060405180830381865afa9250505080156200e5f657506040513d601f19601f820116820180604052508101906200e5f3919062013245565b60015b6200e604575f90506200e60a565b60019150505b90565b60605f5f90505f8390505b5f81146200e6475781806200e62d9062014ccd565b9250506010816200e63f919062012e3c565b90506200e618565b5f8267ffffffffffffffff8111156200e665576200e66462010a5c565b5b6040519080825280601f01601f1916602001820160405280156200e6985781602001600182028036833780820191505090505b5090505f5f90505b838110156200e741576010866200e6b8919062014d19565b92506200e6c5836200e986565b82600183876200e6d69190620122fd565b6200e6e29190620122fd565b815181106200e6f6576200e6f562012ba5565b5b60200101907effffffffffffffffffffffffffffffffffffffffffffffffffffffffffffff191690815f1a9053506010866200e733919062012e3c565b95508060010190506200e6a0565b50809350505050919050565b6200e757620106a0565b5f5f61080f73ffffffffffffffffffffffffffffffffffffffff1685856040516020016200e78792919062014acf565b6040516020818303038152906040526040516200e7a59190620137e2565b5f60405180830381855afa9150503d805f81146200e7df576040519150601f19603f3d011682016040523d82523d5f602084013e6200e7e4565b606091505b5091509150816200e821576040517f7cf4fff200000000000000000000000000000000000000000000000000000000815260040160405180910390fd5b808060200190518101906200e837919062014b7c565b9250505092915050565b5f6200e84e83836200ea53565b905092915050565b5f6200e86383836200ea9f565b905092915050565b5f6200e87883836200eac8565b905092915050565b6200e88e82825f1b6200eb12565b5050565b6200e89c620104aa565b5f5f61080273ffffffffffffffffffffffffffffffffffffffff1685856040516020016200e8cc92919062014bac565b6040516020818303038152906040526040516200e8ea9190620137e2565b5f60405180830381855afa9150503d805f81146200e924576040519150601f19603f3d011682016040523d82523d5f602084013e6200e929565b606091505b5091509150816200e966576040517fb1f87d6800000000000000000000000000000000000000000000000000000000815260040160405180910390fd5b808060200190518101906200e97c919062014c2d565b9250505092915050565b5f8160ff165f111580156200e99f575060098260ff1611155b156200e9e157817f300000000000000000000000000000000000000000000000000000000000000060f81c6200e9d6919062014d50565b60f81b90506200ea4e565b8160ff16600a111580156200e9fa5750600f8260ff1611155b156200ea4a57600a827f610000000000000000000000000000000000000000000000000000000000000060f81c6200ea33919062014d50565b6200ea3f9190620141d3565b60f81b90506200ea4e565b5f5ffd5b919050565b5f81836004015f6101000a81548173ffffffffffffffffffffffffffffffffffffffff021916908373ffffffffffffffffffffffffffffffffffffffff16021790555082905092915050565b5f81836002015f6101000a81548163ffffffff021916908360e01c021790555082905092915050565b5f826001018273ffffffffffffffffffffffffffffffffffffffff165f1b908060018154018082558091505060019003905f5260205f20015f909190919091505582905092915050565b5f826004015f9054906101000a900473ffffffffffffffffffffffffffffffffffffffff1690505f836002015f9054906101000a900460e01b90505f846003015490505f6200eb61866200f0dc565b9050855f015f8573ffffffffffffffffffffffffffffffffffffffff1673ffffffffffffffffffffffffffffffffffffffff1681526020019081526020015f205f847bffffffffffffffffffffffffffffffffffffffffffffffffffffffff19167bffffffffffffffffffffffffffffffffffffffffffffffffffffffff191681526020019081526020015f205f82846040516020016200ec0492919062014daf565b6040516020818303038152906040528051906020012081526020019081526020015f206003015f9054906101000a900460ff166200ec4a576200ec48865f6200f1f8565b505b5f865f015f8673ffffffffffffffffffffffffffffffffffffffff1673ffffffffffffffffffffffffffffffffffffffff1681526020019081526020015f205f857bffffffffffffffffffffffffffffffffffffffffffffffffffffffff19167bffffffffffffffffffffffffffffffffffffffffffffffffffffffff191681526020019081526020015f205f83856040516020016200ecec92919062014daf565b6040516020818303038152906040528051906020012081526020019081526020015f2090505f816002015482600101546200ed28919062013114565b11156200ee74575f816002015482600101546200ed46919062013114565b6101006200ed559190620122fd565b60026200ed63919062014dda565b905080875f1c107f885cb69240a935d632d79c317109709ecfa91a80626ff3989d68f67f5b1dd12d5f1c73ffffffffffffffffffffffffffffffffffffffff16636900a3ae836040518263ffffffff1660e01b81526004016200edc791906201203b565b5f60405180830381865afa1580156200ede2573d5f5f3e3d5ffd5b505050506040513d5f823e3d601f19601f820116820180604052508101906200ee0c919062014628565b6040516020016200ee1e919062014ec4565b604051602081830303815290604052906200ee71576040517f08c379a00000000000000000000000000000000000000000000000000000000081526004016200ee68919062014ee9565b60405180910390fd5b50505b5f7f885cb69240a935d632d79c317109709ecfa91a80626ff3989d68f67f5b1dd12d5f1c73ffffffffffffffffffffffffffffffffffffffff1663667f9d7087845f01545f1b6040518363ffffffff1660e01b81526004016200eed992919062014f25565b602060405180830381865afa1580156200eef5573d5f5f3e3d5ffd5b505050506040513d601f19601f820116820180604052508101906200ef1b919062014f7f565b90505f6200ef3682895f1c856001015486600201546200f210565b90507f885cb69240a935d632d79c317109709ecfa91a80626ff3989d68f67f5b1dd12d5f1c73ffffffffffffffffffffffffffffffffffffffff166370ca10bb88855f01545f1b846040518463ffffffff1660e01b81526004016200ef9e9392919062014faf565b5f604051808303815f87803b1580156200efb6575f5ffd5b505af11580156200efc9573d5f5f3e3d5ffd5b505050505f5f6200efda8b6200f233565b915091508115806200efec5750898114155b156200f0c4577f885cb69240a935d632d79c317109709ecfa91a80626ff3989d68f67f5b1dd12d5f1c73ffffffffffffffffffffffffffffffffffffffff166370ca10bb8a875f01545f1b876040518463ffffffff1660e01b81526004016200f0589392919062014faf565b5f604051808303815f87803b1580156200f070575f5ffd5b505af11580156200f083573d5f5f3e3d5ffd5b505050506040517f08c379a00000000000000000000000000000000000000000000000000000000081526004016200f0bb906201505e565b60405180910390fd5b6200f0cf8b6200f336565b5050505050505050505050565b60605f8260070180546200f0f090620125c3565b9050036200f15d576200f155826001018054806020026020016040519081016040528092919081815260200182805480156200f14a57602002820191905f5260205f20905b8154815260200190600101908083116200f135575b50505050506200f344565b90506200f1f3565b8160070180546200f16e90620125c3565b80601f01602080910402602001604051908101604052809291908181526020018280546200f19c90620125c3565b80156200f1eb5780601f106200f1c1576101008083540402835291602001916200f1eb565b820191905f5260205f20905b8154815290600101906020018083116200f1cd57829003601f168201915b505050505090505b919050565b5f6200f20583836200f3fd565b5f0154905092915050565b5f8184901b6200f22184846200fd68565b19865f1c16175f1b9050949350505050565b5f5f5f836002015f9054906101000a900460e01b6200f252856200f0dc565b6040516020016200f265929190620150cd565b60405160208183030381529060405290505f5f856004015f9054906101000a900473ffffffffffffffffffffffffffffffffffffffff1673ffffffffffffffffffffffffffffffffffffffff16836040516200f2c29190620137e2565b5f60405180830381855afa9150503d805f81146200f2fc576040519150601f19603f3d011682016040523d82523d5f602084013e6200f301565b606091505b50915091505f6200f32582886003015460206200f31f9190620128bd565b6200fd7f565b905082819550955050505050915091565b6200f341816200fe46565b50565b60605f602083516200f3579190620128bd565b67ffffffffffffffff8111156200f373576200f37262010a5c565b5b6040519080825280601f01601f1916602001820160405280156200f3a65781602001600182028036833780820191505090505b5090505f5f90505b83518110156200f3f3575f8482815181106200f3cf576200f3ce62012ba5565b5b6020026020010151905080826020026020018401525080806001019150506200f3ae565b5080915050919050565b5f5f836004015f9054906101000a900473ffffffffffffffffffffffffffffffffffffffff1690505f846002015f9054906101000a900460e01b90505f856003015490505f6200f44d876200f0dc565b9050865f015f8573ffffffffffffffffffffffffffffffffffffffff1673ffffffffffffffffffffffffffffffffffffffff1681526020019081526020015f205f847bffffffffffffffffffffffffffffffffffffffffffffffffffffffff19167bffffffffffffffffffffffffffffffffffffffffffffffffffffffff191681526020019081526020015f205f82846040516020016200f4f092919062014daf565b6040516020818303038152906040528051906020012081526020019081526020015f206003015f9054906101000a900460ff16156200f60c5785156200f53c576200f53b876200fe46565b5b865f015f8573ffffffffffffffffffffffffffffffffffffffff1673ffffffffffffffffffffffffffffffffffffffff1681526020019081526020015f205f847bffffffffffffffffffffffffffffffffffffffffffffffffffffffff19167bffffffffffffffffffffffffffffffffffffffffffffffffffffffff191681526020019081526020015f205f82846040516020016200f5dd92919062014daf565b6040516020818303038152906040528051906020012081526020019081526020015f209450505050506200fd62565b7f885cb69240a935d632d79c317109709ecfa91a80626ff3989d68f67f5b1dd12d5f1c73ffffffffffffffffffffffffffffffffffffffff1663266cf1096040518163ffffffff1660e01b81526004015f604051808303815f87803b1580156200f674575f5ffd5b505af11580156200f687573d5f5f3e3d5ffd5b505050505f6200f697886200f233565b9150505f7f885cb69240a935d632d79c317109709ecfa91a80626ff3989d68f67f5b1dd12d5f1c73ffffffffffffffffffffffffffffffffffffffff166365bc9481876040518263ffffffff1660e01b81526004016200f6f891906201315f565b5f60405180830381865afa1580156200f713573d5f5f3e3d5ffd5b505050506040513d5f823e3d601f19601f820116820180604052508101906200f73d9190620151cb565b5090505f8151036200f786576040517f08c379a00000000000000000000000000000000000000000000000000000000081526004016200f77d90620152c2565b60405180910390fd5b5f815190505b5f816200f799906201256a565b915081106200fb6b575f7f885cb69240a935d632d79c317109709ecfa91a80626ff3989d68f67f5b1dd12d5f1c73ffffffffffffffffffffffffffffffffffffffff1663667f9d70898585815181106200f7f8576200f7f762012ba5565b5b60200260200101516040518363ffffffff1660e01b81526004016200f81f92919062014f25565b602060405180830381865afa1580156200f83b573d5f5f3e3d5ffd5b505050506040513d601f19601f820116820180604052508101906200f861919062014f7f565b90505f5f1b81036200f8c8577f080fc4a96620c4462e705b23f346413fe3796bb63c6f8d8591baec0e231577a5888484815181106200f8a5576200f8a462012ba5565b5b60200260200101515f1c6040516200f8bf92919062013d81565b60405180910390a15b6200f8f18b8484815181106200f8e3576200f8e262012ba5565b5b60200260200101516200fec1565b6200f8fd57506200fb65565b5f5f5f5f915091508c6006015f9054906101000a900460ff16156200f964575f6200f9468e8787815181106200f938576200f93762012ba5565b5b602002602001015162010164565b809450819550829350505050806200f96257505050506200fb65565b505b5f816200f97284846200fd68565b855f1c16901c905080875f1c146200f98e57505050506200fb65565b7f9c9555b1e3102e3cf48f427d79cb678f5d9bd1ed0ad574389461e255f95170ed8b8b8a8c6040516020016200f9c692919062014daf565b604051602081830303815290604052805190602001208989815181106200f9f2576200f9f162012ba5565b5b60200260200101515f1c6040516200fa0e9493929190620152f3565b60405180910390a160405180608001604052808787815181106200fa37576200fa3662012ba5565b5b60200260200101515f1c8152602001848152602001838152602001600115158152508e5f015f8d73ffffffffffffffffffffffffffffffffffffffff1673ffffffffffffffffffffffffffffffffffffffff1681526020019081526020015f205f8c7bffffffffffffffffffffffffffffffffffffffffffffffffffffffff19167bffffffffffffffffffffffffffffffffffffffffffffffffffffffff191681526020019081526020015f205f8a8c6040516020016200fafa92919062014daf565b6040516020818303038152906040528051906020012081526020019081526020015f205f820151815f015560208201518160010155604082015181600201556060820151816003015f6101000a81548160ff021916908315150217905550905050505050506200fb6b565b6200f78c565b50885f015f8773ffffffffffffffffffffffffffffffffffffffff1673ffffffffffffffffffffffffffffffffffffffff1681526020019081526020015f205f867bffffffffffffffffffffffffffffffffffffffffffffffffffffffff19167bffffffffffffffffffffffffffffffffffffffffffffffffffffffff191681526020019081526020015f205f84866040516020016200fc0d92919062014daf565b6040516020818303038152906040528051906020012081526020019081526020015f206003015f9054906101000a900460ff166200fc82576040517f08c379a00000000000000000000000000000000000000000000000000000000081526004016200fc7990620153b2565b60405180910390fd5b87156200fc95576200fc94896200fe46565b5b885f015f8773ffffffffffffffffffffffffffffffffffffffff1673ffffffffffffffffffffffffffffffffffffffff1681526020019081526020015f205f867bffffffffffffffffffffffffffffffffffffffffffffffffffffffff19167bffffffffffffffffffffffffffffffffffffffffffffffffffffffff191681526020019081526020015f205f84866040516020016200fd3692919062014daf565b6040516020818303038152906040528051906020012081526020019081526020015f2096505050505050505b92915050565b5f600180848401610100031b03821b905092915050565b5f5f5f838551116200fd92575f6200fda2565b8385516200fda19190620122fd565b5b905060208111156200fdb357602090505b5f5f90505b818110156200fe3a576008816200fdd09190620128bd565b60ff60f81b8783886200fde4919062013114565b815181106200fdf8576200fdf762012ba5565b5b602001015160f81c60f81b167effffffffffffffffffffffffffffffffffffffffffffffffffffffffffffff1916901c8317925080806001019150506200fdb8565b50819250505092915050565b806004015f6101000a81549073ffffffffffffffffffffffffffffffffffffffff0219169055806002015f6101000a81549063ffffffff0219169055806001015f6200fe93919062010722565b806003015f9055806006015f6101000a81549060ff0219169055806007015f6200febe91906201073f565b50565b5f5f7f885cb69240a935d632d79c317109709ecfa91a80626ff3989d68f67f5b1dd12d5f1c73ffffffffffffffffffffffffffffffffffffffff1663667f9d70856004015f9054906101000a900473ffffffffffffffffffffffffffffffffffffffff16856040518363ffffffff1660e01b81526004016200ff4592919062014f25565b602060405180830381865afa1580156200ff61573d5f5f3e3d5ffd5b505050506040513d601f19601f820116820180604052508101906200ff87919062014f7f565b90505f5f6200ff96866200f233565b915091505f5f5f1b82146200ffae575f5f1b6200ffd2565b7fffffffffffffffffffffffffffffffffffffffffffffffffffffffffffffffff5f1b5b90507f885cb69240a935d632d79c317109709ecfa91a80626ff3989d68f67f5b1dd12d5f1c73ffffffffffffffffffffffffffffffffffffffff166370ca10bb886004015f9054906101000a900473ffffffffffffffffffffffffffffffffffffffff1688846040518463ffffffff1660e01b8152600401620100589392919062014faf565b5f604051808303815f87803b15801562010070575f5ffd5b505af115801562010083573d5f5f3e3d5ffd5b505050505f62010093886200f233565b9150507f885cb69240a935d632d79c317109709ecfa91a80626ff3989d68f67f5b1dd12d5f1c73ffffffffffffffffffffffffffffffffffffffff166370ca10bb896004015f9054906101000a900473ffffffffffffffffffffffffffffffffffffffff1689886040518463ffffffff1660e01b81526004016201011a9392919062014faf565b5f604051808303815f87803b15801562010132575f5ffd5b505af115801562010145573d5f5f3e3d5ffd5b50505050838015620101575750808314155b9550505050505092915050565b5f5f5f5f7f885cb69240a935d632d79c317109709ecfa91a80626ff3989d68f67f5b1dd12d5f1c73ffffffffffffffffffffffffffffffffffffffff1663667f9d70876004015f9054906101000a900473ffffffffffffffffffffffffffffffffffffffff16876040518363ffffffff1660e01b8152600401620101ea92919062014f25565b602060405180830381865afa15801562010206573d5f5f3e3d5ffd5b505050506040513d601f19601f820116820180604052508101906201022c919062014f7f565b90505f5f6201023e8888600162010327565b915091505f5f620102518a8a5f62010327565b915091507f885cb69240a935d632d79c317109709ecfa91a80626ff3989d68f67f5b1dd12d5f1c73ffffffffffffffffffffffffffffffffffffffff166370ca10bb8b6004015f9054906101000a900473ffffffffffffffffffffffffffffffffffffffff168b886040518463ffffffff1660e01b8152600401620102d99392919062014faf565b5f604051808303815f87803b158015620102f1575f5ffd5b505af115801562010304573d5f5f3e3d5ffd5b50505050838015620103135750815b838297509750975050505050509250925092565b5f5f5f5f90505b6101008110156201045e575f846201034b57816001901b6201035f565b8160ff6201035a9190620122fd565b6001901b5b90507f885cb69240a935d632d79c317109709ecfa91a80626ff3989d68f67f5b1dd12d5f1c73ffffffffffffffffffffffffffffffffffffffff166370ca10bb886004015f9054906101000a900473ffffffffffffffffffffffffffffffffffffffff1688845f1b6040518463ffffffff1660e01b8152600401620103e79392919062014faf565b5f604051808303815f87803b158015620103ff575f5ffd5b505af115801562010412573d5f5f3e3d5ffd5b505050505f5f62010423896200f233565b915091508180156201043657505f815f1c115b156201044d57600184955095505050505062010466565b50505080806001019150506201032e565b505f5f915091505b935093915050565b60405180606001604052805f67ffffffffffffffff1681526020015f67ffffffffffffffff1681526020015f67ffffffffffffffff1681525090565b60405180604001604052805f67ffffffffffffffff1681526020015f67ffffffffffffffff1681525090565b60405180606001604052805f73ffffffffffffffffffffffffffffffffffffffff1681526020015f67ffffffffffffffff1681526020015f67ffffffffffffffff1681525090565b6040518060400160405280606081526020016201053a6201077f565b81525090565b60405180610100016040528060608152602001606081526020015f67ffffffffffffffff1681526020015f73ffffffffffffffffffffffffffffffffffffffff1681526020015f73ffffffffffffffffffffffffffffffffffffffff1681526020015f60ff1681526020015f60ff1681526020015f5f0b81525090565b60405180602001604052805f67ffffffffffffffff1681525090565b6040518060a00160405280606081526020015f63ffffffff1681526020015f60ff1681526020015f60ff1681526020015f151581525090565b6040518060a001604052805f60070b81526020015f67ffffffffffffffff1681526020015f60070b81526020015f63ffffffff1681526020015f151581525090565b60405180608001604052805f67ffffffffffffffff1681526020015f67ffffffffffffffff1681526020015f67ffffffffffffffff1681526020015f67ffffffffffffffff1681525090565b60405180608001604052805f60070b81526020015f67ffffffffffffffff1681526020015f67ffffffffffffffff1681526020015f60070b81525090565b60405180606001604052805f73ffffffffffffffffffffffffffffffffffffffff1681526020015f67ffffffffffffffff1681526020015f63ffffffff1681525090565b5080545f8255905f5260205f20906201073c9190620107a1565b50565b5080546201074d90620125c3565b5f825580601f106201076057506201077c565b601f0160209004905f5260205f20906201077b9190620107c0565b5b50565b6040518060400160405280600290602082028036833780820191505090505090565b5f5b80821115620107bb578281015f9055600101620107a3565b505090565b5f5b80821115620107da578281015f9055600101620107c2565b505090565b5f604051905090565b5f5ffd5b5f5ffd5b5f73ffffffffffffffffffffffffffffffffffffffff82169050919050565b5f6201081b82620107f0565b9050919050565b6201082d816201080f565b811462010838575f5ffd5b50565b5f813590506201084b8162010822565b92915050565b5f67ffffffffffffffff82169050919050565b6201086f8162010851565b81146201087a575f5ffd5b50565b5f813590506201088d8162010864565b92915050565b5f5f60408385031215620108ac57620108ab620107e8565b5b5f620108bb858286016201083b565b9250506020620108ce858286016201087d565b9150509250929050565b620108e38162010851565b82525050565b606082015f820151620108ff5f850182620108d8565b506020820151620109146020850182620108d8565b506040820151620109296040850182620108d8565b50505050565b5f606082019050620109445f830184620108e9565b92915050565b5f60208284031215620109625762010961620107e8565b5b5f62010971848285016201083b565b91505092915050565b5f8115159050919050565b62010990816201097a565b82525050565b5f602082019050620109ab5f83018462010985565b92915050565b5f5f5f60608486031215620109cb57620109ca620107e8565b5b5f620109da868287016201083b565b9350506020620109ed868287016201087d565b925050604062010a00868287016201087d565b9150509250925092565b5f63ffffffff82169050919050565b62010a248162010a0a565b811462010a2f575f5ffd5b50565b5f8135905062010a428162010a19565b92915050565b5f5ffd5b5f601f19601f8301169050919050565b7f4e487b71000000000000000000000000000000000000000000000000000000005f52604160045260245ffd5b62010a948262010a4c565b810181811067ffffffffffffffff8211171562010ab65762010ab562010a5c565b5b80604052505050565b5f62010aca620107df565b905062010ad8828262010a89565b919050565b5f5ffd5b5f5ffd5b5f5ffd5b5f67ffffffffffffffff82111562010b065762010b0562010a5c565b5b62010b118262010a4c565b9050602081019050919050565b828183375f83830152505050565b5f62010b4262010b3c8462010ae9565b62010abf565b90508281526020810184848401111562010b615762010b6062010ae5565b5b62010b6e84828562010b1e565b509392505050565b5f82601f83011262010b8d5762010b8c62010ae1565b5b813562010b9f84826020860162010b2c565b91505092915050565b5f67ffffffffffffffff82111562010bc55762010bc462010a5c565b5b602082029050919050565b5f5ffd5b5f62010bea62010be48462010ba8565b62010abf565b9050806020840283018581111562010c075762010c0662010bd0565b5b835b8181101562010c34578062010c1f88826201087d565b84526020840193505060208101905062010c09565b5050509392505050565b5f82601f83011262010c555762010c5462010ae1565b5b600262010c6484828562010bd4565b91505092915050565b5f6060828403121562010c855762010c8462010a48565b5b62010c91604062010abf565b90505f82013567ffffffffffffffff81111562010cb35762010cb262010add565b5b62010cc18482850162010b76565b5f83015250602062010cd68482850162010c3e565b60208301525092915050565b5f5f6040838503121562010cfb5762010cfa620107e8565b5b5f62010d0a8582860162010a32565b925050602083013567ffffffffffffffff81111562010d2e5762010d2d620107ec565b5b62010d3c8582860162010c6d565b9150509250929050565b5f6020828403121562010d5e5762010d5d620107e8565b5b5f62010d6d8482850162010a32565b91505092915050565b62010d818162010851565b82525050565b5f60208201905062010d9c5f83018462010d76565b92915050565b5f61ffff82169050919050565b62010dba8162010da2565b811462010dc5575f5ffd5b50565b5f8135905062010dd88162010daf565b92915050565b5f5f5f6060848603121562010df85762010df7620107e8565b5b5f62010e07868287016201083b565b935050602062010e1a8682870162010dc8565b925050604062010e2d8682870162010a32565b9150509250925092565b62010e42816201097a565b811462010e4d575f5ffd5b50565b5f8135905062010e608162010e37565b92915050565b5f60ff82169050919050565b62010e7d8162010e66565b811462010e88575f5ffd5b50565b5f8135905062010e9b8162010e72565b92915050565b5f6fffffffffffffffffffffffffffffffff82169050919050565b62010ec78162010ea1565b811462010ed2575f5ffd5b50565b5f8135905062010ee58162010ebc565b92915050565b5f60e0828403121562010f035762010f0262010a48565b5b62010f0f60e062010abf565b90505f62010f208482850162010a32565b5f83015250602062010f358482850162010e50565b602083015250604062010f4b848285016201087d565b604083015250606062010f61848285016201087d565b606083015250608062010f778482850162010e50565b60808301525060a062010f8d8482850162010e8b565b60a08301525060c062010fa38482850162010ed5565b60c08301525092915050565b5f5f610100838503121562010fc95762010fc8620107e8565b5b5f62010fd8858286016201083b565b925050602062010feb8582860162010eeb565b9150509250929050565b5f5f604083850312156201100e576201100d620107e8565b5b5f6201101d858286016201083b565b925050602062011030858286016201083b565b9150509250929050565b604082015f820151620110505f850182620108d8565b506020820151620110656020850182620108d8565b50505050565b5f604082019050620110805f8301846201103a565b92915050565b5f81519050919050565b5f82825260208201905092915050565b5f819050602082019050919050565b620110ba816201080f565b82525050565b606082015f820151620110d65f850182620110af565b506020820151620110eb6020850182620108d8565b506040820151620111006040850182620108d8565b50505050565b5f620111138383620110c0565b60608301905092915050565b5f602082019050919050565b5f620111378262011086565b62011143818562011090565b93506201115083620110a0565b805f5b83811015620111865781516201116a888262011106565b975062011177836201111f565b92505060018101905062011153565b5085935050505092915050565b5f6020820190508181035f830152620111ad81846201112b565b905092915050565b5f5f5f60608486031215620111cf57620111ce620107e8565b5b5f620111de8682870162010a32565b9350506020620111f1868287016201087d565b9250506040620112048682870162010e50565b9150509250925092565b5f67ffffffffffffffff8211156201122b576201122a62010a5c565b5b602082029050602081019050919050565b5f620112526201124c846201120e565b62010abf565b9050808382526020820190506020840283018581111562011278576201127762010bd0565b5b835b81811015620112a557806201129088826201087d565b8452602084019350506020810190506201127a565b5050509392505050565b5f82601f830112620112c657620112c562010ae1565b5b8135620112d88482602086016201123c565b91505092915050565b5f815f0b9050919050565b620112f781620112e1565b811462011302575f5ffd5b50565b5f813590506201131581620112ec565b92915050565b5f610100828403121562011334576201133362010a48565b5b6201134161010062010abf565b90505f82013567ffffffffffffffff81111562011363576201136262010add565b5b620113718482850162010b76565b5f83015250602082013567ffffffffffffffff81111562011397576201139662010add565b5b620113a584828501620112af565b6020830152506040620113bb848285016201087d565b6040830152506060620113d1848285016201083b565b6060830152506080620113e7848285016201083b565b60808301525060a0620113fd8482850162010e8b565b60a08301525060c0620114138482850162010e8b565b60c08301525060e0620114298482850162011305565b60e08301525092915050565b5f5f604083850312156201144e576201144d620107e8565b5b5f6201145d858286016201087d565b925050602083013567ffffffffffffffff811115620114815762011480620107ec565b5b6201148f858286016201131b565b9150509250929050565b5f60608284031215620114b157620114b062010a48565b5b620114bd606062010abf565b90505f620114ce848285016201083b565b5f830152506020620114e3848285016201087d565b6020830152506040620114f9848285016201087d565b60408301525092915050565b5f5f608083850312156201151e576201151d620107e8565b5b5f6201152d858286016201083b565b9250506020620115408582860162011499565b9150509250929050565b5f60208284031215620115625762011561620107e8565b5b5f620115718482850162010dc8565b91505092915050565b620115858162010a0a565b82525050565b5f602082019050620115a05f8301846201157a565b92915050565b5f81519050919050565b5f82825260208201905092915050565b8281835e5f83830152505050565b5f620115da82620115a6565b620115e68185620115b0565b9350620115f8818560208601620115c0565b620116038162010a4c565b840191505092915050565b5f60029050919050565b5f81905092915050565b5f819050919050565b5f620116388383620108d8565b60208301905092915050565b5f602082019050919050565b6201165b816201160e565b62011667818462011618565b9250620116748262011622565b805f5b83811015620116aa5781516201168e87826201162b565b96506201169b8362011644565b92505060018101905062011677565b505050505050565b5f606083015f8301518482035f860152620116ce8282620115ce565b9150506020830151620116e5602086018262011650565b508091505092915050565b5f6020820190508181035f8301526201170a8184620116b2565b905092915050565b5f602082840312156201172a5762011729620107e8565b5b5f62011739848285016201087d565b91505092915050565b5f819050919050565b620117568162011742565b811462011761575f5ffd5b50565b5f8135905062011774816201174b565b92915050565b5f5f60408385031215620117935762011792620107e8565b5b5f620117a2858286016201083b565b9250506020620117b58582860162011764565b9150509250929050565b5f5f60408385031215620117d857620117d7620107e8565b5b5f620117e78582860162010a32565b9250506020620117fa858286016201087d565b9150509250929050565b602082015f8201516201181a5f850182620108d8565b50505050565b5f602082019050620118355f83018462011804565b92915050565b5f5f5f5f60808587031215620118565762011855620107e8565b5b5f62011865878288016201083b565b945050602062011878878288016201083b565b93505060406201188b878288016201087d565b92505060606201189e878288016201087d565b91505092959194509250565b5f5f5f60608486031215620118c457620118c3620107e8565b5b5f620118d3868287016201083b565b9350506020620118e6868287016201083b565b9250506040620118f98682870162011764565b9150509250925092565b5f606082840312156201191b576201191a62010a48565b5b62011927606062010abf565b90505f62011938848285016201083b565b5f8301525060206201194d848285016201087d565b6020830152506040620119638482850162010e50565b60408301525092915050565b5f5f60808385031215620119885762011987620107e8565b5b5f62011997858286016201083b565b9250506020620119aa8582860162011903565b9150509250929050565b620119bf8162010da2565b82525050565b5f602082019050620119da5f830184620119b4565b92915050565b620119eb8162010a0a565b82525050565b620119fc8162010e66565b82525050565b62011a0d816201097a565b82525050565b5f60a083015f8301518482035f86015262011a2f8282620115ce565b915050602083015162011a466020860182620119e0565b50604083015162011a5b6040860182620119f1565b50606083015162011a706060860182620119f1565b50608083015162011a85608086018262011a02565b508091505092915050565b5f6020820190508181035f83015262011aaa818462011a13565b905092915050565b5f5f6040838503121562011acb5762011aca620107e8565b5b5f62011ada858286016201083b565b925050602062011aed8582860162010dc8565b9150509250929050565b5f8160070b9050919050565b62011b0e8162011af7565b82525050565b60a082015f82015162011b2a5f85018262011b03565b50602082015162011b3f6020850182620108d8565b50604082015162011b54604085018262011b03565b50606082015162011b696060850182620119e0565b50608082015162011b7e608085018262011a02565b50505050565b5f60a08201905062011b995f83018462011b14565b92915050565b5f60a0828403121562011bb75762011bb662010a48565b5b62011bc360a062010abf565b90505f82013567ffffffffffffffff81111562011be55762011be462010add565b5b62011bf38482850162010b76565b5f83015250602062011c088482850162010a32565b602083015250604062011c1e8482850162010e8b565b604083015250606062011c348482850162010e8b565b606083015250608062011c4a8482850162010e50565b60808301525092915050565b5f5f6040838503121562011c6f5762011c6e620107e8565b5b5f62011c7e8582860162010dc8565b925050602083013567ffffffffffffffff81111562011ca25762011ca1620107ec565b5b62011cb08582860162011b9f565b9150509250929050565b5f6060828403121562011cd25762011cd162010a48565b5b62011cde606062010abf565b90505f62011cef848285016201083b565b5f83015250602062011d048482850162010e50565b602083015250604062011d1a848285016201087d565b60408301525092915050565b5f5f6080838503121562011d3f5762011d3e620107e8565b5b5f62011d4e858286016201083b565b925050602062011d618582860162011cba565b9150509250929050565b5f6020828403121562011d835762011d8262010a48565b5b62011d8f602062010abf565b90505f62011da0848285016201087d565b5f8301525092915050565b5f5f6040838503121562011dc45762011dc3620107e8565b5b5f62011dd3858286016201083b565b925050602062011de68582860162011d6b565b9150509250929050565b5f81519050919050565b5f82825260208201905092915050565b5f819050602082019050919050565b5f602082019050919050565b5f62011e318262011df0565b62011e3d818562011dfa565b935062011e4a8362011e0a565b805f5b8381101562011e8057815162011e6488826201162b565b975062011e718362011e19565b92505060018101905062011e4d565b5085935050505092915050565b62011e9881620112e1565b82525050565b5f61010083015f8301518482035f86015262011ebb8282620115ce565b9150506020830151848203602086015262011ed7828262011e25565b915050604083015162011eee6040860182620108d8565b50606083015162011f036060860182620110af565b50608083015162011f186080860182620110af565b5060a083015162011f2d60a0860182620119f1565b5060c083015162011f4260c0860182620119f1565b5060e083015162011f5760e086018262011e8d565b508091505092915050565b5f6020820190508181035f83015262011f7c818462011e9e565b905092915050565b5f6020828403121562011f9c5762011f9b620107e8565b5b5f62011fab8482850162011764565b91505092915050565b608082015f82015162011fca5f850182620108d8565b50602082015162011fdf6020850182620108d8565b50604082015162011ff46040850182620108d8565b506060820151620120096060850182620108d8565b50505050565b5f608082019050620120245f83018462011fb4565b92915050565b620120358162011742565b82525050565b5f602082019050620120505f8301846201202a565b92915050565b5f602082840312156201206e576201206d62010a48565b5b6201207a602062010abf565b90505f6201208b848285016201087d565b5f8301525092915050565b5f5f60408385031215620120af57620120ae620107e8565b5b5f620120be858286016201083b565b9250506020620120d18582860162012056565b9150509250929050565b5f60408284031215620120f357620120f262010a48565b5b620120ff604062010abf565b90505f62012110848285016201087d565b5f830152506020620121258482850162010e50565b60208301525092915050565b5f5f606083850312156201214a5762012149620107e8565b5b5f62012159858286016201083b565b92505060206201216c85828601620120db565b9150509250929050565b5f5f5f5f60808587031215620121915762012190620107e8565b5b5f620121a0878288016201083b565b9450506020620121b3878288016201087d565b9350506040620121c6878288016201083b565b9250506060620121d98782880162011764565b91505092959194509250565b5f5f60408385031215620121fe57620121fd620107e8565b5b5f6201220d8582860162010dc8565b925050602062012220858286016201083b565b9150509250929050565b608082015f820151620122405f85018262011b03565b506020820151620122556020850182620108d8565b5060408201516201226a6040850182620108d8565b5060608201516201227f606085018262011b03565b50505050565b5f6080820190506201229a5f8301846201222a565b92915050565b5f60208284031215620122b857620122b7620107e8565b5b5f620122c78482850162010e50565b91505092915050565b7f4e487b71000000000000000000000000000000000000000000000000000000005f52601160045260245ffd5b5f620123098262011742565b9150620123168362011742565b9250828203905081811115620123315762012330620122d0565b5b92915050565b7f4e487b71000000000000000000000000000000000000000000000000000000005f52601260045260245ffd5b5f620123708262010851565b91506201237d8362010851565b92508262012390576201238f62012337565b5b828204905092915050565b5f620123a78262011af7565b9150620123b48362011af7565b92508282039050677fffffffffffffff81137fffffffffffffffffffffffffffffffffffffffffffffffff800000000000000082121715620123fb57620123fa620122d0565b5b92915050565b5f6201240d8262011af7565b91506201241a8362011af7565b92508282026201242a8162011af7565b91508082146201243f576201243e620122d0565b5b5092915050565b5f620124528262011af7565b91506201245f8362011af7565b925082820190507fffffffffffffffffffffffffffffffffffffffffffffffff80000000000000008112677fffffffffffffff82131715620124a657620124a5620122d0565b5b92915050565b5f620124b88262010851565b9150620124c58362010851565b9250828201905067ffffffffffffffff811115620124e857620124e7620122d0565b5b92915050565b5f620124fa8262010851565b9150620125078362010851565b9250828202620125178162010851565b91508082146201252c576201252b620122d0565b5b5092915050565b5f6201253f8262010a0a565b91506201254c8362010a0a565b9250826201255f576201255e62012337565b5b828204905092915050565b5f620125768262011742565b91505f82036201258b576201258a620122d0565b5b600182039050919050565b7f4e487b71000000000000000000000000000000000000000000000000000000005f52602260045260245ffd5b5f6002820490506001821680620125db57607f821691505b602082108103620125f157620125f062012596565b5b50919050565b5f819050815f5260205f209050919050565b5f6020601f8301049050919050565b5f82821b905092915050565b5f60088302620126557fffffffffffffffffffffffffffffffffffffffffffffffffffffffffffffffff8262012618565b62012661868362012618565b95508019841693508086168417925050509392505050565b5f819050919050565b5f620126a26201269c620126968462011742565b62012679565b62011742565b9050919050565b5f819050919050565b620126bd8362012682565b620126d5620126cc82620126a9565b84845462012624565b825550505050565b5f5f905090565b620126ee620126dd565b620126fb818484620126b2565b505050565b5f5b828110156201272557620127195f828401620126e4565b60018101905062012702565b505050565b601f82111562012783578282111562012782576201274881620125f7565b620127538362012609565b6201275e8562012609565b60208610156201276c575f90505b8083016201277d8284038262012700565b505050505b5b505050565b5f82821c905092915050565b5f620127a55f198460080262012788565b1980831691505092915050565b5f620127bf838362012794565b9150826002028217905092915050565b620127da82620115a6565b67ffffffffffffffff811115620127f657620127f562010a5c565b5b620128028254620125c3565b6201280f8282856201272a565b5f60209050601f83116001811462012845575f841562012830578287015190505b6201283c8582620127b2565b865550620128ab565b601f1984166201285586620125f7565b5f5b828110156201287e5784890151825560018201915060208501945060208101905062012857565b868310156201289e57848901516201289a601f89168262012794565b8355505b6001600288020188555050505b505050505050565b5f60029050919050565b5f620128c98262011742565b9150620128d68362011742565b9250828202620128e68162011742565b915082820484148315176201290057620128ff620122d0565b5b5092915050565b5f819050600460016004038301049050919050565b5f819050919050565b5f5b828110156201294a576201293e5f828401620126e4565b60018101905062012927565b505050565b620129817fffffffffffffffffffffffffffffffffffffffffffffffffffffffffffffffff8360200360080262012788565b815481168255505050565b81831015620129ed57620129a08262012907565b620129ab8462012907565b620129b6836201291c565b818101600860048806025f811115620129d957620129d881600184036201294f565b5b620129e78486038362012925565b50505050505b505050565b6801000000000000000082111562012a0f5762012a0e62010a5c565b5b62012a1a81620128b3565b62012a278382846201298c565b505050565b5f62012a39825162010851565b80915050919050565b5f6008830262012a5b67ffffffffffffffff8262012618565b62012a67868362012618565b95508019841693508086168417925050509392505050565b5f819050919050565b62012a93826201160e565b67ffffffffffffffff81111562012aaf5762012aae62010a5c565b5b62012abb8183620129f2565b62012ac68362011622565b62012ad1836201291c565b600483045f5b8181101562012b3c575f5f5b600481101562012b295762012af88662012a2c565b62012b038162012a7f565b62012b1381846008028662012a42565b9350602088019750505060018101905062012ae3565b5080828501555060018101905062012ad7565b506004810284035f81111562012b9c575f5f5b8281101562012b945762012b638662012a2c565b62012b6e8162012a7f565b62012b7e81846008028662012a42565b9350602088019750505060018101905062012b4f565b508083850155505b50505050505050565b7f4e487b71000000000000000000000000000000000000000000000000000000005f52603260045260245ffd5b5f8160011c9050919050565b5f5f8291508390505b600185111562012c2f5780860481111562012c075762012c06620122d0565b5b600185161562012c175780820291505b808102905062012c278562012bd2565b945062012be7565b94509492505050565b5f8262012c49576001905062012d1b565b8162012c58575f905062012d1b565b816001811462012c71576002811462012c7c5762012cb2565b600191505062012d1b565b60ff84111562012c915762012c90620122d0565b5b8360020a91508482111562012cab5762012caa620122d0565b5b5062012d1b565b5060208310610133831016604e8410600b841016171562012cec5782820a90508381111562012ce65762012ce5620122d0565b5b62012d1b565b62012cfb848484600162012bde565b9250905081840481111562012d155762012d14620122d0565b5b81810290505b9392505050565b5f62012d2e8262011742565b915062012d3b8362010e66565b925062012d6a7fffffffffffffffffffffffffffffffffffffffffffffffffffffffffffffffff848462012c38565b905092915050565b5f82825260208201905092915050565b7f4f66666c696e65206d6f64653a2073706f7420707269636520686173206e6f745f8201527f206265656e207365742e2055736520436f726553696d756c61746f724c69622e60208201527f73657453706f7450782829000000000000000000000000000000000000000000604082015250565b5f62012e04604b8362012d72565b915062012e118262012d82565b606082019050919050565b5f6020820190508181035f83015262012e358162012df6565b9050919050565b5f62012e488262011742565b915062012e558362011742565b92508262012e685762012e6762012337565b5b828204905092915050565b5f62012e7f8262010851565b915062012e8c8362010851565b9250828203905067ffffffffffffffff81111562012eaf5762012eae620122d0565b5b92915050565b5f81549050919050565b5f819050600460016004038301049050919050565b5f819050815f5260205f209050919050565b8183101562012f475762012efa8262012ebf565b62012f058462012ebf565b62012f108362012ed4565b818101600860048806025f81111562012f335762012f3281600184036201294f565b5b62012f418486038362012925565b50505050505b505050565b6801000000000000000082111562012f695762012f6862010a5c565b5b62012f748162012eb5565b82825562012f8483828462012ee6565b505050565b62012f948262011df0565b67ffffffffffffffff81111562012fb05762012faf62010a5c565b5b62012fbc818362012f4c565b62012fc78362011e0a565b62012fd28362012ed4565b600483045f5b818110156201303d575f5f5b60048110156201302a5762012ff98662012a2c565b620130048162012a7f565b6201301481846008028662012a42565b9350602088019750505060018101905062012fe4565b5080828501555060018101905062012fd8565b506004810284035f8111156201309d575f5f5b828110156201309557620130648662012a2c565b6201306f8162012a7f565b6201307f81846008028662012a42565b9350602088019750505060018101905062013050565b508083850155505b50505050505050565b7f696e73756666696369656e742062616c616e63650000000000000000000000005f82015250565b5f620130dc60148362012d72565b9150620130e982620130a6565b602082019050919050565b5f6020820190508181035f8301526201310d81620130ce565b9050919050565b5f620131208262011742565b91506201312d8362011742565b9250828201905080821115620131485762013147620122d0565b5b92915050565b62013159816201080f565b82525050565b5f602082019050620131745f8301846201314e565b92915050565b5f81905092915050565b50565b5f620131945f836201317a565b9150620131a18262013184565b5f82019050919050565b5f620131b78262013187565b9150819050919050565b7f7472616e73666572206661696c656400000000000000000000000000000000005f82015250565b5f620131f7600f8362012d72565b91506201320482620131c1565b602082019050919050565b5f6020820190508181035f8301526201322881620131e9565b9050919050565b5f815190506201323f816201174b565b92915050565b5f602082840312156201325d576201325c620107e8565b5b5f6201326c848285016201322f565b91505092915050565b7f66656520746f6f206869676800000000000000000000000000000000000000005f82015250565b5f620132ab600c8362012d72565b9150620132b88262013275565b602082019050919050565b5f6020820190508181035f830152620132dc816201329d565b9050919050565b7f496e73756666696369656e742064656c65676174696f6e20616d6f756e74204f5f8201527f522044656c65676174696f6e206973206c6f636b656400000000000000000000602082015250565b5f6201333f60368362012d72565b91506201334c82620132e3565b604082019050919050565b5f6020820190508181035f830152620133708162013331565b9050919050565b7f496e73756666696369656e74207374616b696e672062616c616e6365000000005f82015250565b5f620133ad601c8362012d72565b9150620133ba8262013377565b602082019050919050565b5f6020820190508181035f830152620133de816201339f565b9050919050565b7f646f6573206e6f74206d656574206d696e696d756d20776974686472617700005f82015250565b5f6201341b601e8362012d72565b91506201342882620133e5565b602082019050919050565b5f6020820190508181035f8301526201344c816201340d565b9050919050565b7f65717569747920746f6f206c6f772c206f72206c6f636b6564000000000000005f82015250565b5f6201348960198362012d72565b9150620134968262013453565b602082019050919050565b5f6020820190508181035f830152620134ba816201347b565b9050919050565b5f620134cd8262010851565b915067ffffffffffffffff8203620134ea57620134e9620122d0565b5b600182019050919050565b7f6d6178696d756d206f6620352070656e64696e67207769746864726177616c735f8201527f20706572206163636f756e740000000000000000000000000000000000000000602082015250565b5f62013551602c8362012d72565b91506201355e82620134f5565b604082019050919050565b5f6020820190508181035f830152620135828162013543565b9050919050565b7f4e487b71000000000000000000000000000000000000000000000000000000005f52603160045260245ffd5b7f696e73756666696369656e7420616d6f756e74206272696467656420666f72205f8201527f61637469766174696f6e20666565000000000000000000000000000000000000602082015250565b5f62013612602e8362012d72565b91506201361f82620135b6565b604082019050919050565b5f6020820190508181035f830152620136438162013604565b9050919050565b5f6040820190506201365f5f8301856201314e565b6201366e602083018462010d76565b9392505050565b5f81519050620136858162010864565b92915050565b5f60608284031215620136a357620136a262010a48565b5b620136af606062010abf565b90505f620136c08482850162013675565b5f830152506020620136d58482850162013675565b6020830152506040620136eb8482850162013675565b60408301525092915050565b5f606082840312156201370f576201370e620107e8565b5b5f6201371e848285016201368b565b91505092915050565b5f620137338262011af7565b91507fffffffffffffffffffffffffffffffffffffffffffffffff80000000000000008203620137685762013767620122d0565b5b815f039050919050565b5f602082840312156201378a5762013789620107e8565b5b5f620137998482850162013675565b91505092915050565b5f81519050919050565b5f620137b882620137a2565b620137c481856201317a565b9350620137d6818560208601620115c0565b80840191505092915050565b5f620137ef8284620137ac565b915081905092915050565b5f620138106201380a8462010ae9565b62010abf565b9050828152602081018484840111156201382f576201382e62010ae5565b5b6201383c848285620115c0565b509392505050565b5f82601f8301126201385b576201385a62010ae1565b5b81516201386d848260208601620137fa565b91505092915050565b5f6201388c620138868462010ba8565b62010abf565b90508060208402830185811115620138a957620138a862010bd0565b5b835b81811015620138d65780620138c1888262013675565b845260208401935050602081019050620138ab565b5050509392505050565b5f82601f830112620138f757620138f662010ae1565b5b60026201390684828562013876565b91505092915050565b5f6060828403121562013927576201392662010a48565b5b62013933604062010abf565b90505f82015167ffffffffffffffff81111562013955576201395462010add565b5b620139638482850162013844565b5f8301525060206201397884828501620138e0565b60208301525092915050565b5f602082840312156201399c576201399b620107e8565b5b5f82015167ffffffffffffffff811115620139bc57620139bb620107ec565b5b620139ca848285016201390f565b91505092915050565b5f819050919050565b5f620139fc620139f6620139f084620139d3565b62012679565b62010e66565b9050919050565b62013a0e81620139dc565b82525050565b5f60408201905062013a295f83018562013a03565b62013a3860208301846201202a565b9392505050565b7f66656520657863656564732070726f63656564730000000000000000000000005f82015250565b5f62013a7560148362012d72565b915062013a828262013a3f565b602082019050919050565b5f6020820190508181035f83015262013aa68162013a67565b9050919050565b5f67ffffffffffffffff82111562013aca5762013ac962010a5c565b5b602082029050602081019050919050565b5f8151905062013aeb8162010822565b92915050565b5f6060828403121562013b095762013b0862010a48565b5b62013b15606062010abf565b90505f62013b268482850162013adb565b5f83015250602062013b3b8482850162013675565b602083015250604062013b518482850162013675565b60408301525092915050565b5f62013b7362013b6d8462013aad565b62010abf565b9050808382526020820190506060840283018581111562013b995762013b9862010bd0565b5b835b8181101562013bc6578062013bb1888262013af1565b84526020840193505060608101905062013b9b565b5050509392505050565b5f82601f83011262013be75762013be662010ae1565b5b815162013bf984826020860162013b5d565b91505092915050565b5f6020828403121562013c1a5762013c19620107e8565b5b5f82015167ffffffffffffffff81111562013c3a5762013c39620107ec565b5b62013c488482850162013bd0565b91505092915050565b5f62013c5d82620107f0565b915062013c6a83620107f0565b9250828203905073ffffffffffffffffffffffffffffffffffffffff81111562013c995762013c98620122d0565b5b92915050565b7f696e73756666696369656e7420555344432062616c616e636520666f722066655f8201527f6500000000000000000000000000000000000000000000000000000000000000602082015250565b5f62013cfb60218362012d72565b915062013d088262013c9f565b604082019050919050565b5f6020820190508181035f83015262013d2c8162013ced565b9050919050565b5f62013d3f82620107f0565b915062013d4c83620107f0565b9250828201905073ffffffffffffffffffffffffffffffffffffffff81111562013d7b5762013d7a620122d0565b5b92915050565b5f60408201905062013d965f8301856201314e565b62013da560208301846201202a565b9392505050565b5f62013db882620112e1565b91507fffffffffffffffffffffffffffffffffffffffffffffffffffffffffffffff80820362013ded5762013dec620122d0565b5b815f039050919050565b5f6020828403121562013e0f5762013e0e62010a48565b5b62013e1b602062010abf565b90505f62013e2c8482850162013675565b5f8301525092915050565b5f6020828403121562013e4f5762013e4e620107e8565b5b5f62013e5e8482850162013df7565b91505092915050565b5f62013e7d62013e77846201120e565b62010abf565b9050808382526020820190506020840283018581111562013ea35762013ea262010bd0565b5b835b8181101562013ed0578062013ebb888262013675565b84526020840193505060208101905062013ea5565b5050509392505050565b5f82601f83011262013ef15762013ef062010ae1565b5b815162013f0384826020860162013e67565b91505092915050565b5f8151905062013f1c8162010e72565b92915050565b5f8151905062013f3281620112ec565b92915050565b5f610100828403121562013f515762013f5062010a48565b5b62013f5e61010062010abf565b90505f82015167ffffffffffffffff81111562013f805762013f7f62010add565b5b62013f8e8482850162013844565b5f83015250602082015167ffffffffffffffff81111562013fb45762013fb362010add565b5b62013fc28482850162013eda565b602083015250604062013fd88482850162013675565b604083015250606062013fee8482850162013adb565b6060830152506080620140048482850162013adb565b60808301525060a06201401a8482850162013f0c565b60a08301525060c0620140308482850162013f0c565b60c08301525060e0620140468482850162013f22565b60e08301525092915050565b5f602082840312156201406a5762014069620107e8565b5b5f82015167ffffffffffffffff8111156201408a5762014089620107ec565b5b620140988482850162013f38565b91505092915050565b5f81519050620140b18162010a19565b92915050565b5f81519050620140c78162010e37565b92915050565b5f60a08284031215620140e557620140e462010a48565b5b620140f160a062010abf565b90505f82015167ffffffffffffffff81111562014113576201411262010add565b5b620141218482850162013844565b5f8301525060206201413684828501620140a1565b60208301525060406201414c8482850162013f0c565b6040830152506060620141628482850162013f0c565b60608301525060806201417884828501620140b7565b60808301525092915050565b5f602082840312156201419c576201419b620107e8565b5b5f82015167ffffffffffffffff811115620141bc57620141bb620107ec565b5b620141ca84828501620140cd565b91505092915050565b5f620141df8262010e66565b9150620141ec8362010e66565b9250828203905060ff811115620142085762014207620122d0565b5b92915050565b5f6201421a8262010851565b9150620142278362010e66565b92506201423e67ffffffffffffffff848462012c38565b905092915050565b7f496e76616c6964206c65766572616765000000000000000000000000000000005f82015250565b5f6201427c60108362012d72565b9150620142898262014246565b602082019050919050565b5f6020820190508181035f830152620142ad816201426e565b9050919050565b7f496e76616c69642073697a6500000000000000000000000000000000000000005f82015250565b5f620142ea600c8362012d72565b9150620142f782620142b4565b602082019050919050565b5f6020820190508181035f8301526201431b81620142dc565b9050919050565b7f496e76616c6964207072696365000000000000000000000000000000000000005f82015250565b5f62014358600d8362012d72565b9150620143658262014322565b602082019050919050565b5f6020820190508181035f83015262014389816201434a565b9050919050565b7f696e73756666696369656e7420706572702062616c616e636520666f722066655f8201527f6500000000000000000000000000000000000000000000000000000000000000602082015250565b5f620143ec60218362012d72565b9150620143f98262014390565b604082019050919050565b5f6020820190508181035f8301526201441d81620143de565b9050919050565b5f604082019050620144395f8301856201314e565b620144486020830184620119b4565b9392505050565b6201445a8162011af7565b811462014465575f5ffd5b50565b5f8151905062014478816201444f565b92915050565b5f60a0828403121562014496576201449562010a48565b5b620144a260a062010abf565b90505f620144b38482850162014468565b5f830152506020620144c88482850162013675565b6020830152506040620144de8482850162014468565b6040830152506060620144f484828501620140a1565b60608301525060806201450a84828501620140b7565b60808301525092915050565b5f60a082840312156201452e576201452d620107e8565b5b5f6201453d848285016201447e565b91505092915050565b5f602082840312156201455e576201455d620107e8565b5b5f6201456d84828501620140b7565b91505092915050565b5f608082840312156201458e576201458d62010a48565b5b6201459a608062010abf565b90505f620145ab8482850162013675565b5f830152506020620145c08482850162013675565b6020830152506040620145d68482850162013675565b6040830152506060620145ec8482850162013675565b60608301525092915050565b5f6080828403121562014610576201460f620107e8565b5b5f6201461f8482850162014576565b91505092915050565b5f6020828403121562014640576201463f620107e8565b5b5f82015167ffffffffffffffff81111562014660576201465f620107ec565b5b6201466e8482850162013844565b91505092915050565b5f82825260208201905092915050565b5f6201469382620137a2565b6201469f818562014677565b9350620146b1818560208601620115c0565b620146bc8162010a4c565b840191505092915050565b5f6020820190508181035f830152620146e1818462014687565b905092915050565b7f5b7b22746f223a22000000000000000000000000000000000000000000000000815250565b5f81905092915050565b5f6201472582620115a6565b6201473181856201470f565b935062014743818560208601620115c0565b80840191505092915050565b7f222c2264617461223a2200000000000000000000000000000000000000000000815250565b7f227d2c226c6174657374225d0000000000000000000000000000000000000000815250565b5f620147a782620146e9565b600882019150620147b9828562014719565b9150620147c6826201474f565b600a82019150620147d8828462014719565b9150620147e58262014775565b600c820191508190509392505050565b7f3078000000000000000000000000000000000000000000000000000000000000815250565b5f6201482782620147f5565b60028201915062014839828462014719565b915081905092915050565b7f227d2c2200000000000000000000000000000000000000000000000000000000815250565b7f225d000000000000000000000000000000000000000000000000000000000000815250565b5f6201489c82620146e9565b600882019150620148ae828662014719565b9150620148bb826201474f565b600a82019150620148cd828562014719565b9150620148da8262014844565b600482019150620148ec828462014719565b9150620148f9826201486a565b600282019150819050949350505050565b7f6574685f63616c6c0000000000000000000000000000000000000000000000005f82015250565b5f6201494060088362012d72565b91506201494d826201490a565b602082019050919050565b5f6201496482620115a6565b62014970818562012d72565b935062014982818560208601620115c0565b6201498d8162010a4c565b840191505092915050565b5f6040820190508181035f830152620149b18162014932565b90508181036020830152620149c7818462014958565b905092915050565b5f67ffffffffffffffff821115620149ec57620149eb62010a5c565b5b620149f78262010a4c565b9050602081019050919050565b5f62014a1a62014a1484620149cf565b62010abf565b90508281526020810184848401111562014a395762014a3862010ae5565b5b62014a46848285620115c0565b509392505050565b5f82601f83011262014a655762014a6462010ae1565b5b815162014a7784826020860162014a04565b91505092915050565b5f6020828403121562014a985762014a97620107e8565b5b5f82015167ffffffffffffffff81111562014ab85762014ab7620107ec565b5b62014ac68482850162014a4e565b91505092915050565b5f60408201905062014ae45f8301856201157a565b62014af360208301846201314e565b9392505050565b5f6080828403121562014b125762014b1162010a48565b5b62014b1e608062010abf565b90505f62014b2f8482850162014468565b5f83015250602062014b448482850162013675565b602083015250604062014b5a8482850162013675565b604083015250606062014b708482850162014468565b60608301525092915050565b5f6080828403121562014b945762014b93620107e8565b5b5f62014ba38482850162014afa565b91505092915050565b5f60408201905062014bc15f8301856201314e565b62014bd060208301846201314e565b9392505050565b5f6040828403121562014bef5762014bee62010a48565b5b62014bfb604062010abf565b90505f62014c0c8482850162013675565b5f83015250602062014c218482850162013675565b60208301525092915050565b5f6040828403121562014c455762014c44620107e8565b5b5f62014c548482850162014bd7565b91505092915050565b5f6020828403121562014c755762014c7462010a48565b5b62014c81602062010abf565b90505f62014c9284828501620140b7565b5f8301525092915050565b5f6020828403121562014cb55762014cb4620107e8565b5b5f62014cc48482850162014c5d565b91505092915050565b5f62014cd98262011742565b91507fffffffffffffffffffffffffffffffffffffffffffffffffffffffffffffffff820362014d0e5762014d0d620122d0565b5b600182019050919050565b5f62014d258262011742565b915062014d328362011742565b92508262014d455762014d4462012337565b5b828206905092915050565b5f62014d5c8262010e66565b915062014d698362010e66565b9250828201905060ff81111562014d855762014d84620122d0565b5b92915050565b5f819050919050565b62014da962014da38262011742565b62014d8b565b82525050565b5f62014dbc8285620137ac565b915062014dca828462014d94565b6020820191508190509392505050565b5f62014de68262011742565b915062014df38362011742565b925062014e227fffffffffffffffffffffffffffffffffffffffffffffffffffffffffffffffff848462012c38565b905092915050565b7f73746453746f726167652066696e642853746453746f72616765293a205061635f8201527f6b656420736c6f742e2057652063616e2774206669742076616c75652067726560208201527f61746572207468616e2000000000000000000000000000000000000000000000604082015250565b5f62014eac604a836201470f565b915062014eb98262014e2a565b604a82019050919050565b5f62014ed08262014e9e565b915062014ede828462014719565b915081905092915050565b5f6020820190508181035f83015262014f03818462014958565b905092915050565b5f819050919050565b62014f1f8162014f0b565b82525050565b5f60408201905062014f3a5f8301856201314e565b62014f49602083018462014f14565b9392505050565b62014f5b8162014f0b565b811462014f66575f5ffd5b50565b5f8151905062014f798162014f50565b92915050565b5f6020828403121562014f975762014f96620107e8565b5b5f62014fa68482850162014f69565b91505092915050565b5f60608201905062014fc45f8301866201314e565b62014fd3602083018562014f14565b62014fe2604083018462014f14565b949350505050565b7f73746453746f726167652066696e642853746453746f72616765293a204661695f8201527f6c656420746f2077726974652076616c75652e00000000000000000000000000602082015250565b5f6201504660338362012d72565b9150620150538262014fea565b604082019050919050565b5f6020820190508181035f830152620150778162015038565b9050919050565b5f7fffffffff0000000000000000000000000000000000000000000000000000000082169050919050565b5f819050919050565b620150c7620150c1826201507e565b620150a9565b82525050565b5f620150da8285620150b2565b600482019150620150ec8284620137ac565b91508190509392505050565b5f67ffffffffffffffff82111562015115576201511462010a5c565b5b602082029050602081019050919050565b5f6201513c6201513684620150f8565b62010abf565b9050808382526020820190506020840283018581111562015162576201516162010bd0565b5b835b818110156201518f57806201517a888262014f69565b84526020840193505060208101905062015164565b5050509392505050565b5f82601f830112620151b057620151af62010ae1565b5b8151620151c284826020860162015126565b91505092915050565b5f5f60408385031215620151e457620151e3620107e8565b5b5f83015167ffffffffffffffff811115620152045762015203620107ec565b5b620152128582860162015199565b925050602083015167ffffffffffffffff811115620152365762015235620107ec565b5b620152448582860162015199565b9150509250929050565b7f73746453746f726167652066696e642853746453746f72616765293a204e6f205f8201527f73746f726167652075736520646574656374656420666f72207461726765742e602082015250565b5f620152aa60408362012d72565b9150620152b7826201524e565b604082019050919050565b5f6020820190508181035f830152620152db816201529c565b9050919050565b620152ed816201507e565b82525050565b5f608082019050620153085f8301876201314e565b620153176020830186620152e2565b62015326604083018562014f14565b6201533560608301846201202a565b95945050505050565b7f73746453746f726167652066696e642853746453746f72616765293a20536c6f5f8201527f74287329206e6f7420666f756e642e0000000000000000000000000000000000602082015250565b5f6201539a602f8362012d72565b9150620153a7826201533e565b604082019050919050565b5f6020820190508181035f830152620153cb816201538c565b905091905056fea26469706673582212204f6bed774a523d6f07c56f1e01bf989714869c02403a0ce83e9d763521a1551264736f6c63430008210033","linkReferences":{}},"methodIdentifiers":{"FEE_DENOMINATOR()":"d73792a9","HYPE_TOKEN_INDEX()":"faf2773a","USDC_TOKEN_INDEX()":"5e3dcdab","_getMaxLeverage(uint16)":"36d92dc6","_liquidateUser(address)":"ec1e4e01","coreUserExists(address)":"9dbfb13f","executeNativeTransfer(address,address,uint256)":"757428fb","executePerpLimitOrder(address,(uint32,bool,uint64,uint64,bool,uint8,uint128))":"6040b052","executeSpotLimitOrder(address,(uint32,bool,uint64,uint64,bool,uint8,uint128))":"132ce2d6","executeSpotSend(address,(address,uint64,uint64))":"35c4a8b1","executeStakingDeposit(address,(uint64))":"9c93e159","executeStakingWithdraw(address,(uint64))":"db2d1cb5","executeTokenDelegate(address,(address,uint64,bool))":"8dca414d","executeTokenTransfer(address,uint64,address,uint256)":"eb03dd6b","executeUsdClassTransfer(address,(uint64,bool))":"ea32ee88","executeVaultTransfer(address,(address,bool,uint64))":"9a6538b4","forceAccountActivation(address)":"0810bf02","forceDelegation(address,address,uint64,uint64)":"71291d1b","forcePerpBalance(address,uint64)":"ff1e91b5","forcePerpPositionLeverage(address,uint16,uint32)":"1246b2e6","forceSpotBalance(address,uint64,uint64)":"08c61686","forceStakingBalance(address,uint64)":"08dda1da","forceVaultEquity(address,address,uint64,uint64)":"7fa69383","isLiquidatable(address)":"042e02cf","liquidatePositions()":"6780a7d4","perpMakerFee()":"dfefb2e2","processPendingOrders()":"db40297c","readAccountMarginSummary(uint16,address)":"f0f30167","readDelegations(address)":"1db9707c","readDelegatorSummary(address)":"cfdc2694","readMarkPx(uint32)":"e2e85831","readOraclePx(uint32)":"106b7799","readPerpAssetInfo(uint32)":"97bc0e94","readPerpBalance(address)":"507a97c3","readPosition(address,uint16)":"97fba546","readSpotBalance(address,uint64)":"012755c2","readSpotInfo(uint32)":"48bb769b","readSpotPx(uint32)":"99c9189d","readTokenInfo(uint32)":"b4fcd37c","readUserVaultEquity(address,address)":"180ed246","readWithdrawable(address)":"68ba8652","registerPerpAssetInfo(uint16,(string,uint32,uint8,uint8,bool))":"9898728c","registerSpotInfo(uint32,(string,uint64[2]))":"0dcb1548","registerTokenInfo(uint64)":"554e1108","registerTokenInfo(uint64,(string,uint64[],uint64,address,address,uint8,uint8,int8))":"32480ac9","registerValidator(address)":"9fca5169","setMarkPx(uint32,uint64)":"6272f20a","setMarkPx(uint32,uint64,bool)":"233cc86a","setPerpMakerFee(uint16)":"97fdd86a","setSpotMakerFee(uint16)":"629138f4","setSpotPx(uint32,uint64)":"94a0b771","setSpotPx(uint32,uint64,bool)":"ccd9349c","setStakingYieldIndex(uint256)":"c126d047","setUseRealL1Read(bool)":"fe95987c","setVaultMultiplier(address,uint256)":"55784c51","spotMakerFee()":"915711ba","tokenExists(uint32)":"2f9c29a2","useRealL1Read()":"7ea558c8"},"id":53}