{"abi":[{"type":"constructor","inputs":[],"stateMutability":"nonpayable"},{"type":"function","name":"FEE_DENOMINATOR","inputs":[],"outputs":[{"name":"","type":"uint256","internalType":"uint256"}],"stateMutability":"view"},{"type":"function","name":"HYPE_TOKEN_INDEX","inputs":[],"outputs":[{"name":"","type":"uint64","internalType":"uint64"}],"stateMutability":"view"},{"type":"function","name":"USDC_TOKEN_INDEX","inputs":[],"outputs":[{"name":"","type":"uint64","internalType":"uint64"}],"stateMutability":"view"},{"type":"function","name":"forceAccountActivation","inputs":[{"name":"account","type":"address","internalType":"address"}],"outputs":[],"stateMutability":"nonpayable"},{"type":"function","name":"forceDelegation","inputs":[{"name":"account","type":"address","internalType":"address"},{"name":"validator","type":"address","internalType":"address"},{"name":"amount","type":"uint64","internalType":"uint64"},{"name":"lockedUntilTimestamp","type":"uint64","internalType":"uint64"}],"outputs":[],"stateMutability":"nonpayable"},{"type":"function","name":"forcePerpBalance","inputs":[{"name":"account","type":"address","internalType":"address"},{"name":"usd","type":"uint64","internalType":"uint64"}],"outputs":[],"stateMutability":"payable"},{"type":"function","name":"forcePerpPositionLeverage","inputs":[{"name":"account","type":"address","internalType":"address"},{"name":"perp","type":"uint16","internalType":"uint16"},{"name":"leverage","type":"uint32","internalType":"uint32"}],"outputs":[],"stateMutability":"payable"},{"type":"function","name":"forceSpotBalance","inputs":[{"name":"account","type":"address","internalType":"address"},{"name":"token","type":"uint64","internalType":"uint64"},{"name":"_wei","type":"uint64","internalType":"uint64"}],"outputs":[],"stateMutability":"payable"},{"type":"function","name":"forceStakingBalance","inputs":[{"name":"account","type":"address","internalType":"address"},{"name":"_wei","type":"uint64","internalType":"uint64"}],"outputs":[],"stateMutability":"payable"},{"type":"function","name":"forceVaultEquity","inputs":[{"name":"account","type":"address","internalType":"address"},{"name":"vault","type":"address","internalType":"address"},{"name":"usd","type":"uint64","internalType":"uint64"},{"name":"lockedUntilTimestamp","type":"uint64","internalType":"uint64"}],"outputs":[],"stateMutability":"payable"},{"type":"function","name":"perpMakerFee","inputs":[],"outputs":[{"name":"","type":"uint16","internalType":"uint16"}],"stateMutability":"view"},{"type":"function","name":"registerPerpAssetInfo","inputs":[{"name":"perpIndex","type":"uint16","internalType":"uint16"},{"name":"perpAssetInfo","type":"tuple","internalType":"struct PrecompileLib.PerpAssetInfo","components":[{"name":"coin","type":"string","internalType":"string"},{"name":"marginTableId","type":"uint32","internalType":"uint32"},{"name":"szDecimals","type":"uint8","internalType":"uint8"},{"name":"maxLeverage","type":"uint8","internalType":"uint8"},{"name":"onlyIsolated","type":"bool","internalType":"bool"}]}],"outputs":[],"stateMutability":"nonpayable"},{"type":"function","name":"registerSpotInfo","inputs":[{"name":"spotIndex","type":"uint32","internalType":"uint32"},{"name":"spotInfo","type":"tuple","internalType":"struct PrecompileLib.SpotInfo","components":[{"name":"name","type":"string","internalType":"string"},{"name":"tokens","type":"uint64[2]","internalType":"uint64[2]"}]}],"outputs":[],"stateMutability":"nonpayable"},{"type":"function","name":"registerTokenInfo","inputs":[{"name":"index","type":"uint64","internalType":"uint64"},{"name":"tokenInfo","type":"tuple","internalType":"struct PrecompileLib.TokenInfo","components":[{"name":"name","type":"string","internalType":"string"},{"name":"spots","type":"uint64[]","internalType":"uint64[]"},{"name":"deployerTradingFeeShare","type":"uint64","internalType":"uint64"},{"name":"deployer","type":"address","internalType":"address"},{"name":"evmContract","type":"address","internalType":"address"},{"name":"szDecimals","type":"uint8","internalType":"uint8"},{"name":"weiDecimals","type":"uint8","internalType":"uint8"},{"name":"evmExtraWeiDecimals","type":"int8","internalType":"int8"}]}],"outputs":[],"stateMutability":"nonpayable"},{"type":"function","name":"registerTokenInfo","inputs":[{"name":"index","type":"uint64","internalType":"uint64"}],"outputs":[],"stateMutability":"nonpayable"},{"type":"function","name":"registerValidator","inputs":[{"name":"validator","type":"address","internalType":"address"}],"outputs":[],"stateMutability":"nonpayable"},{"type":"function","name":"setPerpMakerFee","inputs":[{"name":"bps","type":"uint16","internalType":"uint16"}],"outputs":[],"stateMutability":"nonpayable"},{"type":"function","name":"setSpotMakerFee","inputs":[{"name":"bps","type":"uint16","internalType":"uint16"}],"outputs":[],"stateMutability":"nonpayable"},{"type":"function","name":"setUseRealL1Read","inputs":[{"name":"_useRealL1Read","type":"bool","internalType":"bool"}],"outputs":[],"stateMutability":"nonpayable"},{"type":"function","name":"spotMakerFee","inputs":[],"outputs":[{"name":"","type":"uint16","internalType":"uint16"}],"stateMutability":"view"},{"type":"function","name":"useRealL1Read","inputs":[],"outputs":[{"name":"","type":"bool","internalType":"bool"}],"stateMutability":"view"},{"type":"error","name":"PrecompileLib__AccountMarginSummaryPrecompileFailed","inputs":[]},{"type":"error","name":"PrecompileLib__CoreUserExistsPrecompileFailed","inputs":[]},{"type":"error","name":"PrecompileLib__DelegationsPrecompileFailed","inputs":[]},{"type":"error","name":"PrecompileLib__DelegatorSummaryPrecompileFailed","inputs":[]},{"type":"error","name":"PrecompileLib__PositionPrecompileFailed","inputs":[]},{"type":"error","name":"PrecompileLib__SpotBalancePrecompileFailed","inputs":[]},{"type":"error","name":"PrecompileLib__TokenInfoPrecompileFailed","inputs":[]},{"type":"error","name":"PrecompileLib__WithdrawablePrecompileFailed","inputs":[]}],"bytecode":{"object":"0x60a0604052348015600e575f5ffd5b50601b603a60201b60201c565b67ffffffffffffffff1660808167ffffffffffffffff16815250506056565b5f6103e646146049576096604d565b6104515b61ffff16905090565b60805161563861006e5f395f6112b501526156385ff3fe608060405260043610610129575f3560e01c80637ea558c8116100aa5780639fca51691161006e5780639fca51691461035b578063d73792a914610383578063dfefb2e2146103ad578063faf2773a146103d7578063fe95987c14610401578063ff1e91b51461042957610129565b80637ea558c81461029b5780637fa69383146102c5578063915711ba146102e157806397fdd86a1461030b5780639898728c1461033357610129565b806332480ac9116100f157806332480ac9146101d1578063554e1108146101f95780635e3dcdab14610221578063629138f41461024b57806371291d1b1461027357610129565b80630810bf021461012d57806308c616861461015557806308dda1da146101715780630dcb15481461018d5780631246b2e6146101b5575b5f5ffd5b348015610138575f5ffd5b50610153600480360381019061014e9190613418565b610445565b005b61016f600480360381019061016a9190613480565b6104aa565b005b61018b600480360381019061018691906134d0565b610623565b005b348015610198575f5ffd5b506101b360048036038101906101ae91906137a6565b610696565b005b6101cf60048036038101906101ca9190613837565b6106e5565b005b3480156101dc575f5ffd5b506101f760048036038101906101f29190613ab1565b61083a565b005b348015610204575f5ffd5b5061021f600480360381019061021a9190613b0b565b6109b1565b005b34801561022c575f5ffd5b50610235610c30565b6040516102429190613b45565b60405180910390f35b348015610256575f5ffd5b50610271600480360381019061026c9190613b5e565b610c34565b005b34801561027e575f5ffd5b5061029960048036038101906102949190613b89565b610c9d565b005b3480156102a6575f5ffd5b506102af610e0f565b6040516102bc9190613c07565b60405180910390f35b6102df60048036038101906102da9190613b89565b610e22565b005b3480156102ec575f5ffd5b506102f5611144565b6040516103029190613c2f565b60405180910390f35b348015610316575f5ffd5b50610331600480360381019061032c9190613b5e565b611157565b005b34801561033e575f5ffd5b5061035960048036038101906103549190613d17565b6111c1565b005b348015610366575f5ffd5b50610381600480360381019061037c9190613418565b611280565b005b34801561038e575f5ffd5b50610397611298565b6040516103a49190613d89565b60405180910390f35b3480156103b8575f5ffd5b506103c161129f565b6040516103ce9190613c2f565b60405180910390f35b3480156103e2575f5ffd5b506103eb6112b3565b6040516103f89190613b45565b60405180910390f35b34801561040c575f5ffd5b5061042760048036038101906104229190613da2565b6112d7565b005b610443600480360381019061043e91906134d0565b6112f4565b005b61045081600161141c565b6001600d5f8373ffffffffffffffffffffffffffffffffffffffff1673ffffffffffffffffffffffffffffffffffffffff1681526020019081526020015f205f015f6101000a81548160ff02191690831515021790555050565b5f1515600d5f8573ffffffffffffffffffffffffffffffffffffffff1673ffffffffffffffffffffffffffffffffffffffff1681526020019081526020015f205f015f9054906101000a900460ff1615150361050a5761050983610445565b5b5f1515600f5f8573ffffffffffffffffffffffffffffffffffffffff1673ffffffffffffffffffffffffffffffffffffffff1681526020019081526020015f205f8467ffffffffffffffff1667ffffffffffffffff1681526020019081526020015f205f9054906101000a900460ff161515036105955761058a826109b1565b6105948383611990565b5b80600d5f8573ffffffffffffffffffffffffffffffffffffffff1673ffffffffffffffffffffffffffffffffffffffff1681526020019081526020015f206001015f8467ffffffffffffffff1667ffffffffffffffff1681526020019081526020015f205f6101000a81548167ffffffffffffffff021916908367ffffffffffffffff160217905550505050565b61062c82610445565b80600d5f8473ffffffffffffffffffffffffffffffffffffffff1673ffffffffffffffffffffffffffffffffffffffff1681526020019081526020015f206003015f6101000a81548167ffffffffffffffff021916908367ffffffffffffffff1602179055505050565b80600c5f8463ffffffff1663ffffffff1681526020019081526020015f205f820151815f0190816106c79190613fe5565b5060208201518160010190816106dd91906142a1565b509050505050565b5f1515600d5f8573ffffffffffffffffffffffffffffffffffffffff1673ffffffffffffffffffffffffffffffffffffffff1681526020019081526020015f205f015f9054906101000a900460ff161515036107455761074483610445565b5b5f151560115f8573ffffffffffffffffffffffffffffffffffffffff1673ffffffffffffffffffffffffffffffffffffffff1681526020019081526020015f205f8461ffff1663ffffffff1681526020019081526020015f205f9054906101000a900460ff161515036107bd576107bc8383611b02565b5b80600d5f8573ffffffffffffffffffffffffffffffffffffffff1673ffffffffffffffffffffffffffffffffffffffff1681526020019081526020015f206008015f8461ffff1661ffff1681526020019081526020015f205f0160186101000a81548163ffffffff021916908363ffffffff160217905550505050565b80600a5f8467ffffffffffffffff1667ffffffffffffffff1681526020019081526020015f205f820151815f0190816108739190613fe5565b506020820151816001019081610889919061447a565b506040820151816002015f6101000a81548167ffffffffffffffff021916908367ffffffffffffffff16021790555060608201518160020160086101000a81548173ffffffffffffffffffffffffffffffffffffffff021916908373ffffffffffffffffffffffffffffffffffffffff1602179055506080820151816003015f6101000a81548173ffffffffffffffffffffffffffffffffffffffff021916908373ffffffffffffffffffffffffffffffffffffffff16021790555060a08201518160030160146101000a81548160ff021916908360ff16021790555060c08201518160030160156101000a81548160ff021916908360ff16021790555060e08201518160030160166101000a81548160ff02191690835f0b60ff1602179055509050505050565b5f600a5f8367ffffffffffffffff1667ffffffffffffffff1681526020019081526020015f205f0180546109e490613e04565b905011610c2d576109f36131e0565b6109fc82611cab565b9050600173ffffffffffffffffffffffffffffffffffffffff16816080015173ffffffffffffffffffffffffffffffffffffffff1603610a3c5750610c2d565b80600a5f8467ffffffffffffffff1667ffffffffffffffff1681526020019081526020015f205f820151815f019081610a759190613fe5565b506020820151816001019081610a8b919061447a565b506040820151816002015f6101000a81548167ffffffffffffffff021916908367ffffffffffffffff16021790555060608201518160020160086101000a81548173ffffffffffffffffffffffffffffffffffffffff021916908373ffffffffffffffffffffffffffffffffffffffff1602179055506080820151816003015f6101000a81548173ffffffffffffffffffffffffffffffffffffffff021916908373ffffffffffffffffffffffffffffffffffffffff16021790555060a08201518160030160146101000a81548160ff021916908360ff16021790555060c08201518160030160156101000a81548160ff021916908360ff16021790555060e08201518160030160166101000a81548160ff02191690835f0b60ff1602179055509050505f8267ffffffffffffffff161480610bd2575061010c8267ffffffffffffffff16145b80610be857506101688267ffffffffffffffff16145b15610c2b57600160235f8467ffffffffffffffff1667ffffffffffffffff1681526020019081526020015f205f6101000a81548160ff0219169083151502179055505b505b50565b5f81565b620f42408161ffff161115610c7e576040517f08c379a0000000000000000000000000000000000000000000000000000000008152600401610c75906145d3565b60405180910390fd5b8060095f6101000a81548161ffff021916908361ffff16021790555050565b610ca684610445565b60405180606001604052808473ffffffffffffffffffffffffffffffffffffffff1681526020018367ffffffffffffffff1681526020018267ffffffffffffffff16815250600d5f8673ffffffffffffffffffffffffffffffffffffffff1673ffffffffffffffffffffffffffffffffffffffff1681526020019081526020015f206006015f8573ffffffffffffffffffffffffffffffffffffffff1673ffffffffffffffffffffffffffffffffffffffff1681526020019081526020015f205f820151815f015f6101000a81548173ffffffffffffffffffffffffffffffffffffffff021916908373ffffffffffffffffffffffffffffffffffffffff1602179055506020820151815f0160146101000a81548167ffffffffffffffff021916908367ffffffffffffffff1602179055506040820151816001015f6101000a81548167ffffffffffffffff021916908367ffffffffffffffff16021790555090505050505050565b600960049054906101000a900460ff1681565b610e2b84610445565b600d5f8573ffffffffffffffffffffffffffffffffffffffff1673ffffffffffffffffffffffffffffffffffffffff1681526020019081526020015f206002015f8473ffffffffffffffffffffffffffffffffffffffff1673ffffffffffffffffffffffffffffffffffffffff1681526020019081526020015f205f015f9054906101000a900467ffffffffffffffff1660165f8573ffffffffffffffffffffffffffffffffffffffff1673ffffffffffffffffffffffffffffffffffffffff1681526020019081526020015f205f8282829054906101000a900467ffffffffffffffff16610f1a91906145f1565b92506101000a81548167ffffffffffffffff021916908367ffffffffffffffff1602179055508160165f8573ffffffffffffffffffffffffffffffffffffffff1673ffffffffffffffffffffffffffffffffffffffff1681526020019081526020015f205f8282829054906101000a900467ffffffffffffffff16610f9f919061462c565b92506101000a81548167ffffffffffffffff021916908367ffffffffffffffff16021790555081600d5f8673ffffffffffffffffffffffffffffffffffffffff1673ffffffffffffffffffffffffffffffffffffffff1681526020019081526020015f206002015f8573ffffffffffffffffffffffffffffffffffffffff1673ffffffffffffffffffffffffffffffffffffffff1681526020019081526020015f205f015f6101000a81548167ffffffffffffffff021916908367ffffffffffffffff1602179055505f8167ffffffffffffffff1611611099576103e8610e104261108a9190614667565b61109491906140eb565b61109b565b805b600d5f8673ffffffffffffffffffffffffffffffffffffffff1673ffffffffffffffffffffffffffffffffffffffff1681526020019081526020015f206002015f8573ffffffffffffffffffffffffffffffffffffffff1673ffffffffffffffffffffffffffffffffffffffff1681526020019081526020015f205f0160086101000a81548167ffffffffffffffff021916908367ffffffffffffffff16021790555050505050565b60095f9054906101000a900461ffff1681565b620f42408161ffff1611156111a1576040517f08c379a0000000000000000000000000000000000000000000000000000000008152600401611198906145d3565b60405180910390fd5b80600960026101000a81548161ffff021916908361ffff16021790555050565b80600b5f8461ffff1663ffffffff1681526020019081526020015f205f820151815f0190816111f09190613fe5565b506020820151816001015f6101000a81548163ffffffff021916908363ffffffff16021790555060408201518160010160046101000a81548160ff021916908360ff16021790555060608201518160010160056101000a81548160ff021916908360ff16021790555060808201518160010160066101000a81548160ff0219169083151502179055509050505050565b61129481601a611e0190919063ffffffff16565b5050565b620f424081565b600960029054906101000a900461ffff1681565b7f000000000000000000000000000000000000000000000000000000000000000081565b80600960046101000a81548160ff02191690831515021790555050565b5f1515600d5f8473ffffffffffffffffffffffffffffffffffffffff1673ffffffffffffffffffffffffffffffffffffffff1681526020019081526020015f205f015f9054906101000a900460ff161515036113545761135382610445565b5b5f1515600e5f8473ffffffffffffffffffffffffffffffffffffffff1673ffffffffffffffffffffffffffffffffffffffff1681526020019081526020015f205f9054906101000a900460ff161515036113b2576113b182611e2e565b5b80600d5f8473ffffffffffffffffffffffffffffffffffffffff1673ffffffffffffffffffffffffffffffffffffffff1681526020019081526020015f206007015f6101000a81548167ffffffffffffffff021916908367ffffffffffffffff1602179055505050565b5f600e5f8473ffffffffffffffffffffffffffffffffffffffff1673ffffffffffffffffffffffffffffffffffffffff1681526020019081526020015f205f9054906101000a900460ff1690508015611475575061198c565b5f600d5f8573ffffffffffffffffffffffffffffffffffffffff1673ffffffffffffffffffffffffffffffffffffffff1681526020019081526020015f2090505f6114bf85611e3b565b9050801580156114cd575083155b156114da5750505061198c565b6001600e5f8773ffffffffffffffffffffffffffffffffffffffff1673ffffffffffffffffffffffffffffffffffffffff1681526020019081526020015f205f6101000a81548160ff0219169083151502179055506001825f015f6101000a81548160ff02191690831515021790555061155385611ea4565b826007015f6101000a81548167ffffffffffffffff021916908367ffffffffffffffff16021790555061158461325d565b61158d86611f21565b90508060200151836003015f6101000a81548167ffffffffffffffff021916908367ffffffffffffffff1602179055505f816060015190505f8167ffffffffffffffff1611156116f2575f62093a80426115e79190614667565b90505f5f90505b8267ffffffffffffffff168110156116ef575f5f60018561160f91906145f1565b67ffffffffffffffff1683149050806116435784866040015161163291906146c7565b67ffffffffffffffff169150611684565b8285876040015161165491906146c7565b67ffffffffffffffff1661166891906140eb565b866040015167ffffffffffffffff1661168191906146f7565b91505b6116e06116d060405180606001604052808e73ffffffffffffffffffffffffffffffffffffffff1681526020018567ffffffffffffffff1681526020018763ffffffff16815250611f91565b6017611fe090919063ffffffff16565b505080806001019150506115ee565b50505b60606116fd886120d8565b90505f5f90505b8151811015611868578181815181106117205761171f61472a565b5b6020026020010151866006015f8484815181106117405761173f61472a565b5b60200260200101515f015173ffffffffffffffffffffffffffffffffffffffff1673ffffffffffffffffffffffffffffffffffffffff1681526020019081526020015f205f820151815f015f6101000a81548173ffffffffffffffffffffffffffffffffffffffff021916908373ffffffffffffffffffffffffffffffffffffffff1602179055506020820151815f0160146101000a81548167ffffffffffffffff021916908367ffffffffffffffff1602179055506040820151816001015f6101000a81548167ffffffffffffffff021916908367ffffffffffffffff16021790555090505061185a82828151811061183d5761183c61472a565b5b60200260200101515f015187600401611e0190919063ffffffff16565b508080600101915050611704565b506118735f896121a6565b600d5f8a73ffffffffffffffffffffffffffffffffffffffff1673ffffffffffffffffffffffffffffffffffffffff1681526020019081526020015f20600a015f5f61ffff1681526020019081526020015f205f820151815f015f6101000a81548167ffffffffffffffff021916908360070b67ffffffffffffffff1602179055506020820151815f0160086101000a81548167ffffffffffffffff021916908367ffffffffffffffff1602179055506040820151815f0160106101000a81548167ffffffffffffffff021916908367ffffffffffffffff1602179055506060820151815f0160186101000a81548167ffffffffffffffff021916908360070b67ffffffffffffffff1602179055509050505050505050505b5050565b61199982611e2e565b5f1515600d5f8473ffffffffffffffffffffffffffffffffffffffff1673ffffffffffffffffffffffffffffffffffffffff1681526020019081526020015f205f015f9054906101000a900460ff1615150315611afe576001600f5f8473ffffffffffffffffffffffffffffffffffffffff1673ffffffffffffffffffffffffffffffffffffffff1681526020019081526020015f205f8367ffffffffffffffff1667ffffffffffffffff1681526020019081526020015f205f6101000a81548160ff021916908315150217905550611a72828261221a565b5f0151600d5f8473ffffffffffffffffffffffffffffffffffffffff1673ffffffffffffffffffffffffffffffffffffffff1681526020019081526020015f206001015f8367ffffffffffffffff1667ffffffffffffffff1681526020019081526020015f205f6101000a81548167ffffffffffffffff021916908367ffffffffffffffff1602179055505b5050565b600160115f8473ffffffffffffffffffffffffffffffffffffffff1673ffffffffffffffffffffffffffffffffffffffff1681526020019081526020015f205f8361ffff1663ffffffff1681526020019081526020015f205f6101000a81548160ff021916908315150217905550611b7a82826122d7565b600d5f8473ffffffffffffffffffffffffffffffffffffffff1673ffffffffffffffffffffffffffffffffffffffff1681526020019081526020015f206008015f8361ffff1661ffff1681526020019081526020015f205f820151815f015f6101000a81548167ffffffffffffffff021916908360070b67ffffffffffffffff1602179055506020820151815f0160086101000a81548167ffffffffffffffff021916908367ffffffffffffffff1602179055506040820151815f0160106101000a81548167ffffffffffffffff021916908360070b67ffffffffffffffff1602179055506060820151815f0160186101000a81548163ffffffff021916908363ffffffff1602179055506080820151815f01601c6101000a81548160ff0219169083151502179055509050505050565b611cb36131e0565b611cbb61239a565b15611cd657611ccf8263ffffffff16612433565b9050611dfc565b5f611d0261080c84604051602001611cee9190614766565b604051602081830303815290604052612519565b90505f815103611de45760405180610100016040528060405180602001604052805f81525081526020015f67ffffffffffffffff811115611d4657611d4561355b565b5b604051908082528060200260200182016040528015611d745781602001602082028036833780820191505090505b5081526020015f67ffffffffffffffff168152602001600173ffffffffffffffffffffffffffffffffffffffff168152602001600173ffffffffffffffffffffffffffffffffffffffff1681526020015f60ff1681526020015f60ff1681526020015f5f0b815250915050611dfc565b80806020019051810190611df891906149df565b9150505b919050565b5f611e26835f018373ffffffffffffffffffffffffffffffffffffffff165f1b612889565b905092915050565b611e38815f61141c565b50565b5f611e4461239a565b15611e5957611e52826128f0565b9050611e9f565b5f611e8561081084604051602001611e719190614a35565b604051602081830303815290604052612519565b905080806020019051810190611e9b9190614a62565b9150505b919050565b5f611ead61239a565b15611ec257611ebb826129d2565b9050611f1c565b5f611eee61080384604051602001611eda9190614a35565b604051602081830303815290604052612519565b90505f815103611f01575f915050611f1c565b80806020019051810190611f159190614ac6565b5f01519150505b919050565b611f2961325d565b611f3161239a565b15611f4657611f3f82612ab4565b9050611f8c565b5f611f7261080584604051602001611f5e9190614a35565b604051602081830303815290604052612519565b905080806020019051810190611f889190614b66565b9150505b919050565b5f816040015163ffffffff1664ffffffffff166020836020015167ffffffffffffffff16901b6060845f015173ffffffffffffffffffffffffffffffffffffffff16901b17175f1b9050919050565b5f825f0160109054906101000a90046fffffffffffffffffffffffffffffffff169050825f015f9054906101000a90046fffffffffffffffffffffffffffffffff166fffffffffffffffffffffffffffffffff16600182016fffffffffffffffffffffffffffffffff160361205a576120596041612b9a565b5b81836001015f836fffffffffffffffffffffffffffffffff166fffffffffffffffffffffffffffffffff1681526020019081526020015f208190555060018101835f0160106101000a8154816fffffffffffffffffffffffffffffffff02191690836fffffffffffffffffffffffffffffffff160217905550505050565b60606120e261239a565b156120f7576120f082612bab565b90506121a1565b5f6121236108048460405160200161210f9190614a35565b604051602081830303815290604052612519565b90505f815103612189575f67ffffffffffffffff8111156121475761214661355b565b5b60405190808252806020026020018201604052801561218057816020015b61216d6132a9565b8152602001906001900390816121655790505b509150506121a1565b8080602001905181019061219d9190614cb2565b9150505b919050565b6121ae6132f1565b6121b661239a565b156121cc576121c58383612c8b565b9050612214565b5f6121fa61080f85856040516020016121e6929190614cf9565b604051602081830303815290604052612519565b9050808060200190518101906122109190614dcb565b9150505b92915050565b61222261332f565b61222a61239a565b15612240576122398383612d74565b90506122d1565b5f61226e610801858560405160200161225a929190614df6565b604051602081830303815290604052612519565b90505f8151036122b95760405180606001604052805f67ffffffffffffffff1681526020015f67ffffffffffffffff1681526020015f67ffffffffffffffff168152509150506122d1565b808060200190518101906122cd9190614e7e565b9150505b92915050565b6122df61336b565b6122e761239a565b156122fd576122f68383612e5d565b9050612394565b5f61232b6108008585604051602001612317929190614ea9565b604051602081830303815290604052612519565b90505f81510361237c576040518060a001604052805f60070b81526020015f67ffffffffffffffff1681526020015f60070b81526020015f63ffffffff1681526020015f1515815250915050612394565b808060200190518101906123909190614f6d565b9150505b92915050565b5f6123a3612f46565b15801561242e575073999999999999999999999999999999999999999973ffffffffffffffffffffffffffffffffffffffff16637ea558c86040518163ffffffff1660e01b8152600401602060405180830381865afa158015612408573d5f5f3e3d5ffd5b505050506040513d601f19601f8201168201806040525081019061242c9190614a62565b155b905090565b61243b6131e0565b5f5f61080c73ffffffffffffffffffffffffffffffffffffffff16846040516020016124679190613b45565b6040516020818303038152906040526040516124839190614fdc565b5f60405180830381855afa9150503d805f81146124bb576040519150601f19603f3d011682016040523d82523d5f602084013e6124c0565b606091505b5091509150816124fc576040517fee6b81c500000000000000000000000000000000000000000000000000000000815260040160405180910390fd5b8080602001905181019061251091906149df565b92505050919050565b60605f737109709ecfa91a80626ff3989d68f67f5b1dd12d73ffffffffffffffffffffffffffffffffffffffff166356ca623e856040518263ffffffff1660e01b81526004016125699190614a35565b5f60405180830381865afa158015612583573d5f5f3e3d5ffd5b505050506040513d5f823e3d601f19601f820116820180604052508101906125ab9190614ff2565b737109709ecfa91a80626ff3989d68f67f5b1dd12d73ffffffffffffffffffffffffffffffffffffffff166371aad10d856040518263ffffffff1660e01b81526004016125f89190615081565b5f60405180830381865afa158015612612573d5f5f3e3d5ffd5b505050506040513d5f823e3d601f19601f8201168201806040525081019061263a9190614ff2565b60405160200161264b92919061514d565b60405160208183030381529060405290505f5f905080156127d5575f61267043612fd8565b60405160200161268091906151c3565b6040516020818303038152906040529050737109709ecfa91a80626ff3989d68f67f5b1dd12d73ffffffffffffffffffffffffffffffffffffffff166356ca623e876040518263ffffffff1660e01b81526004016126de9190614a35565b5f60405180830381865afa1580156126f8573d5f5f3e3d5ffd5b505050506040513d5f823e3d601f19601f820116820180604052508101906127209190614ff2565b737109709ecfa91a80626ff3989d68f67f5b1dd12d73ffffffffffffffffffffffffffffffffffffffff166371aad10d876040518263ffffffff1660e01b815260040161276d9190615081565b5f60405180830381865afa158015612787573d5f5f3e3d5ffd5b505050506040513d5f823e3d601f19601f820116820180604052508101906127af9190614ff2565b826040516020016127c293929190615234565b6040516020818303038152906040529250505b737109709ecfa91a80626ff3989d68f67f5b1dd12d73ffffffffffffffffffffffffffffffffffffffff16631206c8a8836040518263ffffffff1660e01b81526004016128229190615322565b5f604051808303815f875af192505050801561286057506040513d5f823e3d601f19601f8201168201806040525081019061285d91906153f3565b60015b61287c5760405180602001604052805f81525092505050612883565b8093505050505b92915050565b5f61289483836130ff565b6128e657825f0182908060018154018082558091505060019003905f5260205f20015f9091909190915055825f0180549050836001015f8481526020019081526020015f2081905550600190506128ea565b5f90505b92915050565b5f5f5f61081073ffffffffffffffffffffffffffffffffffffffff168460405160200161291d9190614a35565b6040516020818303038152906040526040516129399190614fdc565b5f60405180830381855afa9150503d805f8114612971576040519150601f19603f3d011682016040523d82523d5f602084013e612976565b606091505b5091509150816129b2576040517fafa9572000000000000000000000000000000000000000000000000000000000815260040160405180910390fd5b808060200190518101906129c69190615473565b5f015192505050919050565b5f5f5f61080373ffffffffffffffffffffffffffffffffffffffff16846040516020016129ff9190614a35565b604051602081830303815290604052604051612a1b9190614fdc565b5f60405180830381855afa9150503d805f8114612a53576040519150601f19603f3d011682016040523d82523d5f602084013e612a58565b606091505b509150915081612a94576040517f70a5e2e600000000000000000000000000000000000000000000000000000000815260040160405180910390fd5b80806020019051810190612aa89190614ac6565b5f015192505050919050565b612abc61325d565b5f5f61080573ffffffffffffffffffffffffffffffffffffffff1684604051602001612ae89190614a35565b604051602081830303815290604052604051612b049190614fdc565b5f60405180830381855afa9150503d805f8114612b3c576040519150601f19603f3d011682016040523d82523d5f602084013e612b41565b606091505b509150915081612b7d576040517f4ffb6d5f00000000000000000000000000000000000000000000000000000000815260040160405180910390fd5b80806020019051810190612b919190614b66565b92505050919050565b634e487b715f52806020526024601cfd5b60605f5f61080473ffffffffffffffffffffffffffffffffffffffff1684604051602001612bd99190614a35565b604051602081830303815290604052604051612bf59190614fdc565b5f60405180830381855afa9150503d805f8114612c2d576040519150601f19603f3d011682016040523d82523d5f602084013e612c32565b606091505b509150915081612c6e576040517f56debe6600000000000000000000000000000000000000000000000000000000815260040160405180910390fd5b80806020019051810190612c829190614cb2565b92505050919050565b612c936132f1565b5f5f61080f73ffffffffffffffffffffffffffffffffffffffff168585604051602001612cc1929190614cf9565b604051602081830303815290604052604051612cdd9190614fdc565b5f60405180830381855afa9150503d805f8114612d15576040519150601f19603f3d011682016040523d82523d5f602084013e612d1a565b606091505b509150915081612d56576040517f7cf4fff200000000000000000000000000000000000000000000000000000000815260040160405180910390fd5b80806020019051810190612d6a9190614dcb565b9250505092915050565b612d7c61332f565b5f5f61080173ffffffffffffffffffffffffffffffffffffffff168585604051602001612daa929190614df6565b604051602081830303815290604052604051612dc69190614fdc565b5f60405180830381855afa9150503d805f8114612dfe576040519150601f19603f3d011682016040523d82523d5f602084013e612e03565b606091505b509150915081612e3f576040517f062879da00000000000000000000000000000000000000000000000000000000815260040160405180910390fd5b80806020019051810190612e539190614e7e565b9250505092915050565b612e6561336b565b5f5f61080073ffffffffffffffffffffffffffffffffffffffff168585604051602001612e93929190614ea9565b604051602081830303815290604052604051612eaf9190614fdc565b5f60405180830381855afa9150503d805f8114612ee7576040519150601f19603f3d011682016040523d82523d5f602084013e612eec565b606091505b509150915081612f28576040517f7de84ab700000000000000000000000000000000000000000000000000000000815260040160405180910390fd5b80806020019051810190612f3c9190614f6d565b9250505092915050565b5f737109709ecfa91a80626ff3989d68f67f5b1dd12d73ffffffffffffffffffffffffffffffffffffffff16632f103f226040518163ffffffff1660e01b8152600401602060405180830381865afa925050508015612fc357506040513d601f19601f82011682018060405250810190612fc091906154c8565b60015b612fcf575f9050612fd5565b60019150505b90565b60605f5f90505f8390505b5f811461300c578180612ff5906154f3565b925050601081613005919061553a565b9050612fe3565b5f8267ffffffffffffffff8111156130275761302661355b565b5b6040519080825280601f01601f1916602001820160405280156130595781602001600182028036833780820191505090505b5090505f5f90505b838110156130f357601086613076919061556a565b92506130818361311f565b826001838761309091906146f7565b61309a91906146f7565b815181106130ab576130aa61472a565b5b60200101907effffffffffffffffffffffffffffffffffffffffffffffffffffffffffffff191690815f1a9053506010866130e6919061553a565b9550806001019050613061565b50809350505050919050565b5f5f836001015f8481526020019081526020015f20541415905092915050565b5f8160ff165f11158015613137575060098260ff1611155b1561317557817f300000000000000000000000000000000000000000000000000000000000000060f81c61316b919061559a565b60f81b90506131db565b8160ff16600a1115801561318d5750600f8260ff1611155b156131d757600a827f610000000000000000000000000000000000000000000000000000000000000060f81c6131c3919061559a565b6131cd91906155ce565b60f81b90506131db565b5f5ffd5b919050565b60405180610100016040528060608152602001606081526020015f67ffffffffffffffff1681526020015f73ffffffffffffffffffffffffffffffffffffffff1681526020015f73ffffffffffffffffffffffffffffffffffffffff1681526020015f60ff1681526020015f60ff1681526020015f5f0b81525090565b60405180608001604052805f67ffffffffffffffff1681526020015f67ffffffffffffffff1681526020015f67ffffffffffffffff1681526020015f67ffffffffffffffff1681525090565b60405180606001604052805f73ffffffffffffffffffffffffffffffffffffffff1681526020015f67ffffffffffffffff1681526020015f67ffffffffffffffff1681525090565b60405180608001604052805f60070b81526020015f67ffffffffffffffff1681526020015f67ffffffffffffffff1681526020015f60070b81525090565b60405180606001604052805f67ffffffffffffffff1681526020015f67ffffffffffffffff1681526020015f67ffffffffffffffff1681525090565b6040518060a001604052805f60070b81526020015f67ffffffffffffffff1681526020015f60070b81526020015f63ffffffff1681526020015f151581525090565b5f604051905090565b5f5ffd5b5f5ffd5b5f73ffffffffffffffffffffffffffffffffffffffff82169050919050565b5f6133e7826133be565b9050919050565b6133f7816133dd565b8114613401575f5ffd5b50565b5f81359050613412816133ee565b92915050565b5f6020828403121561342d5761342c6133b6565b5b5f61343a84828501613404565b91505092915050565b5f67ffffffffffffffff82169050919050565b61345f81613443565b8114613469575f5ffd5b50565b5f8135905061347a81613456565b92915050565b5f5f5f60608486031215613497576134966133b6565b5b5f6134a486828701613404565b93505060206134b58682870161346c565b92505060406134c68682870161346c565b9150509250925092565b5f5f604083850312156134e6576134e56133b6565b5b5f6134f385828601613404565b92505060206135048582860161346c565b9150509250929050565b5f63ffffffff82169050919050565b6135268161350e565b8114613530575f5ffd5b50565b5f813590506135418161351d565b92915050565b5f5ffd5b5f601f19601f8301169050919050565b7f4e487b71000000000000000000000000000000000000000000000000000000005f52604160045260245ffd5b6135918261354b565b810181811067ffffffffffffffff821117156135b0576135af61355b565b5b80604052505050565b5f6135c26133ad565b90506135ce8282613588565b919050565b5f5ffd5b5f5ffd5b5f5ffd5b5f67ffffffffffffffff8211156135f9576135f861355b565b5b6136028261354b565b9050602081019050919050565b828183375f83830152505050565b5f61362f61362a846135df565b6135b9565b90508281526020810184848401111561364b5761364a6135db565b5b61365684828561360f565b509392505050565b5f82601f830112613672576136716135d7565b5b813561368284826020860161361d565b91505092915050565b5f67ffffffffffffffff8211156136a5576136a461355b565b5b602082029050919050565b5f5ffd5b5f6136c66136c18461368b565b6135b9565b905080602084028301858111156136e0576136df6136b0565b5b835b8181101561370957806136f5888261346c565b8452602084019350506020810190506136e2565b5050509392505050565b5f82601f830112613727576137266135d7565b5b60026137348482856136b4565b91505092915050565b5f6060828403121561375257613751613547565b5b61375c60406135b9565b90505f82013567ffffffffffffffff81111561377b5761377a6135d3565b5b6137878482850161365e565b5f83015250602061379a84828501613713565b60208301525092915050565b5f5f604083850312156137bc576137bb6133b6565b5b5f6137c985828601613533565b925050602083013567ffffffffffffffff8111156137ea576137e96133ba565b5b6137f68582860161373d565b9150509250929050565b5f61ffff82169050919050565b61381681613800565b8114613820575f5ffd5b50565b5f813590506138318161380d565b92915050565b5f5f5f6060848603121561384e5761384d6133b6565b5b5f61385b86828701613404565b935050602061386c86828701613823565b925050604061387d86828701613533565b9150509250925092565b5f67ffffffffffffffff8211156138a1576138a061355b565b5b602082029050602081019050919050565b5f6138c46138bf84613887565b6135b9565b905080838252602082019050602084028301858111156138e7576138e66136b0565b5b835b8181101561391057806138fc888261346c565b8452602084019350506020810190506138e9565b5050509392505050565b5f82601f83011261392e5761392d6135d7565b5b813561393e8482602086016138b2565b91505092915050565b5f60ff82169050919050565b61395c81613947565b8114613966575f5ffd5b50565b5f8135905061397781613953565b92915050565b5f815f0b9050919050565b6139918161397d565b811461399b575f5ffd5b50565b5f813590506139ac81613988565b92915050565b5f61010082840312156139c8576139c7613547565b5b6139d36101006135b9565b90505f82013567ffffffffffffffff8111156139f2576139f16135d3565b5b6139fe8482850161365e565b5f83015250602082013567ffffffffffffffff811115613a2157613a206135d3565b5b613a2d8482850161391a565b6020830152506040613a418482850161346c565b6040830152506060613a5584828501613404565b6060830152506080613a6984828501613404565b60808301525060a0613a7d84828501613969565b60a08301525060c0613a9184828501613969565b60c08301525060e0613aa58482850161399e565b60e08301525092915050565b5f5f60408385031215613ac757613ac66133b6565b5b5f613ad48582860161346c565b925050602083013567ffffffffffffffff811115613af557613af46133ba565b5b613b01858286016139b2565b9150509250929050565b5f60208284031215613b2057613b1f6133b6565b5b5f613b2d8482850161346c565b91505092915050565b613b3f81613443565b82525050565b5f602082019050613b585f830184613b36565b92915050565b5f60208284031215613b7357613b726133b6565b5b5f613b8084828501613823565b91505092915050565b5f5f5f5f60808587031215613ba157613ba06133b6565b5b5f613bae87828801613404565b9450506020613bbf87828801613404565b9350506040613bd08782880161346c565b9250506060613be18782880161346c565b91505092959194509250565b5f8115159050919050565b613c0181613bed565b82525050565b5f602082019050613c1a5f830184613bf8565b92915050565b613c2981613800565b82525050565b5f602082019050613c425f830184613c20565b92915050565b613c5181613bed565b8114613c5b575f5ffd5b50565b5f81359050613c6c81613c48565b92915050565b5f60a08284031215613c8757613c86613547565b5b613c9160a06135b9565b90505f82013567ffffffffffffffff811115613cb057613caf6135d3565b5b613cbc8482850161365e565b5f830152506020613ccf84828501613533565b6020830152506040613ce384828501613969565b6040830152506060613cf784828501613969565b6060830152506080613d0b84828501613c5e565b60808301525092915050565b5f5f60408385031215613d2d57613d2c6133b6565b5b5f613d3a85828601613823565b925050602083013567ffffffffffffffff811115613d5b57613d5a6133ba565b5b613d6785828601613c72565b9150509250929050565b5f819050919050565b613d8381613d71565b82525050565b5f602082019050613d9c5f830184613d7a565b92915050565b5f60208284031215613db757613db66133b6565b5b5f613dc484828501613c5e565b91505092915050565b5f81519050919050565b7f4e487b71000000000000000000000000000000000000000000000000000000005f52602260045260245ffd5b5f6002820490506001821680613e1b57607f821691505b602082108103613e2e57613e2d613dd7565b5b50919050565b5f819050815f5260205f209050919050565b5f6020601f8301049050919050565b5f82821b905092915050565b5f60088302613e907fffffffffffffffffffffffffffffffffffffffffffffffffffffffffffffffff82613e55565b613e9a8683613e55565b95508019841693508086168417925050509392505050565b5f819050919050565b5f613ed5613ed0613ecb84613d71565b613eb2565b613d71565b9050919050565b5f819050919050565b613eee83613ebb565b613f02613efa82613edc565b848454613e61565b825550505050565b5f5f905090565b613f19613f0a565b613f24818484613ee5565b505050565b5f5b82811015613f4a57613f3f5f828401613f11565b600181019050613f2b565b505050565b601f821115613f9d5782821115613f9c57613f6981613e34565b613f7283613e46565b613f7b85613e46565b6020861015613f88575f90505b808301613f9782840382613f29565b505050505b5b505050565b5f82821c905092915050565b5f613fbd5f1984600802613fa2565b1980831691505092915050565b5f613fd58383613fae565b9150826002028217905092915050565b613fee82613dcd565b67ffffffffffffffff8111156140075761400661355b565b5b6140118254613e04565b61401c828285613f4f565b5f60209050601f83116001811461404d575f841561403b578287015190505b6140458582613fca565b8655506140ac565b601f19841661405b86613e34565b5f5b828110156140825784890151825560018201915060208501945060208101905061405d565b8683101561409f578489015161409b601f891682613fae565b8355505b6001600288020188555050505b505050505050565b5f60029050919050565b7f4e487b71000000000000000000000000000000000000000000000000000000005f52601160045260245ffd5b5f6140f582613d71565b915061410083613d71565b925082820261410e81613d71565b91508282048414831517614125576141246140be565b5b5092915050565b5f819050600460016004038301049050919050565b5f819050919050565b5f5b8281101561416b576141605f828401613f11565b60018101905061414c565b505050565b6141a07fffffffffffffffffffffffffffffffffffffffffffffffffffffffffffffffff83602003600802613fa2565b815481168255505050565b81831015614200576141bc8261412c565b6141c58461412c565b6141ce83614141565b818101600860048806025f8111156141ee576141ed8160018403614170565b5b6141fa8486038361414a565b50505050505b505050565b6801000000000000000082111561421f5761421e61355b565b5b614228816140b4565b6142338382846141ab565b505050565b5f60029050919050565b5f61424d8251613443565b80915050919050565b5f819050919050565b5f6008830261427667ffffffffffffffff82613e55565b6142808683613e55565b95508019841693508086168417925050509392505050565b5f819050919050565b6142aa82614238565b67ffffffffffffffff8111156142c3576142c261355b565b5b6142cd8183614205565b6142d683614256565b6142df83614141565b600483045f5b81811015614340575f5f5b600481101561432e5761430286614242565b61430b81614298565b61431981846008028661425f565b935060208801975050506001810190506142f0565b508082850155506001810190506142e5565b506004810284035f811115614397575f5f5b8281101561438f5761436386614242565b61436c81614298565b61437a81846008028661425f565b93506020880197505050600181019050614352565b508083850155505b50505050505050565b5f81549050919050565b5f819050600460016004038301049050919050565b5f819050815f5260205f209050919050565b81831015614426576143e2826143aa565b6143eb846143aa565b6143f4836143bf565b818101600860048806025f811115614414576144138160018403614170565b5b6144208486038361414a565b50505050505b505050565b680100000000000000008211156144455761444461355b565b5b61444e816143a0565b82825561445c8382846143d1565b505050565b5f81519050919050565b5f819050602082019050919050565b61448382614461565b67ffffffffffffffff81111561449c5761449b61355b565b5b6144a6818361442b565b6144af8361446b565b6144b8836143bf565b600483045f5b81811015614519575f5f5b6004811015614507576144db86614242565b6144e481614298565b6144f281846008028661425f565b935060208801975050506001810190506144c9565b508082850155506001810190506144be565b506004810284035f811115614570575f5f5b828110156145685761453c86614242565b61454581614298565b61455381846008028661425f565b9350602088019750505060018101905061452b565b508083850155505b50505050505050565b5f82825260208201905092915050565b7f66656520746f6f206869676800000000000000000000000000000000000000005f82015250565b5f6145bd600c83614579565b91506145c882614589565b602082019050919050565b5f6020820190508181035f8301526145ea816145b1565b9050919050565b5f6145fb82613443565b915061460683613443565b9250828203905067ffffffffffffffff811115614626576146256140be565b5b92915050565b5f61463682613443565b915061464183613443565b9250828201905067ffffffffffffffff811115614661576146606140be565b5b92915050565b5f61467182613d71565b915061467c83613d71565b9250828201905080821115614694576146936140be565b5b92915050565b7f4e487b71000000000000000000000000000000000000000000000000000000005f52601260045260245ffd5b5f6146d182613443565b91506146dc83613443565b9250826146ec576146eb61469a565b5b828204905092915050565b5f61470182613d71565b915061470c83613d71565b9250828203905081811115614724576147236140be565b5b92915050565b7f4e487b71000000000000000000000000000000000000000000000000000000005f52603260045260245ffd5b6147608161350e565b82525050565b5f6020820190506147795f830184614757565b92915050565b8281835e5f83830152505050565b5f61479f61479a846135df565b6135b9565b9050828152602081018484840111156147bb576147ba6135db565b5b6147c684828561477f565b509392505050565b5f82601f8301126147e2576147e16135d7565b5b81516147f284826020860161478d565b91505092915050565b5f8151905061480981613456565b92915050565b5f61482161481c84613887565b6135b9565b90508083825260208201905060208402830185811115614844576148436136b0565b5b835b8181101561486d578061485988826147fb565b845260208401935050602081019050614846565b5050509392505050565b5f82601f83011261488b5761488a6135d7565b5b815161489b84826020860161480f565b91505092915050565b5f815190506148b2816133ee565b92915050565b5f815190506148c681613953565b92915050565b5f815190506148da81613988565b92915050565b5f61010082840312156148f6576148f5613547565b5b6149016101006135b9565b90505f82015167ffffffffffffffff8111156149205761491f6135d3565b5b61492c848285016147ce565b5f83015250602082015167ffffffffffffffff81111561494f5761494e6135d3565b5b61495b84828501614877565b602083015250604061496f848285016147fb565b6040830152506060614983848285016148a4565b6060830152506080614997848285016148a4565b60808301525060a06149ab848285016148b8565b60a08301525060c06149bf848285016148b8565b60c08301525060e06149d3848285016148cc565b60e08301525092915050565b5f602082840312156149f4576149f36133b6565b5b5f82015167ffffffffffffffff811115614a1157614a106133ba565b5b614a1d848285016148e0565b91505092915050565b614a2f816133dd565b82525050565b5f602082019050614a485f830184614a26565b92915050565b5f81519050614a5c81613c48565b92915050565b5f60208284031215614a7757614a766133b6565b5b5f614a8484828501614a4e565b91505092915050565b5f60208284031215614aa257614aa1613547565b5b614aac60206135b9565b90505f614abb848285016147fb565b5f8301525092915050565b5f60208284031215614adb57614ada6133b6565b5b5f614ae884828501614a8d565b91505092915050565b5f60808284031215614b0657614b05613547565b5b614b1060806135b9565b90505f614b1f848285016147fb565b5f830152506020614b32848285016147fb565b6020830152506040614b46848285016147fb565b6040830152506060614b5a848285016147fb565b60608301525092915050565b5f60808284031215614b7b57614b7a6133b6565b5b5f614b8884828501614af1565b91505092915050565b5f67ffffffffffffffff821115614bab57614baa61355b565b5b602082029050602081019050919050565b5f60608284031215614bd157614bd0613547565b5b614bdb60606135b9565b90505f614bea848285016148a4565b5f830152506020614bfd848285016147fb565b6020830152506040614c11848285016147fb565b60408301525092915050565b5f614c2f614c2a84614b91565b6135b9565b90508083825260208201905060608402830185811115614c5257614c516136b0565b5b835b81811015614c7b5780614c678882614bbc565b845260208401935050606081019050614c54565b5050509392505050565b5f82601f830112614c9957614c986135d7565b5b8151614ca9848260208601614c1d565b91505092915050565b5f60208284031215614cc757614cc66133b6565b5b5f82015167ffffffffffffffff811115614ce457614ce36133ba565b5b614cf084828501614c85565b91505092915050565b5f604082019050614d0c5f830185614757565b614d196020830184614a26565b9392505050565b5f8160070b9050919050565b614d3581614d20565b8114614d3f575f5ffd5b50565b5f81519050614d5081614d2c565b92915050565b5f60808284031215614d6b57614d6a613547565b5b614d7560806135b9565b90505f614d8484828501614d42565b5f830152506020614d97848285016147fb565b6020830152506040614dab848285016147fb565b6040830152506060614dbf84828501614d42565b60608301525092915050565b5f60808284031215614de057614ddf6133b6565b5b5f614ded84828501614d56565b91505092915050565b5f604082019050614e095f830185614a26565b614e166020830184613b36565b9392505050565b5f60608284031215614e3257614e31613547565b5b614e3c60606135b9565b90505f614e4b848285016147fb565b5f830152506020614e5e848285016147fb565b6020830152506040614e72848285016147fb565b60408301525092915050565b5f60608284031215614e9357614e926133b6565b5b5f614ea084828501614e1d565b91505092915050565b5f604082019050614ebc5f830185614a26565b614ec96020830184613c20565b9392505050565b5f81519050614ede8161351d565b92915050565b5f60a08284031215614ef957614ef8613547565b5b614f0360a06135b9565b90505f614f1284828501614d42565b5f830152506020614f25848285016147fb565b6020830152506040614f3984828501614d42565b6040830152506060614f4d84828501614ed0565b6060830152506080614f6184828501614a4e565b60808301525092915050565b5f60a08284031215614f8257614f816133b6565b5b5f614f8f84828501614ee4565b91505092915050565b5f81519050919050565b5f81905092915050565b5f614fb682614f98565b614fc08185614fa2565b9350614fd081856020860161477f565b80840191505092915050565b5f614fe78284614fac565b915081905092915050565b5f60208284031215615007576150066133b6565b5b5f82015167ffffffffffffffff811115615024576150236133ba565b5b615030848285016147ce565b91505092915050565b5f82825260208201905092915050565b5f61505382614f98565b61505d8185615039565b935061506d81856020860161477f565b6150768161354b565b840191505092915050565b5f6020820190508181035f8301526150998184615049565b905092915050565b7f5b7b22746f223a22000000000000000000000000000000000000000000000000815250565b5f81905092915050565b5f6150db82613dcd565b6150e581856150c7565b93506150f581856020860161477f565b80840191505092915050565b7f222c2264617461223a2200000000000000000000000000000000000000000000815250565b7f227d2c226c6174657374225d0000000000000000000000000000000000000000815250565b5f615157826150a1565b60088201915061516782856150d1565b915061517282615101565b600a8201915061518282846150d1565b915061518d82615127565b600c820191508190509392505050565b7f3078000000000000000000000000000000000000000000000000000000000000815250565b5f6151cd8261519d565b6002820191506151dd82846150d1565b915081905092915050565b7f227d2c2200000000000000000000000000000000000000000000000000000000815250565b7f225d000000000000000000000000000000000000000000000000000000000000815250565b5f61523e826150a1565b60088201915061524e82866150d1565b915061525982615101565b600a8201915061526982856150d1565b9150615274826151e8565b60048201915061528482846150d1565b915061528f8261520e565b600282019150819050949350505050565b7f6574685f63616c6c0000000000000000000000000000000000000000000000005f82015250565b5f6152d4600883614579565b91506152df826152a0565b602082019050919050565b5f6152f482613dcd565b6152fe8185614579565b935061530e81856020860161477f565b6153178161354b565b840191505092915050565b5f6040820190508181035f830152615339816152c8565b9050818103602083015261534d81846152ea565b905092915050565b5f67ffffffffffffffff82111561536f5761536e61355b565b5b6153788261354b565b9050602081019050919050565b5f61539761539284615355565b6135b9565b9050828152602081018484840111156153b3576153b26135db565b5b6153be84828561477f565b509392505050565b5f82601f8301126153da576153d96135d7565b5b81516153ea848260208601615385565b91505092915050565b5f60208284031215615408576154076133b6565b5b5f82015167ffffffffffffffff811115615425576154246133ba565b5b615431848285016153c6565b91505092915050565b5f6020828403121561544f5761544e613547565b5b61545960206135b9565b90505f61546884828501614a4e565b5f8301525092915050565b5f60208284031215615488576154876133b6565b5b5f6154958482850161543a565b91505092915050565b6154a781613d71565b81146154b1575f5ffd5b50565b5f815190506154c28161549e565b92915050565b5f602082840312156154dd576154dc6133b6565b5b5f6154ea848285016154b4565b91505092915050565b5f6154fd82613d71565b91507fffffffffffffffffffffffffffffffffffffffffffffffffffffffffffffffff820361552f5761552e6140be565b5b600182019050919050565b5f61554482613d71565b915061554f83613d71565b92508261555f5761555e61469a565b5b828204905092915050565b5f61557482613d71565b915061557f83613d71565b92508261558f5761558e61469a565b5b828206905092915050565b5f6155a482613947565b91506155af83613947565b9250828201905060ff8111156155c8576155c76140be565b5b92915050565b5f6155d882613947565b91506155e383613947565b9250828203905060ff8111156155fc576155fb6140be565b5b9291505056fea2646970667358221220f70e34a342cad33825d8fd118b5b2497daf41a1e999900472bd9edaff7b812dd64736f6c63430008210033","linkReferences":{}},"methodIdentifiers":{"FEE_DENOMINATOR()":"d73792a9","HYPE_TOKEN_INDEX()":"faf2773a","USDC_TOKEN_INDEX()":"5e3dcdab","forceAccountActivation(address)":"0810bf02","forceDelegation(address,address,uint64,uint64)":"71291d1b","forcePerpBalance(address,uint64)":"ff1e91b5","forcePerpPositionLeverage(address,uint16,uint32)":"1246b2e6","forceSpotBalance(address,uint64,uint64)":"08c61686","forceStakingBalance(address,uint64)":"08dda1da","forceVaultEquity(address,address,uint64,uint64)":"7fa69383","perpMakerFee()":"dfefb2e2","registerPerpAssetInfo(uint16,(string,uint32,uint8,uint8,bool))":"9898728c","registerSpotInfo(uint32,(string,uint64[2]))":"0dcb1548","registerTokenInfo(uint64)":"554e1108","registerTokenInfo(uint64,(string,uint64[],uint64,address,address,uint8,uint8,int8))":"32480ac9","registerValidator(address)":"9fca5169","setPerpMakerFee(uint16)":"97fdd86a","setSpotMakerFee(uint16)":"629138f4","setUseRealL1Read(bool)":"fe95987c","spotMakerFee()":"915711ba","useRealL1Read()":"7ea558c8"},"id":54}