{"abi":[{"type":"function","name":"enqueueAction","inputs":[{"name":"timestamp","type":"uint256","internalType":"uint256"},{"name":"data","type":"bytes","internalType":"bytes"},{"name":"value","type":"uint256","internalType":"uint256"}],"outputs":[],"stateMutability":"nonpayable"},{"type":"function","name":"enqueueAction","inputs":[{"name":"data","type":"bytes","internalType":"bytes"},{"name":"value","type":"uint256","internalType":"uint256"}],"outputs":[],"stateMutability":"nonpayable"},{"type":"function","name":"executeQueuedActions","inputs":[{"name":"expectRevert","type":"bool","internalType":"bool"}],"outputs":[],"stateMutability":"nonpayable"},{"type":"function","name":"nativeTransferCallback","inputs":[{"name":"sender","type":"address","internalType":"address"},{"name":"from","type":"address","internalType":"address"},{"name":"value","type":"uint256","internalType":"uint256"}],"outputs":[],"stateMutability":"payable"},{"type":"function","name":"revertOnFailure","inputs":[],"outputs":[{"name":"","type":"bool","internalType":"bool"}],"stateMutability":"view"},{"type":"function","name":"sendRawAction","inputs":[{"name":"data","type":"bytes","internalType":"bytes"}],"outputs":[],"stateMutability":"nonpayable"},{"type":"function","name":"setRevertOnFailure","inputs":[{"name":"_revertOnFailure","type":"bool","internalType":"bool"}],"outputs":[],"stateMutability":"nonpayable"},{"type":"function","name":"tokenTransferCallback","inputs":[{"name":"sender","type":"address","internalType":"address"},{"name":"token","type":"uint64","internalType":"uint64"},{"name":"from","type":"address","internalType":"address"},{"name":"value","type":"uint256","internalType":"uint256"}],"outputs":[],"stateMutability":"nonpayable"},{"type":"function","name":"tokenTransferCallback","inputs":[{"name":"token","type":"uint64","internalType":"uint64"},{"name":"from","type":"address","internalType":"address"},{"name":"value","type":"uint256","internalType":"uint256"}],"outputs":[],"stateMutability":"nonpayable"},{"type":"event","name":"RawAction","inputs":[{"name":"user","type":"address","indexed":true,"internalType":"address"},{"name":"data","type":"bytes","indexed":false,"internalType":"bytes"}],"anonymous":false}],"bytecode":{"object":"0x6080604052348015600e575f5ffd5b506118978061001c5f395ff3fe608060405260043610610085575f3560e01c8063976743ad11610058578063976743ad146101295780639a19f92c14610153578063ad1c3d8b1461017b578063b35399bf14610197578063f6315a60146101bf57610085565b806317938e13146100895780636c0f6c5a146100b157806379b4472c146100d957806383713c9414610101575b5f5ffd5b348015610094575f5ffd5b506100af60048036038101906100aa9190610cab565b6101e7565b005b3480156100bc575f5ffd5b506100d760048036038101906100d29190610dc0565b61036e565b005b3480156100e4575f5ffd5b506100ff60048036038101906100fa9190610f5c565b6103d9565b005b34801561010c575f5ffd5b5061012760048036038101906101229190610fc8565b6104c7565b005b348015610134575f5ffd5b5061013d6104d8565b60405161014a9190611032565b60405180910390f35b34801561015e575f5ffd5b5061017960048036038101906101749190611075565b6104ea565b005b610195600480360381019061019091906110a0565b61079c565b005b3480156101a2575f5ffd5b506101bd60048036038101906101b89190611075565b610804565b005b3480156101ca575f5ffd5b506101e560048036038101906101e091906110f0565b610820565b005b5f82825f8181106101fb576101fa61114a565b5b9050013560f81c60f81b60f81c905060018160ff1614610219575f5ffd5b5f8383600381811061022e5761022d61114a565b5b9050013560f81c60f81b60f81c60ff166008858560028181106102545761025361114a565b5b9050013560f81c60f81b60f81c60ff1662ffffff16901b6010868660018181106102815761028061114a565b5b9050013560f81c60f81b60f81c60ff1662ffffff16901b171790505f3382868660049080926102b29392919061117f565b6040516024016102c59493929190611221565b60405160208183030381529060405263158389c460e01b6020820180517bffffffffffffffffffffffffffffffffffffffffffffffffffffffff8381831617835250505050905061031742825f6103d9565b3373ffffffffffffffffffffffffffffffffffffffff167f8c7f585fb295f7eb1e6aeb8fba61b23a4fe60beda405f0045073b185c74412e3868660405161035f92919061125f565b60405180910390a25050505050565b6103d384848484604051602401610388949392919061129f565b60405160208183030381529060405263eb03dd6b60e01b6020820180517bffffffffffffffffffffffffffffffffffffffffffffffffffffffff83818316178352505050505f610820565b50505050565b5f5f5f81819054906101000a90046fffffffffffffffffffffffffffffffff16809291906104069061132a565b91906101000a8154816fffffffffffffffffffffffffffffffff02191690836fffffffffffffffffffffffffffffffff1602179055506fffffffffffffffffffffffffffffffff16608085901b17905060405180606001604052808581526020018481526020018381525060025f8381526020019081526020015f205f820151815f0155602082015181600101908161049f9190611579565b50604082015181600201559050506104c181600161082f90919063ffffffff16565b50505050565b6104d33384848461036e565b505050565b60035f9054906101000a900460ff1681565b5f5b5f6104f76001610840565b11156106de575f60025f61050b600161084f565b81526020019081526020015f206040518060600160405290815f820154815260200160018201805461053c90611398565b80601f016020809104026020016040519081016040528092919081815260200182805461056890611398565b80156105b35780601f1061058a576101008083540402835291602001916105b3565b820191905f5260205f20905b81548152906001019060200180831161059657829003601f168201915b50505050508152602001600282015481525050905042815f015111156105d957506106de565b5f73999999999999999999999999999999999999999973ffffffffffffffffffffffffffffffffffffffff168260400151836020015160405161061c9190611690565b5f6040518083038185875af1925050503d805f8114610656576040519150601f19603f3d011682016040523d82523d5f602084013e61065b565b606091505b505090508061066957600192505b60035f9054906101000a900460ff168015610682575080155b801561068c575083155b156106cc576040517f08c379a00000000000000000000000000000000000000000000000000000000081526004016106c390611726565b60405180910390fd5b6106d66001610875565b5050506104ec565b8180156106e9575080155b15610729576040517f08c379a0000000000000000000000000000000000000000000000000000000008152600401610720906117b4565b60405180910390fd5b73999999999999999999999999999999999999999973ffffffffffffffffffffffffffffffffffffffff166304aa18516040518163ffffffff1660e01b81526004015f604051808303815f87803b158015610782575f5ffd5b505af1158015610794573d5f5f3e3d5ffd5b505050505050565b6107ff8383836040516024016107b4939291906117d2565b60405160208183030381529060405263757428fb60e01b6020820180517bffffffffffffffffffffffffffffffffffffffffffffffffffffffff838183161783525050505082610820565b505050565b8060035f6101000a81548160ff02191690831515021790555050565b61082b4283836103d9565b5050565b61083c8282610889610895565b5050565b5f815f01805490509050919050565b5f815f015f815481106108655761086461114a565b5b905f5260205f2001549050919050565b5f610882826108896108da565b9050919050565b5f818310905092915050565b5f61089f84610840565b9050835f0183908060018154018082558091505060019003905f5260205f20015f90919091909150556108d484828585610990565b50505050565b5f5f6108e584610840565b90505f81036108f9576108f86031610a01565b5b5f61090f5f865f01610a1290919063ffffffff16565b5f015490505f61092d60018403875f01610a1290919063ffffffff16565b5f01549050855f0180548061094557610944611807565b5b600190038181905f5260205f20015f905590558061096e5f885f01610a1290919063ffffffff16565b5f018190555061098486600185035f8489610a43565b81935050505092915050565b5b5f8311156109fb575f600260018503816109ae576109ad611834565b5b0490505f6109c782875f01610a1290919063ffffffff16565b5f015490506109da81858563ffffffff16565b156109e65750506109fb565b6109f1868684610b9a565b8194505050610991565b50505050565b634e487b715f52806020526024601cfd5b5f5f839050610a3a610a3584610a2784610bed565b610bfc90919063ffffffff16565b610c0c565b91505092915050565b60027fffffffffffffffffffffffffffffffffffffffffffffffffffffffffffffffff81610a7457610a73611834565b5b04831015610b93575f6001846002020190505f60028560020201905085811015610b3e575f610aae83895f01610a1290919063ffffffff16565b5f015490505f610ac9838a5f01610a1290919063ffffffff16565b5f01549050610adc82878763ffffffff16565b80610af15750610af081878763ffffffff16565b5b15610b37575f610b1b8585610b0a86868b63ffffffff16565b1515610c159092919063ffffffff16565b9050610b288a8983610b9a565b610b358a8a838a8a610a43565b505b5050610b90565b85821015610b8f575f610b5c83895f01610a1290919063ffffffff16565b5f01549050610b6f81868663ffffffff16565b15610b8d57610b7f888785610b9a565b610b8c8888858888610a43565b5b505b5b50505b5050505050565b5f610bb083855f01610a1290919063ffffffff16565b90505f610bc883865f01610a1290919063ffffffff16565b9050805f0154825f0154835f015f845f015f8491905055839190505550505050505050565b5f815f5260205f209050919050565b5f81835f1c015f1b905092915050565b5f819050919050565b5f610c1f84610c2e565b82841802821890509392505050565b5f8115159050919050565b5f604051905090565b5f5ffd5b5f5ffd5b5f5ffd5b5f5ffd5b5f5ffd5b5f5f83601f840112610c6b57610c6a610c4a565b5b8235905067ffffffffffffffff811115610c8857610c87610c4e565b5b602083019150836001820283011115610ca457610ca3610c52565b5b9250929050565b5f5f60208385031215610cc157610cc0610c42565b5b5f83013567ffffffffffffffff811115610cde57610cdd610c46565b5b610cea85828601610c56565b92509250509250929050565b5f73ffffffffffffffffffffffffffffffffffffffff82169050919050565b5f610d1f82610cf6565b9050919050565b610d2f81610d15565b8114610d39575f5ffd5b50565b5f81359050610d4a81610d26565b92915050565b5f67ffffffffffffffff82169050919050565b610d6c81610d50565b8114610d76575f5ffd5b50565b5f81359050610d8781610d63565b92915050565b5f819050919050565b610d9f81610d8d565b8114610da9575f5ffd5b50565b5f81359050610dba81610d96565b92915050565b5f5f5f5f60808587031215610dd857610dd7610c42565b5b5f610de587828801610d3c565b9450506020610df687828801610d79565b9350506040610e0787828801610d3c565b9250506060610e1887828801610dac565b91505092959194509250565b5f5ffd5b5f601f19601f8301169050919050565b7f4e487b71000000000000000000000000000000000000000000000000000000005f52604160045260245ffd5b610e6e82610e28565b810181811067ffffffffffffffff82111715610e8d57610e8c610e38565b5b80604052505050565b5f610e9f610c39565b9050610eab8282610e65565b919050565b5f67ffffffffffffffff821115610eca57610ec9610e38565b5b610ed382610e28565b9050602081019050919050565b828183375f83830152505050565b5f610f00610efb84610eb0565b610e96565b905082815260208101848484011115610f1c57610f1b610e24565b5b610f27848285610ee0565b509392505050565b5f82601f830112610f4357610f42610c4a565b5b8135610f53848260208601610eee565b91505092915050565b5f5f5f60608486031215610f7357610f72610c42565b5b5f610f8086828701610dac565b935050602084013567ffffffffffffffff811115610fa157610fa0610c46565b5b610fad86828701610f2f565b9250506040610fbe86828701610dac565b9150509250925092565b5f5f5f60608486031215610fdf57610fde610c42565b5b5f610fec86828701610d79565b9350506020610ffd86828701610d3c565b925050604061100e86828701610dac565b9150509250925092565b5f8115159050919050565b61102c81611018565b82525050565b5f6020820190506110455f830184611023565b92915050565b61105481611018565b811461105e575f5ffd5b50565b5f8135905061106f8161104b565b92915050565b5f6020828403121561108a57611089610c42565b5b5f61109784828501611061565b91505092915050565b5f5f5f606084860312156110b7576110b6610c42565b5b5f6110c486828701610d3c565b93505060206110d586828701610d3c565b92505060406110e686828701610dac565b9150509250925092565b5f5f6040838503121561110657611105610c42565b5b5f83013567ffffffffffffffff81111561112357611122610c46565b5b61112f85828601610f2f565b925050602061114085828601610dac565b9150509250929050565b7f4e487b71000000000000000000000000000000000000000000000000000000005f52603260045260245ffd5b5f5ffd5b5f5ffd5b5f5f8585111561119257611191611177565b5b838611156111a3576111a261117b565b5b6001850283019150848603905094509492505050565b6111c281610d15565b82525050565b5f62ffffff82169050919050565b6111df816111c8565b82525050565b5f82825260208201905092915050565b5f61120083856111e5565b935061120d838584610ee0565b61121683610e28565b840190509392505050565b5f6060820190506112345f8301876111b9565b61124160208301866111d6565b81810360408301526112548184866111f5565b905095945050505050565b5f6020820190508181035f8301526112788184866111f5565b90509392505050565b61128a81610d50565b82525050565b61129981610d8d565b82525050565b5f6080820190506112b25f8301876111b9565b6112bf6020830186611281565b6112cc60408301856111b9565b6112d96060830184611290565b95945050505050565b7f4e487b71000000000000000000000000000000000000000000000000000000005f52601160045260245ffd5b5f6fffffffffffffffffffffffffffffffff82169050919050565b5f6113348261130f565b91506fffffffffffffffffffffffffffffffff8203611356576113556112e2565b5b600182019050919050565b5f81519050919050565b7f4e487b71000000000000000000000000000000000000000000000000000000005f52602260045260245ffd5b5f60028204905060018216806113af57607f821691505b6020821081036113c2576113c161136b565b5b50919050565b5f819050815f5260205f209050919050565b5f6020601f8301049050919050565b5f82821b905092915050565b5f600883026114247fffffffffffffffffffffffffffffffffffffffffffffffffffffffffffffffff826113e9565b61142e86836113e9565b95508019841693508086168417925050509392505050565b5f819050919050565b5f61146961146461145f84610d8d565b611446565b610d8d565b9050919050565b5f819050919050565b6114828361144f565b61149661148e82611470565b8484546113f5565b825550505050565b5f5f905090565b6114ad61149e565b6114b8818484611479565b505050565b5f5b828110156114de576114d35f8284016114a5565b6001810190506114bf565b505050565b601f8211156115315782821115611530576114fd816113c8565b611506836113da565b61150f856113da565b602086101561151c575f90505b80830161152b828403826114bd565b505050505b5b505050565b5f82821c905092915050565b5f6115515f1984600802611536565b1980831691505092915050565b5f6115698383611542565b9150826002028217905092915050565b61158282611361565b67ffffffffffffffff81111561159b5761159a610e38565b5b6115a58254611398565b6115b08282856114e3565b5f60209050601f8311600181146115e1575f84156115cf578287015190505b6115d9858261155e565b865550611640565b601f1984166115ef866113c8565b5f5b82811015611616578489015182556001820191506020850194506020810190506115f1565b86831015611633578489015161162f601f891682611542565b8355505b6001600288020188555050505b505050505050565b5f81905092915050565b8281835e5f83830152505050565b5f61166a82611361565b6116748185611648565b9350611684818560208601611652565b80840191505092915050565b5f61169b8284611660565b915081905092915050565b5f82825260208201905092915050565b7f436f726557726974657220616374696f6e206661696c65643a205265766572745f8201527f696e672064756520746f207265766572744f6e4661696c75726520666c616700602082015250565b5f611710603f836116a6565b915061171b826116b6565b604082019050919050565b5f6020820190508181035f83015261173d81611704565b9050919050565b7f4578706563746564207265766572742c2062757420616374696f6e20737563635f8201527f6565646564000000000000000000000000000000000000000000000000000000602082015250565b5f61179e6025836116a6565b91506117a982611744565b604082019050919050565b5f6020820190508181035f8301526117cb81611792565b9050919050565b5f6060820190506117e55f8301866111b9565b6117f260208301856111b9565b6117ff6040830184611290565b949350505050565b7f4e487b71000000000000000000000000000000000000000000000000000000005f52603160045260245ffd5b7f4e487b71000000000000000000000000000000000000000000000000000000005f52601260045260245ffdfea2646970667358221220567767327076c4e34442da157dddc2f8e745bae52a67959f062416774a4b1ead64736f6c63430008210033","linkReferences":{}},"methodIdentifiers":{"enqueueAction(bytes,uint256)":"f6315a60","enqueueAction(uint256,bytes,uint256)":"79b4472c","executeQueuedActions(bool)":"9a19f92c","nativeTransferCallback(address,address,uint256)":"ad1c3d8b","revertOnFailure()":"976743ad","sendRawAction(bytes)":"17938e13","setRevertOnFailure(bool)":"b35399bf","tokenTransferCallback(address,uint64,address,uint256)":"6c0f6c5a","tokenTransferCallback(uint64,address,uint256)":"83713c94"},"id":50}