{"abi":[{"type":"function","name":"LIMIT_ORDER_TIF_ALO","inputs":[],"outputs":[{"name":"","type":"uint8","internalType":"uint8"}],"stateMutability":"view"},{"type":"function","name":"LIMIT_ORDER_TIF_GTC","inputs":[],"outputs":[{"name":"","type":"uint8","internalType":"uint8"}],"stateMutability":"view"},{"type":"function","name":"LIMIT_ORDER_TIF_IOC","inputs":[],"outputs":[{"name":"","type":"uint8","internalType":"uint8"}],"stateMutability":"view"}],"bytecode":{"object":"0x61010d61004d600b8282823980515f1a6073146041577f4e487b71000000000000000000000000000000000000000000000000000000005f525f60045260245ffd5b305f52607381538281f3fe73000000000000000000000000000000000000000030146080604052600436106046575f3560e01c80630eca611f14604a57806337041c8d146064578063fcd2a5f514607e575b5f5ffd5b60506098565b604051605b919060c0565b60405180910390f35b606a609d565b6040516075919060c0565b60405180910390f35b608460a2565b604051608f919060c0565b60405180910390f35b600381565b600181565b600281565b5f60ff82169050919050565b60ba8160a7565b82525050565b5f60208201905060d15f83018460b3565b9291505056fea2646970667358221220aa9d599477b0eccead63eacb369d0b96584698b6c4ee270cd2445016755566eb64736f6c63430008210033","linkReferences":{}},"methodIdentifiers":{"LIMIT_ORDER_TIF_ALO()":"37041c8d","LIMIT_ORDER_TIF_GTC()":"fcd2a5f5","LIMIT_ORDER_TIF_IOC()":"0eca611f"},"id":43}