{"abi":[{"type":"function","name":"accountMarginSummary","inputs":[{"name":"perp_dex_index","type":"uint32","internalType":"uint32"},{"name":"user","type":"address","internalType":"address"}],"outputs":[{"name":"","type":"tuple","internalType":"struct L1Read.AccountMarginSummary","components":[{"name":"accountValue","type":"int64","internalType":"int64"},{"name":"marginUsed","type":"uint64","internalType":"uint64"},{"name":"ntlPos","type":"uint64","internalType":"uint64"},{"name":"rawUsd","type":"int64","internalType":"int64"}]}],"stateMutability":"view"},{"type":"function","name":"bbo","inputs":[{"name":"asset","type":"uint32","internalType":"uint32"}],"outputs":[{"name":"","type":"tuple","internalType":"struct L1Read.Bbo","components":[{"name":"bid","type":"uint64","internalType":"uint64"},{"name":"ask","type":"uint64","internalType":"uint64"}]}],"stateMutability":"view"},{"type":"function","name":"borrowLendReserveState","inputs":[{"name":"token","type":"uint64","internalType":"uint64"}],"outputs":[{"name":"","type":"tuple","internalType":"struct L1Read.BorrowLendReserveState","components":[{"name":"borrowYearlyRateBps","type":"uint64","internalType":"uint64"},{"name":"supplyYearlyRateBps","type":"uint64","internalType":"uint64"},{"name":"balance","type":"uint64","internalType":"uint64"},{"name":"utilizationBps","type":"uint64","internalType":"uint64"},{"name":"oraclePx","type":"uint64","internalType":"uint64"},{"name":"ltvBps","type":"uint64","internalType":"uint64"},{"name":"totalSupplied","type":"uint64","internalType":"uint64"},{"name":"totalBorrowed","type":"uint64","internalType":"uint64"}]}],"stateMutability":"view"},{"type":"function","name":"borrowLendUserState","inputs":[{"name":"user","type":"address","internalType":"address"},{"name":"token","type":"uint64","internalType":"uint64"}],"outputs":[{"name":"","type":"tuple","internalType":"struct L1Read.BorrowLendUserTokenState","components":[{"name":"borrow","type":"tuple","internalType":"struct L1Read.BasisAndValue","components":[{"name":"basis","type":"uint64","internalType":"uint64"},{"name":"value","type":"uint64","internalType":"uint64"}]},{"name":"supply","type":"tuple","internalType":"struct L1Read.BasisAndValue","components":[{"name":"basis","type":"uint64","internalType":"uint64"},{"name":"value","type":"uint64","internalType":"uint64"}]}]}],"stateMutability":"view"},{"type":"function","name":"coreUserExists","inputs":[{"name":"user","type":"address","internalType":"address"}],"outputs":[{"name":"","type":"tuple","internalType":"struct L1Read.CoreUserExists","components":[{"name":"exists","type":"bool","internalType":"bool"}]}],"stateMutability":"view"},{"type":"function","name":"delegations","inputs":[{"name":"user","type":"address","internalType":"address"}],"outputs":[{"name":"","type":"tuple[]","internalType":"struct L1Read.Delegation[]","components":[{"name":"validator","type":"address","internalType":"address"},{"name":"amount","type":"uint64","internalType":"uint64"},{"name":"lockedUntilTimestamp","type":"uint64","internalType":"uint64"}]}],"stateMutability":"view"},{"type":"function","name":"delegatorSummary","inputs":[{"name":"user","type":"address","internalType":"address"}],"outputs":[{"name":"","type":"tuple","internalType":"struct L1Read.DelegatorSummary","components":[{"name":"delegated","type":"uint64","internalType":"uint64"},{"name":"undelegated","type":"uint64","internalType":"uint64"},{"name":"totalPendingWithdrawal","type":"uint64","internalType":"uint64"},{"name":"nPendingWithdrawals","type":"uint64","internalType":"uint64"}]}],"stateMutability":"view"},{"type":"function","name":"l1BlockNumber","inputs":[],"outputs":[{"name":"","type":"uint64","internalType":"uint64"}],"stateMutability":"view"},{"type":"function","name":"markPx","inputs":[{"name":"index","type":"uint32","internalType":"uint32"}],"outputs":[{"name":"","type":"uint64","internalType":"uint64"}],"stateMutability":"view"},{"type":"function","name":"oraclePx","inputs":[{"name":"index","type":"uint32","internalType":"uint32"}],"outputs":[{"name":"","type":"uint64","internalType":"uint64"}],"stateMutability":"view"},{"type":"function","name":"perpAssetInfo","inputs":[{"name":"perp","type":"uint32","internalType":"uint32"}],"outputs":[{"name":"","type":"tuple","internalType":"struct L1Read.PerpAssetInfo","components":[{"name":"coin","type":"string","internalType":"string"},{"name":"marginTableId","type":"uint32","internalType":"uint32"},{"name":"szDecimals","type":"uint8","internalType":"uint8"},{"name":"maxLeverage","type":"uint8","internalType":"uint8"},{"name":"onlyIsolated","type":"bool","internalType":"bool"}]}],"stateMutability":"view"},{"type":"function","name":"position","inputs":[{"name":"user","type":"address","internalType":"address"},{"name":"perp","type":"uint16","internalType":"uint16"}],"outputs":[{"name":"","type":"tuple","internalType":"struct L1Read.Position","components":[{"name":"szi","type":"int64","internalType":"int64"},{"name":"entryNtl","type":"uint64","internalType":"uint64"},{"name":"isolatedRawUsd","type":"int64","internalType":"int64"},{"name":"leverage","type":"uint32","internalType":"uint32"},{"name":"isIsolated","type":"bool","internalType":"bool"}]}],"stateMutability":"view"},{"type":"function","name":"spotBalance","inputs":[{"name":"user","type":"address","internalType":"address"},{"name":"token","type":"uint64","internalType":"uint64"}],"outputs":[{"name":"","type":"tuple","internalType":"struct L1Read.SpotBalance","components":[{"name":"total","type":"uint64","internalType":"uint64"},{"name":"hold","type":"uint64","internalType":"uint64"},{"name":"entryNtl","type":"uint64","internalType":"uint64"}]}],"stateMutability":"view"},{"type":"function","name":"spotInfo","inputs":[{"name":"spot","type":"uint32","internalType":"uint32"}],"outputs":[{"name":"","type":"tuple","internalType":"struct L1Read.SpotInfo","components":[{"name":"name","type":"string","internalType":"string"},{"name":"tokens","type":"uint64[2]","internalType":"uint64[2]"}]}],"stateMutability":"view"},{"type":"function","name":"spotPx","inputs":[{"name":"index","type":"uint32","internalType":"uint32"}],"outputs":[{"name":"","type":"uint64","internalType":"uint64"}],"stateMutability":"view"},{"type":"function","name":"tokenInfo","inputs":[{"name":"token","type":"uint32","internalType":"uint32"}],"outputs":[{"name":"","type":"tuple","internalType":"struct L1Read.TokenInfo","components":[{"name":"name","type":"string","internalType":"string"},{"name":"spots","type":"uint64[]","internalType":"uint64[]"},{"name":"deployerTradingFeeShare","type":"uint64","internalType":"uint64"},{"name":"deployer","type":"address","internalType":"address"},{"name":"evmContract","type":"address","internalType":"address"},{"name":"szDecimals","type":"uint8","internalType":"uint8"},{"name":"weiDecimals","type":"uint8","internalType":"uint8"},{"name":"evmExtraWeiDecimals","type":"int8","internalType":"int8"}]}],"stateMutability":"view"},{"type":"function","name":"tokenSupply","inputs":[{"name":"token","type":"uint32","internalType":"uint32"}],"outputs":[{"name":"","type":"tuple","internalType":"struct L1Read.TokenSupply","components":[{"name":"maxSupply","type":"uint64","internalType":"uint64"},{"name":"totalSupply","type":"uint64","internalType":"uint64"},{"name":"circulatingSupply","type":"uint64","internalType":"uint64"},{"name":"futureEmissions","type":"uint64","internalType":"uint64"},{"name":"nonCirculatingUserBalances","type":"tuple[]","internalType":"struct L1Read.UserBalance[]","components":[{"name":"user","type":"address","internalType":"address"},{"name":"balance","type":"uint64","internalType":"uint64"}]}]}],"stateMutability":"view"},{"type":"function","name":"userVaultEquity","inputs":[{"name":"user","type":"address","internalType":"address"},{"name":"vault","type":"address","internalType":"address"}],"outputs":[{"name":"","type":"tuple","internalType":"struct L1Read.UserVaultEquity","components":[{"name":"equity","type":"uint64","internalType":"uint64"},{"name":"lockedUntilTimestamp","type":"uint64","internalType":"uint64"}]}],"stateMutability":"view"},{"type":"function","name":"withdrawable","inputs":[{"name":"user","type":"address","internalType":"address"}],"outputs":[{"name":"","type":"tuple","internalType":"struct L1Read.Withdrawable","components":[{"name":"withdrawable","type":"uint64","internalType":"uint64"}]}],"stateMutability":"view"}],"bytecode":{"object":"0x6080604052348015600e575f5ffd5b506142338061001c5f395ff3fe608060405234801561000f575f5ffd5b506004361061011f575f3560e01c80639dbfb13f116100ab578063bffe34861161006f578063bffe3486146103b1578063c0f0f5ef146103e1578063c8eec8c614610411578063ce513b6f14610441578063ee1b5af1146104715761011f565b80639dbfb13f146102c1578063a69610d1146102f1578063b6dff0b514610321578063b7fc785714610351578063be06f7ac146103815761011f565b806368fb1109116100f257806368fb1109146101d157806389cf7c89146102015780638d1f4264146102315780639070275914610261578063944fa526146102915761011f565b80631a9c71c614610123578063298c90051461015357806337f980a5146101715780634162cd32146101a1575b5f5ffd5b61013d60048036038101906101389190611aa5565b6104a1565b60405161014a9190611b7f565b60405180910390f35b61015b610595565b6040516101689190611ba8565b60405180910390f35b61018b60048036038101906101869190611c1b565b610675565b6040516101989190611c99565b60405180910390f35b6101bb60048036038101906101b69190611ceb565b610769565b6040516101c89190611e3d565b60405180910390f35b6101eb60048036038101906101e69190611ceb565b61085d565b6040516101f89190611fe2565b60405180910390f35b61021b60048036038101906102169190612039565b610951565b60405161022891906120f8565b60405180910390f35b61024b60048036038101906102469190611ceb565b610a48565b604051610258919061213e565b60405180910390f35b61027b60048036038101906102769190611ceb565b610b3c565b6040516102889190611ba8565b60405180910390f35b6102ab60048036038101906102a69190612157565b610c29565b6040516102b891906121e8565b60405180910390f35b6102db60048036038101906102d69190611c1b565b610d20565b6040516102e8919061221b565b60405180910390f35b61030b60048036038101906103069190612234565b610e14565b60405161031891906122b2565b60405180910390f35b61033b60048036038101906103369190611ceb565b610f0b565b6040516103489190612384565b60405180910390f35b61036b60048036038101906103669190612234565b610fff565b60405161037891906123fe565b60405180910390f35b61039b60048036038101906103969190611ceb565b6110f6565b6040516103a8919061255f565b60405180910390f35b6103cb60048036038101906103c69190611c1b565b6111ea565b6040516103d89190612667565b60405180910390f35b6103fb60048036038101906103f69190611ceb565b6112d8565b6040516104089190611ba8565b60405180910390f35b61042b60048036038101906104269190611ceb565b6113c5565b6040516104389190611ba8565b60405180910390f35b61045b60048036038101906104569190611c1b565b6114b2565b60405161046891906126a1565b60405180910390f35b61048b600480360381019061048691906126ba565b6115a6565b6040516104989190612725565b60405180910390f35b6104a961169d565b5f606061081273ffffffffffffffffffffffffffffffffffffffff16846040516020016104d69190611ba8565b6040516020818303038152906040526040516104f29190612782565b5f60405180830381855afa9150503d805f811461052a576040519150601f19603f3d011682016040523d82523d5f602084013e61052f565b606091505b50809250819350505081610578576040517f08c379a000000000000000000000000000000000000000000000000000000000815260040161056f90612818565b60405180910390fd5b8080602001905181019061058c9190612991565b92505050919050565b5f5f606061080973ffffffffffffffffffffffffffffffffffffffff166040516020016040516020818303038152906040526040516105d49190612782565b5f60405180830381855afa9150503d805f811461060c576040519150601f19603f3d011682016040523d82523d5f602084013e610611565b606091505b5080925081935050508161065a576040517f08c379a000000000000000000000000000000000000000000000000000000000815260040161065190612a2d565b60405180910390fd5b8080602001905181019061066e9190612a4b565b9250505090565b61067d61172a565b5f606061080573ffffffffffffffffffffffffffffffffffffffff16846040516020016106aa9190612a85565b6040516020818303038152906040526040516106c69190612782565b5f60405180830381855afa9150503d805f81146106fe576040519150601f19603f3d011682016040523d82523d5f602084013e610703565b606091505b5080925081935050508161074c576040517f08c379a000000000000000000000000000000000000000000000000000000000815260040161074390612b0e565b60405180910390fd5b808060200190518101906107609190612ba1565b92505050919050565b610771611776565b5f606061080a73ffffffffffffffffffffffffffffffffffffffff168460405160200161079e9190612bdb565b6040516020818303038152906040526040516107ba9190612782565b5f60405180830381855afa9150503d805f81146107f2576040519150601f19603f3d011682016040523d82523d5f602084013e6107f7565b606091505b50809250819350505081610840576040517f08c379a000000000000000000000000000000000000000000000000000000000815260040161083790612c64565b60405180910390fd5b808060200190518101906108549190612e35565b92505050919050565b6108656117af565b5f606061080c73ffffffffffffffffffffffffffffffffffffffff16846040516020016108929190612bdb565b6040516020818303038152906040526040516108ae9190612782565b5f60405180830381855afa9150503d805f81146108e6576040519150601f19603f3d011682016040523d82523d5f602084013e6108eb565b606091505b50809250819350505081610934576040517f08c379a000000000000000000000000000000000000000000000000000000000815260040161092b90612ec6565b60405180910390fd5b8080602001905181019061094891906130e5565b92505050919050565b61095961182c565b5f606061080073ffffffffffffffffffffffffffffffffffffffff16858560405160200161098892919061313b565b6040516020818303038152906040526040516109a49190612782565b5f60405180830381855afa9150503d805f81146109dc576040519150601f19603f3d011682016040523d82523d5f602084013e6109e1565b606091505b50809250819350505081610a2a576040517f08c379a0000000000000000000000000000000000000000000000000000000008152600401610a21906131ac565b60405180910390fd5b80806020019051810190610a3e919061327d565b9250505092915050565b610a5061186e565b5f606061080e73ffffffffffffffffffffffffffffffffffffffff1684604051602001610a7d9190612bdb565b604051602081830303815290604052604051610a999190612782565b5f60405180830381855afa9150503d805f8114610ad1576040519150601f19603f3d011682016040523d82523d5f602084013e610ad6565b606091505b50809250819350505081610b1f576040517f08c379a0000000000000000000000000000000000000000000000000000000008152600401610b16906132f2565b60405180910390fd5b80806020019051810190610b33919061335d565b92505050919050565b5f5f606061080873ffffffffffffffffffffffffffffffffffffffff1684604051602001610b6a9190612bdb565b604051602081830303815290604052604051610b869190612782565b5f60405180830381855afa9150503d805f8114610bbe576040519150601f19603f3d011682016040523d82523d5f602084013e610bc3565b606091505b50809250819350505081610c0c576040517f08c379a0000000000000000000000000000000000000000000000000000000008152600401610c03906133d2565b60405180910390fd5b80806020019051810190610c209190612a4b565b92505050919050565b610c3161189a565b5f606061080f73ffffffffffffffffffffffffffffffffffffffff168585604051602001610c609291906133f0565b604051602081830303815290604052604051610c7c9190612782565b5f60405180830381855afa9150503d805f8114610cb4576040519150601f19603f3d011682016040523d82523d5f602084013e610cb9565b606091505b50809250819350505081610d02576040517f08c379a0000000000000000000000000000000000000000000000000000000008152600401610cf990613487565b60405180910390fd5b80806020019051810190610d16919061351a565b9250505092915050565b610d286118d8565b5f606061081073ffffffffffffffffffffffffffffffffffffffff1684604051602001610d559190612a85565b604051602081830303815290604052604051610d719190612782565b5f60405180830381855afa9150503d805f8114610da9576040519150601f19603f3d011682016040523d82523d5f602084013e610dae565b606091505b50809250819350505081610df7576040517f08c379a0000000000000000000000000000000000000000000000000000000008152600401610dee906135b5565b60405180910390fd5b80806020019051810190610e0b919061360c565b92505050919050565b610e1c6118ec565b5f606061080173ffffffffffffffffffffffffffffffffffffffff168585604051602001610e4b929190613637565b604051602081830303815290604052604051610e679190612782565b5f60405180830381855afa9150503d805f8114610e9f576040519150601f19603f3d011682016040523d82523d5f602084013e610ea4565b606091505b50809250819350505081610eed576040517f08c379a0000000000000000000000000000000000000000000000000000000008152600401610ee4906136ce565b60405180910390fd5b80806020019051810190610f01919061374d565b9250505092915050565b610f13611928565b5f606061080b73ffffffffffffffffffffffffffffffffffffffff1684604051602001610f409190612bdb565b604051602081830303815290604052604051610f5c9190612782565b5f60405180830381855afa9150503d805f8114610f94576040519150601f19603f3d011682016040523d82523d5f602084013e610f99565b606091505b50809250819350505081610fe2576040517f08c379a0000000000000000000000000000000000000000000000000000000008152600401610fd9906137c2565b60405180910390fd5b80806020019051810190610ff691906138f7565b92505050919050565b611007611948565b5f606061081173ffffffffffffffffffffffffffffffffffffffff168585604051602001611036929190613637565b6040516020818303038152906040526040516110529190612782565b5f60405180830381855afa9150503d805f811461108a576040519150601f19603f3d011682016040523d82523d5f602084013e61108f565b606091505b508092508193505050816110d8576040517f08c379a00000000000000000000000000000000000000000000000000000000081526004016110cf906139ae565b60405180910390fd5b808060200190518101906110ec9190613a66565b9250505092915050565b6110fe61196e565b5f606061080d73ffffffffffffffffffffffffffffffffffffffff168460405160200161112b9190612bdb565b6040516020818303038152906040526040516111479190612782565b5f60405180830381855afa9150503d805f811461117f576040519150601f19603f3d011682016040523d82523d5f602084013e611184565b606091505b508092508193505050816111cd576040517f08c379a00000000000000000000000000000000000000000000000000000000081526004016111c490613b01565b60405180910390fd5b808060200190518101906111e19190613cd1565b92505050919050565b60605f606061080473ffffffffffffffffffffffffffffffffffffffff16846040516020016112199190612a85565b6040516020818303038152906040526040516112359190612782565b5f60405180830381855afa9150503d805f811461126d576040519150601f19603f3d011682016040523d82523d5f602084013e611272565b606091505b508092508193505050816112bb576040517f08c379a00000000000000000000000000000000000000000000000000000000081526004016112b290613d88565b60405180910390fd5b808060200190518101906112cf9190613ec7565b92505050919050565b5f5f606061080773ffffffffffffffffffffffffffffffffffffffff16846040516020016113069190612bdb565b6040516020818303038152906040526040516113229190612782565b5f60405180830381855afa9150503d805f811461135a576040519150601f19603f3d011682016040523d82523d5f602084013e61135f565b606091505b508092508193505050816113a8576040517f08c379a000000000000000000000000000000000000000000000000000000000815260040161139f90613f58565b60405180910390fd5b808060200190518101906113bc9190612a4b565b92505050919050565b5f5f606061080673ffffffffffffffffffffffffffffffffffffffff16846040516020016113f39190612bdb565b60405160208183030381529060405260405161140f9190612782565b5f60405180830381855afa9150503d805f8114611447576040519150601f19603f3d011682016040523d82523d5f602084013e61144c565b606091505b50809250819350505081611495576040517f08c379a000000000000000000000000000000000000000000000000000000000815260040161148c90613fc0565b60405180910390fd5b808060200190518101906114a99190612a4b565b92505050919050565b6114ba6119c1565b5f606061080373ffffffffffffffffffffffffffffffffffffffff16846040516020016114e79190612a85565b6040516020818303038152906040526040516115039190612782565b5f60405180830381855afa9150503d805f811461153b576040519150601f19603f3d011682016040523d82523d5f602084013e611540565b606091505b50809250819350505081611589576040517f08c379a00000000000000000000000000000000000000000000000000000000081526004016115809061404e565b60405180910390fd5b8080602001905181019061159d91906140a5565b92505050919050565b6115ae6119dd565b5f606061080273ffffffffffffffffffffffffffffffffffffffff1685856040516020016115dd9291906140d0565b6040516020818303038152906040526040516115f99190612782565b5f60405180830381855afa9150503d805f8114611631576040519150601f19603f3d011682016040523d82523d5f602084013e611636565b606091505b5080925081935050508161167f576040517f08c379a000000000000000000000000000000000000000000000000000000000815260040161167690614167565b60405180910390fd5b8080602001905181019061169391906141d2565b9250505092915050565b6040518061010001604052805f67ffffffffffffffff1681526020015f67ffffffffffffffff1681526020015f67ffffffffffffffff1681526020015f67ffffffffffffffff1681526020015f67ffffffffffffffff1681526020015f67ffffffffffffffff1681526020015f67ffffffffffffffff1681526020015f67ffffffffffffffff1681525090565b60405180608001604052805f67ffffffffffffffff1681526020015f67ffffffffffffffff1681526020015f67ffffffffffffffff1681526020015f67ffffffffffffffff1681525090565b6040518060a00160405280606081526020015f63ffffffff1681526020015f60ff1681526020015f60ff1681526020015f151581525090565b60405180610100016040528060608152602001606081526020015f67ffffffffffffffff1681526020015f73ffffffffffffffffffffffffffffffffffffffff1681526020015f73ffffffffffffffffffffffffffffffffffffffff1681526020015f60ff1681526020015f60ff1681526020015f5f0b81525090565b6040518060a001604052805f60070b81526020015f67ffffffffffffffff1681526020015f60070b81526020015f63ffffffff1681526020015f151581525090565b60405180604001604052805f67ffffffffffffffff1681526020015f67ffffffffffffffff1681525090565b60405180608001604052805f60070b81526020015f67ffffffffffffffff1681526020015f67ffffffffffffffff1681526020015f60070b81525090565b60405180602001604052805f151581525090565b60405180606001604052805f67ffffffffffffffff1681526020015f67ffffffffffffffff1681526020015f67ffffffffffffffff1681525090565b604051806040016040528060608152602001611942611a09565b81525090565b604051806040016040528061195b611a2b565b8152602001611968611a2b565b81525090565b6040518060a001604052805f67ffffffffffffffff1681526020015f67ffffffffffffffff1681526020015f67ffffffffffffffff1681526020015f67ffffffffffffffff168152602001606081525090565b60405180602001604052805f67ffffffffffffffff1681525090565b60405180604001604052805f67ffffffffffffffff1681526020015f67ffffffffffffffff1681525090565b6040518060400160405280600290602082028036833780820191505090505090565b60405180604001604052805f67ffffffffffffffff1681526020015f67ffffffffffffffff1681525090565b5f604051905090565b5f5ffd5b5f5ffd5b5f67ffffffffffffffff82169050919050565b611a8481611a68565b8114611a8e575f5ffd5b50565b5f81359050611a9f81611a7b565b92915050565b5f60208284031215611aba57611ab9611a60565b5b5f611ac784828501611a91565b91505092915050565b611ad981611a68565b82525050565b61010082015f820151611af45f850182611ad0565b506020820151611b076020850182611ad0565b506040820151611b1a6040850182611ad0565b506060820151611b2d6060850182611ad0565b506080820151611b406080850182611ad0565b5060a0820151611b5360a0850182611ad0565b5060c0820151611b6660c0850182611ad0565b5060e0820151611b7960e0850182611ad0565b50505050565b5f61010082019050611b935f830184611adf565b92915050565b611ba281611a68565b82525050565b5f602082019050611bbb5f830184611b99565b92915050565b5f73ffffffffffffffffffffffffffffffffffffffff82169050919050565b5f611bea82611bc1565b9050919050565b611bfa81611be0565b8114611c04575f5ffd5b50565b5f81359050611c1581611bf1565b92915050565b5f60208284031215611c3057611c2f611a60565b5b5f611c3d84828501611c07565b91505092915050565b608082015f820151611c5a5f850182611ad0565b506020820151611c6d6020850182611ad0565b506040820151611c806040850182611ad0565b506060820151611c936060850182611ad0565b50505050565b5f608082019050611cac5f830184611c46565b92915050565b5f63ffffffff82169050919050565b611cca81611cb2565b8114611cd4575f5ffd5b50565b5f81359050611ce581611cc1565b92915050565b5f60208284031215611d0057611cff611a60565b5b5f611d0d84828501611cd7565b91505092915050565b5f81519050919050565b5f82825260208201905092915050565b8281835e5f83830152505050565b5f601f19601f8301169050919050565b5f611d5882611d16565b611d628185611d20565b9350611d72818560208601611d30565b611d7b81611d3e565b840191505092915050565b611d8f81611cb2565b82525050565b5f60ff82169050919050565b611daa81611d95565b82525050565b5f8115159050919050565b611dc481611db0565b82525050565b5f60a083015f8301518482035f860152611de48282611d4e565b9150506020830151611df96020860182611d86565b506040830151611e0c6040860182611da1565b506060830151611e1f6060860182611da1565b506080830151611e326080860182611dbb565b508091505092915050565b5f6020820190508181035f830152611e558184611dca565b905092915050565b5f81519050919050565b5f82825260208201905092915050565b5f819050602082019050919050565b5f611e918383611ad0565b60208301905092915050565b5f602082019050919050565b5f611eb382611e5d565b611ebd8185611e67565b9350611ec883611e77565b805f5b83811015611ef8578151611edf8882611e86565b9750611eea83611e9d565b925050600181019050611ecb565b5085935050505092915050565b611f0e81611be0565b82525050565b5f815f0b9050919050565b611f2881611f14565b82525050565b5f61010083015f8301518482035f860152611f498282611d4e565b91505060208301518482036020860152611f638282611ea9565b9150506040830151611f786040860182611ad0565b506060830151611f8b6060860182611f05565b506080830151611f9e6080860182611f05565b5060a0830151611fb160a0860182611da1565b5060c0830151611fc460c0860182611da1565b5060e0830151611fd760e0860182611f1f565b508091505092915050565b5f6020820190508181035f830152611ffa8184611f2e565b905092915050565b5f61ffff82169050919050565b61201881612002565b8114612022575f5ffd5b50565b5f813590506120338161200f565b92915050565b5f5f6040838503121561204f5761204e611a60565b5b5f61205c85828601611c07565b925050602061206d85828601612025565b9150509250929050565b5f8160070b9050919050565b61208c81612077565b82525050565b60a082015f8201516120a65f850182612083565b5060208201516120b96020850182611ad0565b5060408201516120cc6040850182612083565b5060608201516120df6060850182611d86565b5060808201516120f26080850182611dbb565b50505050565b5f60a08201905061210b5f830184612092565b92915050565b604082015f8201516121255f850182611ad0565b5060208201516121386020850182611ad0565b50505050565b5f6040820190506121515f830184612111565b92915050565b5f5f6040838503121561216d5761216c611a60565b5b5f61217a85828601611cd7565b925050602061218b85828601611c07565b9150509250929050565b608082015f8201516121a95f850182612083565b5060208201516121bc6020850182611ad0565b5060408201516121cf6040850182611ad0565b5060608201516121e26060850182612083565b50505050565b5f6080820190506121fb5f830184612195565b92915050565b602082015f8201516122155f850182611dbb565b50505050565b5f60208201905061222e5f830184612201565b92915050565b5f5f6040838503121561224a57612249611a60565b5b5f61225785828601611c07565b925050602061226885828601611a91565b9150509250929050565b606082015f8201516122865f850182611ad0565b5060208201516122996020850182611ad0565b5060408201516122ac6040850182611ad0565b50505050565b5f6060820190506122c55f830184612272565b92915050565b5f60029050919050565b5f81905092915050565b5f819050919050565b5f602082019050919050565b6122fd816122cb565b61230781846122d5565b9250612312826122df565b805f5b838110156123425781516123298782611e86565b9650612334836122e8565b925050600181019050612315565b505050505050565b5f606083015f8301518482035f8601526123648282611d4e565b915050602083015161237960208601826122f4565b508091505092915050565b5f6020820190508181035f83015261239c818461234a565b905092915050565b604082015f8201516123b85f850182611ad0565b5060208201516123cb6020850182611ad0565b50505050565b608082015f8201516123e55f8501826123a4565b5060208201516123f860408501826123a4565b50505050565b5f6080820190506124115f8301846123d1565b92915050565b5f81519050919050565b5f82825260208201905092915050565b5f819050602082019050919050565b604082015f8201516124545f850182611f05565b5060208201516124676020850182611ad0565b50505050565b5f6124788383612440565b60408301905092915050565b5f602082019050919050565b5f61249a82612417565b6124a48185612421565b93506124af83612431565b805f5b838110156124df5781516124c6888261246d565b97506124d183612484565b9250506001810190506124b2565b5085935050505092915050565b5f60a083015f8301516125015f860182611ad0565b5060208301516125146020860182611ad0565b5060408301516125276040860182611ad0565b50606083015161253a6060860182611ad0565b50608083015184820360808601526125528282612490565b9150508091505092915050565b5f6020820190508181035f83015261257781846124ec565b905092915050565b5f81519050919050565b5f82825260208201905092915050565b5f819050602082019050919050565b606082015f8201516125bc5f850182611f05565b5060208201516125cf6020850182611ad0565b5060408201516125e26040850182611ad0565b50505050565b5f6125f383836125a8565b60608301905092915050565b5f602082019050919050565b5f6126158261257f565b61261f8185612589565b935061262a83612599565b805f5b8381101561265a57815161264188826125e8565b975061264c836125ff565b92505060018101905061262d565b5085935050505092915050565b5f6020820190508181035f83015261267f818461260b565b905092915050565b602082015f82015161269b5f850182611ad0565b50505050565b5f6020820190506126b45f830184612687565b92915050565b5f5f604083850312156126d0576126cf611a60565b5b5f6126dd85828601611c07565b92505060206126ee85828601611c07565b9150509250929050565b604082015f82015161270c5f850182611ad0565b50602082015161271f6020850182611ad0565b50505050565b5f6040820190506127385f8301846126f8565b92915050565b5f81519050919050565b5f81905092915050565b5f61275c8261273e565b6127668185612748565b9350612776818560208601611d30565b80840191505092915050565b5f61278d8284612752565b915081905092915050565b5f82825260208201905092915050565b7f426f72726f77206c656e64207265736572766520737461746520707265636f6d5f8201527f70696c652063616c6c206661696c656400000000000000000000000000000000602082015250565b5f612802603083612798565b915061280d826127a8565b604082019050919050565b5f6020820190508181035f83015261282f816127f6565b9050919050565b5f5ffd5b7f4e487b71000000000000000000000000000000000000000000000000000000005f52604160045260245ffd5b61287082611d3e565b810181811067ffffffffffffffff8211171561288f5761288e61283a565b5b80604052505050565b5f6128a1611a57565b90506128ad8282612867565b919050565b5f5ffd5b5f815190506128c481611a7b565b92915050565b5f61010082840312156128e0576128df612836565b5b6128eb610100612898565b90505f6128fa848285016128b6565b5f83015250602061290d848285016128b6565b6020830152506040612921848285016128b6565b6040830152506060612935848285016128b6565b6060830152506080612949848285016128b6565b60808301525060a061295d848285016128b6565b60a08301525060c0612971848285016128b6565b60c08301525060e0612985848285016128b6565b60e08301525092915050565b5f61010082840312156129a7576129a6611a60565b5b5f6129b4848285016128ca565b91505092915050565b7f4c31426c6f636b4e756d62657220707265636f6d70696c652063616c6c2066615f8201527f696c656400000000000000000000000000000000000000000000000000000000602082015250565b5f612a17602483612798565b9150612a22826129bd565b604082019050919050565b5f6020820190508181035f830152612a4481612a0b565b9050919050565b5f60208284031215612a6057612a5f611a60565b5b5f612a6d848285016128b6565b91505092915050565b612a7f81611be0565b82525050565b5f602082019050612a985f830184612a76565b92915050565b7f44656c656761746f727953756d6d61727920707265636f6d70696c652063616c5f8201527f6c206661696c6564000000000000000000000000000000000000000000000000602082015250565b5f612af8602883612798565b9150612b0382612a9e565b604082019050919050565b5f6020820190508181035f830152612b2581612aec565b9050919050565b5f60808284031215612b4157612b40612836565b5b612b4b6080612898565b90505f612b5a848285016128b6565b5f830152506020612b6d848285016128b6565b6020830152506040612b81848285016128b6565b6040830152506060612b95848285016128b6565b60608301525092915050565b5f60808284031215612bb657612bb5611a60565b5b5f612bc384828501612b2c565b91505092915050565b612bd581611cb2565b82525050565b5f602082019050612bee5f830184612bcc565b92915050565b7f506572704173736574496e666f20707265636f6d70696c652063616c6c2066615f8201527f696c656400000000000000000000000000000000000000000000000000000000602082015250565b5f612c4e602483612798565b9150612c5982612bf4565b604082019050919050565b5f6020820190508181035f830152612c7b81612c42565b9050919050565b5f5ffd5b5f5ffd5b5f67ffffffffffffffff821115612ca457612ca361283a565b5b612cad82611d3e565b9050602081019050919050565b5f612ccc612cc784612c8a565b612898565b905082815260208101848484011115612ce857612ce7612c86565b5b612cf3848285611d30565b509392505050565b5f82601f830112612d0f57612d0e612c82565b5b8151612d1f848260208601612cba565b91505092915050565b5f81519050612d3681611cc1565b92915050565b612d4581611d95565b8114612d4f575f5ffd5b50565b5f81519050612d6081612d3c565b92915050565b612d6f81611db0565b8114612d79575f5ffd5b50565b5f81519050612d8a81612d66565b92915050565b5f60a08284031215612da557612da4612836565b5b612daf60a0612898565b90505f82015167ffffffffffffffff811115612dce57612dcd6128b2565b5b612dda84828501612cfb565b5f830152506020612ded84828501612d28565b6020830152506040612e0184828501612d52565b6040830152506060612e1584828501612d52565b6060830152506080612e2984828501612d7c565b60808301525092915050565b5f60208284031215612e4a57612e49611a60565b5b5f82015167ffffffffffffffff811115612e6757612e66611a64565b5b612e7384828501612d90565b91505092915050565b7f546f6b656e496e666f20707265636f6d70696c652063616c6c206661696c65645f82015250565b5f612eb0602083612798565b9150612ebb82612e7c565b602082019050919050565b5f6020820190508181035f830152612edd81612ea4565b9050919050565b5f67ffffffffffffffff821115612efe57612efd61283a565b5b602082029050602081019050919050565b5f5ffd5b5f612f25612f2084612ee4565b612898565b90508083825260208201905060208402830185811115612f4857612f47612f0f565b5b835b81811015612f715780612f5d88826128b6565b845260208401935050602081019050612f4a565b5050509392505050565b5f82601f830112612f8f57612f8e612c82565b5b8151612f9f848260208601612f13565b91505092915050565b5f81519050612fb681611bf1565b92915050565b612fc581611f14565b8114612fcf575f5ffd5b50565b5f81519050612fe081612fbc565b92915050565b5f6101008284031215612ffc57612ffb612836565b5b613007610100612898565b90505f82015167ffffffffffffffff811115613026576130256128b2565b5b61303284828501612cfb565b5f83015250602082015167ffffffffffffffff811115613055576130546128b2565b5b61306184828501612f7b565b6020830152506040613075848285016128b6565b604083015250606061308984828501612fa8565b606083015250608061309d84828501612fa8565b60808301525060a06130b184828501612d52565b60a08301525060c06130c584828501612d52565b60c08301525060e06130d984828501612fd2565b60e08301525092915050565b5f602082840312156130fa576130f9611a60565b5b5f82015167ffffffffffffffff81111561311757613116611a64565b5b61312384828501612fe6565b91505092915050565b61313581612002565b82525050565b5f60408201905061314e5f830185612a76565b61315b602083018461312c565b9392505050565b7f506f736974696f6e20707265636f6d70696c652063616c6c206661696c6564005f82015250565b5f613196601f83612798565b91506131a182613162565b602082019050919050565b5f6020820190508181035f8301526131c38161318a565b9050919050565b6131d381612077565b81146131dd575f5ffd5b50565b5f815190506131ee816131ca565b92915050565b5f60a0828403121561320957613208612836565b5b61321360a0612898565b90505f613222848285016131e0565b5f830152506020613235848285016128b6565b6020830152506040613249848285016131e0565b604083015250606061325d84828501612d28565b606083015250608061327184828501612d7c565b60808301525092915050565b5f60a0828403121561329257613291611a60565b5b5f61329f848285016131f4565b91505092915050565b7f42626f20707265636f6d70696c652063616c6c206661696c65640000000000005f82015250565b5f6132dc601a83612798565b91506132e7826132a8565b602082019050919050565b5f6020820190508181035f830152613309816132d0565b9050919050565b5f6040828403121561332557613324612836565b5b61332f6040612898565b90505f61333e848285016128b6565b5f830152506020613351848285016128b6565b60208301525092915050565b5f6040828403121561337257613371611a60565b5b5f61337f84828501613310565b91505092915050565b7f53706f74507820707265636f6d70696c652063616c6c206661696c65640000005f82015250565b5f6133bc601d83612798565b91506133c782613388565b602082019050919050565b5f6020820190508181035f8301526133e9816133b0565b9050919050565b5f6040820190506134035f830185612bcc565b6134106020830184612a76565b9392505050565b7f4163636f756e74206d617267696e2073756d6d61727920707265636f6d70696c5f8201527f652063616c6c206661696c656400000000000000000000000000000000000000602082015250565b5f613471602d83612798565b915061347c82613417565b604082019050919050565b5f6020820190508181035f83015261349e81613465565b9050919050565b5f608082840312156134ba576134b9612836565b5b6134c46080612898565b90505f6134d3848285016131e0565b5f8301525060206134e6848285016128b6565b60208301525060406134fa848285016128b6565b604083015250606061350e848285016131e0565b60608301525092915050565b5f6080828403121561352f5761352e611a60565b5b5f61353c848285016134a5565b91505092915050565b7f436f726520757365722065786973747320707265636f6d70696c652063616c6c5f8201527f206661696c656400000000000000000000000000000000000000000000000000602082015250565b5f61359f602783612798565b91506135aa82613545565b604082019050919050565b5f6020820190508181035f8301526135cc81613593565b9050919050565b5f602082840312156135e8576135e7612836565b5b6135f26020612898565b90505f61360184828501612d7c565b5f8301525092915050565b5f6020828403121561362157613620611a60565b5b5f61362e848285016135d3565b91505092915050565b5f60408201905061364a5f830185612a76565b6136576020830184611b99565b9392505050565b7f53706f7442616c616e636520707265636f6d70696c652063616c6c206661696c5f8201527f6564000000000000000000000000000000000000000000000000000000000000602082015250565b5f6136b8602283612798565b91506136c38261365e565b604082019050919050565b5f6020820190508181035f8301526136e5816136ac565b9050919050565b5f6060828403121561370157613700612836565b5b61370b6060612898565b90505f61371a848285016128b6565b5f83015250602061372d848285016128b6565b6020830152506040613741848285016128b6565b60408301525092915050565b5f6060828403121561376257613761611a60565b5b5f61376f848285016136ec565b91505092915050565b7f53706f74496e666f20707265636f6d70696c652063616c6c206661696c6564005f82015250565b5f6137ac601f83612798565b91506137b782613778565b602082019050919050565b5f6020820190508181035f8301526137d9816137a0565b9050919050565b5f67ffffffffffffffff8211156137fa576137f961283a565b5b602082029050919050565b5f613817613812846137e0565b612898565b9050806020840283018581111561383157613830612f0f565b5b835b8181101561385a578061384688826128b6565b845260208401935050602081019050613833565b5050509392505050565b5f82601f83011261387857613877612c82565b5b6002613885848285613805565b91505092915050565b5f606082840312156138a3576138a2612836565b5b6138ad6040612898565b90505f82015167ffffffffffffffff8111156138cc576138cb6128b2565b5b6138d884828501612cfb565b5f8301525060206138eb84828501613864565b60208301525092915050565b5f6020828403121561390c5761390b611a60565b5b5f82015167ffffffffffffffff81111561392957613928611a64565b5b6139358482850161388e565b91505092915050565b7f426f72726f77206c656e64207573657220737461746520707265636f6d70696c5f8201527f652063616c6c206661696c656400000000000000000000000000000000000000602082015250565b5f613998602d83612798565b91506139a38261393e565b604082019050919050565b5f6020820190508181035f8301526139c58161398c565b9050919050565b5f604082840312156139e1576139e0612836565b5b6139eb6040612898565b90505f6139fa848285016128b6565b5f830152506020613a0d848285016128b6565b60208301525092915050565b5f60808284031215613a2e57613a2d612836565b5b613a386040612898565b90505f613a47848285016139cc565b5f830152506040613a5a848285016139cc565b60208301525092915050565b5f60808284031215613a7b57613a7a611a60565b5b5f613a8884828501613a19565b91505092915050565b7f546f6b656e537570706c7920707265636f6d70696c652063616c6c206661696c5f8201527f6564000000000000000000000000000000000000000000000000000000000000602082015250565b5f613aeb602283612798565b9150613af682613a91565b604082019050919050565b5f6020820190508181035f830152613b1881613adf565b9050919050565b5f67ffffffffffffffff821115613b3957613b3861283a565b5b602082029050602081019050919050565b5f60408284031215613b5f57613b5e612836565b5b613b696040612898565b90505f613b7884828501612fa8565b5f830152506020613b8b848285016128b6565b60208301525092915050565b5f613ba9613ba484613b1f565b612898565b90508083825260208201905060408402830185811115613bcc57613bcb612f0f565b5b835b81811015613bf55780613be18882613b4a565b845260208401935050604081019050613bce565b5050509392505050565b5f82601f830112613c1357613c12612c82565b5b8151613c23848260208601613b97565b91505092915050565b5f60a08284031215613c4157613c40612836565b5b613c4b60a0612898565b90505f613c5a848285016128b6565b5f830152506020613c6d848285016128b6565b6020830152506040613c81848285016128b6565b6040830152506060613c95848285016128b6565b606083015250608082015167ffffffffffffffff811115613cb957613cb86128b2565b5b613cc584828501613bff565b60808301525092915050565b5f60208284031215613ce657613ce5611a60565b5b5f82015167ffffffffffffffff811115613d0357613d02611a64565b5b613d0f84828501613c2c565b91505092915050565b7f44656c65676174696f6e7320707265636f6d70696c652063616c6c206661696c5f8201527f6564000000000000000000000000000000000000000000000000000000000000602082015250565b5f613d72602283612798565b9150613d7d82613d18565b604082019050919050565b5f6020820190508181035f830152613d9f81613d66565b9050919050565b5f67ffffffffffffffff821115613dc057613dbf61283a565b5b602082029050602081019050919050565b5f60608284031215613de657613de5612836565b5b613df06060612898565b90505f613dff84828501612fa8565b5f830152506020613e12848285016128b6565b6020830152506040613e26848285016128b6565b60408301525092915050565b5f613e44613e3f84613da6565b612898565b90508083825260208201905060608402830185811115613e6757613e66612f0f565b5b835b81811015613e905780613e7c8882613dd1565b845260208401935050606081019050613e69565b5050509392505050565b5f82601f830112613eae57613ead612c82565b5b8151613ebe848260208601613e32565b91505092915050565b5f60208284031215613edc57613edb611a60565b5b5f82015167ffffffffffffffff811115613ef957613ef8611a64565b5b613f0584828501613e9a565b91505092915050565b7f4f7261636c65507820707265636f6d70696c652063616c6c206661696c6564005f82015250565b5f613f42601f83612798565b9150613f4d82613f0e565b602082019050919050565b5f6020820190508181035f830152613f6f81613f36565b9050919050565b7f4d61726b507820707265636f6d70696c652063616c6c206661696c65640000005f82015250565b5f613faa601d83612798565b9150613fb582613f76565b602082019050919050565b5f6020820190508181035f830152613fd781613f9e565b9050919050565b7f576974686472617761626c6520707265636f6d70696c652063616c6c206661695f8201527f6c65640000000000000000000000000000000000000000000000000000000000602082015250565b5f614038602383612798565b915061404382613fde565b604082019050919050565b5f6020820190508181035f8301526140658161402c565b9050919050565b5f6020828403121561408157614080612836565b5b61408b6020612898565b90505f61409a848285016128b6565b5f8301525092915050565b5f602082840312156140ba576140b9611a60565b5b5f6140c78482850161406c565b91505092915050565b5f6040820190506140e35f830185612a76565b6140f06020830184612a76565b9392505050565b7f5661756c7445717569747920707265636f6d70696c652063616c6c206661696c5f8201527f6564000000000000000000000000000000000000000000000000000000000000602082015250565b5f614151602283612798565b915061415c826140f7565b604082019050919050565b5f6020820190508181035f83015261417e81614145565b9050919050565b5f6040828403121561419a57614199612836565b5b6141a46040612898565b90505f6141b3848285016128b6565b5f8301525060206141c6848285016128b6565b60208301525092915050565b5f604082840312156141e7576141e6611a60565b5b5f6141f484828501614185565b9150509291505056fea2646970667358221220c14896829f9ee9f790144b1599f3f59f7ac2f2f3470286e43aca3f0b4ffe1c1764736f6c63430008210033","linkReferences":{}},"methodIdentifiers":{"accountMarginSummary(uint32,address)":"944fa526","bbo(uint32)":"8d1f4264","borrowLendReserveState(uint64)":"1a9c71c6","borrowLendUserState(address,uint64)":"b7fc7857","coreUserExists(address)":"9dbfb13f","delegations(address)":"bffe3486","delegatorSummary(address)":"37f980a5","l1BlockNumber()":"298c9005","markPx(uint32)":"c8eec8c6","oraclePx(uint32)":"c0f0f5ef","perpAssetInfo(uint32)":"4162cd32","position(address,uint16)":"89cf7c89","spotBalance(address,uint64)":"a69610d1","spotInfo(uint32)":"b6dff0b5","spotPx(uint32)":"90702759","tokenInfo(uint32)":"68fb1109","tokenSupply(uint32)":"be06f7ac","userVaultEquity(address,address)":"ee1b5af1","withdrawable(address)":"ce513b6f"},"id":0}