{"abi":[{"type":"function","name":"FEE_DENOMINATOR","inputs":[],"outputs":[{"name":"","type":"uint256","internalType":"uint256"}],"stateMutability":"view"},{"type":"function","name":"HYPE_TOKEN_INDEX","inputs":[],"outputs":[{"name":"","type":"uint64","internalType":"uint64"}],"stateMutability":"view"},{"type":"function","name":"USDC_TOKEN_INDEX","inputs":[],"outputs":[{"name":"","type":"uint64","internalType":"uint64"}],"stateMutability":"view"},{"type":"function","name":"_getMaxLeverage","inputs":[{"name":"perpIndex","type":"uint16","internalType":"uint16"}],"outputs":[{"name":"","type":"uint32","internalType":"uint32"}],"stateMutability":"view"},{"type":"function","name":"_liquidateUser","inputs":[{"name":"user","type":"address","internalType":"address"}],"outputs":[],"stateMutability":"nonpayable"},{"type":"function","name":"coreUserExists","inputs":[{"name":"account","type":"address","internalType":"address"}],"outputs":[{"name":"","type":"bool","internalType":"bool"}],"stateMutability":"nonpayable"},{"type":"function","name":"executeNativeTransfer","inputs":[{"name":"","type":"address","internalType":"address"},{"name":"from","type":"address","internalType":"address"},{"name":"value","type":"uint256","internalType":"uint256"}],"outputs":[],"stateMutability":"payable"},{"type":"function","name":"executePerpLimitOrder","inputs":[{"name":"sender","type":"address","internalType":"address"},{"name":"action","type":"tuple","internalType":"struct CoreState.LimitOrderAction","components":[{"name":"asset","type":"uint32","internalType":"uint32"},{"name":"isBuy","type":"bool","internalType":"bool"},{"name":"limitPx","type":"uint64","internalType":"uint64"},{"name":"sz","type":"uint64","internalType":"uint64"},{"name":"reduceOnly","type":"bool","internalType":"bool"},{"name":"encodedTif","type":"uint8","internalType":"uint8"},{"name":"cloid","type":"uint128","internalType":"uint128"}]}],"outputs":[],"stateMutability":"nonpayable"},{"type":"function","name":"executeRawAction","inputs":[{"name":"sender","type":"address","internalType":"address"},{"name":"kind","type":"uint24","internalType":"uint24"},{"name":"data","type":"bytes","internalType":"bytes"}],"outputs":[],"stateMutability":"payable"},{"type":"function","name":"executeSpotLimitOrder","inputs":[{"name":"sender","type":"address","internalType":"address"},{"name":"action","type":"tuple","internalType":"struct CoreState.LimitOrderAction","components":[{"name":"asset","type":"uint32","internalType":"uint32"},{"name":"isBuy","type":"bool","internalType":"bool"},{"name":"limitPx","type":"uint64","internalType":"uint64"},{"name":"sz","type":"uint64","internalType":"uint64"},{"name":"reduceOnly","type":"bool","internalType":"bool"},{"name":"encodedTif","type":"uint8","internalType":"uint8"},{"name":"cloid","type":"uint128","internalType":"uint128"}]}],"outputs":[],"stateMutability":"nonpayable"},{"type":"function","name":"executeSpotSend","inputs":[{"name":"sender","type":"address","internalType":"address"},{"name":"action","type":"tuple","internalType":"struct CoreState.SpotSendAction","components":[{"name":"destination","type":"address","internalType":"address"},{"name":"token","type":"uint64","internalType":"uint64"},{"name":"_wei","type":"uint64","internalType":"uint64"}]}],"outputs":[],"stateMutability":"nonpayable"},{"type":"function","name":"executeStakingDeposit","inputs":[{"name":"sender","type":"address","internalType":"address"},{"name":"action","type":"tuple","internalType":"struct CoreState.StakingDepositAction","components":[{"name":"_wei","type":"uint64","internalType":"uint64"}]}],"outputs":[],"stateMutability":"nonpayable"},{"type":"function","name":"executeStakingWithdraw","inputs":[{"name":"sender","type":"address","internalType":"address"},{"name":"action","type":"tuple","internalType":"struct CoreState.StakingWithdrawAction","components":[{"name":"_wei","type":"uint64","internalType":"uint64"}]}],"outputs":[],"stateMutability":"nonpayable"},{"type":"function","name":"executeTokenDelegate","inputs":[{"name":"sender","type":"address","internalType":"address"},{"name":"action","type":"tuple","internalType":"struct CoreState.TokenDelegateAction","components":[{"name":"validator","type":"address","internalType":"address"},{"name":"_wei","type":"uint64","internalType":"uint64"},{"name":"isUndelegate","type":"bool","internalType":"bool"}]}],"outputs":[],"stateMutability":"nonpayable"},{"type":"function","name":"executeTokenTransfer","inputs":[{"name":"","type":"address","internalType":"address"},{"name":"token","type":"uint64","internalType":"uint64"},{"name":"from","type":"address","internalType":"address"},{"name":"value","type":"uint256","internalType":"uint256"}],"outputs":[],"stateMutability":"payable"},{"type":"function","name":"executeUsdClassTransfer","inputs":[{"name":"sender","type":"address","internalType":"address"},{"name":"action","type":"tuple","internalType":"struct CoreState.UsdClassTransferAction","components":[{"name":"ntl","type":"uint64","internalType":"uint64"},{"name":"toPerp","type":"bool","internalType":"bool"}]}],"outputs":[],"stateMutability":"nonpayable"},{"type":"function","name":"executeVaultTransfer","inputs":[{"name":"sender","type":"address","internalType":"address"},{"name":"action","type":"tuple","internalType":"struct CoreState.VaultTransferAction","components":[{"name":"vault","type":"address","internalType":"address"},{"name":"isDeposit","type":"bool","internalType":"bool"},{"name":"usd","type":"uint64","internalType":"uint64"}]}],"outputs":[],"stateMutability":"nonpayable"},{"type":"function","name":"forceAccountActivation","inputs":[{"name":"account","type":"address","internalType":"address"}],"outputs":[],"stateMutability":"nonpayable"},{"type":"function","name":"forceDelegation","inputs":[{"name":"account","type":"address","internalType":"address"},{"name":"validator","type":"address","internalType":"address"},{"name":"amount","type":"uint64","internalType":"uint64"},{"name":"lockedUntilTimestamp","type":"uint64","internalType":"uint64"}],"outputs":[],"stateMutability":"nonpayable"},{"type":"function","name":"forcePerpBalance","inputs":[{"name":"account","type":"address","internalType":"address"},{"name":"usd","type":"uint64","internalType":"uint64"}],"outputs":[],"stateMutability":"payable"},{"type":"function","name":"forcePerpPositionLeverage","inputs":[{"name":"account","type":"address","internalType":"address"},{"name":"perp","type":"uint16","internalType":"uint16"},{"name":"leverage","type":"uint32","internalType":"uint32"}],"outputs":[],"stateMutability":"payable"},{"type":"function","name":"forceSpotBalance","inputs":[{"name":"account","type":"address","internalType":"address"},{"name":"token","type":"uint64","internalType":"uint64"},{"name":"_wei","type":"uint64","internalType":"uint64"}],"outputs":[],"stateMutability":"payable"},{"type":"function","name":"forceStakingBalance","inputs":[{"name":"account","type":"address","internalType":"address"},{"name":"_wei","type":"uint64","internalType":"uint64"}],"outputs":[],"stateMutability":"payable"},{"type":"function","name":"forceVaultEquity","inputs":[{"name":"account","type":"address","internalType":"address"},{"name":"vault","type":"address","internalType":"address"},{"name":"usd","type":"uint64","internalType":"uint64"},{"name":"lockedUntilTimestamp","type":"uint64","internalType":"uint64"}],"outputs":[],"stateMutability":"payable"},{"type":"function","name":"isLiquidatable","inputs":[{"name":"user","type":"address","internalType":"address"}],"outputs":[{"name":"","type":"bool","internalType":"bool"}],"stateMutability":"nonpayable"},{"type":"function","name":"liquidatePositions","inputs":[],"outputs":[],"stateMutability":"nonpayable"},{"type":"function","name":"perpMakerFee","inputs":[],"outputs":[{"name":"","type":"uint16","internalType":"uint16"}],"stateMutability":"view"},{"type":"function","name":"processPendingOrders","inputs":[],"outputs":[],"stateMutability":"nonpayable"},{"type":"function","name":"processStakingWithdrawals","inputs":[],"outputs":[],"stateMutability":"nonpayable"},{"type":"function","name":"readAccountMarginSummary","inputs":[{"name":"perp_dex_index","type":"uint16","internalType":"uint16"},{"name":"user","type":"address","internalType":"address"}],"outputs":[{"name":"","type":"tuple","internalType":"struct PrecompileLib.AccountMarginSummary","components":[{"name":"accountValue","type":"int64","internalType":"int64"},{"name":"marginUsed","type":"uint64","internalType":"uint64"},{"name":"ntlPos","type":"uint64","internalType":"uint64"},{"name":"rawUsd","type":"int64","internalType":"int64"}]}],"stateMutability":"nonpayable"},{"type":"function","name":"readDelegations","inputs":[{"name":"user","type":"address","internalType":"address"}],"outputs":[{"name":"userDelegations","type":"tuple[]","internalType":"struct PrecompileLib.Delegation[]","components":[{"name":"validator","type":"address","internalType":"address"},{"name":"amount","type":"uint64","internalType":"uint64"},{"name":"lockedUntilTimestamp","type":"uint64","internalType":"uint64"}]}],"stateMutability":"nonpayable"},{"type":"function","name":"readDelegatorSummary","inputs":[{"name":"user","type":"address","internalType":"address"}],"outputs":[{"name":"summary","type":"tuple","internalType":"struct PrecompileLib.DelegatorSummary","components":[{"name":"delegated","type":"uint64","internalType":"uint64"},{"name":"undelegated","type":"uint64","internalType":"uint64"},{"name":"totalPendingWithdrawal","type":"uint64","internalType":"uint64"},{"name":"nPendingWithdrawals","type":"uint64","internalType":"uint64"}]}],"stateMutability":"nonpayable"},{"type":"function","name":"readMarkPx","inputs":[{"name":"perp","type":"uint32","internalType":"uint32"}],"outputs":[{"name":"","type":"uint64","internalType":"uint64"}],"stateMutability":"nonpayable"},{"type":"function","name":"readOraclePx","inputs":[{"name":"perp","type":"uint32","internalType":"uint32"}],"outputs":[{"name":"","type":"uint64","internalType":"uint64"}],"stateMutability":"nonpayable"},{"type":"function","name":"readPerpAssetInfo","inputs":[{"name":"perp","type":"uint32","internalType":"uint32"}],"outputs":[{"name":"","type":"tuple","internalType":"struct PrecompileLib.PerpAssetInfo","components":[{"name":"coin","type":"string","internalType":"string"},{"name":"marginTableId","type":"uint32","internalType":"uint32"},{"name":"szDecimals","type":"uint8","internalType":"uint8"},{"name":"maxLeverage","type":"uint8","internalType":"uint8"},{"name":"onlyIsolated","type":"bool","internalType":"bool"}]}],"stateMutability":"nonpayable"},{"type":"function","name":"readPerpBalance","inputs":[{"name":"account","type":"address","internalType":"address"}],"outputs":[{"name":"","type":"uint64","internalType":"uint64"}],"stateMutability":"nonpayable"},{"type":"function","name":"readPosition","inputs":[{"name":"user","type":"address","internalType":"address"},{"name":"perp","type":"uint16","internalType":"uint16"}],"outputs":[{"name":"","type":"tuple","internalType":"struct PrecompileLib.Position","components":[{"name":"szi","type":"int64","internalType":"int64"},{"name":"entryNtl","type":"uint64","internalType":"uint64"},{"name":"isolatedRawUsd","type":"int64","internalType":"int64"},{"name":"leverage","type":"uint32","internalType":"uint32"},{"name":"isIsolated","type":"bool","internalType":"bool"}]}],"stateMutability":"nonpayable"},{"type":"function","name":"readSpotBalance","inputs":[{"name":"account","type":"address","internalType":"address"},{"name":"token","type":"uint64","internalType":"uint64"}],"outputs":[{"name":"","type":"tuple","internalType":"struct PrecompileLib.SpotBalance","components":[{"name":"total","type":"uint64","internalType":"uint64"},{"name":"hold","type":"uint64","internalType":"uint64"},{"name":"entryNtl","type":"uint64","internalType":"uint64"}]}],"stateMutability":"nonpayable"},{"type":"function","name":"readSpotInfo","inputs":[{"name":"spotMarketId","type":"uint32","internalType":"uint32"}],"outputs":[{"name":"","type":"tuple","internalType":"struct PrecompileLib.SpotInfo","components":[{"name":"name","type":"string","internalType":"string"},{"name":"tokens","type":"uint64[2]","internalType":"uint64[2]"}]}],"stateMutability":"nonpayable"},{"type":"function","name":"readSpotPx","inputs":[{"name":"spotMarketId","type":"uint32","internalType":"uint32"}],"outputs":[{"name":"","type":"uint64","internalType":"uint64"}],"stateMutability":"nonpayable"},{"type":"function","name":"readTokenInfo","inputs":[{"name":"token","type":"uint32","internalType":"uint32"}],"outputs":[{"name":"","type":"tuple","internalType":"struct PrecompileLib.TokenInfo","components":[{"name":"name","type":"string","internalType":"string"},{"name":"spots","type":"uint64[]","internalType":"uint64[]"},{"name":"deployerTradingFeeShare","type":"uint64","internalType":"uint64"},{"name":"deployer","type":"address","internalType":"address"},{"name":"evmContract","type":"address","internalType":"address"},{"name":"szDecimals","type":"uint8","internalType":"uint8"},{"name":"weiDecimals","type":"uint8","internalType":"uint8"},{"name":"evmExtraWeiDecimals","type":"int8","internalType":"int8"}]}],"stateMutability":"nonpayable"},{"type":"function","name":"readUserVaultEquity","inputs":[{"name":"user","type":"address","internalType":"address"},{"name":"vault","type":"address","internalType":"address"}],"outputs":[{"name":"","type":"tuple","internalType":"struct PrecompileLib.UserVaultEquity","components":[{"name":"equity","type":"uint64","internalType":"uint64"},{"name":"lockedUntilTimestamp","type":"uint64","internalType":"uint64"}]}],"stateMutability":"view"},{"type":"function","name":"readWithdrawable","inputs":[{"name":"account","type":"address","internalType":"address"}],"outputs":[{"name":"","type":"tuple","internalType":"struct PrecompileLib.Withdrawable","components":[{"name":"withdrawable","type":"uint64","internalType":"uint64"}]}],"stateMutability":"nonpayable"},{"type":"function","name":"registerPerpAssetInfo","inputs":[{"name":"perpIndex","type":"uint16","internalType":"uint16"},{"name":"perpAssetInfo","type":"tuple","internalType":"struct PrecompileLib.PerpAssetInfo","components":[{"name":"coin","type":"string","internalType":"string"},{"name":"marginTableId","type":"uint32","internalType":"uint32"},{"name":"szDecimals","type":"uint8","internalType":"uint8"},{"name":"maxLeverage","type":"uint8","internalType":"uint8"},{"name":"onlyIsolated","type":"bool","internalType":"bool"}]}],"outputs":[],"stateMutability":"nonpayable"},{"type":"function","name":"registerSpotInfo","inputs":[{"name":"spotIndex","type":"uint32","internalType":"uint32"},{"name":"spotInfo","type":"tuple","internalType":"struct PrecompileLib.SpotInfo","components":[{"name":"name","type":"string","internalType":"string"},{"name":"tokens","type":"uint64[2]","internalType":"uint64[2]"}]}],"outputs":[],"stateMutability":"nonpayable"},{"type":"function","name":"registerTokenInfo","inputs":[{"name":"index","type":"uint64","internalType":"uint64"},{"name":"tokenInfo","type":"tuple","internalType":"struct PrecompileLib.TokenInfo","components":[{"name":"name","type":"string","internalType":"string"},{"name":"spots","type":"uint64[]","internalType":"uint64[]"},{"name":"deployerTradingFeeShare","type":"uint64","internalType":"uint64"},{"name":"deployer","type":"address","internalType":"address"},{"name":"evmContract","type":"address","internalType":"address"},{"name":"szDecimals","type":"uint8","internalType":"uint8"},{"name":"weiDecimals","type":"uint8","internalType":"uint8"},{"name":"evmExtraWeiDecimals","type":"int8","internalType":"int8"}]}],"outputs":[],"stateMutability":"nonpayable"},{"type":"function","name":"registerTokenInfo","inputs":[{"name":"index","type":"uint64","internalType":"uint64"}],"outputs":[],"stateMutability":"nonpayable"},{"type":"function","name":"registerValidator","inputs":[{"name":"validator","type":"address","internalType":"address"}],"outputs":[],"stateMutability":"nonpayable"},{"type":"function","name":"setMarkPx","inputs":[{"name":"perp","type":"uint32","internalType":"uint32"},{"name":"priceDiffBps","type":"uint64","internalType":"uint64"},{"name":"isIncrease","type":"bool","internalType":"bool"}],"outputs":[],"stateMutability":"nonpayable"},{"type":"function","name":"setMarkPx","inputs":[{"name":"perp","type":"uint32","internalType":"uint32"},{"name":"markPx","type":"uint64","internalType":"uint64"}],"outputs":[],"stateMutability":"nonpayable"},{"type":"function","name":"setPerpMakerFee","inputs":[{"name":"bps","type":"uint16","internalType":"uint16"}],"outputs":[],"stateMutability":"nonpayable"},{"type":"function","name":"setSpotMakerFee","inputs":[{"name":"bps","type":"uint16","internalType":"uint16"}],"outputs":[],"stateMutability":"nonpayable"},{"type":"function","name":"setSpotPx","inputs":[{"name":"spotMarketId","type":"uint32","internalType":"uint32"},{"name":"spotPx","type":"uint64","internalType":"uint64"}],"outputs":[],"stateMutability":"nonpayable"},{"type":"function","name":"setSpotPx","inputs":[{"name":"spotMarketId","type":"uint32","internalType":"uint32"},{"name":"priceDiffBps","type":"uint64","internalType":"uint64"},{"name":"isIncrease","type":"bool","internalType":"bool"}],"outputs":[],"stateMutability":"nonpayable"},{"type":"function","name":"setStakingYieldIndex","inputs":[{"name":"multiplier","type":"uint256","internalType":"uint256"}],"outputs":[],"stateMutability":"nonpayable"},{"type":"function","name":"setUseRealL1Read","inputs":[{"name":"_useRealL1Read","type":"bool","internalType":"bool"}],"outputs":[],"stateMutability":"nonpayable"},{"type":"function","name":"setVaultMultiplier","inputs":[{"name":"vault","type":"address","internalType":"address"},{"name":"multiplier","type":"uint256","internalType":"uint256"}],"outputs":[],"stateMutability":"nonpayable"},{"type":"function","name":"spotMakerFee","inputs":[],"outputs":[{"name":"","type":"uint16","internalType":"uint16"}],"stateMutability":"view"},{"type":"function","name":"tokenExists","inputs":[{"name":"token","type":"uint32","internalType":"uint32"}],"outputs":[{"name":"","type":"bool","internalType":"bool"}],"stateMutability":"view"},{"type":"function","name":"useRealL1Read","inputs":[],"outputs":[{"name":"","type":"bool","internalType":"bool"}],"stateMutability":"view"},{"type":"event","name":"SlotFound","inputs":[{"name":"who","type":"address","indexed":false,"internalType":"address"},{"name":"fsig","type":"bytes4","indexed":false,"internalType":"bytes4"},{"name":"keysHash","type":"bytes32","indexed":false,"internalType":"bytes32"},{"name":"slot","type":"uint256","indexed":false,"internalType":"uint256"}],"anonymous":false},{"type":"event","name":"WARNING_UninitedSlot","inputs":[{"name":"who","type":"address","indexed":false,"internalType":"address"},{"name":"slot","type":"uint256","indexed":false,"internalType":"uint256"}],"anonymous":false},{"type":"error","name":"PrecompileLib__AccountMarginSummaryPrecompileFailed","inputs":[]},{"type":"error","name":"PrecompileLib__CoreUserExistsPrecompileFailed","inputs":[]},{"type":"error","name":"PrecompileLib__DelegationsPrecompileFailed","inputs":[]},{"type":"error","name":"PrecompileLib__DelegatorSummaryPrecompileFailed","inputs":[]},{"type":"error","name":"PrecompileLib__MarkPxPrecompileFailed","inputs":[]},{"type":"error","name":"PrecompileLib__OraclePxPrecompileFailed","inputs":[]},{"type":"error","name":"PrecompileLib__PerpAssetInfoPrecompileFailed","inputs":[]},{"type":"error","name":"PrecompileLib__PositionPrecompileFailed","inputs":[]},{"type":"error","name":"PrecompileLib__SpotBalancePrecompileFailed","inputs":[]},{"type":"error","name":"PrecompileLib__SpotInfoPrecompileFailed","inputs":[]},{"type":"error","name":"PrecompileLib__SpotPxPrecompileFailed","inputs":[]},{"type":"error","name":"PrecompileLib__TokenInfoPrecompileFailed","inputs":[]},{"type":"error","name":"PrecompileLib__VaultEquityPrecompileFailed","inputs":[]},{"type":"error","name":"PrecompileLib__WithdrawablePrecompileFailed","inputs":[]},{"type":"error","name":"SafeCastOverflowedUintDowncast","inputs":[{"name":"bits","type":"uint8","internalType":"uint8"},{"name":"value","type":"uint256","internalType":"uint256"}]},{"type":"error","name":"SafeERC20FailedOperation","inputs":[{"name":"token","type":"address","internalType":"address"}]}],"bytecode":{"object":"0x60a060405234801561000f575f5ffd5b5061001e61003e60201b60201c565b67ffffffffffffffff1660808167ffffffffffffffff168152505061005c565b5f6103e6461461004f576096610053565b6104515b61ffff16905090565b60805162015bb7620000af5f395f81816142b10152818161440c015281816144f8015281816148cd01528181615f5c015281816160a10152818161615a01528181616aa401526183fc015262015bb75ff3fe608060405260043610620003f1575f3560e01c80637ea558c8116200020a578063c126d047116200011a578063e2e8583111620000ae578063f0f301671162000078578063f0f301671462000eb6578063faf2773a1462000ef9578063fe95987c1462000f28578063ff1e91b51462000f5557620003f1565b8063e2e858311462000df9578063ea32ee881462000e3c578063eb03dd6b1462000e69578063ec1e4e011462000e8957620003f1565b8063d73792a911620000f0578063d73792a91462000d55578063db2d1cb51462000d84578063db40297c1462000db1578063dfefb2e21462000dca57620003f1565b8063c126d0471462000cb8578063ccd9349c1462000ce5578063cfdc26941462000d1257620003f1565b806397fdd86a116200019e5780639c93e15911620001685780639c93e1591462000bd85780639dbfb13f1462000c055780639fca51691462000c48578063b4fcd37c1462000c7557620003f1565b806397fdd86a1462000b0e5780639898728c1462000b3b57806399c9189d1462000b685780639a6538b41462000bab57620003f1565b8063915711ba11620001e0578063915711ba1462000a2c57806394a0b7711462000a5b57806397bc0e941462000a8857806397fba5461462000acb57620003f1565b80637ea558c814620009b05780637fa6938314620009df5780638dca414d14620009ff57620003f1565b806332480ac911620003065780635e3dcdab116200029a5780636780a7d411620002645780636780a7d4146200090757806368ba8652146200092057806371291d1b1462000963578063757428fb146200099057620003f1565b80635e3dcdab14620008515780636040b05214620008805780636272f20a14620008ad578063629138f414620008da57620003f1565b806348bb769b11620002dc57806348bb769b1462000771578063507a97c314620007b4578063554e110814620007f757806355784c51146200082457620003f1565b806332480ac914620006d457806335c4a8b1146200070157806336d92dc6146200072e57620003f1565b8063106b7799116200038a578063180ed2461162000354578063180ed24614620005de5780631db9707c1462000621578063233cc86a14620006645780632f9c29a2146200069157620003f1565b8063106b7799146200052e5780631246b2e61462000571578063132ce2d61462000591578063158389c414620005be57620003f1565b80630810bf0211620003cc5780630810bf02146200049457806308c6168614620004c157806308dda1da14620004e15780630dcb1548146200050157620003f1565b8063012755c214620003f5578063042e02cf146200043857806304aa1851146200047b575b5f5ffd5b34801562000401575f5ffd5b506200042060048036038101906200041a919062010dd6565b62000f75565b6040516200042f919062010e72565b60405180910390f35b34801562000444575f5ffd5b506200046360048036038101906200045d919062010e8d565b620010dd565b60405162000472919062010ed9565b60405180910390f35b34801562000487575f5ffd5b5062000492620014e9565b005b348015620004a0575f5ffd5b50620004bf6004803603810190620004b9919062010e8d565b62001604565b005b620004df6004803603810190620004d9919062010ef4565b6200166b565b005b620004ff6004803603810190620004f9919062010dd6565b620017ec565b005b3480156200050d575f5ffd5b506200052c600480360381019062000526919062011225565b62001861565b005b3480156200053a575f5ffd5b5062000559600480360381019062000553919062011289565b620018b4565b604051620005689190620112ca565b60405180910390f35b6200058f600480360381019062000589919062011321565b6200195d565b005b3480156200059d575f5ffd5b50620005bc6004803603810190620005b69190620114f2565b62001ab8565b005b620005dc6004803603810190620005d69190620115d7565b62001fe2565b005b348015620005ea575f5ffd5b5062000609600480360381019062000603919062011654565b620021a0565b604051620006189190620116ca565b60405180910390f35b3480156200062d575f5ffd5b506200064c600480360381019062000646919062010e8d565b62002491565b6040516200065b9190620117f2565b60405180910390f35b34801562000670575f5ffd5b506200068f600480360381019062000689919062011814565b620027a5565b005b3480156200069d575f5ffd5b50620006bc6004803603810190620006b6919062011289565b620028a3565b604051620006cb919062010ed9565b60405180910390f35b348015620006e0575f5ffd5b50620006ff6004803603810190620006f9919062011a94565b620028df565b005b3480156200070d575f5ffd5b506200072c600480360381019062000726919062011b64565b62002a5a565b005b3480156200073a575f5ffd5b5062000759600480360381019062000753919062011ba9565b62003686565b60405162000768919062011bea565b60405180910390f35b3480156200077d575f5ffd5b506200079c600480360381019062000796919062011289565b620036bd565b604051620007ab919062011d4f565b60405180910390f35b348015620007c0575f5ffd5b50620007df6004803603810190620007d9919062010e8d565b6200386a565b604051620007ee9190620112ca565b60405180910390f35b34801562000803575f5ffd5b506200082260048036038101906200081c919062011d71565b6200394b565b005b34801562000830575f5ffd5b506200084f600480360381019062000849919062011dd9565b62003bda565b005b3480156200085d575f5ffd5b506200086862003c20565b604051620008779190620112ca565b60405180910390f35b3480156200088c575f5ffd5b50620008ab6004803603810190620008a59190620114f2565b62003c24565b005b348015620008b9575f5ffd5b50620008d86004803603810190620008d2919062011e1e565b62003f37565b005b348015620008e6575f5ffd5b50620009056004803603810190620008ff919062011ba9565b62003f7e565b005b34801562000913575f5ffd5b506200091e62003fea565b005b3480156200092c575f5ffd5b506200094b600480360381019062000945919062010e8d565b62004081565b6040516200095a919062011e7f565b60405180910390f35b3480156200096f575f5ffd5b506200098e600480360381019062000988919062011e9a565b6200413a565b005b620009ae6004803603810190620009a8919062011f09565b620042ae565b005b348015620009bc575f5ffd5b50620009c762004589565b604051620009d6919062010ed9565b60405180910390f35b620009fd6004803603810190620009f7919062011e9a565b6200459c565b005b34801562000a0b575f5ffd5b5062000a2a600480360381019062000a24919062011fce565b620048ca565b005b34801562000a38575f5ffd5b5062000a43620050b0565b60405162000a52919062012024565b60405180910390f35b34801562000a67575f5ffd5b5062000a86600480360381019062000a80919062011e1e565b620050c3565b005b34801562000a94575f5ffd5b5062000ab3600480360381019062000aad919062011289565b6200510a565b60405162000ac29190620120ef565b60405180910390f35b34801562000ad7575f5ffd5b5062000af6600480360381019062000af0919062012111565b620052b7565b60405162000b059190620121e3565b60405180910390f35b34801562000b1a575f5ffd5b5062000b39600480360381019062000b33919062011ba9565b62005458565b005b34801562000b47575f5ffd5b5062000b66600480360381019062000b609190620122b5565b620054c5565b005b34801562000b74575f5ffd5b5062000b93600480360381019062000b8d919062011289565b62005586565b60405162000ba29190620112ca565b60405180910390f35b34801562000bb7575f5ffd5b5062000bd6600480360381019062000bd0919062012385565b6200562f565b005b34801562000be4575f5ffd5b5062000c03600480360381019062000bfd91906201240a565b62005f59565b005b34801562000c11575f5ffd5b5062000c30600480360381019062000c2a919062010e8d565b62006279565b60405162000c3f919062010ed9565b60405180910390f35b34801562000c54575f5ffd5b5062000c73600480360381019062000c6d919062010e8d565b62006352565b005b34801562000c81575f5ffd5b5062000ca0600480360381019062000c9a919062011289565b6200636c565b60405162000caf9190620125c1565b60405180910390f35b34801562000cc4575f5ffd5b5062000ce3600480360381019062000cdd9190620125e3565b620066e8565b005b34801562000cf1575f5ffd5b5062000d10600480360381019062000d0a919062011814565b620066f2565b005b34801562000d1e575f5ffd5b5062000d3d600480360381019062000d37919062010e8d565b620067f0565b60405162000d4c91906201266e565b60405180910390f35b34801562000d61575f5ffd5b5062000d6c62006a9a565b60405162000d7b91906201269a565b60405180910390f35b34801562000d90575f5ffd5b5062000daf600480360381019062000da99190620126f5565b62006aa1565b005b34801562000dbd575f5ffd5b5062000dc862006d89565b005b34801562000dd6575f5ffd5b5062000de162007617565b60405162000df0919062012024565b60405180910390f35b34801562000e05575f5ffd5b5062000e24600480360381019062000e1e919062011289565b6200762b565b60405162000e339190620112ca565b60405180910390f35b34801562000e48575f5ffd5b5062000e67600480360381019062000e61919062012790565b620076d4565b005b62000e87600480360381019062000e819190620127d5565b62007b74565b005b34801562000e95575f5ffd5b5062000eb4600480360381019062000eae919062010e8d565b620080a5565b005b34801562000ec2575f5ffd5b5062000ee1600480360381019062000edb919062012844565b620083dd565b60405162000ef09190620128e4565b60405180910390f35b34801562000f05575f5ffd5b5062000f10620083fa565b60405162000f1f9190620112ca565b60405180910390f35b34801562000f34575f5ffd5b5062000f53600480360381019062000f4d9190620128ff565b6200841e565b005b62000f73600480360381019062000f6d919062010dd6565b6200843b565b005b62000f7f620109b1565b5f1515600f5f8573ffffffffffffffffffffffffffffffffffffffff1673ffffffffffffffffffffffffffffffffffffffff1681526020019081526020015f205f8467ffffffffffffffff1667ffffffffffffffff1681526020019081526020015f205f9054906101000a900460ff1615151480156200100b5750600960049054906101000a900460ff165b1562001025576200101d838362008569565b9050620010d7565b6040518060600160405280600d5f8673ffffffffffffffffffffffffffffffffffffffff1673ffffffffffffffffffffffffffffffffffffffff1681526020019081526020015f206001015f8567ffffffffffffffff1667ffffffffffffffff1681526020019081526020015f205f9054906101000a900467ffffffffffffffff1667ffffffffffffffff1681526020015f67ffffffffffffffff1681526020015f67ffffffffffffffff1681525090505b92915050565b5f5f5f90505f5f90505f5f90505f5f90505f6200113660225f8973ffffffffffffffffffffffffffffffffffffffff1673ffffffffffffffffffffffffffffffffffffffff1681526020019081526020015f2062008636565b90505f8190505b5f81111562001440575f620011a66001836200115a91906201295c565b60225f8c73ffffffffffffffffffffffffffffffffffffffff1673ffffffffffffffffffffffffffffffffffffffff1681526020019081526020015f206200864b90919063ffffffff16565b90505f600d5f8b73ffffffffffffffffffffffffffffffffffffffff1673ffffffffffffffffffffffffffffffffffffffff1681526020019081526020015f206008015f8361ffff1661ffff1681526020019081526020015f206040518060a00160405290815f82015f9054906101000a900460070b60070b60070b81526020015f820160089054906101000a900467ffffffffffffffff1667ffffffffffffffff1667ffffffffffffffff1681526020015f820160109054906101000a900460070b60070b60070b81526020015f820160189054906101000a900463ffffffff1663ffffffff1663ffffffff1681526020015f8201601c9054906101000a900460ff16151515158152505090505f815f015160070b1462001428575f620012d28361ffff166200762b565b90505f825f015190505f620012e78262008664565b8460200151620012f89190620129c3565b90505f8184620013099190620129fa565b8362001316919062012a60565b9050808b62001326919062012aa5565b9a50600d5f8f73ffffffffffffffffffffffffffffffffffffffff1673ffffffffffffffffffffffffffffffffffffffff1681526020019081526020015f206009015f8761ffff1661ffff1681526020019081526020015f205f9054906101000a900467ffffffffffffffff168a620013a0919062012b0b565b99505f84620013af8562008664565b620013bb919062012b4d565b9050808d620013cb919062012b0b565b9c505f620013d98862003686565b90505f81611388620013ec919062012b92565b63ffffffff169050612710818462001405919062012b4d565b620014119190620129c3565b8c6200141e919062012b0b565b9b50505050505050505b50508080620014379062012bc9565b9150506200113d565b505f8567ffffffffffffffff160362001461575f95505050505050620014e4565b5f8484600d5f8b73ffffffffffffffffffffffffffffffffffffffff1673ffffffffffffffffffffffffffffffffffffffff1681526020019081526020015f206007015f9054906101000a900467ffffffffffffffff16620014c4919062012aa5565b620014d0919062012aa5565b90508260070b8160070b1296505050505050505b919050565b5b5f620014f760176200868b565b111562001602575f620015156200150f6017620086e5565b62008761565b905042816040015163ffffffff16111562001531575062001602565b6200153d6017620087ed565b508060200151600d5f835f015173ffffffffffffffffffffffffffffffffffffffff1673ffffffffffffffffffffffffffffffffffffffff1681526020019081526020015f206001015f620015916200891e565b67ffffffffffffffff1667ffffffffffffffff1681526020019081526020015f205f8282829054906101000a900467ffffffffffffffff16620015d5919062012b0b565b92506101000a81548167ffffffffffffffff021916908367ffffffffffffffff16021790555050620014ea565b565b620016118160016200893e565b6001600d5f8373ffffffffffffffffffffffffffffffffffffffff1673ffffffffffffffffffffffffffffffffffffffff1681526020019081526020015f205f015f6101000a81548160ff02191690831515021790555050565b5f1515600d5f8573ffffffffffffffffffffffffffffffffffffffff1673ffffffffffffffffffffffffffffffffffffffff1681526020019081526020015f205f015f9054906101000a900460ff16151503620016ce57620016cd8362001604565b5b5f1515600f5f8573ffffffffffffffffffffffffffffffffffffffff1673ffffffffffffffffffffffffffffffffffffffff1681526020019081526020015f205f8467ffffffffffffffff1667ffffffffffffffff1681526020019081526020015f205f9054906101000a900460ff161515036200175e5762001751826200394b565b6200175d838362008ee5565b5b80600d5f8573ffffffffffffffffffffffffffffffffffffffff1673ffffffffffffffffffffffffffffffffffffffff1681526020019081526020015f206001015f8467ffffffffffffffff1667ffffffffffffffff1681526020019081526020015f205f6101000a81548167ffffffffffffffff021916908367ffffffffffffffff160217905550505050565b620017f78262001604565b80600d5f8473ffffffffffffffffffffffffffffffffffffffff1673ffffffffffffffffffffffffffffffffffffffff1681526020019081526020015f206003015f6101000a81548167ffffffffffffffff021916908367ffffffffffffffff1602179055505050565b80600c5f8463ffffffff1663ffffffff1681526020019081526020015f205f820151815f01908162001894919062012e2e565b506020820151816001019081620018ac9190620130e7565b509050505050565b5f5f60145f8463ffffffff1663ffffffff1681526020019081526020015f205f9054906101000a900467ffffffffffffffff1667ffffffffffffffff161480156200190b5750600960049054906101000a900460ff165b1562001924576200191c826200905c565b905062001958565b60145f8363ffffffff1663ffffffff1681526020019081526020015f205f9054906101000a900467ffffffffffffffff1690505b919050565b5f1515600d5f8573ffffffffffffffffffffffffffffffffffffffff1673ffffffffffffffffffffffffffffffffffffffff1681526020019081526020015f205f015f9054906101000a900460ff16151503620019c057620019bf8362001604565b5b5f151560115f8573ffffffffffffffffffffffffffffffffffffffff1673ffffffffffffffffffffffffffffffffffffffff1681526020019081526020015f205f8461ffff1663ffffffff1681526020019081526020015f205f9054906101000a900460ff1615150362001a3b5762001a3a8383620090d1565b5b80600d5f8573ffffffffffffffffffffffffffffffffffffffff1673ffffffffffffffffffffffffffffffffffffffff1681526020019081526020015f206008015f8461ffff1661ffff1681526020019081526020015f205f0160186101000a81548163ffffffff021916908363ffffffff160217905550505050565b8162001acd825f015163ffffffff166200927c565b5f62001adf8263ffffffff1662009294565b602001515f6002811062001af85762001af762013204565b5b602002015190505f62001b118363ffffffff1662009294565b6020015160016002811062001b2b5762001b2a62013204565b5b60200201519050600f5f8573ffffffffffffffffffffffffffffffffffffffff1673ffffffffffffffffffffffffffffffffffffffff1681526020019081526020015f205f8367ffffffffffffffff1667ffffffffffffffff1681526020019081526020015f205f9054906101000a900460ff1662001bbc5762001baf826200394b565b62001bbb848362008ee5565b5b600f5f8573ffffffffffffffffffffffffffffffffffffffff1673ffffffffffffffffffffffffffffffffffffffff1681526020019081526020015f205f8267ffffffffffffffff1667ffffffffffffffff1681526020019081526020015f205f9054906101000a900460ff1662001c465762001c39816200394b565b62001c45848262008ee5565b5b5f62001c5b865f015163ffffffff166200927c565b90505f62001c698262009385565b90505f81602001515f6002811062001c865762001c8562013204565b5b602002015190505f826020015160016002811062001ca95762001ca862013204565b5b602002015190505f600a5f8467ffffffffffffffff1667ffffffffffffffff1681526020019081526020015f2060030160149054906101000a900460ff1690505f600a5f8567ffffffffffffffff1667ffffffffffffffff1681526020019081526020015f2060030160159054906101000a900460ff1690505f62001d3c83600a62001d36919062013381565b62009409565b62001d478862005586565b62001d53919062012b4d565b90505f8167ffffffffffffffff1614801562001d7c5750600960049054906101000a900460ff16155b1562001dbf576040517f08c379a000000000000000000000000000000000000000000000000000000000815260040162001db6906201347b565b60405180910390fd5b62001dcb8c8262009467565b1562001e12575f8c6060015190508c602001511562001dfa5762001df48e8787868686620094be565b62001e0b565b62001e0a8e8787868686620097c3565b5b5062001fd3565b601960405180604001604052808f73ffffffffffffffffffffffffffffffffffffffff1681526020018e815250908060018154018082558091505060019003905f5260205f2090600302015f909190919091505f820151815f015f6101000a81548173ffffffffffffffffffffffffffffffffffffffff021916908373ffffffffffffffffffffffffffffffffffffffff1602179055506020820151816001015f820151815f015f6101000a81548163ffffffff021916908363ffffffff1602179055506020820151815f0160046101000a81548160ff0219169083151502179055506040820151815f0160056101000a81548167ffffffffffffffff021916908367ffffffffffffffff1602179055506060820151815f01600d6101000a81548167ffffffffffffffff021916908367ffffffffffffffff1602179055506080820151815f0160156101000a81548160ff02191690831515021790555060a0820151815f0160166101000a81548160ff021916908360ff16021790555060c0820151816001015f6101000a8154816fffffffffffffffffffffffffffffffff02191690836fffffffffffffffffffffffffffffffff160217905550505050505b50505050505050505050505050565b600162ffffff168362ffffff16036200205b575f82828101906200200791906201349b565b9050612710815f015163ffffffff1610806200202f5750620186a0815f015163ffffffff1610155b15620020475762002041858262003c24565b62002054565b62002053858262001ab8565b5b506200219a565b600262ffffff168362ffffff160362002090576200208a848383810190620020849190620134cb565b6200562f565b6200219a565b600362ffffff168362ffffff1603620020c557620020bf848383810190620020b99190620134fb565b620048ca565b6200219a565b600462ffffff168362ffffff1603620020fa57620020f4848383810190620020ee91906201352b565b62005f59565b6200219a565b600562ffffff168362ffffff16036200212f57620021298483838101906200212391906201355b565b62006aa1565b6200219a565b600662ffffff168362ffffff160362002164576200215e8483838101906200215891906201358b565b62002a5a565b6200219a565b600762ffffff168362ffffff16036200219957620021938483838101906200218d9190620135bb565b620076d4565b6200219a565b5b50505050565b620021aa620109ed565b5f600d5f8573ffffffffffffffffffffffffffffffffffffffff1673ffffffffffffffffffffffffffffffffffffffff1681526020019081526020015f206002015f8473ffffffffffffffffffffffffffffffffffffffff1673ffffffffffffffffffffffffffffffffffffffff1681526020019081526020015f206040518060400160405290815f82015f9054906101000a900467ffffffffffffffff1667ffffffffffffffff1667ffffffffffffffff1681526020015f820160089054906101000a900467ffffffffffffffff1667ffffffffffffffff1667ffffffffffffffff168152505090505f5f601d5f8673ffffffffffffffffffffffffffffffffffffffff1673ffffffffffffffffffffffffffffffffffffffff1681526020019081526020015f2054146200231e57601d5f8573ffffffffffffffffffffffffffffffffffffffff1673ffffffffffffffffffffffffffffffffffffffff1681526020019081526020015f205462002328565b670de0b6b3a76400005b90505f5f601c5f8873ffffffffffffffffffffffffffffffffffffffff1673ffffffffffffffffffffffffffffffffffffffff1681526020019081526020015f205f8773ffffffffffffffffffffffffffffffffffffffff1673ffffffffffffffffffffffffffffffffffffffff1681526020019081526020015f2054146200242a57601c5f8773ffffffffffffffffffffffffffffffffffffffff1673ffffffffffffffffffffffffffffffffffffffff1681526020019081526020015f205f8673ffffffffffffffffffffffffffffffffffffffff1673ffffffffffffffffffffffffffffffffffffffff1681526020019081526020015f205462002434565b670de0b6b3a76400005b90505f821462002485578082845f015167ffffffffffffffff166200245a919062012f1c565b620024669190620135eb565b835f019067ffffffffffffffff16908167ffffffffffffffff16815250505b82935050505092915050565b60605f1515600d5f8473ffffffffffffffffffffffffffffffffffffffff1673ffffffffffffffffffffffffffffffffffffffff1681526020019081526020015f205f015f9054906101000a900460ff161515148015620024fe5750600960049054906101000a900460ff165b1562002517576200250f8262009b1c565b9050620027a0565b5f62002562600d5f8573ffffffffffffffffffffffffffffffffffffffff1673ffffffffffffffffffffffffffffffffffffffff1681526020019081526020015f2060040162009bff565b9050805167ffffffffffffffff81111562002582576200258162010f9f565b5b604051908082528060200260200182016040528015620025bf57816020015b620025ab62010a19565b815260200190600190039081620025a15790505b5091505f5b82518110156200279d57818181518110620025e457620025e362013204565b5b602002602001015183828151811062002602576200260162013204565b5b60200260200101515f019073ffffffffffffffffffffffffffffffffffffffff16908173ffffffffffffffffffffffffffffffffffffffff168152505062002668848383815181106200265a576200265962013204565b5b602002602001015162009c20565b8382815181106200267e576200267d62013204565b5b60200260200101516020019067ffffffffffffffff16908167ffffffffffffffff1681525050600d5f8573ffffffffffffffffffffffffffffffffffffffff1673ffffffffffffffffffffffffffffffffffffffff1681526020019081526020015f206006015f838381518110620026fb57620026fa62013204565b5b602002602001015173ffffffffffffffffffffffffffffffffffffffff1673ffffffffffffffffffffffffffffffffffffffff1681526020019081526020015f206001015f9054906101000a900467ffffffffffffffff1683828151811062002769576200276862013204565b5b60200260200101516040019067ffffffffffffffff16908167ffffffffffffffff16815250508080600101915050620025c4565b50505b919050565b5f620027b1846200762b565b905081156200282e5761271083612710620027cd919062012b0b565b82620027da919062012b4d565b620027e69190620129c3565b60135f8663ffffffff1663ffffffff1681526020019081526020015f205f6101000a81548167ffffffffffffffff021916908367ffffffffffffffff1602179055506200289d565b6127108361271062002841919062013622565b826200284e919062012b4d565b6200285a9190620129c3565b60135f8663ffffffff1663ffffffff1681526020019081526020015f205f6101000a81548167ffffffffffffffff021916908367ffffffffffffffff1602179055505b50505050565b5f5f600a5f8463ffffffff1667ffffffffffffffff1681526020019081526020015f205f018054620028d59062012c22565b9050119050919050565b80600a5f8467ffffffffffffffff1667ffffffffffffffff1681526020019081526020015f205f820151815f0190816200291a919062012e2e565b50602082015181600101908162002932919062013738565b506040820151816002015f6101000a81548167ffffffffffffffff021916908367ffffffffffffffff16021790555060608201518160020160086101000a81548173ffffffffffffffffffffffffffffffffffffffff021916908373ffffffffffffffffffffffffffffffffffffffff1602179055506080820151816003015f6101000a81548173ffffffffffffffffffffffffffffffffffffffff021916908373ffffffffffffffffffffffffffffffffffffffff16021790555060a08201518160030160146101000a81548160ff021916908360ff16021790555060c08201518160030160156101000a81548160ff021916908360ff16021790555060e08201518160030160166101000a81548160ff02191690835f0b60ff1602179055509050505050565b818160200151600f5f8373ffffffffffffffffffffffffffffffffffffffff1673ffffffffffffffffffffffffffffffffffffffff1681526020019081526020015f205f8267ffffffffffffffff1667ffffffffffffffff1681526020019081526020015f205f9054906101000a900460ff1662002aea5762002add816200394b565b62002ae9828262008ee5565b5b835f1515600d5f8373ffffffffffffffffffffffffffffffffffffffff1673ffffffffffffffffffffffffffffffffffffffff1681526020019081526020015f205f015f9054906101000a900460ff16151503156200367f57835f01518460200151600f5f8373ffffffffffffffffffffffffffffffffffffffff1673ffffffffffffffffffffffffffffffffffffffff1681526020019081526020015f205f8267ffffffffffffffff1667ffffffffffffffff1681526020019081526020015f205f9054906101000a900460ff1662002bd65762002bc9816200394b565b62002bd5828262008ee5565b5b600d5f8873ffffffffffffffffffffffffffffffffffffffff1673ffffffffffffffffffffffffffffffffffffffff1681526020019081526020015f206001015f876020015167ffffffffffffffff1667ffffffffffffffff1681526020019081526020015f205f9054906101000a900467ffffffffffffffff1667ffffffffffffffff16866040015167ffffffffffffffff16111562002cae576040517f08c379a000000000000000000000000000000000000000000000000000000000815260040162002ca590620138a3565b60405180910390fd5b5f1515600d5f885f015173ffffffffffffffffffffffffffffffffffffffff1673ffffffffffffffffffffffffffffffffffffffff1681526020019081526020015f205f015f9054906101000a900460ff16151514801562002d28575061271062002d1c875f015162009dfd565b67ffffffffffffffff16115b15620030eb5762002d398762009ed4565b6001600d5f885f015173ffffffffffffffffffffffffffffffffffffffff1673ffffffffffffffffffffffffffffffffffffffff1681526020019081526020015f205f015f6101000a81548160ff0219169083151502179055508560400151600d5f8973ffffffffffffffffffffffffffffffffffffffff1673ffffffffffffffffffffffffffffffffffffffff1681526020019081526020015f206001015f886020015167ffffffffffffffff1667ffffffffffffffff1681526020019081526020015f205f8282829054906101000a900467ffffffffffffffff1662002e22919062013622565b92506101000a81548167ffffffffffffffff021916908367ffffffffffffffff160217905550856040015160125f8973ffffffffffffffffffffffffffffffffffffffff1673ffffffffffffffffffffffffffffffffffffffff1681526020019081526020015f205f886020015167ffffffffffffffff1667ffffffffffffffff1681526020019081526020015f205f9054906101000a900467ffffffffffffffff1662002ed1919062012b0b565b600d5f885f015173ffffffffffffffffffffffffffffffffffffffff1673ffffffffffffffffffffffffffffffffffffffff1681526020019081526020015f206001015f886020015167ffffffffffffffff1667ffffffffffffffff1681526020019081526020015f205f8282829054906101000a900467ffffffffffffffff1662002f5e919062012b0b565b92506101000a81548167ffffffffffffffff021916908367ffffffffffffffff1602179055505f60125f8973ffffffffffffffffffffffffffffffffffffffff1673ffffffffffffffffffffffffffffffffffffffff1681526020019081526020015f205f886020015167ffffffffffffffff1667ffffffffffffffff1681526020019081526020015f205f6101000a81548167ffffffffffffffff021916908367ffffffffffffffff1602179055506001600e5f885f015173ffffffffffffffffffffffffffffffffffffffff1673ffffffffffffffffffffffffffffffffffffffff1681526020019081526020015f205f6101000a81548160ff0219169083151502179055506001600f5f885f015173ffffffffffffffffffffffffffffffffffffffff1673ffffffffffffffffffffffffffffffffffffffff1681526020019081526020015f205f886020015167ffffffffffffffff1667ffffffffffffffff1681526020019081526020015f205f6101000a81548160ff0219169083151502179055506200367c565b5f620030fb87602001516200a155565b90508660400151600d5f8a73ffffffffffffffffffffffffffffffffffffffff1673ffffffffffffffffffffffffffffffffffffffff1681526020019081526020015f206001015f896020015167ffffffffffffffff1667ffffffffffffffff1681526020019081526020015f205f8282829054906101000a900467ffffffffffffffff166200318c919062013622565b92506101000a81548167ffffffffffffffff021916908367ffffffffffffffff1602179055508073ffffffffffffffffffffffffffffffffffffffff16875f015173ffffffffffffffffffffffffffffffffffffffff1614620032a7578660400151600d5f895f015173ffffffffffffffffffffffffffffffffffffffff1673ffffffffffffffffffffffffffffffffffffffff1681526020019081526020015f206001015f896020015167ffffffffffffffff1667ffffffffffffffff1681526020019081526020015f205f8282829054906101000a900467ffffffffffffffff166200327b919062012b0b565b92506101000a81548167ffffffffffffffff021916908367ffffffffffffffff1602179055506200367a565b5f620032b26200891e565b67ffffffffffffffff16886020015167ffffffffffffffff16036200345f576402540be400886040015167ffffffffffffffff16620032f2919062012f1c565b90506200332482828473ffffffffffffffffffffffffffffffffffffffff16316200331e9190620138c3565b6200a1cc565b737109709ecfa91a80626ff3989d68f67f5b1dd12d73ffffffffffffffffffffffffffffffffffffffff166306447d56836040518263ffffffff1660e01b81526004016200337391906201390e565b5f604051808303815f87803b1580156200338b575f5ffd5b505af11580156200339e573d5f5f3e3d5ffd5b505050505f8973ffffffffffffffffffffffffffffffffffffffff168261753090604051620033cd906201395a565b5f60405180830381858888f193505050503d805f81146200340a576040519150601f19603f3d011682016040523d82523d5f602084013e6200340f565b606091505b505090508062003456576040517f08c379a00000000000000000000000000000000000000000000000000000000081526004016200344d90620139be565b60405180910390fd5b5050506200367c565b5f600a5f8a6020015167ffffffffffffffff1667ffffffffffffffff1681526020019081526020015f206003015f9054906101000a900473ffffffffffffffffffffffffffffffffffffffff169050620034f68960400151600a5f8c6020015167ffffffffffffffff1667ffffffffffffffff1681526020019081526020015f2060030160169054906101000a90045f0b6200a25e565b9150620035026200a2eb565b73ffffffffffffffffffffffffffffffffffffffff168173ffffffffffffffffffffffffffffffffffffffff1614620035cc57620035cb8184848473ffffffffffffffffffffffffffffffffffffffff166370a08231886040518263ffffffff1660e01b81526004016200357791906201390e565b602060405180830381865afa15801562003593573d5f5f3e3d5ffd5b505050506040513d601f19601f82011682018060405250810190620035b99190620139f4565b620035c59190620138c3565b6200a32c565b5b737109709ecfa91a80626ff3989d68f67f5b1dd12d73ffffffffffffffffffffffffffffffffffffffff166306447d56846040518263ffffffff1660e01b81526004016200361b91906201390e565b5f604051808303815f87803b15801562003633575f5ffd5b505af115801562003646573d5f5f3e3d5ffd5b50505050620036778a838373ffffffffffffffffffffffffffffffffffffffff166200a33f9092919063ffffffff16565b50505b505b50505b5050505050565b5f600b5f8361ffff1663ffffffff1681526020019081526020015f2060010160059054906101000a900460ff1660ff169050919050565b620036c762010a61565b5f600c5f8463ffffffff1663ffffffff1681526020019081526020015f205f018054620036f49062012c22565b9050148015620037105750600960049054906101000a900460ff165b156200372957620037218262009385565b905062003865565b600c5f8363ffffffff1663ffffffff1681526020019081526020015f206040518060400160405290815f82018054620037629062012c22565b80601f0160208091040260200160405190810160405280929190818152602001828054620037909062012c22565b8015620037df5780601f10620037b557610100808354040283529160200191620037df565b820191905f5260205f20905b815481529060010190602001808311620037c157829003601f168201915b505050505081526020016001820160028060200260405190810160405280929190826002801562003859576020028201915f905b82829054906101000a900467ffffffffffffffff1667ffffffffffffffff1681526020019060080190602082600701049283019260010382029150808411620038135790505b50505050508152505090505b919050565b5f5f1515600d5f8473ffffffffffffffffffffffffffffffffffffffff1673ffffffffffffffffffffffffffffffffffffffff1681526020019081526020015f205f015f9054906101000a900460ff161515148015620038d65750600960049054906101000a900460ff165b15620038ef57620038e7826200a3c2565b905062003946565b600d5f8373ffffffffffffffffffffffffffffffffffffffff1673ffffffffffffffffffffffffffffffffffffffff1681526020019081526020015f206007015f9054906101000a900467ffffffffffffffff1690505b919050565b5f600a5f8367ffffffffffffffff1667ffffffffffffffff1681526020019081526020015f205f018054620039809062012c22565b90501162003bd7576200399262010a83565b6200399d826200a44d565b9050600173ffffffffffffffffffffffffffffffffffffffff16816080015173ffffffffffffffffffffffffffffffffffffffff1603620039df575062003bd7565b80600a5f8467ffffffffffffffff1667ffffffffffffffff1681526020019081526020015f205f820151815f01908162003a1a919062012e2e565b50602082015181600101908162003a32919062013738565b506040820151816002015f6101000a81548167ffffffffffffffff021916908367ffffffffffffffff16021790555060608201518160020160086101000a81548173ffffffffffffffffffffffffffffffffffffffff021916908373ffffffffffffffffffffffffffffffffffffffff1602179055506080820151816003015f6101000a81548173ffffffffffffffffffffffffffffffffffffffff021916908373ffffffffffffffffffffffffffffffffffffffff16021790555060a08201518160030160146101000a81548160ff021916908360ff16021790555060c08201518160030160156101000a81548160ff021916908360ff16021790555060e08201518160030160166101000a81548160ff02191690835f0b60ff1602179055509050505f8267ffffffffffffffff16148062003b7a575061010c8267ffffffffffffffff16145b8062003b9157506101688267ffffffffffffffff16145b1562003bd557600160235f8467ffffffffffffffff1667ffffffffffffffff1681526020019081526020015f205f6101000a81548160ff0219169083151502179055505b505b50565b80601d5f8473ffffffffffffffffffffffffffffffffffffffff1673ffffffffffffffffffffffffffffffffffffffff1681526020019081526020015f20819055505050565b5f81565b81815f01515f600b5f8361ffff1663ffffffff1681526020019081526020015f2060010160059054906101000a900460ff1660ff160362003c7a5762003c798162003c738361ffff166200a5b7565b620054c5565b5b5f151560115f8473ffffffffffffffffffffffffffffffffffffffff1673ffffffffffffffffffffffffffffffffffffffff1681526020019081526020015f205f8361ffff1663ffffffff1681526020019081526020015f205f9054906101000a900460ff1615150362003d005762003cf3826200a635565b62003cff8282620090d1565b5b5f835f015190505f600d5f8773ffffffffffffffffffffffffffffffffffffffff1673ffffffffffffffffffffffffffffffffffffffff1681526020019081526020015f206008015f8361ffff1661ffff1681526020019081526020015f206040518060a00160405290815f82015f9054906101000a900460070b60070b60070b81526020015f820160089054906101000a900467ffffffffffffffff1667ffffffffffffffff1667ffffffffffffffff1681526020015f820160109054906101000a900460070b60070b60070b81526020015f820160189054906101000a900463ffffffff1663ffffffff1663ffffffff1681526020015f8201601c9054906101000a900460ff16151515158152505090505f816080015190505f62003e2b8461ffff166200762b565b67ffffffffffffffff1690505f606462003e498661ffff166200a644565b62003e55919062012f1c565b90505f62003e678661ffff166200a68f565b905062003e7f8960600151600883604001516200a780565b896060019067ffffffffffffffff16908167ffffffffffffffff16815250508362003f2b5788602001511562003eef57886040015167ffffffffffffffff16821162003ee95762003ed08a6200a815565b62003edd8a8a856200acf4565b62003ee88a6200a815565b5b62003f2a565b886040015167ffffffffffffffff16821062003f295762003f108a6200a815565b62003f1d8a8a856200ba30565b62003f288a6200a815565b5b5b5b50505050505050505050565b8060135f8463ffffffff1663ffffffff1681526020019081526020015f205f6101000a81548167ffffffffffffffff021916908367ffffffffffffffff1602179055505050565b620f42408161ffff16111562003fcb576040517f08c379a000000000000000000000000000000000000000000000000000000000815260040162003fc29062013a72565b60405180910390fd5b8060095f6101000a81548161ffff021916908361ffff16021790555050565b5f62003ff760206200c740565b90505f81036200400857506200407f565b5f8190505b5f8111156200407c575f6200403b6001836200402a91906201295c565b60206200c75590919063ffffffff16565b90505f6010825f1c901c90506200405281620010dd565b1562004064576200406381620080a5565b5b50508080620040739062012bc9565b9150506200400d565b50505b565b6200408b62010b00565b5f1515600d5f8473ffffffffffffffffffffffffffffffffffffffff1673ffffffffffffffffffffffffffffffffffffffff1681526020019081526020015f205f015f9054906101000a900460ff161515148015620040f65750600960049054906101000a900460ff165b156200412757604051806020016040528062004112846200a3c2565b67ffffffffffffffff16815250905062004135565b62004132826200c76c565b90505b919050565b620041458462001604565b60405180606001604052808473ffffffffffffffffffffffffffffffffffffffff1681526020018367ffffffffffffffff1681526020018267ffffffffffffffff16815250600d5f8673ffffffffffffffffffffffffffffffffffffffff1673ffffffffffffffffffffffffffffffffffffffff1681526020019081526020015f206006015f8573ffffffffffffffffffffffffffffffffffffffff1673ffffffffffffffffffffffffffffffffffffffff1681526020019081526020015f205f820151815f015f6101000a81548173ffffffffffffffffffffffffffffffffffffffff021916908373ffffffffffffffffffffffffffffffffffffffff1602179055506020820151815f0160146101000a81548167ffffffffffffffff021916908367ffffffffffffffff1602179055506040820151816001015f6101000a81548167ffffffffffffffff021916908367ffffffffffffffff16021790555090505050505050565b817f0000000000000000000000000000000000000000000000000000000000000000600f5f8373ffffffffffffffffffffffffffffffffffffffff1673ffffffffffffffffffffffffffffffffffffffff1681526020019081526020015f205f8267ffffffffffffffff1667ffffffffffffffff1681526020019081526020015f205f9054906101000a900460ff166200435a576200434d816200394b565b62004359828262008ee5565b5b600d5f8573ffffffffffffffffffffffffffffffffffffffff1673ffffffffffffffffffffffffffffffffffffffff1681526020019081526020015f205f015f9054906101000a900460ff16156200449b57620043c96402540be40084620043c39190620135eb565b62009409565b600d5f8673ffffffffffffffffffffffffffffffffffffffff1673ffffffffffffffffffffffffffffffffffffffff1681526020019081526020015f206001015f7f000000000000000000000000000000000000000000000000000000000000000067ffffffffffffffff1667ffffffffffffffff1681526020019081526020015f205f8282829054906101000a900467ffffffffffffffff166200446f919062012b0b565b92506101000a81548167ffffffffffffffff021916908367ffffffffffffffff16021790555062004582565b620044b86402540be40084620044b29190620135eb565b62009409565b60125f8673ffffffffffffffffffffffffffffffffffffffff1673ffffffffffffffffffffffffffffffffffffffff1681526020019081526020015f205f7f000000000000000000000000000000000000000000000000000000000000000067ffffffffffffffff1667ffffffffffffffff1681526020019081526020015f205f8282829054906101000a900467ffffffffffffffff166200455b919062012b0b565b92506101000a81548167ffffffffffffffff021916908367ffffffffffffffff1602179055505b5050505050565b600960049054906101000a900460ff1681565b620045a78462001604565b600d5f8573ffffffffffffffffffffffffffffffffffffffff1673ffffffffffffffffffffffffffffffffffffffff1681526020019081526020015f206002015f8473ffffffffffffffffffffffffffffffffffffffff1673ffffffffffffffffffffffffffffffffffffffff1681526020019081526020015f205f015f9054906101000a900467ffffffffffffffff1660165f8573ffffffffffffffffffffffffffffffffffffffff1673ffffffffffffffffffffffffffffffffffffffff1681526020019081526020015f205f8282829054906101000a900467ffffffffffffffff1662004698919062013622565b92506101000a81548167ffffffffffffffff021916908367ffffffffffffffff1602179055508160165f8573ffffffffffffffffffffffffffffffffffffffff1673ffffffffffffffffffffffffffffffffffffffff1681526020019081526020015f205f8282829054906101000a900467ffffffffffffffff166200471f919062012b0b565b92506101000a81548167ffffffffffffffff021916908367ffffffffffffffff16021790555081600d5f8673ffffffffffffffffffffffffffffffffffffffff1673ffffffffffffffffffffffffffffffffffffffff1681526020019081526020015f206002015f8573ffffffffffffffffffffffffffffffffffffffff1673ffffffffffffffffffffffffffffffffffffffff1681526020019081526020015f205f015f6101000a81548167ffffffffffffffff021916908367ffffffffffffffff1602179055505f8167ffffffffffffffff16116200481f576103e8610e10426200480d9190620138c3565b62004819919062012f1c565b62004821565b805b600d5f8673ffffffffffffffffffffffffffffffffffffffff1673ffffffffffffffffffffffffffffffffffffffff1681526020019081526020015f206002015f8573ffffffffffffffffffffffffffffffffffffffff1673ffffffffffffffffffffffffffffffffffffffff1681526020019081526020015f205f0160086101000a81548167ffffffffffffffff021916908367ffffffffffffffff16021790555050505050565b817f0000000000000000000000000000000000000000000000000000000000000000600f5f8373ffffffffffffffffffffffffffffffffffffffff1673ffffffffffffffffffffffffffffffffffffffff1681526020019081526020015f205f8267ffffffffffffffff1667ffffffffffffffff1681526020019081526020015f205f9054906101000a900460ff16620049765762004969816200394b565b62004975828262008ee5565b5b835f1515600d5f8373ffffffffffffffffffffffffffffffffffffffff1673ffffffffffffffffffffffffffffffffffffffff1681526020019081526020015f205f015f9054906101000a900460ff1615150315620050a9575f620049dc601a6200ca54565b1462004a0557620049fb845f0151601a6200ca6990919063ffffffff16565b62004a04575f5ffd5b5b5f600d5f8773ffffffffffffffffffffffffffffffffffffffff1673ffffffffffffffffffffffffffffffffffffffff1681526020019081526020015f206006015f865f015173ffffffffffffffffffffffffffffffffffffffff1673ffffffffffffffffffffffffffffffffffffffff1681526020019081526020015f20905062004a9586865f015162009c20565b815f0160146101000a81548167ffffffffffffffff021916908367ffffffffffffffff160217905550601f54601e5f8873ffffffffffffffffffffffffffffffffffffffff1673ffffffffffffffffffffffffffffffffffffffff1681526020019081526020015f205f875f015173ffffffffffffffffffffffffffffffffffffffff1673ffffffffffffffffffffffffffffffffffffffff1681526020019081526020015f208190555062004b97855f0151600d5f8973ffffffffffffffffffffffffffffffffffffffff1673ffffffffffffffffffffffffffffffffffffffff1681526020019081526020015f206004016200ca9890919063ffffffff16565b5084604001511562004dc357805f0160149054906101000a900467ffffffffffffffff1667ffffffffffffffff16856020015167ffffffffffffffff161115801562004c125750806001015f9054906101000a900467ffffffffffffffff1667ffffffffffffffff166103e84262004c10919062012f1c565b115b1562004d80578460200151600d5f8873ffffffffffffffffffffffffffffffffffffffff1673ffffffffffffffffffffffffffffffffffffffff1681526020019081526020015f206003015f8282829054906101000a900467ffffffffffffffff1662004c80919062012b0b565b92506101000a81548167ffffffffffffffff021916908367ffffffffffffffff1602179055508460200151815f0160148282829054906101000a900467ffffffffffffffff1662004cd2919062013622565b92506101000a81548167ffffffffffffffff021916908367ffffffffffffffff1602179055505f815f0160149054906101000a900467ffffffffffffffff1667ffffffffffffffff160362004d7a5762004d78855f0151600d5f8973ffffffffffffffffffffffffffffffffffffffff1673ffffffffffffffffffffffffffffffffffffffff1681526020019081526020015f206004016200cac790919063ffffffff16565b505b62004dbd565b6040517f08c379a000000000000000000000000000000000000000000000000000000000815260040162004db49062013b06565b60405180910390fd5b620050a7565b600d5f8773ffffffffffffffffffffffffffffffffffffffff1673ffffffffffffffffffffffffffffffffffffffff1681526020019081526020015f206003015f9054906101000a900467ffffffffffffffff1667ffffffffffffffff16856020015167ffffffffffffffff161162005069578460200151600d5f8873ffffffffffffffffffffffffffffffffffffffff1673ffffffffffffffffffffffffffffffffffffffff1681526020019081526020015f206003015f8282829054906101000a900467ffffffffffffffff1662004e9e919062013622565b92506101000a81548167ffffffffffffffff021916908367ffffffffffffffff1602179055508460200151600d5f8873ffffffffffffffffffffffffffffffffffffffff1673ffffffffffffffffffffffffffffffffffffffff1681526020019081526020015f206006015f875f015173ffffffffffffffffffffffffffffffffffffffff1673ffffffffffffffffffffffffffffffffffffffff1681526020019081526020015f205f0160148282829054906101000a900467ffffffffffffffff1662004f6d919062012b0b565b92506101000a81548167ffffffffffffffff021916908367ffffffffffffffff16021790555062004fbd6103e8620151804262004fab9190620138c3565b62004fb7919062012f1c565b62009409565b600d5f8873ffffffffffffffffffffffffffffffffffffffff1673ffffffffffffffffffffffffffffffffffffffff1681526020019081526020015f206006015f875f015173ffffffffffffffffffffffffffffffffffffffff1673ffffffffffffffffffffffffffffffffffffffff1681526020019081526020015f206001015f6101000a81548167ffffffffffffffff021916908367ffffffffffffffff160217905550620050a6565b6040517f08c379a00000000000000000000000000000000000000000000000000000000081526004016200509d9062013b74565b60405180910390fd5b5b505b5050505050565b60095f9054906101000a900461ffff1681565b8060155f8463ffffffff1663ffffffff1681526020019081526020015f205f6101000a81548167ffffffffffffffff021916908367ffffffffffffffff1602179055505050565b6200511462010b1c565b5f600b5f8463ffffffff1663ffffffff1681526020019081526020015f205f018054620051419062012c22565b90501480156200515d5750600960049054906101000a900460ff165b1562005176576200516e826200a5b7565b9050620052b2565b600b5f8363ffffffff1663ffffffff1681526020019081526020015f206040518060a00160405290815f82018054620051af9062012c22565b80601f0160208091040260200160405190810160405280929190818152602001828054620051dd9062012c22565b80156200522c5780601f1062005202576101008083540402835291602001916200522c565b820191905f5260205f20905b8154815290600101906020018083116200520e57829003601f168201915b50505050508152602001600182015f9054906101000a900463ffffffff1663ffffffff1663ffffffff1681526020016001820160049054906101000a900460ff1660ff1660ff1681526020016001820160059054906101000a900460ff1660ff1660ff1681526020016001820160069054906101000a900460ff16151515158152505090505b919050565b620052c162010b55565b5f1515600d5f8573ffffffffffffffffffffffffffffffffffffffff1673ffffffffffffffffffffffffffffffffffffffff1681526020019081526020015f205f015f9054906101000a900460ff1615151480156200532c5750600960049054906101000a900460ff165b1562005346576200533e83836200caf6565b905062005452565b600d5f8473ffffffffffffffffffffffffffffffffffffffff1673ffffffffffffffffffffffffffffffffffffffff1681526020019081526020015f206008015f8361ffff1661ffff1681526020019081526020015f206040518060a00160405290815f82015f9054906101000a900460070b60070b60070b81526020015f820160089054906101000a900467ffffffffffffffff1667ffffffffffffffff1667ffffffffffffffff1681526020015f820160109054906101000a900460070b60070b60070b81526020015f820160189054906101000a900463ffffffff1663ffffffff1663ffffffff1681526020015f8201601c9054906101000a900460ff16151515158152505090505b92915050565b620f42408161ffff161115620054a5576040517f08c379a00000000000000000000000000000000000000000000000000000000081526004016200549c9062013a72565b60405180910390fd5b80600960026101000a81548161ffff021916908361ffff16021790555050565b80600b5f8461ffff1663ffffffff1681526020019081526020015f205f820151815f019081620054f6919062012e2e565b506020820151816001015f6101000a81548163ffffffff021916908363ffffffff16021790555060408201518160010160046101000a81548160ff021916908360ff16021790555060608201518160010160056101000a81548160ff021916908360ff16021790555060808201518160010160066101000a81548160ff0219169083151502179055509050505050565b5f5f60155f8463ffffffff1663ffffffff1681526020019081526020015f205f9054906101000a900467ffffffffffffffff1667ffffffffffffffff16148015620055dd5750600960049054906101000a900460ff165b15620055f657620055ee826200cbc9565b90506200562a565b60155f8363ffffffff1663ffffffff1681526020019081526020015f205f9054906101000a900467ffffffffffffffff1690505b919050565b81815f015160105f8373ffffffffffffffffffffffffffffffffffffffff1673ffffffffffffffffffffffffffffffffffffffff1681526020019081526020015f205f8273ffffffffffffffffffffffffffffffffffffffff1673ffffffffffffffffffffffffffffffffffffffff1681526020019081526020015f205f9054906101000a900460ff16620056d657620056c9826200a635565b620056d582826200cc44565b5b835f1515600d5f8373ffffffffffffffffffffffffffffffffffffffff1673ffffffffffffffffffffffffffffffffffffffff1681526020019081526020015f205f015f9054906101000a900460ff161515031562005f52576200573e85855f0151620021a0565b5f0151600d5f8773ffffffffffffffffffffffffffffffffffffffff1673ffffffffffffffffffffffffffffffffffffffff1681526020019081526020015f206002015f865f015173ffffffffffffffffffffffffffffffffffffffff1673ffffffffffffffffffffffffffffffffffffffff1681526020019081526020015f205f015f6101000a81548167ffffffffffffffff021916908367ffffffffffffffff160217905550601d5f855f015173ffffffffffffffffffffffffffffffffffffffff1673ffffffffffffffffffffffffffffffffffffffff1681526020019081526020015f2054601c5f8773ffffffffffffffffffffffffffffffffffffffff1673ffffffffffffffffffffffffffffffffffffffff1681526020019081526020015f205f865f015173ffffffffffffffffffffffffffffffffffffffff1673ffffffffffffffffffffffffffffffffffffffff1681526020019081526020015f208190555083602001511562005c1d57600d5f8673ffffffffffffffffffffffffffffffffffffffff1673ffffffffffffffffffffffffffffffffffffffff1681526020019081526020015f206007015f9054906101000a900467ffffffffffffffff1667ffffffffffffffff16846040015167ffffffffffffffff161162005bda578360400151600d5f8773ffffffffffffffffffffffffffffffffffffffff1673ffffffffffffffffffffffffffffffffffffffff1681526020019081526020015f206002015f865f015173ffffffffffffffffffffffffffffffffffffffff1673ffffffffffffffffffffffffffffffffffffffff1681526020019081526020015f205f015f8282829054906101000a900467ffffffffffffffff16620059cc919062012b0b565b92506101000a81548167ffffffffffffffff021916908367ffffffffffffffff1602179055506103e8620151804262005a069190620138c3565b62005a12919062012f1c565b600d5f8773ffffffffffffffffffffffffffffffffffffffff1673ffffffffffffffffffffffffffffffffffffffff1681526020019081526020015f206002015f865f015173ffffffffffffffffffffffffffffffffffffffff1673ffffffffffffffffffffffffffffffffffffffff1681526020019081526020015f205f0160086101000a81548167ffffffffffffffff021916908367ffffffffffffffff1602179055508360400151600d5f8773ffffffffffffffffffffffffffffffffffffffff1673ffffffffffffffffffffffffffffffffffffffff1681526020019081526020015f206007015f8282829054906101000a900467ffffffffffffffff1662005b20919062013622565b92506101000a81548167ffffffffffffffff021916908367ffffffffffffffff160217905550836040015160165f865f015173ffffffffffffffffffffffffffffffffffffffff1673ffffffffffffffffffffffffffffffffffffffff1681526020019081526020015f205f8282829054906101000a900467ffffffffffffffff1662005bae919062012b0b565b92506101000a81548167ffffffffffffffff021916908367ffffffffffffffff16021790555062005c17565b6040517f08c379a000000000000000000000000000000000000000000000000000000000815260040162005c0e90620138a3565b60405180910390fd5b62005f51565b5f600d5f8773ffffffffffffffffffffffffffffffffffffffff1673ffffffffffffffffffffffffffffffffffffffff1681526020019081526020015f206002015f865f015173ffffffffffffffffffffffffffffffffffffffff1673ffffffffffffffffffffffffffffffffffffffff1681526020019081526020015f2090505f856040015167ffffffffffffffff161462005cbf57846040015162005cd7565b805f015f9054906101000a900467ffffffffffffffff165b856040019067ffffffffffffffff16908167ffffffffffffffff16815250506305f5e10060165f875f015173ffffffffffffffffffffffffffffffffffffffff1673ffffffffffffffffffffffffffffffffffffffff1681526020019081526020015f205f9054906101000a900467ffffffffffffffff1662005d5b9190620129c3565b67ffffffffffffffff16856040015167ffffffffffffffff16101562005db8576040517f08c379a000000000000000000000000000000000000000000000000000000000815260040162005daf9062013be2565b60405180910390fd5b805f015f9054906101000a900467ffffffffffffffff1667ffffffffffffffff16856040015167ffffffffffffffff161115801562005e275750426103e8825f0160089054906101000a900467ffffffffffffffff1662005e1a9190620129c3565b67ffffffffffffffff1611155b1562005f12578460400151815f015f8282829054906101000a900467ffffffffffffffff1662005e58919062013622565b92506101000a81548167ffffffffffffffff021916908367ffffffffffffffff1602179055508460400151600d5f8873ffffffffffffffffffffffffffffffffffffffff1673ffffffffffffffffffffffffffffffffffffffff1681526020019081526020015f206007015f8282829054906101000a900467ffffffffffffffff1662005ee6919062012b0b565b92506101000a81548167ffffffffffffffff021916908367ffffffffffffffff16021790555062005f4f565b6040517f08c379a000000000000000000000000000000000000000000000000000000000815260040162005f469062013c50565b60405180910390fd5b505b5b5050505050565b817f0000000000000000000000000000000000000000000000000000000000000000600f5f8373ffffffffffffffffffffffffffffffffffffffff1673ffffffffffffffffffffffffffffffffffffffff1681526020019081526020015f205f8267ffffffffffffffff1667ffffffffffffffff1681526020019081526020015f205f9054906101000a900460ff16620060055762005ff8816200394b565b62006004828262008ee5565b5b835f1515600d5f8373ffffffffffffffffffffffffffffffffffffffff1673ffffffffffffffffffffffffffffffffffffffff1681526020019081526020015f205f015f9054906101000a900460ff16151503156200627257600d5f8673ffffffffffffffffffffffffffffffffffffffff1673ffffffffffffffffffffffffffffffffffffffff1681526020019081526020015f206001015f7f000000000000000000000000000000000000000000000000000000000000000067ffffffffffffffff1667ffffffffffffffff1681526020019081526020015f205f9054906101000a900467ffffffffffffffff1667ffffffffffffffff16845f015167ffffffffffffffff16116200627157835f0151600d5f8773ffffffffffffffffffffffffffffffffffffffff1673ffffffffffffffffffffffffffffffffffffffff1681526020019081526020015f206001015f7f000000000000000000000000000000000000000000000000000000000000000067ffffffffffffffff1667ffffffffffffffff1681526020019081526020015f205f8282829054906101000a900467ffffffffffffffff16620061bd919062013622565b92506101000a81548167ffffffffffffffff021916908367ffffffffffffffff160217905550835f0151600d5f8773ffffffffffffffffffffffffffffffffffffffff1673ffffffffffffffffffffffffffffffffffffffff1681526020019081526020015f206003015f8282829054906101000a900467ffffffffffffffff166200624a919062012b0b565b92506101000a81548167ffffffffffffffff021916908367ffffffffffffffff1602179055505b5b5050505050565b5f5f1515600d5f8473ffffffffffffffffffffffffffffffffffffffff1673ffffffffffffffffffffffffffffffffffffffff1681526020019081526020015f205f015f9054906101000a900460ff161515148015620062e55750600960049054906101000a900460ff165b15620062fe57620062f6826200cdbc565b90506200634d565b600d5f8373ffffffffffffffffffffffffffffffffffffffff1673ffffffffffffffffffffffffffffffffffffffff1681526020019081526020015f205f015f9054906101000a900460ff1690505b919050565b6200636881601a6200ca9890919063ffffffff16565b5050565b6200637662010a83565b5f5f600a5f8563ffffffff1667ffffffffffffffff1681526020019081526020015f2060030160149054906101000a900460ff1660ff161480156200642a57505f73ffffffffffffffffffffffffffffffffffffffff16600a5f8563ffffffff1667ffffffffffffffff1681526020019081526020015f2060020160089054906101000a900473ffffffffffffffffffffffffffffffffffffffff1673ffffffffffffffffffffffffffffffffffffffff16145b9050808015620064465750600960049054906101000a900460ff165b15620064605762006457836200a44d565b915050620066e3565b600a5f8463ffffffff1667ffffffffffffffff1681526020019081526020015f20604051806101000160405290815f820180546200649e9062012c22565b80601f0160208091040260200160405190810160405280929190818152602001828054620064cc9062012c22565b80156200651b5780601f10620064f1576101008083540402835291602001916200651b565b820191905f5260205f20905b815481529060010190602001808311620064fd57829003601f168201915b5050505050815260200160018201805480602002602001604051908101604052809291908181526020018280548015620065a657602002820191905f5260205f20905f905b82829054906101000a900467ffffffffffffffff1667ffffffffffffffff1681526020019060080190602082600701049283019260010382029150808411620065605790505b50505050508152602001600282015f9054906101000a900467ffffffffffffffff1667ffffffffffffffff1667ffffffffffffffff1681526020016002820160089054906101000a900473ffffffffffffffffffffffffffffffffffffffff1673ffffffffffffffffffffffffffffffffffffffff1673ffffffffffffffffffffffffffffffffffffffff168152602001600382015f9054906101000a900473ffffffffffffffffffffffffffffffffffffffff1673ffffffffffffffffffffffffffffffffffffffff1673ffffffffffffffffffffffffffffffffffffffff1681526020016003820160149054906101000a900460ff1660ff1660ff1681526020016003820160159054906101000a900460ff1660ff1660ff1681526020016003820160169054906101000a90045f0b5f0b5f0b815250509150505b919050565b80601f8190555050565b5f620066fe8462005586565b905081156200677b57612710836127106200671a919062012b0b565b8262006727919062012b4d565b620067339190620129c3565b60155f8663ffffffff1663ffffffff1681526020019081526020015f205f6101000a81548167ffffffffffffffff021916908367ffffffffffffffff160217905550620067ea565b612710836127106200678e919062013622565b826200679b919062012b4d565b620067a79190620129c3565b60155f8663ffffffff1663ffffffff1681526020019081526020015f205f6101000a81548167ffffffffffffffff021916908367ffffffffffffffff1602179055505b50505050565b620067fa62010b97565b5f1515600d5f8473ffffffffffffffffffffffffffffffffffffffff1673ffffffffffffffffffffffffffffffffffffffff1681526020019081526020015f205f015f9054906101000a900460ff161515148015620068655750600960049054906101000a900460ff165b156200687e5762006876826200ce31565b905062006a95565b5f620068c9600d5f8573ffffffffffffffffffffffffffffffffffffffff1673ffffffffffffffffffffffffffffffffffffffff1681526020019081526020015f2060040162009bff565b90505f5b81518110156200693d576200690084838381518110620068f257620068f162013204565b5b602002602001015162009c20565b835f0181815162006912919062012b0b565b91509067ffffffffffffffff16908167ffffffffffffffff16815250508080600101915050620068cd565b50600d5f8473ffffffffffffffffffffffffffffffffffffffff1673ffffffffffffffffffffffffffffffffffffffff1681526020019081526020015f206003015f9054906101000a900467ffffffffffffffff16826020019067ffffffffffffffff16908167ffffffffffffffff16815250505f5b620069bf60176200868b565b81101562006a92575f620069e8620069e28360176200ceaf90919063ffffffff16565b62008761565b90508473ffffffffffffffffffffffffffffffffffffffff16815f015173ffffffffffffffffffffffffffffffffffffffff160362006a835783606001805180919062006a359062013c70565b67ffffffffffffffff1667ffffffffffffffff168152505080602001518460400181815162006a65919062012b0b565b91509067ffffffffffffffff16908167ffffffffffffffff16815250505b508080600101915050620069b3565b50505b919050565b620f424081565b817f0000000000000000000000000000000000000000000000000000000000000000600f5f8373ffffffffffffffffffffffffffffffffffffffff1673ffffffffffffffffffffffffffffffffffffffff1681526020019081526020015f205f8267ffffffffffffffff1667ffffffffffffffff1681526020019081526020015f205f9054906101000a900460ff1662006b4d5762006b40816200394b565b62006b4c828262008ee5565b5b835f1515600d5f8373ffffffffffffffffffffffffffffffffffffffff1673ffffffffffffffffffffffffffffffffffffffff1681526020019081526020015f205f015f9054906101000a900460ff161515031562006d82575f62006bb286620067f0565b90506005816060015167ffffffffffffffff161062006c08576040517f08c379a000000000000000000000000000000000000000000000000000000000815260040162006bff9062013d18565b60405180910390fd5b600d5f8773ffffffffffffffffffffffffffffffffffffffff1673ffffffffffffffffffffffffffffffffffffffff1681526020019081526020015f206003015f9054906101000a900467ffffffffffffffff1667ffffffffffffffff16855f015167ffffffffffffffff161162006d8057845f0151600d5f8873ffffffffffffffffffffffffffffffffffffffff1673ffffffffffffffffffffffffffffffffffffffff1681526020019081526020015f206003015f8282829054906101000a900467ffffffffffffffff1662006ce1919062013622565b92506101000a81548167ffffffffffffffff021916908367ffffffffffffffff1602179055505f60405180606001604052808873ffffffffffffffffffffffffffffffffffffffff168152602001875f015167ffffffffffffffff16815260200162093a804262006d539190620138c3565b63ffffffff16815250905062006d7e62006d6d826200cf2f565b60176200cf7e90919063ffffffff16565b505b505b5050505050565b5f60198054905090505b5f81111562007614575f601960018362006dae91906201295c565b8154811062006dc25762006dc162013204565b5b905f5260205f2090600302016040518060400160405290815f82015f9054906101000a900473ffffffffffffffffffffffffffffffffffffffff1673ffffffffffffffffffffffffffffffffffffffff1673ffffffffffffffffffffffffffffffffffffffff168152602001600182016040518060e00160405290815f82015f9054906101000a900463ffffffff1663ffffffff1663ffffffff1681526020015f820160049054906101000a900460ff161515151581526020015f820160059054906101000a900467ffffffffffffffff1667ffffffffffffffff1667ffffffffffffffff1681526020015f8201600d9054906101000a900467ffffffffffffffff1667ffffffffffffffff1667ffffffffffffffff1681526020015f820160159054906101000a900460ff161515151581526020015f820160169054906101000a900460ff1660ff1660ff168152602001600182015f9054906101000a90046fffffffffffffffffffffffffffffffff166fffffffffffffffffffffffffffffffff166fffffffffffffffffffffffffffffffff16815250508152505090505f62006f7b82602001515f015163ffffffff166200927c565b90505f62006f8f8263ffffffff1662009294565b90505f600a5f83602001515f6002811062006faf5762006fae62013204565b5b602002015167ffffffffffffffff1667ffffffffffffffff1681526020019081526020015f20604051806101000160405290815f8201805462006ff29062012c22565b80601f0160208091040260200160405190810160405280929190818152602001828054620070209062012c22565b80156200706f5780601f1062007045576101008083540402835291602001916200706f565b820191905f5260205f20905b8154815290600101906020018083116200705157829003601f168201915b5050505050815260200160018201805480602002602001604051908101604052809291908181526020018280548015620070fa57602002820191905f5260205f20905f905b82829054906101000a900467ffffffffffffffff1667ffffffffffffffff1681526020019060080190602082600701049283019260010382029150808411620070b45790505b50505050508152602001600282015f9054906101000a900467ffffffffffffffff1667ffffffffffffffff1667ffffffffffffffff1681526020016002820160089054906101000a900473ffffffffffffffffffffffffffffffffffffffff1673ffffffffffffffffffffffffffffffffffffffff1673ffffffffffffffffffffffffffffffffffffffff168152602001600382015f9054906101000a900473ffffffffffffffffffffffffffffffffffffffff1673ffffffffffffffffffffffffffffffffffffffff1673ffffffffffffffffffffffffffffffffffffffff1681526020016003820160149054906101000a900460ff1660ff1660ff1681526020016003820160159054906101000a900460ff1660ff1660ff1681526020016003820160169054906101000a90045f0b5f0b5f0b8152505090505f620072538260a00151600a6200724d919062013381565b62009409565b6200725e8562005586565b6200726a919062012b4d565b90506200727c85602001518262009467565b15620075f95762007295855f0151866020015162001ab8565b60196001601980549050620072ab91906201295c565b81548110620072bf57620072be62013204565b5b905f5260205f2090600302016019600188620072dc91906201295c565b81548110620072f057620072ef62013204565b5b905f5260205f2090600302015f82015f9054906101000a900473ffffffffffffffffffffffffffffffffffffffff16815f015f6101000a81548173ffffffffffffffffffffffffffffffffffffffff021916908373ffffffffffffffffffffffffffffffffffffffff16021790555060018201816001015f82015f9054906101000a900463ffffffff16815f015f6101000a81548163ffffffff021916908363ffffffff1602179055505f820160049054906101000a900460ff16815f0160046101000a81548160ff0219169083151502179055505f820160059054906101000a900467ffffffffffffffff16815f0160056101000a81548167ffffffffffffffff021916908367ffffffffffffffff1602179055505f8201600d9054906101000a900467ffffffffffffffff16815f01600d6101000a81548167ffffffffffffffff021916908367ffffffffffffffff1602179055505f820160159054906101000a900460ff16815f0160156101000a81548160ff0219169083151502179055505f820160169054906101000a900460ff16815f0160166101000a81548160ff021916908360ff160217905550600182015f9054906101000a90046fffffffffffffffffffffffffffffffff16816001015f6101000a8154816fffffffffffffffffffffffffffffffff02191690836fffffffffffffffffffffffffffffffff1602179055505050905050601980548062007511576200751062013d38565b5b600190038181905f5260205f2090600302015f5f82015f6101000a81549073ffffffffffffffffffffffffffffffffffffffff0219169055600182015f5f82015f6101000a81549063ffffffff02191690555f820160046101000a81549060ff02191690555f820160056101000a81549067ffffffffffffffff02191690555f8201600d6101000a81549067ffffffffffffffff02191690555f820160156101000a81549060ff02191690555f820160166101000a81549060ff0219169055600182015f6101000a8154906fffffffffffffffffffffffffffffffff02191690555050505090555b505050505080806200760b9062012bc9565b91505062006d93565b50565b600960029054906101000a900461ffff1681565b5f5f60135f8463ffffffff1663ffffffff1681526020019081526020015f205f9054906101000a900467ffffffffffffffff1667ffffffffffffffff16148015620076825750600960049054906101000a900460ff165b156200769b5762007693826200d079565b9050620076cf565b60135f8363ffffffff1663ffffffff1681526020019081526020015f205f9054906101000a900467ffffffffffffffff1690505b919050565b815f600f5f8373ffffffffffffffffffffffffffffffffffffffff1673ffffffffffffffffffffffffffffffffffffffff1681526020019081526020015f205f8267ffffffffffffffff1667ffffffffffffffff1681526020019081526020015f205f9054906101000a900460ff16620077605762007753816200394b565b6200775f828262008ee5565b5b835f1515600d5f8373ffffffffffffffffffffffffffffffffffffffff1673ffffffffffffffffffffffffffffffffffffffff1681526020019081526020015f205f015f9054906101000a900460ff161515031562007b6d57836020015115620079b157600d5f8673ffffffffffffffffffffffffffffffffffffffff1673ffffffffffffffffffffffffffffffffffffffff1681526020019081526020015f206001015f5f67ffffffffffffffff1667ffffffffffffffff1681526020019081526020015f205f9054906101000a900467ffffffffffffffff1667ffffffffffffffff1662007853855f01516200d0ee565b67ffffffffffffffff1611620079ab57835f0151600d5f8773ffffffffffffffffffffffffffffffffffffffff1673ffffffffffffffffffffffffffffffffffffffff1681526020019081526020015f206007015f8282829054906101000a900467ffffffffffffffff16620078ca919062012b0b565b92506101000a81548167ffffffffffffffff021916908367ffffffffffffffff160217905550620078fe845f01516200d0ee565b600d5f8773ffffffffffffffffffffffffffffffffffffffff1673ffffffffffffffffffffffffffffffffffffffff1681526020019081526020015f206001015f5f67ffffffffffffffff1667ffffffffffffffff1681526020019081526020015f205f8282829054906101000a900467ffffffffffffffff1662007984919062013622565b92506101000a81548167ffffffffffffffff021916908367ffffffffffffffff1602179055505b62007b6c565b600d5f8673ffffffffffffffffffffffffffffffffffffffff1673ffffffffffffffffffffffffffffffffffffffff1681526020019081526020015f206007015f9054906101000a900467ffffffffffffffff1667ffffffffffffffff16845f015167ffffffffffffffff161162007b6b57835f0151600d5f8773ffffffffffffffffffffffffffffffffffffffff1673ffffffffffffffffffffffffffffffffffffffff1681526020019081526020015f206007015f8282829054906101000a900467ffffffffffffffff1662007a8a919062013622565b92506101000a81548167ffffffffffffffff021916908367ffffffffffffffff16021790555062007abe845f01516200d0ee565b600d5f8773ffffffffffffffffffffffffffffffffffffffff1673ffffffffffffffffffffffffffffffffffffffff1681526020019081526020015f206001015f5f67ffffffffffffffff1667ffffffffffffffff1681526020019081526020015f205f8282829054906101000a900467ffffffffffffffff1662007b44919062012b0b565b92506101000a81548167ffffffffffffffff021916908367ffffffffffffffff1602179055505b5b5b5050505050565b8183600f5f8373ffffffffffffffffffffffffffffffffffffffff1673ffffffffffffffffffffffffffffffffffffffff1681526020019081526020015f205f8267ffffffffffffffff1667ffffffffffffffff1681526020019081526020015f205f9054906101000a900460ff1662007c005762007bf3816200394b565b62007bff828262008ee5565b5b600d5f8573ffffffffffffffffffffffffffffffffffffffff1673ffffffffffffffffffffffffffffffffffffffff1681526020019081526020015f205f015f9054906101000a900460ff161562007d445762007c9283600a5f8867ffffffffffffffff1667ffffffffffffffff1681526020019081526020015f2060030160169054906101000a90045f0b6200d105565b600d5f8673ffffffffffffffffffffffffffffffffffffffff1673ffffffffffffffffffffffffffffffffffffffff1681526020019081526020015f206001015f8767ffffffffffffffff1667ffffffffffffffff1681526020019081526020015f205f8282829054906101000a900467ffffffffffffffff1662007d18919062012b0b565b92506101000a81548167ffffffffffffffff021916908367ffffffffffffffff1602179055506200809d565b60235f8667ffffffffffffffff1667ffffffffffffffff1681526020019081526020015f205f9054906101000a900460ff161562007fb2575f62007dbd84600a5f8967ffffffffffffffff1667ffffffffffffffff1681526020019081526020015f2060030160169054906101000a90045f0b6200d105565b90505f6305f5e10090508067ffffffffffffffff168267ffffffffffffffff16101562007e21576040517f08c379a000000000000000000000000000000000000000000000000000000000815260040162007e189062013dd9565b60405180910390fd5b808262007e2f919062013622565b600d5f8873ffffffffffffffffffffffffffffffffffffffff1673ffffffffffffffffffffffffffffffffffffffff1681526020019081526020015f206001015f8967ffffffffffffffff1667ffffffffffffffff1681526020019081526020015f205f8282829054906101000a900467ffffffffffffffff1662007eb5919062012b0b565b92506101000a81548167ffffffffffffffff021916908367ffffffffffffffff1602179055506001600d5f8873ffffffffffffffffffffffffffffffffffffffff1673ffffffffffffffffffffffffffffffffffffffff1681526020019081526020015f205f015f6101000a81548160ff0219169083151502179055506001600f5f8873ffffffffffffffffffffffffffffffffffffffff1673ffffffffffffffffffffffffffffffffffffffff1681526020019081526020015f205f8967ffffffffffffffff1667ffffffffffffffff1681526020019081526020015f205f6101000a81548160ff02191690831515021790555050506200809c565b62007ff283600a5f8867ffffffffffffffff1667ffffffffffffffff1681526020019081526020015f2060030160169054906101000a90045f0b6200d105565b60125f8673ffffffffffffffffffffffffffffffffffffffff1673ffffffffffffffffffffffffffffffffffffffff1681526020019081526020015f205f8767ffffffffffffffff1667ffffffffffffffff1681526020019081526020015f205f8282829054906101000a900467ffffffffffffffff1662008075919062012b0b565b92506101000a81548167ffffffffffffffff021916908367ffffffffffffffff1602179055505b5b505050505050565b5f620080ed60225f8473ffffffffffffffffffffffffffffffffffffffff1673ffffffffffffffffffffffffffffffffffffffff1681526020019081526020015f2062008636565b90505f8190505b5f81111562008372575f6200815d6001836200811191906201295c565b60225f8773ffffffffffffffffffffffffffffffffffffffff1673ffffffffffffffffffffffffffffffffffffffff1681526020019081526020015f206200864b90919063ffffffff16565b90505f6200816c85836200d183565b9050620081848160206200d1af90919063ffffffff16565b505f600d5f8773ffffffffffffffffffffffffffffffffffffffff1673ffffffffffffffffffffffffffffffffffffffff1681526020019081526020015f206008015f8461ffff1661ffff1681526020019081526020015f205f015f6101000a81548167ffffffffffffffff021916908360070b67ffffffffffffffff1602179055505f600d5f8773ffffffffffffffffffffffffffffffffffffffff1673ffffffffffffffffffffffffffffffffffffffff1681526020019081526020015f206008015f8461ffff1661ffff1681526020019081526020015f205f0160086101000a81548167ffffffffffffffff021916908367ffffffffffffffff1602179055505f600d5f8773ffffffffffffffffffffffffffffffffffffffff1673ffffffffffffffffffffffffffffffffffffffff1681526020019081526020015f206009015f8461ffff1661ffff1681526020019081526020015f205f6101000a81548167ffffffffffffffff021916908367ffffffffffffffff160217905550620083598261ffff1660225f8873ffffffffffffffffffffffffffffffffffffffff1673ffffffffffffffffffffffffffffffffffffffff1681526020019081526020015f206200d1c690919063ffffffff16565b5050508080620083699062012bc9565b915050620080f4565b505f600d5f8473ffffffffffffffffffffffffffffffffffffffff1673ffffffffffffffffffffffffffffffffffffffff1681526020019081526020015f206007015f6101000a81548167ffffffffffffffff021916908367ffffffffffffffff1602179055505050565b620083e762010be3565b620083f2826200d1df565b905092915050565b7f000000000000000000000000000000000000000000000000000000000000000081565b80600960046101000a81548160ff02191690831515021790555050565b5f1515600d5f8473ffffffffffffffffffffffffffffffffffffffff1673ffffffffffffffffffffffffffffffffffffffff1681526020019081526020015f205f015f9054906101000a900460ff161515036200849e576200849d8262001604565b5b5f1515600e5f8473ffffffffffffffffffffffffffffffffffffffff1673ffffffffffffffffffffffffffffffffffffffff1681526020019081526020015f205f9054906101000a900460ff16151503620084ff57620084fe826200a635565b5b80600d5f8473ffffffffffffffffffffffffffffffffffffffff1673ffffffffffffffffffffffffffffffffffffffff1681526020019081526020015f206007015f6101000a81548167ffffffffffffffff021916908367ffffffffffffffff1602179055505050565b62008573620109b1565b6200857d6200d5ba565b1562008597576200858f83836200d659565b905062008630565b5f620085c96108018585604051602001620085b492919062013df9565b6040516020818303038152906040526200d74d565b90505f815103620086165760405180606001604052805f67ffffffffffffffff1681526020015f67ffffffffffffffff1681526020015f67ffffffffffffffff1681525091505062008630565b808060200190518101906200862c919062013ea6565b9150505b92915050565b5f62008644825f016200dae1565b9050919050565b5f6200865a835f01836200daf0565b5f1c905092915050565b5f5f8260070b136200868257816200867c9062013ed6565b62008684565b815b9050919050565b5f815f015f9054906101000a90046fffffffffffffffffffffffffffffffff16825f0160109054906101000a90046fffffffffffffffffffffffffffffffff16036fffffffffffffffffffffffffffffffff169050919050565b5f620086f1826200db1a565b1562008704576200870360326200db86565b5b816001015f835f015f9054906101000a90046fffffffffffffffffffffffffffffffff166fffffffffffffffffffffffffffffffff166fffffffffffffffffffffffffffffffff1681526020019081526020015f20549050919050565b6200876b62010c21565b6060825f1c901c815f019073ffffffffffffffffffffffffffffffffffffffff16908173ffffffffffffffffffffffffffffffffffffffff16815250506020825f1c901c816020019067ffffffffffffffff16908167ffffffffffffffff1681525050815f1c816040019063ffffffff16908163ffffffff1681525050919050565b5f5f825f015f9054906101000a90046fffffffffffffffffffffffffffffffff169050825f0160109054906101000a90046fffffffffffffffffffffffffffffffff166fffffffffffffffffffffffffffffffff16816fffffffffffffffffffffffffffffffff160362008868576200886760316200db86565b5b826001015f826fffffffffffffffffffffffffffffffff166fffffffffffffffffffffffffffffffff1681526020019081526020015f20549150826001015f826fffffffffffffffffffffffffffffffff166fffffffffffffffffffffffffffffffff1681526020019081526020015f205f905560018101835f015f6101000a8154816fffffffffffffffffffffffffffffffff02191690836fffffffffffffffffffffffffffffffff16021790555050919050565b5f6103e646146200893157609662008935565b6104515b61ffff16905090565b5f600e5f8473ffffffffffffffffffffffffffffffffffffffff1673ffffffffffffffffffffffffffffffffffffffff1681526020019081526020015f205f9054906101000a900460ff169050801562008999575062008ee1565b5f600d5f8573ffffffffffffffffffffffffffffffffffffffff1673ffffffffffffffffffffffffffffffffffffffff1681526020019081526020015f2090505f620089e5856200cdbc565b905080158015620089f4575083155b1562008a035750505062008ee1565b6001600e5f8773ffffffffffffffffffffffffffffffffffffffff1673ffffffffffffffffffffffffffffffffffffffff1681526020019081526020015f205f6101000a81548160ff0219169083151502179055506001825f015f6101000a81548160ff02191690831515021790555062008a7e856200a3c2565b826007015f6101000a81548167ffffffffffffffff021916908367ffffffffffffffff16021790555062008ab162010b97565b62008abc866200ce31565b90508060200151836003015f6101000a81548167ffffffffffffffff021916908367ffffffffffffffff1602179055505f816060015190505f8167ffffffffffffffff16111562008c36575f62093a804262008b199190620138c3565b90505f5f90505b8267ffffffffffffffff1681101562008c33575f5f60018562008b44919062013622565b67ffffffffffffffff16831490508062008b7c5784866040015162008b6a9190620129c3565b67ffffffffffffffff16915062008bc3565b8285876040015162008b8f9190620129c3565b67ffffffffffffffff1662008ba5919062012f1c565b866040015167ffffffffffffffff1662008bc091906201295c565b91505b62008c2362008c1260405180606001604052808e73ffffffffffffffffffffffffffffffffffffffff1681526020018567ffffffffffffffff1681526020018763ffffffff168152506200cf2f565b60176200cf7e90919063ffffffff16565b5050808060010191505062008b20565b50505b606062008c438862009b1c565b90505f5f90505b815181101562008dbb5781818151811062008c6a5762008c6962013204565b5b6020026020010151866006015f84848151811062008c8d5762008c8c62013204565b5b60200260200101515f015173ffffffffffffffffffffffffffffffffffffffff1673ffffffffffffffffffffffffffffffffffffffff1681526020019081526020015f205f820151815f015f6101000a81548173ffffffffffffffffffffffffffffffffffffffff021916908373ffffffffffffffffffffffffffffffffffffffff1602179055506020820151815f0160146101000a81548167ffffffffffffffff021916908367ffffffffffffffff1602179055506040820151816001015f6101000a81548167ffffffffffffffff021916908367ffffffffffffffff16021790555090505062008dac82828151811062008d8e5762008d8d62013204565b5b60200260200101515f0151876004016200ca9890919063ffffffff16565b50808060010191505062008c4a565b5062008dc85f896200db97565b600d5f8a73ffffffffffffffffffffffffffffffffffffffff1673ffffffffffffffffffffffffffffffffffffffff1681526020019081526020015f20600a015f5f61ffff1681526020019081526020015f205f820151815f015f6101000a81548167ffffffffffffffff021916908360070b67ffffffffffffffff1602179055506020820151815f0160086101000a81548167ffffffffffffffff021916908367ffffffffffffffff1602179055506040820151815f0160106101000a81548167ffffffffffffffff021916908367ffffffffffffffff1602179055506060820151815f0160186101000a81548167ffffffffffffffff021916908360070b67ffffffffffffffff1602179055509050505050505050505b5050565b62008ef0826200a635565b5f1515600d5f8473ffffffffffffffffffffffffffffffffffffffff1673ffffffffffffffffffffffffffffffffffffffff1681526020019081526020015f205f015f9054906101000a900460ff161515031562009058576001600f5f8473ffffffffffffffffffffffffffffffffffffffff1673ffffffffffffffffffffffffffffffffffffffff1681526020019081526020015f205f8367ffffffffffffffff1667ffffffffffffffff1681526020019081526020015f205f6101000a81548160ff02191690831515021790555062008fcc828262008569565b5f0151600d5f8473ffffffffffffffffffffffffffffffffffffffff1673ffffffffffffffffffffffffffffffffffffffff1681526020019081526020015f206001015f8367ffffffffffffffff1667ffffffffffffffff1681526020019081526020015f205f6101000a81548167ffffffffffffffff021916908367ffffffffffffffff1602179055505b5050565b5f620090676200d5ba565b15620090805762009078826200dc19565b9050620090cc565b5f620090b0610807846040516020016200909b919062011bea565b6040516020818303038152906040526200d74d565b905080806020019051810190620090c8919062013f21565b9150505b919050565b600160115f8473ffffffffffffffffffffffffffffffffffffffff1673ffffffffffffffffffffffffffffffffffffffff1681526020019081526020015f205f8361ffff1663ffffffff1681526020019081526020015f205f6101000a81548160ff0219169083151502179055506200914b82826200caf6565b600d5f8473ffffffffffffffffffffffffffffffffffffffff1673ffffffffffffffffffffffffffffffffffffffff1681526020019081526020015f206008015f8361ffff1661ffff1681526020019081526020015f205f820151815f015f6101000a81548167ffffffffffffffff021916908360070b67ffffffffffffffff1602179055506020820151815f0160086101000a81548167ffffffffffffffff021916908367ffffffffffffffff1602179055506040820151815f0160106101000a81548167ffffffffffffffff021916908360070b67ffffffffffffffff1602179055506060820151815f0160186101000a81548163ffffffff021916908363ffffffff1602179055506080820151815f01601c6101000a81548160ff0219169083151502179055509050505050565b5f612710826200928d919062013622565b9050919050565b6200929e62010a61565b5f5f61080b73ffffffffffffffffffffffffffffffffffffffff1684604051602001620092cc9190620112ca565b604051602081830303815290604052604051620092ea919062013f91565b5f60405180830381855afa9150503d805f811462009324576040519150601f19603f3d011682016040523d82523d5f602084013e62009329565b606091505b50915091508162009366576040517f87ae2f6300000000000000000000000000000000000000000000000000000000815260040160405180910390fd5b808060200190518101906200937c919062014133565b92505050919050565b6200938f62010a61565b620093996200d5ba565b15620093b857620093b08263ffffffff1662009294565b905062009404565b5f620093e861080b84604051602001620093d3919062011bea565b6040516020818303038152906040526200d74d565b90508080602001905181019062009400919062014133565b9150505b919050565b5f67ffffffffffffffff80168211156200945f576040826040517f6dfcc65000000000000000000000000000000000000000000000000000000000815260040162009456929190620141c3565b60405180910390fd5b819050919050565b5f5f836020015162009495578267ffffffffffffffff16846040015167ffffffffffffffff161115620094b2565b8267ffffffffffffffff16846040015167ffffffffffffffff1610155b90508091505092915050565b5f620094fc6305f5e1008467ffffffffffffffff168467ffffffffffffffff16620094ea919062012f1c565b620094f69190620135eb565b62009409565b90505f6200950d836008876200a780565b90505f8290505f60095f9054906101000a900461ffff1661ffff1611156200958e576200958b620f424060095f9054906101000a900461ffff1661ffff168567ffffffffffffffff1662009562919062012f1c565b6200956e9190620135eb565b8467ffffffffffffffff16620095859190620138c3565b62009409565b90505b8067ffffffffffffffff16600d5f8b73ffffffffffffffffffffffffffffffffffffffff1673ffffffffffffffffffffffffffffffffffffffff1681526020019081526020015f206001015f8967ffffffffffffffff1667ffffffffffffffff1681526020019081526020015f205f9054906101000a900467ffffffffffffffff1667ffffffffffffffff1610156200965e576040517f08c379a00000000000000000000000000000000000000000000000000000000081526004016200965590620138a3565b60405180910390fd5b80600d5f8b73ffffffffffffffffffffffffffffffffffffffff1673ffffffffffffffffffffffffffffffffffffffff1681526020019081526020015f206001015f8967ffffffffffffffff1667ffffffffffffffff1681526020019081526020015f205f8282829054906101000a900467ffffffffffffffff16620096e5919062013622565b92506101000a81548167ffffffffffffffff021916908367ffffffffffffffff16021790555081600d5f8b73ffffffffffffffffffffffffffffffffffffffff1673ffffffffffffffffffffffffffffffffffffffff1681526020019081526020015f206001015f8a67ffffffffffffffff1667ffffffffffffffff1681526020019081526020015f205f8282829054906101000a900467ffffffffffffffff1662009792919062012b0b565b92506101000a81548167ffffffffffffffff021916908367ffffffffffffffff160217905550505050505050505050565b5f620097d2826008866200a780565b90505f620098126305f5e1008567ffffffffffffffff168567ffffffffffffffff1662009800919062012f1c565b6200980c9190620135eb565b62009409565b90508167ffffffffffffffff16600d5f8a73ffffffffffffffffffffffffffffffffffffffff1673ffffffffffffffffffffffffffffffffffffffff1681526020019081526020015f206001015f8967ffffffffffffffff1667ffffffffffffffff1681526020019081526020015f205f9054906101000a900467ffffffffffffffff1667ffffffffffffffff161015620098e4576040517f08c379a0000000000000000000000000000000000000000000000000000000008152600401620098db90620138a3565b60405180910390fd5b5f8190505f60095f9054906101000a900461ffff1661ffff161115620099b7575f6200994a620f424060095f9054906101000a900461ffff1661ffff168567ffffffffffffffff1662009938919062012f1c565b620099449190620135eb565b62009409565b90508067ffffffffffffffff168267ffffffffffffffff1611620099a5576040517f08c379a00000000000000000000000000000000000000000000000000000000081526004016200999c906201423c565b60405180910390fd5b8082620099b3919062013622565b9150505b82600d5f8b73ffffffffffffffffffffffffffffffffffffffff1673ffffffffffffffffffffffffffffffffffffffff1681526020019081526020015f206001015f8a67ffffffffffffffff1667ffffffffffffffff1681526020019081526020015f205f8282829054906101000a900467ffffffffffffffff1662009a3e919062013622565b92506101000a81548167ffffffffffffffff021916908367ffffffffffffffff16021790555080600d5f8b73ffffffffffffffffffffffffffffffffffffffff1673ffffffffffffffffffffffffffffffffffffffff1681526020019081526020015f206001015f8967ffffffffffffffff1667ffffffffffffffff1681526020019081526020015f205f8282829054906101000a900467ffffffffffffffff1662009aeb919062012b0b565b92506101000a81548167ffffffffffffffff021916908367ffffffffffffffff160217905550505050505050505050565b606062009b286200d5ba565b1562009b415762009b39826200dd01565b905062009bfa565b5f62009b716108048460405160200162009b5c91906201390e565b6040516020818303038152906040526200d74d565b90505f81510362009be0575f67ffffffffffffffff81111562009b995762009b9862010f9f565b5b60405190808252806020026020018201604052801562009bd657816020015b62009bc262010a19565b81526020019060019003908162009bb85790505b5091505062009bfa565b8080602001905181019062009bf69190620143b1565b9150505b919050565b60605f62009c0f835f016200ddea565b905060608190508092505050919050565b5f5f601f5490505f5f601e5f8773ffffffffffffffffffffffffffffffffffffffff1673ffffffffffffffffffffffffffffffffffffffff1681526020019081526020015f205f8673ffffffffffffffffffffffffffffffffffffffff1673ffffffffffffffffffffffffffffffffffffffff1681526020019081526020015f20541462009d2757601e5f8673ffffffffffffffffffffffffffffffffffffffff1673ffffffffffffffffffffffffffffffffffffffff1681526020019081526020015f205f8573ffffffffffffffffffffffffffffffffffffffff1673ffffffffffffffffffffffffffffffffffffffff1681526020019081526020015f205462009d31565b670de0b6b3a76400005b905062009df38183600d5f8973ffffffffffffffffffffffffffffffffffffffff1673ffffffffffffffffffffffffffffffffffffffff1681526020019081526020015f206006015f8873ffffffffffffffffffffffffffffffffffffffff1673ffffffffffffffffffffffffffffffffffffffff1681526020019081526020015f205f0160149054906101000a900467ffffffffffffffff1667ffffffffffffffff1662009de1919062012f1c565b62009ded9190620135eb565b62009409565b9250505092915050565b5f73222222222222222222222222222222222222222273ffffffffffffffffffffffffffffffffffffffff168273ffffffffffffffffffffffffffffffffffffffff160362009e50576096905062009ecf565b73200000000000000000000000000000000000000073ffffffffffffffffffffffffffffffffffffffff168273ffffffffffffffffffffffffffffffffffffffff16101562009eaa5767ffffffffffffffff905062009ecf565b7320000000000000000000000000000000000000008262009ecc919062014400565b90505b919050565b6305f5e100600d5f8373ffffffffffffffffffffffffffffffffffffffff1673ffffffffffffffffffffffffffffffffffffffff1681526020019081526020015f206001015f5f67ffffffffffffffff1667ffffffffffffffff1681526020019081526020015f205f9054906101000a900467ffffffffffffffff1667ffffffffffffffff16106200a017576305f5e100600d5f8373ffffffffffffffffffffffffffffffffffffffff1673ffffffffffffffffffffffffffffffffffffffff1681526020019081526020015f206001015f5f67ffffffffffffffff1667ffffffffffffffff1681526020019081526020015f205f8282829054906101000a900467ffffffffffffffff1662009feb919062013622565b92506101000a81548167ffffffffffffffff021916908367ffffffffffffffff1602179055506200a152565b6305f5e100600d5f8373ffffffffffffffffffffffffffffffffffffffff1673ffffffffffffffffffffffffffffffffffffffff1681526020019081526020015f206007015f9054906101000a900467ffffffffffffffff1667ffffffffffffffff16106200a114576305f5e100600d5f8373ffffffffffffffffffffffffffffffffffffffff1673ffffffffffffffffffffffffffffffffffffffff1681526020019081526020015f206007015f8282829054906101000a900467ffffffffffffffff166200a0e8919062013622565b92506101000a81548167ffffffffffffffff021916908367ffffffffffffffff1602179055506200a151565b6040517f08c379a00000000000000000000000000000000000000000000000000000000081526004016200a14890620144c2565b60405180910390fd5b5b50565b5f6200a1606200891e565b67ffffffffffffffff168267ffffffffffffffff16036200a1985773222222222222222222222222222222222222222290506200a1c7565b8167ffffffffffffffff167320000000000000000000000000000000000000006200a1c49190620144e2565b90505b919050565b7f885cb69240a935d632d79c317109709ecfa91a80626ff3989d68f67f5b1dd12d5f1c73ffffffffffffffffffffffffffffffffffffffff1663c88a5e6d83836040518363ffffffff1660e01b81526004016200a22b92919062014530565b5f604051808303815f87803b1580156200a243575f5ffd5b505af11580156200a256573d5f5f3e3d5ffd5b505050505050565b5f5f825f0b146200a2d7575f825f0b136200a2aa57816200a27f906201455b565b600a6200a28d919062013381565b8367ffffffffffffffff166200a2a49190620135eb565b6200a2d1565b81600a6200a2b9919062013381565b8367ffffffffffffffff166200a2d0919062012f1c565b5b6200a2e3565b8267ffffffffffffffff165b905092915050565b5f6103e646146200a31157736b9e773128f453f5c2c60935ee2de2cbc5390a246200a327565b730b80659a4076e9e93c7dbe0f10675a16a3e5c2065b905090565b6200a33a8383835f6200de45565b505050565b6200a3bd838473ffffffffffffffffffffffffffffffffffffffff1663a9059cbb85856040516024016200a37592919062014530565b604051602081830303815290604052915060e01b6020820180517bffffffffffffffffffffffffffffffffffffffffffffffffffffffff83818316178352505050506200e0ea565b505050565b5f6200a3cd6200d5ba565b156200a3e6576200a3de826200e18b565b90506200a448565b5f6200a416610803846040516020016200a40191906201390e565b6040516020818303038152906040526200d74d565b90505f8151036200a42b575f9150506200a448565b808060200190518101906200a4419190620145e6565b5f01519150505b919050565b6200a45762010a83565b6200a4616200d5ba565b156200a480576200a4788263ffffffff166200e276565b90506200a5b2565b5f6200a4b061080c846040516020016200a49b919062011bea565b6040516020818303038152906040526200d74d565b90505f8151036200a5985760405180610100016040528060405180602001604052805f81525081526020015f67ffffffffffffffff8111156200a4f8576200a4f762010f9f565b5b6040519080825280602002602001820160405280156200a5275781602001602082028036833780820191505090505b5081526020015f67ffffffffffffffff168152602001600173ffffffffffffffffffffffffffffffffffffffff168152602001600173ffffffffffffffffffffffffffffffffffffffff1681526020015f60ff1681526020015f60ff1681526020015f5f0b8152509150506200a5b2565b808060200190518101906200a5ae919062014801565b9150505b919050565b6200a5c162010b1c565b6200a5cb6200d5ba565b156200a5e4576200a5dc826200a68f565b90506200a630565b5f6200a61461080a846040516020016200a5ff919062011bea565b6040516020818303038152906040526200d74d565b9050808060200190518101906200a62c919062014933565b9150505b919050565b6200a641815f6200893e565b50565b5f5f6200a651836200a68f565b90508060400151600a6200a666919062013381565b6200a671846200e367565b67ffffffffffffffff166200a687919062012f1c565b915050919050565b6200a69962010b1c565b5f5f61080a73ffffffffffffffffffffffffffffffffffffffff16846040516020016200a6c7919062011bea565b6040516020818303038152906040526040516200a6e5919062013f91565b5f60405180830381855afa9150503d805f81146200a71f576040519150601f19603f3d011682016040523d82523d5f602084013e6200a724565b606091505b5091509150816200a761576040517f784fcee800000000000000000000000000000000000000000000000000000000815260040160405180910390fd5b808060200190518101906200a777919062014933565b92505050919050565b5f8160ff168360ff16036200a798578390506200a80e565b8160ff168360ff1610156200a7dd575f83836200a7b6919062014982565b905080600a6200a7c79190620149bd565b856200a7d4919062012b4d565b9150506200a80e565b5f82846200a7ec919062014982565b905080600a6200a7fd9190620149bd565b856200a80a9190620129c3565b9150505b9392505050565b5f5f90505f5f90505f5f90505f5f90505f5f90505f5f90505b6200a87560225f8973ffffffffffffffffffffffffffffffffffffffff1673ffffffffffffffffffffffffffffffffffffffff1681526020019081526020015f2062008636565b8110156200ab0d575f6200a8cf8260225f8b73ffffffffffffffffffffffffffffffffffffffff1673ffffffffffffffffffffffffffffffffffffffff1681526020019081526020015f206200864b90919063ffffffff16565b90505f600d5f8a73ffffffffffffffffffffffffffffffffffffffff1673ffffffffffffffffffffffffffffffffffffffff1681526020019081526020015f206008015f8361ffff1661ffff1681526020019081526020015f206040518060a00160405290815f82015f9054906101000a900460070b60070b60070b81526020015f820160089054906101000a900467ffffffffffffffff1667ffffffffffffffff1667ffffffffffffffff1681526020015f820160109054906101000a900460070b60070b60070b81526020015f820160189054906101000a900463ffffffff1663ffffffff1663ffffffff1681526020015f8201601c9054906101000a900460ff16151515158152505090505f816060015190505f6200a9f58461ffff166200762b565b90508163ffffffff1683602001516200aa0f9190620129c3565b886200aa1c919062012b0b565b97505f835f015190505f8160070b13156200aa8c575f82826200aa40919062012b4d565b9050808c6200aa50919062012b0b565b9b508363ffffffff16816200aa669190620129c3565b8b6200aa73919062012b0b565b9a5080896200aa83919062012b0b565b9850506200aafa565b5f8160070b12156200aaf9575f82826200aaa69062013ed6565b6200aab2919062012b4d565b9050808c6200aac2919062012b0b565b9b508363ffffffff16816200aad89190620129c3565b8b6200aae5919062012b0b565b9a5080886200aaf5919062012b0b565b9750505b5b505050505080806001019150506200a82e565b505f8484600d5f8a73ffffffffffffffffffffffffffffffffffffffff1673ffffffffffffffffffffffffffffffffffffffff1681526020019081526020015f206007015f9054906101000a900467ffffffffffffffff166200ab71919062013622565b6200ab7d919062012b0b565b90505f8284836200ab8f9190620129fa565b6200ab9b919062012aa5565b905060405180608001604052808360070b81526020018767ffffffffffffffff1681526020018867ffffffffffffffff1681526020018260070b815250600d5f8a73ffffffffffffffffffffffffffffffffffffffff1673ffffffffffffffffffffffffffffffffffffffff1681526020019081526020015f20600a015f5f61ffff1681526020019081526020015f205f820151815f015f6101000a81548167ffffffffffffffff021916908360070b67ffffffffffffffff1602179055506020820151815f0160086101000a81548167ffffffffffffffff021916908367ffffffffffffffff1602179055506040820151815f0160106101000a81548167ffffffffffffffff021916908367ffffffffffffffff1602179055506060820151815f0160186101000a81548167ffffffffffffffff021916908360070b67ffffffffffffffff1602179055509050505050505050505050565b5f825f015190505f600d5f8673ffffffffffffffffffffffffffffffffffffffff1673ffffffffffffffffffffffffffffffffffffffff1681526020019081526020015f206008015f8361ffff1661ffff1681526020019081526020015f205f015f9054906101000a900460070b90505f600d5f8773ffffffffffffffffffffffffffffffffffffffff1673ffffffffffffffffffffffffffffffffffffffff1681526020019081526020015f206008015f8461ffff1661ffff1681526020019081526020015f205f0160189054906101000a900463ffffffff1690505f6200addd8562009409565b90505f8263ffffffff16116200ae2a576040517f08c379a00000000000000000000000000000000000000000000000000000000081526004016200ae219062014a43565b60405180910390fd5b5f866060015167ffffffffffffffff16116200ae7d576040517f08c379a00000000000000000000000000000000000000000000000000000000081526004016200ae749062014ab1565b60405180910390fd5b5f85116200aec2576040517f08c379a00000000000000000000000000000000000000000000000000000000081526004016200aeb99062014b1f565b60405180910390fd5b5f600960029054906101000a900461ffff1661ffff1611156200b081575f8167ffffffffffffffff16876060015167ffffffffffffffff166200af06919062012f1c565b90505f6200af45620f4240600960029054906101000a900461ffff1661ffff16846200af33919062012f1c565b6200af3f9190620135eb565b62009409565b90508067ffffffffffffffff16600d5f8b73ffffffffffffffffffffffffffffffffffffffff1673ffffffffffffffffffffffffffffffffffffffff1681526020019081526020015f206007015f9054906101000a900467ffffffffffffffff1667ffffffffffffffff1610156200aff4576040517f08c379a00000000000000000000000000000000000000000000000000000000081526004016200afeb9062014bb3565b60405180910390fd5b80600d5f8b73ffffffffffffffffffffffffffffffffffffffff1673ffffffffffffffffffffffffffffffffffffffff1681526020019081526020015f206007015f8282829054906101000a900467ffffffffffffffff166200b058919062013622565b92506101000a81548167ffffffffffffffff021916908367ffffffffffffffff16021790555050505b5f8660600151846200b094919062012aa5565b90505f8460070b126200b1ff578660600151600d5f8a73ffffffffffffffffffffffffffffffffffffffff1673ffffffffffffffffffffffffffffffffffffffff1681526020019081526020015f206008015f8761ffff1661ffff1681526020019081526020015f205f015f8282829054906101000a900460070b6200b11b919062012aa5565b92506101000a81548167ffffffffffffffff021916908360070b67ffffffffffffffff1602179055508587606001516200b156919062012b4d565b600d5f8a73ffffffffffffffffffffffffffffffffffffffff1673ffffffffffffffffffffffffffffffffffffffff1681526020019081526020015f206008015f8761ffff1661ffff1681526020019081526020015f205f0160088282829054906101000a900467ffffffffffffffff166200b1d3919062012b0b565b92506101000a81548167ffffffffffffffff021916908367ffffffffffffffff1602179055506200b8fc565b5f8160070b136200b5c9575f846200b2179062013ed6565b600d5f8b73ffffffffffffffffffffffffffffffffffffffff1673ffffffffffffffffffffffffffffffffffffffff1681526020019081526020015f206008015f8861ffff1661ffff1681526020019081526020015f205f0160089054906101000a900467ffffffffffffffff166200b2919190620129c3565b90505f83826200b2a29190620129fa565b89606001516200b2b3919062012a60565b90505f8563ffffffff16876200b2c99062013ed6565b600d5f8e73ffffffffffffffffffffffffffffffffffffffff1673ffffffffffffffffffffffffffffffffffffffff1681526020019081526020015f206008015f8b61ffff1661ffff1681526020019081526020015f205f0160089054906101000a900467ffffffffffffffff168c606001516200b348919062012b4d565b6200b3549190620129c3565b6200b3609190620129c3565b90505f8260070b136200b3df57816200b3799062013ed6565b600d5f8d73ffffffffffffffffffffffffffffffffffffffff1673ffffffffffffffffffffffffffffffffffffffff1681526020019081526020015f206007015f9054906101000a900467ffffffffffffffff166200b3d9919062013622565b6200b441565b81600d5f8d73ffffffffffffffffffffffffffffffffffffffff1673ffffffffffffffffffffffffffffffffffffffff1681526020019081526020015f206007015f9054906101000a900467ffffffffffffffff166200b440919062012b0b565b5b600d5f8d73ffffffffffffffffffffffffffffffffffffffff1673ffffffffffffffffffffffffffffffffffffffff1681526020019081526020015f206007015f6101000a81548167ffffffffffffffff021916908367ffffffffffffffff16021790555083600d5f8d73ffffffffffffffffffffffffffffffffffffffff1673ffffffffffffffffffffffffffffffffffffffff1681526020019081526020015f206008015f8a61ffff1661ffff1681526020019081526020015f205f015f6101000a81548167ffffffffffffffff021916908360070b67ffffffffffffffff16021790555082846200b5359062013ed6565b6200b541919062012b4d565b600d5f8d73ffffffffffffffffffffffffffffffffffffffff1673ffffffffffffffffffffffffffffffffffffffff1681526020019081526020015f206008015f8a61ffff1661ffff1681526020019081526020015f205f0160086101000a81548167ffffffffffffffff021916908367ffffffffffffffff1602179055505050506200b8fb565b5f846200b5d69062013ed6565b600d5f8b73ffffffffffffffffffffffffffffffffffffffff1673ffffffffffffffffffffffffffffffffffffffff1681526020019081526020015f206008015f8861ffff1661ffff1681526020019081526020015f205f0160089054906101000a900467ffffffffffffffff166200b6509190620129c3565b90505f83826200b6619190620129fa565b866200b66d9062013ed6565b6200b679919062012a60565b90505f8160070b136200b6f857806200b6929062013ed6565b600d5f8c73ffffffffffffffffffffffffffffffffffffffff1673ffffffffffffffffffffffffffffffffffffffff1681526020019081526020015f206007015f9054906101000a900467ffffffffffffffff166200b6f2919062013622565b6200b75a565b80600d5f8c73ffffffffffffffffffffffffffffffffffffffff1673ffffffffffffffffffffffffffffffffffffffff1681526020019081526020015f206007015f9054906101000a900467ffffffffffffffff166200b759919062012b0b565b5b600d5f8c73ffffffffffffffffffffffffffffffffffffffff1673ffffffffffffffffffffffffffffffffffffffff1681526020019081526020015f206007015f6101000a81548167ffffffffffffffff021916908367ffffffffffffffff1602179055505f8390505f8663ffffffff1686836200b7d9919062012b4d565b6200b7e59190620129c3565b905084600d5f8e73ffffffffffffffffffffffffffffffffffffffff1673ffffffffffffffffffffffffffffffffffffffff1681526020019081526020015f206008015f8b61ffff1661ffff1681526020019081526020015f205f015f6101000a81548167ffffffffffffffff021916908360070b67ffffffffffffffff16021790555085826200b877919062012b4d565b600d5f8e73ffffffffffffffffffffffffffffffffffffffff1673ffffffffffffffffffffffffffffffffffffffff1681526020019081526020015f206008015f8b61ffff1661ffff1681526020019081526020015f205f0160086101000a81548167ffffffffffffffff021916908367ffffffffffffffff160217905550505050505b5b5f6200b90989876200d183565b90505f8560070b1480156200b92157505f8260070b14155b156200b99a576200b93d8160206200e44f90919063ffffffff16565b506200b9938661ffff1660225f8c73ffffffffffffffffffffffffffffffffffffffff1673ffffffffffffffffffffffffffffffffffffffff1681526020019081526020015f206200e46690919063ffffffff16565b506200ba25565b5f8560070b141580156200b9b057505f8260070b145b156200ba24576200b9cc8160206200d1af90919063ffffffff16565b506200ba228661ffff1660225f8c73ffffffffffffffffffffffffffffffffffffffff1673ffffffffffffffffffffffffffffffffffffffff1681526020019081526020015f206200d1c690919063ffffffff16565b505b5b505050505050505050565b5f825f015190505f600d5f8673ffffffffffffffffffffffffffffffffffffffff1673ffffffffffffffffffffffffffffffffffffffff1681526020019081526020015f206008015f8361ffff1661ffff1681526020019081526020015f205f015f9054906101000a900460070b90505f600d5f8773ffffffffffffffffffffffffffffffffffffffff1673ffffffffffffffffffffffffffffffffffffffff1681526020019081526020015f206008015f8461ffff1661ffff1681526020019081526020015f205f0160189054906101000a900463ffffffff1690505f6200bb198562009409565b90505f8263ffffffff16116200bb66576040517f08c379a00000000000000000000000000000000000000000000000000000000081526004016200bb5d9062014a43565b60405180910390fd5b5f866060015167ffffffffffffffff16116200bbb9576040517f08c379a00000000000000000000000000000000000000000000000000000000081526004016200bbb09062014ab1565b60405180910390fd5b5f85116200bbfe576040517f08c379a00000000000000000000000000000000000000000000000000000000081526004016200bbf59062014b1f565b60405180910390fd5b5f600960029054906101000a900461ffff1661ffff1611156200bdbd575f8167ffffffffffffffff16876060015167ffffffffffffffff166200bc42919062012f1c565b90505f6200bc81620f4240600960029054906101000a900461ffff1661ffff16846200bc6f919062012f1c565b6200bc7b9190620135eb565b62009409565b90508067ffffffffffffffff16600d5f8b73ffffffffffffffffffffffffffffffffffffffff1673ffffffffffffffffffffffffffffffffffffffff1681526020019081526020015f206007015f9054906101000a900467ffffffffffffffff1667ffffffffffffffff1610156200bd30576040517f08c379a00000000000000000000000000000000000000000000000000000000081526004016200bd279062014bb3565b60405180910390fd5b80600d5f8b73ffffffffffffffffffffffffffffffffffffffff1673ffffffffffffffffffffffffffffffffffffffff1681526020019081526020015f206007015f8282829054906101000a900467ffffffffffffffff166200bd94919062013622565b92506101000a81548167ffffffffffffffff021916908367ffffffffffffffff16021790555050505b5f8660600151846200bdd09190620129fa565b90505f8460070b136200bf3b578660600151600d5f8a73ffffffffffffffffffffffffffffffffffffffff1673ffffffffffffffffffffffffffffffffffffffff1681526020019081526020015f206008015f8761ffff1661ffff1681526020019081526020015f205f015f8282829054906101000a900460070b6200be579190620129fa565b92506101000a81548167ffffffffffffffff021916908360070b67ffffffffffffffff1602179055508587606001516200be92919062012b4d565b600d5f8a73ffffffffffffffffffffffffffffffffffffffff1673ffffffffffffffffffffffffffffffffffffffff1681526020019081526020015f206008015f8761ffff1661ffff1681526020019081526020015f205f0160088282829054906101000a900467ffffffffffffffff166200bf0f919062012b0b565b92506101000a81548167ffffffffffffffff021916908367ffffffffffffffff1602179055506200c60c565b5f8160070b126200c2e4575f84600d5f8b73ffffffffffffffffffffffffffffffffffffffff1673ffffffffffffffffffffffffffffffffffffffff1681526020019081526020015f206008015f8861ffff1661ffff1681526020019081526020015f205f0160089054906101000a900467ffffffffffffffff166200bfc29190620129c3565b90505f81846200bfd39190620129fa565b89606001516200bfe4919062012a60565b90505f8563ffffffff1687600d5f8e73ffffffffffffffffffffffffffffffffffffffff1673ffffffffffffffffffffffffffffffffffffffff1681526020019081526020015f206008015f8b61ffff1661ffff1681526020019081526020015f205f0160089054906101000a900467ffffffffffffffff168c606001516200c06e919062012b4d565b6200c07a9190620129c3565b6200c0869190620129c3565b90505f8260070b136200c10557816200c09f9062013ed6565b600d5f8d73ffffffffffffffffffffffffffffffffffffffff1673ffffffffffffffffffffffffffffffffffffffff1681526020019081526020015f206007015f9054906101000a900467ffffffffffffffff166200c0ff919062013622565b6200c167565b81600d5f8d73ffffffffffffffffffffffffffffffffffffffff1673ffffffffffffffffffffffffffffffffffffffff1681526020019081526020015f206007015f9054906101000a900467ffffffffffffffff166200c166919062012b0b565b5b600d5f8d73ffffffffffffffffffffffffffffffffffffffff1673ffffffffffffffffffffffffffffffffffffffff1681526020019081526020015f206007015f6101000a81548167ffffffffffffffff021916908367ffffffffffffffff16021790555083600d5f8d73ffffffffffffffffffffffffffffffffffffffff1673ffffffffffffffffffffffffffffffffffffffff1681526020019081526020015f206008015f8a61ffff1661ffff1681526020019081526020015f205f015f6101000a81548167ffffffffffffffff021916908360070b67ffffffffffffffff16021790555082846200c25c919062012b4d565b600d5f8d73ffffffffffffffffffffffffffffffffffffffff1673ffffffffffffffffffffffffffffffffffffffff1681526020019081526020015f206008015f8a61ffff1661ffff1681526020019081526020015f205f0160086101000a81548167ffffffffffffffff021916908367ffffffffffffffff1602179055505050506200c60b565b5f84600d5f8b73ffffffffffffffffffffffffffffffffffffffff1673ffffffffffffffffffffffffffffffffffffffff1681526020019081526020015f206008015f8861ffff1661ffff1681526020019081526020015f205f0160089054906101000a900467ffffffffffffffff166200c3609190620129c3565b90505f81846200c3719190620129fa565b866200c37e919062012a60565b90505f8160070b136200c3fd57806200c3979062013ed6565b600d5f8c73ffffffffffffffffffffffffffffffffffffffff1673ffffffffffffffffffffffffffffffffffffffff1681526020019081526020015f206007015f9054906101000a900467ffffffffffffffff166200c3f7919062013622565b6200c45f565b80600d5f8c73ffffffffffffffffffffffffffffffffffffffff1673ffffffffffffffffffffffffffffffffffffffff1681526020019081526020015f206007015f9054906101000a900467ffffffffffffffff166200c45e919062012b0b565b5b600d5f8c73ffffffffffffffffffffffffffffffffffffffff1673ffffffffffffffffffffffffffffffffffffffff1681526020019081526020015f206007015f6101000a81548167ffffffffffffffff021916908367ffffffffffffffff1602179055505f836200c4d19062013ed6565b90505f8663ffffffff1686836200c4e9919062012b4d565b6200c4f59190620129c3565b905084600d5f8e73ffffffffffffffffffffffffffffffffffffffff1673ffffffffffffffffffffffffffffffffffffffff1681526020019081526020015f206008015f8b61ffff1661ffff1681526020019081526020015f205f015f6101000a81548167ffffffffffffffff021916908360070b67ffffffffffffffff16021790555085826200c587919062012b4d565b600d5f8e73ffffffffffffffffffffffffffffffffffffffff1673ffffffffffffffffffffffffffffffffffffffff1681526020019081526020015f206008015f8b61ffff1661ffff1681526020019081526020015f205f0160086101000a81548167ffffffffffffffff021916908367ffffffffffffffff160217905550505050505b5b5f6200c61989876200d183565b90505f8560070b1480156200c63157505f8260070b14155b156200c6aa576200c64d8160206200e44f90919063ffffffff16565b506200c6a38661ffff1660225f8c73ffffffffffffffffffffffffffffffffffffffff1673ffffffffffffffffffffffffffffffffffffffff1681526020019081526020015f206200e46690919063ffffffff16565b506200c735565b5f8560070b141580156200c6c057505f8260070b145b156200c734576200c6dc8160206200d1af90919063ffffffff16565b506200c7328661ffff1660225f8c73ffffffffffffffffffffffffffffffffffffffff1673ffffffffffffffffffffffffffffffffffffffff1681526020019081526020015f206200d1c690919063ffffffff16565b505b5b505050505050505050565b5f6200c74e825f016200dae1565b9050919050565b5f6200c764835f01836200daf0565b905092915050565b6200c77662010b00565b5f6200c782836200d1df565b90505f5f90505f5f90505b6200c7d460225f8773ffffffffffffffffffffffffffffffffffffffff1673ffffffffffffffffffffffffffffffffffffffff1681526020019081526020015f2062008636565b8110156200ca04575f6200c82e8260225f8973ffffffffffffffffffffffffffffffffffffffff1673ffffffffffffffffffffffffffffffffffffffff1681526020019081526020015f206200864b90919063ffffffff16565b90505f600d5f8873ffffffffffffffffffffffffffffffffffffffff1673ffffffffffffffffffffffffffffffffffffffff1681526020019081526020015f206008015f8361ffff1661ffff1681526020019081526020015f206040518060a00160405290815f82015f9054906101000a900460070b60070b60070b81526020015f820160089054906101000a900467ffffffffffffffff1667ffffffffffffffff1667ffffffffffffffff1681526020015f820160109054906101000a900460070b60070b60070b81526020015f820160189054906101000a900463ffffffff1663ffffffff1663ffffffff1681526020015f8201601c9054906101000a900460ff16151515158152505090505f6200c94c8361ffff166200762b565b90505f5f90505f835f015160070b13156200c97a5781835f01516200c972919062012b4d565b90506200c9a9565b5f835f015160070b12156200c9a85781835f01516200c9999062013ed6565b6200c9a5919062012b4d565b90505b5b5f836060015163ffffffff1684602001516200c9c69190620129c3565b90506200c9e2600a836200c9db9190620129c3565b826200e47f565b876200c9ef919062012b0b565b9650505050505080806001019150506200c78d565b505f81835f01516200ca179190620129fa565b90505f5f8260070b136200ca2c575f6200ca2e565b815b905060405180602001604052808267ffffffffffffffff16815250945050505050919050565b5f6200ca62825f016200dae1565b9050919050565b5f6200ca90835f018373ffffffffffffffffffffffffffffffffffffffff165f1b6200e4ad565b905092915050565b5f6200cabf835f018373ffffffffffffffffffffffffffffffffffffffff165f1b6200e4cd565b905092915050565b5f6200caee835f018373ffffffffffffffffffffffffffffffffffffffff165f1b6200e538565b905092915050565b6200cb0062010b55565b6200cb0a6200d5ba565b156200cb24576200cb1c83836200e644565b90506200cbc3565b5f6200cb5661080085856040516020016200cb4192919062014bd3565b6040516020818303038152906040526200d74d565b90505f8151036200cba9576040518060a001604052805f60070b81526020015f67ffffffffffffffff1681526020015f60070b81526020015f63ffffffff1681526020015f15158152509150506200cbc3565b808060200190518101906200cbbf919062014cc5565b9150505b92915050565b5f6200cbd46200d5ba565b156200cbf3576200cbeb8263ffffffff166200e738565b90506200cc3f565b5f6200cc23610808846040516020016200cc0e919062011bea565b6040516020818303038152906040526200d74d565b9050808060200190518101906200cc3b919062013f21565b9150505b919050565b600160105f8473ffffffffffffffffffffffffffffffffffffffff1673ffffffffffffffffffffffffffffffffffffffff1681526020019081526020015f205f8373ffffffffffffffffffffffffffffffffffffffff1673ffffffffffffffffffffffffffffffffffffffff1681526020019081526020015f205f6101000a81548160ff0219169083151502179055506200cce082826200e820565b600d5f8473ffffffffffffffffffffffffffffffffffffffff1673ffffffffffffffffffffffffffffffffffffffff1681526020019081526020015f206002015f8373ffffffffffffffffffffffffffffffffffffffff1673ffffffffffffffffffffffffffffffffffffffff1681526020019081526020015f205f820151815f015f6101000a81548167ffffffffffffffff021916908367ffffffffffffffff1602179055506020820151815f0160086101000a81548167ffffffffffffffff021916908367ffffffffffffffff1602179055509050505050565b5f6200cdc76200d5ba565b156200cde0576200cdd8826200e8dd565b90506200ce2c565b5f6200ce10610810846040516020016200cdfb91906201390e565b6040516020818303038152906040526200d74d565b9050808060200190518101906200ce28919062014cf5565b9150505b919050565b6200ce3b62010b97565b6200ce456200d5ba565b156200ce5e576200ce56826200e9c8565b90506200ceaa565b5f6200ce8e610805846040516020016200ce7991906201390e565b6040516020818303038152906040526200d74d565b9050808060200190518101906200cea6919062014da7565b9150505b919050565b5f6200cebb836200868b565b82106200cecf576200cece60326200db86565b5b826001015f83855f015f9054906101000a90046fffffffffffffffffffffffffffffffff16016fffffffffffffffffffffffffffffffff166fffffffffffffffffffffffffffffffff1681526020019081526020015f2054905092915050565b5f816040015163ffffffff1664ffffffffff166020836020015167ffffffffffffffff16901b6060845f015173ffffffffffffffffffffffffffffffffffffffff16901b17175f1b9050919050565b5f825f0160109054906101000a90046fffffffffffffffffffffffffffffffff169050825f015f9054906101000a90046fffffffffffffffffffffffffffffffff166fffffffffffffffffffffffffffffffff16600182016fffffffffffffffffffffffffffffffff16036200cffb576200cffa60416200db86565b5b81836001015f836fffffffffffffffffffffffffffffffff166fffffffffffffffffffffffffffffffff1681526020019081526020015f208190555060018101835f0160106101000a8154816fffffffffffffffffffffffffffffffff02191690836fffffffffffffffffffffffffffffffff160217905550505050565b5f6200d0846200d5ba565b156200d09d576200d095826200e367565b90506200d0e9565b5f6200d0cd610806846040516020016200d0b8919062011bea565b6040516020818303038152906040526200d74d565b9050808060200190518101906200d0e5919062013f21565b9150505b919050565b5f6064826200d0fe919062012b4d565b9050919050565b5f5f5f835f0b146200d16b575f835f0b136200d14857826200d127906201455b565b600a6200d135919062013381565b846200d142919062012f1c565b6200d165565b82600a6200d157919062013381565b846200d1649190620135eb565b5b6200d16d565b835b90506200d17a8162009409565b91505092915050565b5f8161ffff1660108473ffffffffffffffffffffffffffffffffffffffff16901b175f1b905092915050565b5f6200d1be835f01836200e538565b905092915050565b5f6200d1d7835f01835f1b6200e538565b905092915050565b6200d1e962010be3565b5f5f90505f5f90505f5f90505f5f90505f5f90505f5f90505b6200d24960225f8a73ffffffffffffffffffffffffffffffffffffffff1673ffffffffffffffffffffffffffffffffffffffff1681526020019081526020015f2062008636565b8110156200d4e1575f6200d2a38260225f8c73ffffffffffffffffffffffffffffffffffffffff1673ffffffffffffffffffffffffffffffffffffffff1681526020019081526020015f206200864b90919063ffffffff16565b90505f600d5f8b73ffffffffffffffffffffffffffffffffffffffff1673ffffffffffffffffffffffffffffffffffffffff1681526020019081526020015f206008015f8361ffff1661ffff1681526020019081526020015f206040518060a00160405290815f82015f9054906101000a900460070b60070b60070b81526020015f820160089054906101000a900467ffffffffffffffff1667ffffffffffffffff1667ffffffffffffffff1681526020015f820160109054906101000a900460070b60070b60070b81526020015f820160189054906101000a900463ffffffff1663ffffffff1663ffffffff1681526020015f8201601c9054906101000a900460ff16151515158152505090505f816060015190505f6200d3c98461ffff166200762b565b90508163ffffffff1683602001516200d3e39190620129c3565b886200d3f0919062012b0b565b97505f835f015190505f8160070b13156200d460575f82826200d414919062012b4d565b9050808c6200d424919062012b0b565b9b508363ffffffff16816200d43a9190620129c3565b8b6200d447919062012b0b565b9a5080896200d457919062012b0b565b9850506200d4ce565b5f8160070b12156200d4cd575f82826200d47a9062013ed6565b6200d486919062012b4d565b9050808c6200d496919062012b0b565b9b508363ffffffff16816200d4ac9190620129c3565b8b6200d4b9919062012b0b565b9a5080886200d4c9919062012b0b565b9750505b5b505050505080806001019150506200d202565b505f8484600d5f8b73ffffffffffffffffffffffffffffffffffffffff1673ffffffffffffffffffffffffffffffffffffffff1681526020019081526020015f206007015f9054906101000a900467ffffffffffffffff166200d545919062013622565b6200d551919062012b0b565b90505f8284836200d5639190620129fa565b6200d56f919062012aa5565b905060405180608001604052808360070b81526020018767ffffffffffffffff1681526020018867ffffffffffffffff1681526020018260070b815250975050505050505050919050565b5f6200d5c56200eab9565b1580156200d654575073999999999999999999999999999999999999999973ffffffffffffffffffffffffffffffffffffffff16637ea558c86040518163ffffffff1660e01b8152600401602060405180830381865afa1580156200d62c573d5f5f3e3d5ffd5b505050506040513d601f19601f820116820180604052508101906200d652919062014cf5565b155b905090565b6200d663620109b1565b5f5f61080173ffffffffffffffffffffffffffffffffffffffff1685856040516020016200d69392919062013df9565b6040516020818303038152906040526040516200d6b1919062013f91565b5f60405180830381855afa9150503d805f81146200d6eb576040519150601f19603f3d011682016040523d82523d5f602084013e6200d6f0565b606091505b5091509150816200d72d576040517f062879da00000000000000000000000000000000000000000000000000000000815260040160405180910390fd5b808060200190518101906200d743919062013ea6565b9250505092915050565b60605f737109709ecfa91a80626ff3989d68f67f5b1dd12d73ffffffffffffffffffffffffffffffffffffffff166356ca623e856040518263ffffffff1660e01b81526004016200d79f91906201390e565b5f60405180830381865afa1580156200d7ba573d5f5f3e3d5ffd5b505050506040513d5f823e3d601f19601f820116820180604052508101906200d7e4919062014dd7565b737109709ecfa91a80626ff3989d68f67f5b1dd12d73ffffffffffffffffffffffffffffffffffffffff166371aad10d856040518263ffffffff1660e01b81526004016200d833919062014e76565b5f60405180830381865afa1580156200d84e573d5f5f3e3d5ffd5b505050506040513d5f823e3d601f19601f820116820180604052508101906200d878919062014dd7565b6040516020016200d88b92919062014f4a565b60405160208183030381529060405290505f5f905080156200da26575f6200d8b3436200eb50565b6040516020016200d8c5919062014fca565b6040516020818303038152906040529050737109709ecfa91a80626ff3989d68f67f5b1dd12d73ffffffffffffffffffffffffffffffffffffffff166356ca623e876040518263ffffffff1660e01b81526004016200d92591906201390e565b5f60405180830381865afa1580156200d940573d5f5f3e3d5ffd5b505050506040513d5f823e3d601f19601f820116820180604052508101906200d96a919062014dd7565b737109709ecfa91a80626ff3989d68f67f5b1dd12d73ffffffffffffffffffffffffffffffffffffffff166371aad10d876040518263ffffffff1660e01b81526004016200d9b9919062014e76565b5f60405180830381865afa1580156200d9d4573d5f5f3e3d5ffd5b505050506040513d5f823e3d601f19601f820116820180604052508101906200d9fe919062014dd7565b826040516020016200da13939291906201503f565b6040516020818303038152906040529250505b737109709ecfa91a80626ff3989d68f67f5b1dd12d73ffffffffffffffffffffffffffffffffffffffff16631206c8a8836040518263ffffffff1660e01b81526004016200da75919062015147565b5f604051808303815f875af19250505080156200dab657506040513d5f823e3d601f19601f820116820180604052508101906200dab391906201522f565b60015b6200dad45760405180602001604052805f815250925050506200dadb565b8093505050505b92915050565b5f815f01805490509050919050565b5f825f0182815481106200db09576200db0862013204565b5b905f5260205f200154905092915050565b5f815f015f9054906101000a90046fffffffffffffffffffffffffffffffff166fffffffffffffffffffffffffffffffff16825f0160109054906101000a90046fffffffffffffffffffffffffffffffff166fffffffffffffffffffffffffffffffff16149050919050565b634e487b715f52806020526024601cfd5b6200dba162010be3565b6200dbab6200d5ba565b156200dbc5576200dbbd83836200ec90565b90506200dc13565b5f6200dbf761080f85856040516020016200dbe29291906201527e565b6040516020818303038152906040526200d74d565b9050808060200190518101906200dc0f91906201532b565b9150505b92915050565b5f5f5f61080773ffffffffffffffffffffffffffffffffffffffff16846040516020016200dc48919062011bea565b6040516020818303038152906040526040516200dc66919062013f91565b5f60405180830381855afa9150503d805f81146200dca0576040519150601f19603f3d011682016040523d82523d5f602084013e6200dca5565b606091505b5091509150816200dce2576040517f3a3e04c500000000000000000000000000000000000000000000000000000000815260040160405180910390fd5b808060200190518101906200dcf8919062013f21565b92505050919050565b60605f5f61080473ffffffffffffffffffffffffffffffffffffffff16846040516020016200dd3191906201390e565b6040516020818303038152906040526040516200dd4f919062013f91565b5f60405180830381855afa9150503d805f81146200dd89576040519150601f19603f3d011682016040523d82523d5f602084013e6200dd8e565b606091505b5091509150816200ddcb576040517f56debe6600000000000000000000000000000000000000000000000000000000815260040160405180910390fd5b808060200190518101906200dde19190620143b1565b92505050919050565b6060815f018054806020026020016040519081016040528092919081815260200182805480156200de3957602002820191905f5260205f20905b8154815260200190600101908083116200de24575b50505050509050919050565b5f8473ffffffffffffffffffffffffffffffffffffffff166370a08231856040516024016200de7591906201390e565b6040516020818303038152906040529060e01b6020820180517bffffffffffffffffffffffffffffffffffffffffffffffffffffffff83818316178352505050506040516200dec5919062013f91565b5f60405180830381855afa9150503d805f81146200deff576040519150601f19603f3d011682016040523d82523d5f602084013e6200df04565b606091505b509150505f818060200190518101906200df1f9190620139f4565b90506200df7a846200df6b876200df5c6370a0823160e01b6200df4d8c60016200ed8490919063ffffffff16565b6200ed9990919063ffffffff16565b6200edae90919063ffffffff16565b6200edc390919063ffffffff16565b82156200e0e2575f8673ffffffffffffffffffffffffffffffffffffffff166318160ddd6040516024016040516020818303038152906040529060e01b6020820180517bffffffffffffffffffffffffffffffffffffffffffffffffffffffff83818316178352505050506040516200dff4919062013f91565b5f60405180830381855afa9150503d805f81146200e02e576040519150601f19603f3d011682016040523d82523d5f602084013e6200e033565b606091505b509150505f818060200190518101906200e04e9190620139f4565b9050828610156200e07c5785836200e06791906201295c565b816200e07491906201295c565b90506200e09a565b82866200e08a91906201295c565b816200e0979190620138c3565b90505b6200e0df816200e0d06318160ddd60e01b6200e0c18c60016200ed8490919063ffffffff16565b6200ed9990919063ffffffff16565b6200edc390919063ffffffff16565b50505b505050505050565b5f5f60205f8451602086015f885af1806200e10a576040513d5f823e3d81fd5b3d92505f519150505f82146200e1255760018114156200e140565b5f8473ffffffffffffffffffffffffffffffffffffffff163b145b156200e18557836040517f5274afe70000000000000000000000000000000000000000000000000000000081526004016200e17c91906201390e565b60405180910390fd5b50505050565b5f5f5f61080373ffffffffffffffffffffffffffffffffffffffff16846040516020016200e1ba91906201390e565b6040516020818303038152906040526040516200e1d8919062013f91565b5f60405180830381855afa9150503d805f81146200e212576040519150601f19603f3d011682016040523d82523d5f602084013e6200e217565b606091505b5091509150816200e254576040517f70a5e2e600000000000000000000000000000000000000000000000000000000815260040160405180910390fd5b808060200190518101906200e26a9190620145e6565b5f015192505050919050565b6200e28062010a83565b5f5f61080c73ffffffffffffffffffffffffffffffffffffffff16846040516020016200e2ae9190620112ca565b6040516020818303038152906040526040516200e2cc919062013f91565b5f60405180830381855afa9150503d805f81146200e306576040519150601f19603f3d011682016040523d82523d5f602084013e6200e30b565b606091505b5091509150816200e348576040517fee6b81c500000000000000000000000000000000000000000000000000000000815260040160405180910390fd5b808060200190518101906200e35e919062014801565b92505050919050565b5f5f5f61080673ffffffffffffffffffffffffffffffffffffffff16846040516020016200e396919062011bea565b6040516020818303038152906040526040516200e3b4919062013f91565b5f60405180830381855afa9150503d805f81146200e3ee576040519150601f19603f3d011682016040523d82523d5f602084013e6200e3f3565b606091505b5091509150816200e430576040517f928da67300000000000000000000000000000000000000000000000000000000815260040160405180910390fd5b808060200190518101906200e446919062013f21565b92505050919050565b5f6200e45e835f01836200e4cd565b905092915050565b5f6200e477835f01835f1b6200e4cd565b905092915050565b5f8167ffffffffffffffff168367ffffffffffffffff16116200e4a357816200e4a5565b825b905092915050565b5f5f836001015f8481526020019081526020015f20541415905092915050565b5f6200e4da83836200e4ad565b6200e52e57825f0182908060018154018082558091505060019003905f5260205f20015f9091909190915055825f0180549050836001015f8481526020019081526020015f2081905550600190506200e532565b5f90505b92915050565b5f5f836001015f8481526020019081526020015f205490505f81146200e639575f6001826200e56891906201295c565b90505f6001865f01805490506200e58091906201295c565b90508082146200e5ed575f865f0182815481106200e5a3576200e5a262013204565b5b905f5260205f200154905080875f0184815481106200e5c7576200e5c662013204565b5b905f5260205f20018190555083876001015f8381526020019081526020015f2081905550505b855f018054806200e603576200e60262013d38565b5b600190038181905f5260205f20015f90559055856001015f8681526020019081526020015f205f9055600193505050506200e63e565b5f9150505b92915050565b6200e64e62010b55565b5f5f61080073ffffffffffffffffffffffffffffffffffffffff1685856040516020016200e67e92919062014bd3565b6040516020818303038152906040526040516200e69c919062013f91565b5f60405180830381855afa9150503d805f81146200e6d6576040519150601f19603f3d011682016040523d82523d5f602084013e6200e6db565b606091505b5091509150816200e718576040517f7de84ab700000000000000000000000000000000000000000000000000000000815260040160405180910390fd5b808060200190518101906200e72e919062014cc5565b9250505092915050565b5f5f5f61080873ffffffffffffffffffffffffffffffffffffffff16846040516020016200e7679190620112ca565b6040516020818303038152906040526040516200e785919062013f91565b5f60405180830381855afa9150503d805f81146200e7bf576040519150601f19603f3d011682016040523d82523d5f602084013e6200e7c4565b606091505b5091509150816200e801576040517f98c3442600000000000000000000000000000000000000000000000000000000815260040160405180910390fd5b808060200190518101906200e817919062013f21565b92505050919050565b6200e82a620109ed565b6200e8346200d5ba565b156200e84e576200e84683836200edd5565b90506200e8d7565b5f6200e88061080285856040516020016200e86b9291906201535b565b6040516020818303038152906040526200d74d565b90505f8151036200e8bd5760405180604001604052805f67ffffffffffffffff1681526020015f67ffffffffffffffff168152509150506200e8d7565b808060200190518101906200e8d39190620153dc565b9150505b92915050565b5f5f5f61081073ffffffffffffffffffffffffffffffffffffffff16846040516020016200e90c91906201390e565b6040516020818303038152906040526040516200e92a919062013f91565b5f60405180830381855afa9150503d805f81146200e964576040519150601f19603f3d011682016040523d82523d5f602084013e6200e969565b606091505b5091509150816200e9a6576040517fafa9572000000000000000000000000000000000000000000000000000000000815260040160405180910390fd5b808060200190518101906200e9bc91906201544c565b5f015192505050919050565b6200e9d262010b97565b5f5f61080573ffffffffffffffffffffffffffffffffffffffff16846040516020016200ea0091906201390e565b6040516020818303038152906040526040516200ea1e919062013f91565b5f60405180830381855afa9150503d805f81146200ea58576040519150601f19603f3d011682016040523d82523d5f602084013e6200ea5d565b606091505b5091509150816200ea9a576040517f4ffb6d5f00000000000000000000000000000000000000000000000000000000815260040160405180910390fd5b808060200190518101906200eab0919062014da7565b92505050919050565b5f737109709ecfa91a80626ff3989d68f67f5b1dd12d73ffffffffffffffffffffffffffffffffffffffff16632f103f226040518163ffffffff1660e01b8152600401602060405180830381865afa9250505080156200eb3957506040513d601f19601f820116820180604052508101906200eb369190620139f4565b60015b6200eb47575f90506200eb4d565b60019150505b90565b60605f5f90505f8390505b5f81146200eb8a5781806200eb70906201547c565b9250506010816200eb829190620135eb565b90506200eb5b565b5f8267ffffffffffffffff8111156200eba8576200eba762010f9f565b5b6040519080825280601f01601f1916602001820160405280156200ebdb5781602001600182028036833780820191505090505b5090505f5f90505b838110156200ec84576010866200ebfb9190620154c8565b92506200ec08836200eec9565b82600183876200ec1991906201295c565b6200ec2591906201295c565b815181106200ec39576200ec3862013204565b5b60200101907effffffffffffffffffffffffffffffffffffffffffffffffffffffffffffff191690815f1a9053506010866200ec769190620135eb565b95508060010190506200ebe3565b50809350505050919050565b6200ec9a62010be3565b5f5f61080f73ffffffffffffffffffffffffffffffffffffffff1685856040516020016200ecca9291906201527e565b6040516020818303038152906040526040516200ece8919062013f91565b5f60405180830381855afa9150503d805f81146200ed22576040519150601f19603f3d011682016040523d82523d5f602084013e6200ed27565b606091505b5091509150816200ed64576040517f7cf4fff200000000000000000000000000000000000000000000000000000000815260040160405180910390fd5b808060200190518101906200ed7a91906201532b565b9250505092915050565b5f6200ed9183836200ef96565b905092915050565b5f6200eda683836200efe2565b905092915050565b5f6200edbb83836200f00b565b905092915050565b6200edd182825f1b6200f055565b5050565b6200eddf620109ed565b5f5f61080273ffffffffffffffffffffffffffffffffffffffff1685856040516020016200ee0f9291906201535b565b6040516020818303038152906040526040516200ee2d919062013f91565b5f60405180830381855afa9150503d805f81146200ee67576040519150601f19603f3d011682016040523d82523d5f602084013e6200ee6c565b606091505b5091509150816200eea9576040517fb1f87d6800000000000000000000000000000000000000000000000000000000815260040160405180910390fd5b808060200190518101906200eebf9190620153dc565b9250505092915050565b5f8160ff165f111580156200eee2575060098260ff1611155b156200ef2457817f300000000000000000000000000000000000000000000000000000000000000060f81c6200ef199190620154ff565b60f81b90506200ef91565b8160ff16600a111580156200ef3d5750600f8260ff1611155b156200ef8d57600a827f610000000000000000000000000000000000000000000000000000000000000060f81c6200ef769190620154ff565b6200ef82919062014982565b60f81b90506200ef91565b5f5ffd5b919050565b5f81836004015f6101000a81548173ffffffffffffffffffffffffffffffffffffffff021916908373ffffffffffffffffffffffffffffffffffffffff16021790555082905092915050565b5f81836002015f6101000a81548163ffffffff021916908360e01c021790555082905092915050565b5f826001018273ffffffffffffffffffffffffffffffffffffffff165f1b908060018154018082558091505060019003905f5260205f20015f909190919091505582905092915050565b5f826004015f9054906101000a900473ffffffffffffffffffffffffffffffffffffffff1690505f836002015f9054906101000a900460e01b90505f846003015490505f6200f0a4866200f61f565b9050855f015f8573ffffffffffffffffffffffffffffffffffffffff1673ffffffffffffffffffffffffffffffffffffffff1681526020019081526020015f205f847bffffffffffffffffffffffffffffffffffffffffffffffffffffffff19167bffffffffffffffffffffffffffffffffffffffffffffffffffffffff191681526020019081526020015f205f82846040516020016200f1479291906201555e565b6040516020818303038152906040528051906020012081526020019081526020015f206003015f9054906101000a900460ff166200f18d576200f18b865f6200f73b565b505b5f865f015f8673ffffffffffffffffffffffffffffffffffffffff1673ffffffffffffffffffffffffffffffffffffffff1681526020019081526020015f205f857bffffffffffffffffffffffffffffffffffffffffffffffffffffffff19167bffffffffffffffffffffffffffffffffffffffffffffffffffffffff191681526020019081526020015f205f83856040516020016200f22f9291906201555e565b6040516020818303038152906040528051906020012081526020019081526020015f2090505f816002015482600101546200f26b9190620138c3565b11156200f3b7575f816002015482600101546200f2899190620138c3565b6101006200f29891906201295c565b60026200f2a6919062015589565b905080875f1c107f885cb69240a935d632d79c317109709ecfa91a80626ff3989d68f67f5b1dd12d5f1c73ffffffffffffffffffffffffffffffffffffffff16636900a3ae836040518263ffffffff1660e01b81526004016200f30a91906201269a565b5f60405180830381865afa1580156200f325573d5f5f3e3d5ffd5b505050506040513d5f823e3d601f19601f820116820180604052508101906200f34f919062014dd7565b6040516020016200f361919062015673565b604051602081830303815290604052906200f3b4576040517f08c379a00000000000000000000000000000000000000000000000000000000081526004016200f3ab919062015698565b60405180910390fd5b50505b5f7f885cb69240a935d632d79c317109709ecfa91a80626ff3989d68f67f5b1dd12d5f1c73ffffffffffffffffffffffffffffffffffffffff1663667f9d7087845f01545f1b6040518363ffffffff1660e01b81526004016200f41c929190620156d4565b602060405180830381865afa1580156200f438573d5f5f3e3d5ffd5b505050506040513d601f19601f820116820180604052508101906200f45e91906201572e565b90505f6200f47982895f1c856001015486600201546200f753565b90507f885cb69240a935d632d79c317109709ecfa91a80626ff3989d68f67f5b1dd12d5f1c73ffffffffffffffffffffffffffffffffffffffff166370ca10bb88855f01545f1b846040518463ffffffff1660e01b81526004016200f4e1939291906201575e565b5f604051808303815f87803b1580156200f4f9575f5ffd5b505af11580156200f50c573d5f5f3e3d5ffd5b505050505f5f6200f51d8b6200f776565b915091508115806200f52f5750898114155b156200f607577f885cb69240a935d632d79c317109709ecfa91a80626ff3989d68f67f5b1dd12d5f1c73ffffffffffffffffffffffffffffffffffffffff166370ca10bb8a875f01545f1b876040518463ffffffff1660e01b81526004016200f59b939291906201575e565b5f604051808303815f87803b1580156200f5b3575f5ffd5b505af11580156200f5c6573d5f5f3e3d5ffd5b505050506040517f08c379a00000000000000000000000000000000000000000000000000000000081526004016200f5fe906201580d565b60405180910390fd5b6200f6128b6200f879565b5050505050505050505050565b60605f8260070180546200f6339062012c22565b9050036200f6a0576200f698826001018054806020026020016040519081016040528092919081815260200182805480156200f68d57602002820191905f5260205f20905b8154815260200190600101908083116200f678575b50505050506200f887565b90506200f736565b8160070180546200f6b19062012c22565b80601f01602080910402602001604051908101604052809291908181526020018280546200f6df9062012c22565b80156200f72e5780601f106200f704576101008083540402835291602001916200f72e565b820191905f5260205f20905b8154815290600101906020018083116200f71057829003601f168201915b505050505090505b919050565b5f6200f74883836200f940565b5f0154905092915050565b5f8184901b6200f7648484620102ab565b19865f1c16175f1b9050949350505050565b5f5f5f836002015f9054906101000a900460e01b6200f795856200f61f565b6040516020016200f7a89291906201587c565b60405160208183030381529060405290505f5f856004015f9054906101000a900473ffffffffffffffffffffffffffffffffffffffff1673ffffffffffffffffffffffffffffffffffffffff16836040516200f805919062013f91565b5f60405180830381855afa9150503d805f81146200f83f576040519150601f19603f3d011682016040523d82523d5f602084013e6200f844565b606091505b50915091505f6200f86882886003015460206200f862919062012f1c565b620102c2565b905082819550955050505050915091565b6200f8848162010389565b50565b60605f602083516200f89a919062012f1c565b67ffffffffffffffff8111156200f8b6576200f8b562010f9f565b5b6040519080825280601f01601f1916602001820160405280156200f8e95781602001600182028036833780820191505090505b5090505f5f90505b83518110156200f936575f8482815181106200f912576200f91162013204565b5b6020026020010151905080826020026020018401525080806001019150506200f8f1565b5080915050919050565b5f5f836004015f9054906101000a900473ffffffffffffffffffffffffffffffffffffffff1690505f846002015f9054906101000a900460e01b90505f856003015490505f6200f990876200f61f565b9050865f015f8573ffffffffffffffffffffffffffffffffffffffff1673ffffffffffffffffffffffffffffffffffffffff1681526020019081526020015f205f847bffffffffffffffffffffffffffffffffffffffffffffffffffffffff19167bffffffffffffffffffffffffffffffffffffffffffffffffffffffff191681526020019081526020015f205f82846040516020016200fa339291906201555e565b6040516020818303038152906040528051906020012081526020019081526020015f206003015f9054906101000a900460ff16156200fb4f5785156200fa7f576200fa7e8762010389565b5b865f015f8573ffffffffffffffffffffffffffffffffffffffff1673ffffffffffffffffffffffffffffffffffffffff1681526020019081526020015f205f847bffffffffffffffffffffffffffffffffffffffffffffffffffffffff19167bffffffffffffffffffffffffffffffffffffffffffffffffffffffff191681526020019081526020015f205f82846040516020016200fb209291906201555e565b6040516020818303038152906040528051906020012081526020019081526020015f20945050505050620102a5565b7f885cb69240a935d632d79c317109709ecfa91a80626ff3989d68f67f5b1dd12d5f1c73ffffffffffffffffffffffffffffffffffffffff1663266cf1096040518163ffffffff1660e01b81526004015f604051808303815f87803b1580156200fbb7575f5ffd5b505af11580156200fbca573d5f5f3e3d5ffd5b505050505f6200fbda886200f776565b9150505f7f885cb69240a935d632d79c317109709ecfa91a80626ff3989d68f67f5b1dd12d5f1c73ffffffffffffffffffffffffffffffffffffffff166365bc9481876040518263ffffffff1660e01b81526004016200fc3b91906201390e565b5f60405180830381865afa1580156200fc56573d5f5f3e3d5ffd5b505050506040513d5f823e3d601f19601f820116820180604052508101906200fc8091906201597a565b5090505f8151036200fcc9576040517f08c379a00000000000000000000000000000000000000000000000000000000081526004016200fcc09062015a71565b60405180910390fd5b5f815190505b5f816200fcdc9062012bc9565b91508110620100ae575f7f885cb69240a935d632d79c317109709ecfa91a80626ff3989d68f67f5b1dd12d5f1c73ffffffffffffffffffffffffffffffffffffffff1663667f9d70898585815181106200fd3b576200fd3a62013204565b5b60200260200101516040518363ffffffff1660e01b81526004016200fd62929190620156d4565b602060405180830381865afa1580156200fd7e573d5f5f3e3d5ffd5b505050506040513d601f19601f820116820180604052508101906200fda491906201572e565b90505f5f1b81036200fe0b577f080fc4a96620c4462e705b23f346413fe3796bb63c6f8d8591baec0e231577a5888484815181106200fde8576200fde762013204565b5b60200260200101515f1c6040516200fe0292919062014530565b60405180910390a15b6200fe348b8484815181106200fe26576200fe2562013204565b5b602002602001015162010404565b6200fe405750620100a8565b5f5f5f5f915091508c6006015f9054906101000a900460ff16156200fea7575f6200fe898e8787815181106200fe7b576200fe7a62013204565b5b6020026020010151620106a7565b809450819550829350505050806200fea55750505050620100a8565b505b5f816200feb58484620102ab565b855f1c16901c905080875f1c146200fed15750505050620100a8565b7f9c9555b1e3102e3cf48f427d79cb678f5d9bd1ed0ad574389461e255f95170ed8b8b8a8c6040516020016200ff099291906201555e565b604051602081830303815290604052805190602001208989815181106200ff35576200ff3462013204565b5b60200260200101515f1c6040516200ff51949392919062015aa2565b60405180910390a160405180608001604052808787815181106200ff7a576200ff7962013204565b5b60200260200101515f1c8152602001848152602001838152602001600115158152508e5f015f8d73ffffffffffffffffffffffffffffffffffffffff1673ffffffffffffffffffffffffffffffffffffffff1681526020019081526020015f205f8c7bffffffffffffffffffffffffffffffffffffffffffffffffffffffff19167bffffffffffffffffffffffffffffffffffffffffffffffffffffffff191681526020019081526020015f205f8a8c6040516020016201003d9291906201555e565b6040516020818303038152906040528051906020012081526020019081526020015f205f820151815f015560208201518160010155604082015181600201556060820151816003015f6101000a81548160ff02191690831515021790555090505050505050620100ae565b6200fccf565b50885f015f8773ffffffffffffffffffffffffffffffffffffffff1673ffffffffffffffffffffffffffffffffffffffff1681526020019081526020015f205f867bffffffffffffffffffffffffffffffffffffffffffffffffffffffff19167bffffffffffffffffffffffffffffffffffffffffffffffffffffffff191681526020019081526020015f205f8486604051602001620101509291906201555e565b6040516020818303038152906040528051906020012081526020019081526020015f206003015f9054906101000a900460ff16620101c5576040517f08c379a0000000000000000000000000000000000000000000000000000000008152600401620101bc9062015b61565b60405180910390fd5b8715620101d857620101d78962010389565b5b885f015f8773ffffffffffffffffffffffffffffffffffffffff1673ffffffffffffffffffffffffffffffffffffffff1681526020019081526020015f205f867bffffffffffffffffffffffffffffffffffffffffffffffffffffffff19167bffffffffffffffffffffffffffffffffffffffffffffffffffffffff191681526020019081526020015f205f8486604051602001620102799291906201555e565b6040516020818303038152906040528051906020012081526020019081526020015f2096505050505050505b92915050565b5f600180848401610100031b03821b905092915050565b5f5f5f83855111620102d5575f620102e5565b838551620102e491906201295c565b5b90506020811115620102f657602090505b5f5f90505b818110156201037d5760088162010313919062012f1c565b60ff60f81b878388620103279190620138c3565b815181106201033b576201033a62013204565b5b602001015160f81c60f81b167effffffffffffffffffffffffffffffffffffffffffffffffffffffffffffff1916901c831792508080600101915050620102fb565b50819250505092915050565b806004015f6101000a81549073ffffffffffffffffffffffffffffffffffffffff0219169055806002015f6101000a81549063ffffffff0219169055806001015f620103d6919062010c65565b806003015f9055806006015f6101000a81549060ff0219169055806007015f62010401919062010c82565b50565b5f5f7f885cb69240a935d632d79c317109709ecfa91a80626ff3989d68f67f5b1dd12d5f1c73ffffffffffffffffffffffffffffffffffffffff1663667f9d70856004015f9054906101000a900473ffffffffffffffffffffffffffffffffffffffff16856040518363ffffffff1660e01b815260040162010488929190620156d4565b602060405180830381865afa158015620104a4573d5f5f3e3d5ffd5b505050506040513d601f19601f82011682018060405250810190620104ca91906201572e565b90505f5f620104d9866200f776565b915091505f5f5f1b8214620104f1575f5f1b62010515565b7fffffffffffffffffffffffffffffffffffffffffffffffffffffffffffffffff5f1b5b90507f885cb69240a935d632d79c317109709ecfa91a80626ff3989d68f67f5b1dd12d5f1c73ffffffffffffffffffffffffffffffffffffffff166370ca10bb886004015f9054906101000a900473ffffffffffffffffffffffffffffffffffffffff1688846040518463ffffffff1660e01b81526004016201059b939291906201575e565b5f604051808303815f87803b158015620105b3575f5ffd5b505af1158015620105c6573d5f5f3e3d5ffd5b505050505f620105d6886200f776565b9150507f885cb69240a935d632d79c317109709ecfa91a80626ff3989d68f67f5b1dd12d5f1c73ffffffffffffffffffffffffffffffffffffffff166370ca10bb896004015f9054906101000a900473ffffffffffffffffffffffffffffffffffffffff1689886040518463ffffffff1660e01b81526004016201065d939291906201575e565b5f604051808303815f87803b15801562010675575f5ffd5b505af115801562010688573d5f5f3e3d5ffd5b505050508380156201069a5750808314155b9550505050505092915050565b5f5f5f5f7f885cb69240a935d632d79c317109709ecfa91a80626ff3989d68f67f5b1dd12d5f1c73ffffffffffffffffffffffffffffffffffffffff1663667f9d70876004015f9054906101000a900473ffffffffffffffffffffffffffffffffffffffff16876040518363ffffffff1660e01b81526004016201072d929190620156d4565b602060405180830381865afa15801562010749573d5f5f3e3d5ffd5b505050506040513d601f19601f820116820180604052508101906201076f91906201572e565b90505f5f62010781888860016201086a565b915091505f5f620107948a8a5f6201086a565b915091507f885cb69240a935d632d79c317109709ecfa91a80626ff3989d68f67f5b1dd12d5f1c73ffffffffffffffffffffffffffffffffffffffff166370ca10bb8b6004015f9054906101000a900473ffffffffffffffffffffffffffffffffffffffff168b886040518463ffffffff1660e01b81526004016201081c939291906201575e565b5f604051808303815f87803b15801562010834575f5ffd5b505af115801562010847573d5f5f3e3d5ffd5b50505050838015620108565750815b838297509750975050505050509250925092565b5f5f5f5f90505b610100811015620109a1575f846201088e57816001901b620108a2565b8160ff6201089d91906201295c565b6001901b5b90507f885cb69240a935d632d79c317109709ecfa91a80626ff3989d68f67f5b1dd12d5f1c73ffffffffffffffffffffffffffffffffffffffff166370ca10bb886004015f9054906101000a900473ffffffffffffffffffffffffffffffffffffffff1688845f1b6040518463ffffffff1660e01b81526004016201092a939291906201575e565b5f604051808303815f87803b15801562010942575f5ffd5b505af115801562010955573d5f5f3e3d5ffd5b505050505f5f62010966896200f776565b915091508180156201097957505f815f1c115b1562010990576001849550955050505050620109a9565b505050808060010191505062010871565b505f5f915091505b935093915050565b60405180606001604052805f67ffffffffffffffff1681526020015f67ffffffffffffffff1681526020015f67ffffffffffffffff1681525090565b60405180604001604052805f67ffffffffffffffff1681526020015f67ffffffffffffffff1681525090565b60405180606001604052805f73ffffffffffffffffffffffffffffffffffffffff1681526020015f67ffffffffffffffff1681526020015f67ffffffffffffffff1681525090565b60405180604001604052806060815260200162010a7d62010cc2565b81525090565b60405180610100016040528060608152602001606081526020015f67ffffffffffffffff1681526020015f73ffffffffffffffffffffffffffffffffffffffff1681526020015f73ffffffffffffffffffffffffffffffffffffffff1681526020015f60ff1681526020015f60ff1681526020015f5f0b81525090565b60405180602001604052805f67ffffffffffffffff1681525090565b6040518060a00160405280606081526020015f63ffffffff1681526020015f60ff1681526020015f60ff1681526020015f151581525090565b6040518060a001604052805f60070b81526020015f67ffffffffffffffff1681526020015f60070b81526020015f63ffffffff1681526020015f151581525090565b60405180608001604052805f67ffffffffffffffff1681526020015f67ffffffffffffffff1681526020015f67ffffffffffffffff1681526020015f67ffffffffffffffff1681525090565b60405180608001604052805f60070b81526020015f67ffffffffffffffff1681526020015f67ffffffffffffffff1681526020015f60070b81525090565b60405180606001604052805f73ffffffffffffffffffffffffffffffffffffffff1681526020015f67ffffffffffffffff1681526020015f63ffffffff1681525090565b5080545f8255905f5260205f209062010c7f919062010ce4565b50565b50805462010c909062012c22565b5f825580601f1062010ca3575062010cbf565b601f0160209004905f5260205f209062010cbe919062010d03565b5b50565b6040518060400160405280600290602082028036833780820191505090505090565b5f5b8082111562010cfe578281015f905560010162010ce6565b505090565b5f5b8082111562010d1d578281015f905560010162010d05565b505090565b5f604051905090565b5f5ffd5b5f5ffd5b5f73ffffffffffffffffffffffffffffffffffffffff82169050919050565b5f62010d5e8262010d33565b9050919050565b62010d708162010d52565b811462010d7b575f5ffd5b50565b5f8135905062010d8e8162010d65565b92915050565b5f67ffffffffffffffff82169050919050565b62010db28162010d94565b811462010dbd575f5ffd5b50565b5f8135905062010dd08162010da7565b92915050565b5f5f6040838503121562010def5762010dee62010d2b565b5b5f62010dfe8582860162010d7e565b925050602062010e118582860162010dc0565b9150509250929050565b62010e268162010d94565b82525050565b606082015f82015162010e425f85018262010e1b565b50602082015162010e57602085018262010e1b565b50604082015162010e6c604085018262010e1b565b50505050565b5f60608201905062010e875f83018462010e2c565b92915050565b5f6020828403121562010ea55762010ea462010d2b565b5b5f62010eb48482850162010d7e565b91505092915050565b5f8115159050919050565b62010ed38162010ebd565b82525050565b5f60208201905062010eee5f83018462010ec8565b92915050565b5f5f5f6060848603121562010f0e5762010f0d62010d2b565b5b5f62010f1d8682870162010d7e565b935050602062010f308682870162010dc0565b925050604062010f438682870162010dc0565b9150509250925092565b5f63ffffffff82169050919050565b62010f678162010f4d565b811462010f72575f5ffd5b50565b5f8135905062010f858162010f5c565b92915050565b5f5ffd5b5f601f19601f8301169050919050565b7f4e487b71000000000000000000000000000000000000000000000000000000005f52604160045260245ffd5b62010fd78262010f8f565b810181811067ffffffffffffffff8211171562010ff95762010ff862010f9f565b5b80604052505050565b5f6201100d62010d22565b90506201101b828262010fcc565b919050565b5f5ffd5b5f5ffd5b5f5ffd5b5f67ffffffffffffffff82111562011049576201104862010f9f565b5b620110548262010f8f565b9050602081019050919050565b828183375f83830152505050565b5f620110856201107f846201102c565b62011002565b905082815260208101848484011115620110a457620110a362011028565b5b620110b184828562011061565b509392505050565b5f82601f830112620110d057620110cf62011024565b5b8135620110e28482602086016201106f565b91505092915050565b5f67ffffffffffffffff82111562011108576201110762010f9f565b5b602082029050919050565b5f5ffd5b5f6201112d6201112784620110eb565b62011002565b905080602084028301858111156201114a576201114962011113565b5b835b8181101562011177578062011162888262010dc0565b8452602084019350506020810190506201114c565b5050509392505050565b5f82601f83011262011198576201119762011024565b5b6002620111a784828562011117565b91505092915050565b5f60608284031215620111c857620111c762010f8b565b5b620111d4604062011002565b90505f82013567ffffffffffffffff811115620111f657620111f562011020565b5b6201120484828501620110b9565b5f830152506020620112198482850162011181565b60208301525092915050565b5f5f604083850312156201123e576201123d62010d2b565b5b5f6201124d8582860162010f75565b925050602083013567ffffffffffffffff81111562011271576201127062010d2f565b5b6201127f85828601620111b0565b9150509250929050565b5f60208284031215620112a157620112a062010d2b565b5b5f620112b08482850162010f75565b91505092915050565b620112c48162010d94565b82525050565b5f602082019050620112df5f830184620112b9565b92915050565b5f61ffff82169050919050565b620112fd81620112e5565b811462011308575f5ffd5b50565b5f813590506201131b81620112f2565b92915050565b5f5f5f606084860312156201133b576201133a62010d2b565b5b5f6201134a8682870162010d7e565b93505060206201135d868287016201130b565b9250506040620113708682870162010f75565b9150509250925092565b620113858162010ebd565b811462011390575f5ffd5b50565b5f81359050620113a3816201137a565b92915050565b5f60ff82169050919050565b620113c081620113a9565b8114620113cb575f5ffd5b50565b5f81359050620113de81620113b5565b92915050565b5f6fffffffffffffffffffffffffffffffff82169050919050565b6201140a81620113e4565b811462011415575f5ffd5b50565b5f813590506201142881620113ff565b92915050565b5f60e0828403121562011446576201144562010f8b565b5b6201145260e062011002565b90505f620114638482850162010f75565b5f830152506020620114788482850162011393565b60208301525060406201148e8482850162010dc0565b6040830152506060620114a48482850162010dc0565b6060830152506080620114ba8482850162011393565b60808301525060a0620114d084828501620113ce565b60a08301525060c0620114e68482850162011418565b60c08301525092915050565b5f5f61010083850312156201150c576201150b62010d2b565b5b5f6201151b8582860162010d7e565b92505060206201152e858286016201142e565b9150509250929050565b5f62ffffff82169050919050565b620115518162011538565b81146201155c575f5ffd5b50565b5f813590506201156f8162011546565b92915050565b5f5ffd5b5f5f83601f84011262011591576201159062011024565b5b8235905067ffffffffffffffff811115620115b157620115b062011575565b5b602083019150836001820283011115620115d057620115cf62011113565b5b9250929050565b5f5f5f5f60608587031215620115f257620115f162010d2b565b5b5f620116018782880162010d7e565b945050602062011614878288016201155f565b935050604085013567ffffffffffffffff81111562011638576201163762010d2f565b5b620116468782880162011579565b925092505092959194509250565b5f5f604083850312156201166d576201166c62010d2b565b5b5f6201167c8582860162010d7e565b92505060206201168f8582860162010d7e565b9150509250929050565b604082015f820151620116af5f85018262010e1b565b506020820151620116c4602085018262010e1b565b50505050565b5f604082019050620116df5f83018462011699565b92915050565b5f81519050919050565b5f82825260208201905092915050565b5f819050602082019050919050565b620117198162010d52565b82525050565b606082015f820151620117355f8501826201170e565b5060208201516201174a602085018262010e1b565b5060408201516201175f604085018262010e1b565b50505050565b5f6201177283836201171f565b60608301905092915050565b5f602082019050919050565b5f6201179682620116e5565b620117a28185620116ef565b9350620117af83620116ff565b805f5b83811015620117e5578151620117c9888262011765565b9750620117d6836201177e565b925050600181019050620117b2565b5085935050505092915050565b5f6020820190508181035f8301526201180c81846201178a565b905092915050565b5f5f5f606084860312156201182e576201182d62010d2b565b5b5f6201183d8682870162010f75565b9350506020620118508682870162010dc0565b9250506040620118638682870162011393565b9150509250925092565b5f67ffffffffffffffff8211156201188a576201188962010f9f565b5b602082029050602081019050919050565b5f620118b1620118ab846201186d565b62011002565b90508083825260208201905060208402830185811115620118d757620118d662011113565b5b835b81811015620119045780620118ef888262010dc0565b845260208401935050602081019050620118d9565b5050509392505050565b5f82601f83011262011925576201192462011024565b5b8135620119378482602086016201189b565b91505092915050565b5f815f0b9050919050565b620119568162011940565b811462011961575f5ffd5b50565b5f8135905062011974816201194b565b92915050565b5f610100828403121562011993576201199262010f8b565b5b620119a061010062011002565b90505f82013567ffffffffffffffff811115620119c257620119c162011020565b5b620119d084828501620110b9565b5f83015250602082013567ffffffffffffffff811115620119f657620119f562011020565b5b62011a04848285016201190e565b602083015250604062011a1a8482850162010dc0565b604083015250606062011a308482850162010d7e565b606083015250608062011a468482850162010d7e565b60808301525060a062011a5c84828501620113ce565b60a08301525060c062011a7284828501620113ce565b60c08301525060e062011a888482850162011964565b60e08301525092915050565b5f5f6040838503121562011aad5762011aac62010d2b565b5b5f62011abc8582860162010dc0565b925050602083013567ffffffffffffffff81111562011ae05762011adf62010d2f565b5b62011aee858286016201197a565b9150509250929050565b5f6060828403121562011b105762011b0f62010f8b565b5b62011b1c606062011002565b90505f62011b2d8482850162010d7e565b5f83015250602062011b428482850162010dc0565b602083015250604062011b588482850162010dc0565b60408301525092915050565b5f5f6080838503121562011b7d5762011b7c62010d2b565b5b5f62011b8c8582860162010d7e565b925050602062011b9f8582860162011af8565b9150509250929050565b5f6020828403121562011bc15762011bc062010d2b565b5b5f62011bd0848285016201130b565b91505092915050565b62011be48162010f4d565b82525050565b5f60208201905062011bff5f83018462011bd9565b92915050565b5f81519050919050565b5f82825260208201905092915050565b8281835e5f83830152505050565b5f62011c398262011c05565b62011c45818562011c0f565b935062011c5781856020860162011c1f565b62011c628162010f8f565b840191505092915050565b5f60029050919050565b5f81905092915050565b5f819050919050565b5f62011c97838362010e1b565b60208301905092915050565b5f602082019050919050565b62011cba8162011c6d565b62011cc6818462011c77565b925062011cd38262011c81565b805f5b8381101562011d0957815162011ced878262011c8a565b965062011cfa8362011ca3565b92505060018101905062011cd6565b505050505050565b5f606083015f8301518482035f86015262011d2d828262011c2d565b915050602083015162011d44602086018262011caf565b508091505092915050565b5f6020820190508181035f83015262011d69818462011d11565b905092915050565b5f6020828403121562011d895762011d8862010d2b565b5b5f62011d988482850162010dc0565b91505092915050565b5f819050919050565b62011db58162011da1565b811462011dc0575f5ffd5b50565b5f8135905062011dd38162011daa565b92915050565b5f5f6040838503121562011df25762011df162010d2b565b5b5f62011e018582860162010d7e565b925050602062011e148582860162011dc3565b9150509250929050565b5f5f6040838503121562011e375762011e3662010d2b565b5b5f62011e468582860162010f75565b925050602062011e598582860162010dc0565b9150509250929050565b602082015f82015162011e795f85018262010e1b565b50505050565b5f60208201905062011e945f83018462011e63565b92915050565b5f5f5f5f6080858703121562011eb55762011eb462010d2b565b5b5f62011ec48782880162010d7e565b945050602062011ed78782880162010d7e565b935050604062011eea8782880162010dc0565b925050606062011efd8782880162010dc0565b91505092959194509250565b5f5f5f6060848603121562011f235762011f2262010d2b565b5b5f62011f328682870162010d7e565b935050602062011f458682870162010d7e565b925050604062011f588682870162011dc3565b9150509250925092565b5f6060828403121562011f7a5762011f7962010f8b565b5b62011f86606062011002565b90505f62011f978482850162010d7e565b5f83015250602062011fac8482850162010dc0565b602083015250604062011fc28482850162011393565b60408301525092915050565b5f5f6080838503121562011fe75762011fe662010d2b565b5b5f62011ff68582860162010d7e565b9250506020620120098582860162011f62565b9150509250929050565b6201201e81620112e5565b82525050565b5f602082019050620120395f83018462012013565b92915050565b6201204a8162010f4d565b82525050565b6201205b81620113a9565b82525050565b6201206c8162010ebd565b82525050565b5f60a083015f8301518482035f8601526201208e828262011c2d565b9150506020830151620120a560208601826201203f565b506040830151620120ba604086018262012050565b506060830151620120cf606086018262012050565b506080830151620120e4608086018262012061565b508091505092915050565b5f6020820190508181035f83015262012109818462012072565b905092915050565b5f5f604083850312156201212a576201212962010d2b565b5b5f620121398582860162010d7e565b92505060206201214c858286016201130b565b9150509250929050565b5f8160070b9050919050565b6201216d8162012156565b82525050565b60a082015f820151620121895f85018262012162565b5060208201516201219e602085018262010e1b565b506040820151620121b3604085018262012162565b506060820151620121c860608501826201203f565b506080820151620121dd608085018262012061565b50505050565b5f60a082019050620121f85f83018462012173565b92915050565b5f60a0828403121562012216576201221562010f8b565b5b6201222260a062011002565b90505f82013567ffffffffffffffff81111562012244576201224362011020565b5b6201225284828501620110b9565b5f830152506020620122678482850162010f75565b60208301525060406201227d84828501620113ce565b60408301525060606201229384828501620113ce565b6060830152506080620122a98482850162011393565b60808301525092915050565b5f5f60408385031215620122ce57620122cd62010d2b565b5b5f620122dd858286016201130b565b925050602083013567ffffffffffffffff81111562012301576201230062010d2f565b5b6201230f85828601620121fe565b9150509250929050565b5f6060828403121562012331576201233062010f8b565b5b6201233d606062011002565b90505f6201234e8482850162010d7e565b5f830152506020620123638482850162011393565b6020830152506040620123798482850162010dc0565b60408301525092915050565b5f5f608083850312156201239e576201239d62010d2b565b5b5f620123ad8582860162010d7e565b9250506020620123c08582860162012319565b9150509250929050565b5f60208284031215620123e257620123e162010f8b565b5b620123ee602062011002565b90505f620123ff8482850162010dc0565b5f8301525092915050565b5f5f6040838503121562012423576201242262010d2b565b5b5f620124328582860162010d7e565b92505060206201244585828601620123ca565b9150509250929050565b5f81519050919050565b5f82825260208201905092915050565b5f819050602082019050919050565b5f602082019050919050565b5f62012490826201244f565b6201249c818562012459565b9350620124a98362012469565b805f5b83811015620124df578151620124c3888262011c8a565b9750620124d08362012478565b925050600181019050620124ac565b5085935050505092915050565b620124f78162011940565b82525050565b5f61010083015f8301518482035f8601526201251a828262011c2d565b9150506020830151848203602086015262012536828262012484565b91505060408301516201254d604086018262010e1b565b5060608301516201256260608601826201170e565b5060808301516201257760808601826201170e565b5060a08301516201258c60a086018262012050565b5060c0830151620125a160c086018262012050565b5060e0830151620125b660e0860182620124ec565b508091505092915050565b5f6020820190508181035f830152620125db8184620124fd565b905092915050565b5f60208284031215620125fb57620125fa62010d2b565b5b5f6201260a8482850162011dc3565b91505092915050565b608082015f820151620126295f85018262010e1b565b5060208201516201263e602085018262010e1b565b50604082015162012653604085018262010e1b565b50606082015162012668606085018262010e1b565b50505050565b5f608082019050620126835f83018462012613565b92915050565b620126948162011da1565b82525050565b5f602082019050620126af5f83018462012689565b92915050565b5f60208284031215620126cd57620126cc62010f8b565b5b620126d9602062011002565b90505f620126ea8482850162010dc0565b5f8301525092915050565b5f5f604083850312156201270e576201270d62010d2b565b5b5f6201271d8582860162010d7e565b92505060206201273085828601620126b5565b9150509250929050565b5f6040828403121562012752576201275162010f8b565b5b6201275e604062011002565b90505f6201276f8482850162010dc0565b5f830152506020620127848482850162011393565b60208301525092915050565b5f5f60608385031215620127a957620127a862010d2b565b5b5f620127b88582860162010d7e565b9250506020620127cb858286016201273a565b9150509250929050565b5f5f5f5f60808587031215620127f057620127ef62010d2b565b5b5f620127ff8782880162010d7e565b9450506020620128128782880162010dc0565b9350506040620128258782880162010d7e565b9250506060620128388782880162011dc3565b91505092959194509250565b5f5f604083850312156201285d576201285c62010d2b565b5b5f6201286c858286016201130b565b92505060206201287f8582860162010d7e565b9150509250929050565b608082015f8201516201289f5f85018262012162565b506020820151620128b4602085018262010e1b565b506040820151620128c9604085018262010e1b565b506060820151620128de606085018262012162565b50505050565b5f608082019050620128f95f83018462012889565b92915050565b5f6020828403121562012917576201291662010d2b565b5b5f620129268482850162011393565b91505092915050565b7f4e487b71000000000000000000000000000000000000000000000000000000005f52601160045260245ffd5b5f620129688262011da1565b9150620129758362011da1565b925082820390508181111562012990576201298f6201292f565b5b92915050565b7f4e487b71000000000000000000000000000000000000000000000000000000005f52601260045260245ffd5b5f620129cf8262010d94565b9150620129dc8362010d94565b925082620129ef57620129ee62012996565b5b828204905092915050565b5f62012a068262012156565b915062012a138362012156565b92508282039050677fffffffffffffff81137fffffffffffffffffffffffffffffffffffffffffffffffff80000000000000008212171562012a5a5762012a596201292f565b5b92915050565b5f62012a6c8262012156565b915062012a798362012156565b925082820262012a898162012156565b915080821462012a9e5762012a9d6201292f565b5b5092915050565b5f62012ab18262012156565b915062012abe8362012156565b925082820190507fffffffffffffffffffffffffffffffffffffffffffffffff80000000000000008112677fffffffffffffff8213171562012b055762012b046201292f565b5b92915050565b5f62012b178262010d94565b915062012b248362010d94565b9250828201905067ffffffffffffffff81111562012b475762012b466201292f565b5b92915050565b5f62012b598262010d94565b915062012b668362010d94565b925082820262012b768162010d94565b915080821462012b8b5762012b8a6201292f565b5b5092915050565b5f62012b9e8262010f4d565b915062012bab8362010f4d565b92508262012bbe5762012bbd62012996565b5b828204905092915050565b5f62012bd58262011da1565b91505f820362012bea5762012be96201292f565b5b600182039050919050565b7f4e487b71000000000000000000000000000000000000000000000000000000005f52602260045260245ffd5b5f600282049050600182168062012c3a57607f821691505b60208210810362012c505762012c4f62012bf5565b5b50919050565b5f819050815f5260205f209050919050565b5f6020601f8301049050919050565b5f82821b905092915050565b5f6008830262012cb47fffffffffffffffffffffffffffffffffffffffffffffffffffffffffffffffff8262012c77565b62012cc0868362012c77565b95508019841693508086168417925050509392505050565b5f819050919050565b5f62012d0162012cfb62012cf58462011da1565b62012cd8565b62011da1565b9050919050565b5f819050919050565b62012d1c8362012ce1565b62012d3462012d2b8262012d08565b84845462012c83565b825550505050565b5f5f905090565b62012d4d62012d3c565b62012d5a81848462012d11565b505050565b5f5b8281101562012d845762012d785f82840162012d43565b60018101905062012d61565b505050565b601f82111562012de2578282111562012de15762012da78162012c56565b62012db28362012c68565b62012dbd8562012c68565b602086101562012dcb575f90505b80830162012ddc8284038262012d5f565b505050505b5b505050565b5f82821c905092915050565b5f62012e045f198460080262012de7565b1980831691505092915050565b5f62012e1e838362012df3565b9150826002028217905092915050565b62012e398262011c05565b67ffffffffffffffff81111562012e555762012e5462010f9f565b5b62012e61825462012c22565b62012e6e82828562012d89565b5f60209050601f83116001811462012ea4575f841562012e8f578287015190505b62012e9b858262012e11565b86555062012f0a565b601f19841662012eb48662012c56565b5f5b8281101562012edd5784890151825560018201915060208501945060208101905062012eb6565b8683101562012efd578489015162012ef9601f89168262012df3565b8355505b6001600288020188555050505b505050505050565b5f60029050919050565b5f62012f288262011da1565b915062012f358362011da1565b925082820262012f458162011da1565b9150828204841483151762012f5f5762012f5e6201292f565b5b5092915050565b5f819050600460016004038301049050919050565b5f819050919050565b5f5b8281101562012fa95762012f9d5f82840162012d43565b60018101905062012f86565b505050565b62012fe07fffffffffffffffffffffffffffffffffffffffffffffffffffffffffffffffff8360200360080262012de7565b815481168255505050565b818310156201304c5762012fff8262012f66565b6201300a8462012f66565b620130158362012f7b565b818101600860048806025f811115620130385762013037816001840362012fae565b5b620130468486038362012f84565b50505050505b505050565b680100000000000000008211156201306e576201306d62010f9f565b5b620130798162012f12565b6201308683828462012feb565b505050565b5f62013098825162010d94565b80915050919050565b5f60088302620130ba67ffffffffffffffff8262012c77565b620130c6868362012c77565b95508019841693508086168417925050509392505050565b5f819050919050565b620130f28262011c6d565b67ffffffffffffffff8111156201310e576201310d62010f9f565b5b6201311a818362013051565b620131258362011c81565b620131308362012f7b565b600483045f5b818110156201319b575f5f5b6004811015620131885762013157866201308b565b6201316281620130de565b62013172818460080286620130a1565b9350602088019750505060018101905062013142565b5080828501555060018101905062013136565b506004810284035f811115620131fb575f5f5b82811015620131f357620131c2866201308b565b620131cd81620130de565b620131dd818460080286620130a1565b93506020880197505050600181019050620131ae565b508083850155505b50505050505050565b7f4e487b71000000000000000000000000000000000000000000000000000000005f52603260045260245ffd5b5f8160011c9050919050565b5f5f8291508390505b60018511156201328e578086048111156201326657620132656201292f565b5b6001851615620132765780820291505b8081029050620132868562013231565b945062013246565b94509492505050565b5f82620132a857600190506201337a565b81620132b7575f90506201337a565b8160018114620132d05760028114620132db5762013311565b60019150506201337a565b60ff841115620132f057620132ef6201292f565b5b8360020a9150848211156201330a57620133096201292f565b5b506201337a565b5060208310610133831016604e8410600b84101617156201334b5782820a9050838111156201334557620133446201292f565b5b6201337a565b6201335a84848460016201323d565b925090508184048111156201337457620133736201292f565b5b81810290505b9392505050565b5f6201338d8262011da1565b91506201339a83620113a9565b9250620133c97fffffffffffffffffffffffffffffffffffffffffffffffffffffffffffffffff848462013297565b905092915050565b5f82825260208201905092915050565b7f4f66666c696e65206d6f64653a2073706f7420707269636520686173206e6f745f8201527f206265656e207365742e2055736520436f726553696d756c61746f724c69622e60208201527f73657453706f7450782829000000000000000000000000000000000000000000604082015250565b5f62013463604b83620133d1565b91506201347082620133e1565b606082019050919050565b5f6020820190508181035f830152620134948162013455565b9050919050565b5f60e08284031215620134b357620134b262010d2b565b5b5f620134c2848285016201142e565b91505092915050565b5f60608284031215620134e357620134e262010d2b565b5b5f620134f28482850162012319565b91505092915050565b5f6060828403121562013513576201351262010d2b565b5b5f620135228482850162011f62565b91505092915050565b5f6020828403121562013543576201354262010d2b565b5b5f6201355284828501620123ca565b91505092915050565b5f6020828403121562013573576201357262010d2b565b5b5f6201358284828501620126b5565b91505092915050565b5f60608284031215620135a357620135a262010d2b565b5b5f620135b28482850162011af8565b91505092915050565b5f60408284031215620135d357620135d262010d2b565b5b5f620135e2848285016201273a565b91505092915050565b5f620135f78262011da1565b9150620136048362011da1565b92508262013617576201361662012996565b5b828204905092915050565b5f6201362e8262010d94565b91506201363b8362010d94565b9250828203905067ffffffffffffffff8111156201365e576201365d6201292f565b5b92915050565b5f81549050919050565b5f819050600460016004038301049050919050565b5f819050815f5260205f209050919050565b81831015620136f657620136a9826201366e565b620136b4846201366e565b620136bf8362013683565b818101600860048806025f811115620136e257620136e1816001840362012fae565b5b620136f08486038362012f84565b50505050505b505050565b6801000000000000000082111562013718576201371762010f9f565b5b620137238162013664565b8282556201373383828462013695565b505050565b62013743826201244f565b67ffffffffffffffff8111156201375f576201375e62010f9f565b5b6201376b8183620136fb565b620137768362012469565b620137818362013683565b600483045f5b81811015620137ec575f5f5b6004811015620137d957620137a8866201308b565b620137b381620130de565b620137c3818460080286620130a1565b9350602088019750505060018101905062013793565b5080828501555060018101905062013787565b506004810284035f8111156201384c575f5f5b82811015620138445762013813866201308b565b6201381e81620130de565b6201382e818460080286620130a1565b93506020880197505050600181019050620137ff565b508083850155505b50505050505050565b7f696e73756666696369656e742062616c616e63650000000000000000000000005f82015250565b5f6201388b601483620133d1565b9150620138988262013855565b602082019050919050565b5f6020820190508181035f830152620138bc816201387d565b9050919050565b5f620138cf8262011da1565b9150620138dc8362011da1565b9250828201905080821115620138f757620138f66201292f565b5b92915050565b620139088162010d52565b82525050565b5f602082019050620139235f830184620138fd565b92915050565b5f81905092915050565b50565b5f620139435f8362013929565b9150620139508262013933565b5f82019050919050565b5f620139668262013936565b9150819050919050565b7f7472616e73666572206661696c656400000000000000000000000000000000005f82015250565b5f620139a6600f83620133d1565b9150620139b38262013970565b602082019050919050565b5f6020820190508181035f830152620139d78162013998565b9050919050565b5f81519050620139ee8162011daa565b92915050565b5f6020828403121562013a0c5762013a0b62010d2b565b5b5f62013a1b84828501620139de565b91505092915050565b7f66656520746f6f206869676800000000000000000000000000000000000000005f82015250565b5f62013a5a600c83620133d1565b915062013a678262013a24565b602082019050919050565b5f6020820190508181035f83015262013a8b8162013a4c565b9050919050565b7f496e73756666696369656e742064656c65676174696f6e20616d6f756e74204f5f8201527f522044656c65676174696f6e206973206c6f636b656400000000000000000000602082015250565b5f62013aee603683620133d1565b915062013afb8262013a92565b604082019050919050565b5f6020820190508181035f83015262013b1f8162013ae0565b9050919050565b7f496e73756666696369656e74207374616b696e672062616c616e6365000000005f82015250565b5f62013b5c601c83620133d1565b915062013b698262013b26565b602082019050919050565b5f6020820190508181035f83015262013b8d8162013b4e565b9050919050565b7f646f6573206e6f74206d656574206d696e696d756d20776974686472617700005f82015250565b5f62013bca601e83620133d1565b915062013bd78262013b94565b602082019050919050565b5f6020820190508181035f83015262013bfb8162013bbc565b9050919050565b7f65717569747920746f6f206c6f772c206f72206c6f636b6564000000000000005f82015250565b5f62013c38601983620133d1565b915062013c458262013c02565b602082019050919050565b5f6020820190508181035f83015262013c698162013c2a565b9050919050565b5f62013c7c8262010d94565b915067ffffffffffffffff820362013c995762013c986201292f565b5b600182019050919050565b7f6d6178696d756d206f6620352070656e64696e67207769746864726177616c735f8201527f20706572206163636f756e740000000000000000000000000000000000000000602082015250565b5f62013d00602c83620133d1565b915062013d0d8262013ca4565b604082019050919050565b5f6020820190508181035f83015262013d318162013cf2565b9050919050565b7f4e487b71000000000000000000000000000000000000000000000000000000005f52603160045260245ffd5b7f696e73756666696369656e7420616d6f756e74206272696467656420666f72205f8201527f61637469766174696f6e20666565000000000000000000000000000000000000602082015250565b5f62013dc1602e83620133d1565b915062013dce8262013d65565b604082019050919050565b5f6020820190508181035f83015262013df28162013db3565b9050919050565b5f60408201905062013e0e5f830185620138fd565b62013e1d6020830184620112b9565b9392505050565b5f8151905062013e348162010da7565b92915050565b5f6060828403121562013e525762013e5162010f8b565b5b62013e5e606062011002565b90505f62013e6f8482850162013e24565b5f83015250602062013e848482850162013e24565b602083015250604062013e9a8482850162013e24565b60408301525092915050565b5f6060828403121562013ebe5762013ebd62010d2b565b5b5f62013ecd8482850162013e3a565b91505092915050565b5f62013ee28262012156565b91507fffffffffffffffffffffffffffffffffffffffffffffffff8000000000000000820362013f175762013f166201292f565b5b815f039050919050565b5f6020828403121562013f395762013f3862010d2b565b5b5f62013f488482850162013e24565b91505092915050565b5f81519050919050565b5f62013f678262013f51565b62013f73818562013929565b935062013f8581856020860162011c1f565b80840191505092915050565b5f62013f9e828462013f5b565b915081905092915050565b5f62013fbf62013fb9846201102c565b62011002565b90508281526020810184848401111562013fde5762013fdd62011028565b5b62013feb84828562011c1f565b509392505050565b5f82601f8301126201400a576201400962011024565b5b81516201401c84826020860162013fa9565b91505092915050565b5f6201403b6201403584620110eb565b62011002565b9050806020840283018581111562014058576201405762011113565b5b835b8181101562014085578062014070888262013e24565b8452602084019350506020810190506201405a565b5050509392505050565b5f82601f830112620140a657620140a562011024565b5b6002620140b584828562014025565b91505092915050565b5f60608284031215620140d657620140d562010f8b565b5b620140e2604062011002565b90505f82015167ffffffffffffffff81111562014104576201410362011020565b5b620141128482850162013ff3565b5f83015250602062014127848285016201408f565b60208301525092915050565b5f602082840312156201414b576201414a62010d2b565b5b5f82015167ffffffffffffffff8111156201416b576201416a62010d2f565b5b6201417984828501620140be565b91505092915050565b5f819050919050565b5f620141ab620141a56201419f8462014182565b62012cd8565b620113a9565b9050919050565b620141bd816201418b565b82525050565b5f604082019050620141d85f830185620141b2565b620141e7602083018462012689565b9392505050565b7f66656520657863656564732070726f63656564730000000000000000000000005f82015250565b5f62014224601483620133d1565b91506201423182620141ee565b602082019050919050565b5f6020820190508181035f830152620142558162014216565b9050919050565b5f67ffffffffffffffff82111562014279576201427862010f9f565b5b602082029050602081019050919050565b5f815190506201429a8162010d65565b92915050565b5f60608284031215620142b857620142b762010f8b565b5b620142c4606062011002565b90505f620142d5848285016201428a565b5f830152506020620142ea8482850162013e24565b6020830152506040620143008482850162013e24565b60408301525092915050565b5f620143226201431c846201425c565b62011002565b9050808382526020820190506060840283018581111562014348576201434762011113565b5b835b81811015620143755780620143608882620142a0565b8452602084019350506060810190506201434a565b5050509392505050565b5f82601f83011262014396576201439562011024565b5b8151620143a88482602086016201430c565b91505092915050565b5f60208284031215620143c957620143c862010d2b565b5b5f82015167ffffffffffffffff811115620143e957620143e862010d2f565b5b620143f7848285016201437f565b91505092915050565b5f6201440c8262010d33565b9150620144198362010d33565b9250828203905073ffffffffffffffffffffffffffffffffffffffff8111156201444857620144476201292f565b5b92915050565b7f696e73756666696369656e7420555344432062616c616e636520666f722066655f8201527f6500000000000000000000000000000000000000000000000000000000000000602082015250565b5f620144aa602183620133d1565b9150620144b7826201444e565b604082019050919050565b5f6020820190508181035f830152620144db816201449c565b9050919050565b5f620144ee8262010d33565b9150620144fb8362010d33565b9250828201905073ffffffffffffffffffffffffffffffffffffffff8111156201452a57620145296201292f565b5b92915050565b5f604082019050620145455f830185620138fd565b62014554602083018462012689565b9392505050565b5f620145678262011940565b91507fffffffffffffffffffffffffffffffffffffffffffffffffffffffffffffff8082036201459c576201459b6201292f565b5b815f039050919050565b5f60208284031215620145be57620145bd62010f8b565b5b620145ca602062011002565b90505f620145db8482850162013e24565b5f8301525092915050565b5f60208284031215620145fe57620145fd62010d2b565b5b5f6201460d84828501620145a6565b91505092915050565b5f6201462c62014626846201186d565b62011002565b9050808382526020820190506020840283018581111562014652576201465162011113565b5b835b818110156201467f57806201466a888262013e24565b84526020840193505060208101905062014654565b5050509392505050565b5f82601f830112620146a0576201469f62011024565b5b8151620146b284826020860162014616565b91505092915050565b5f81519050620146cb81620113b5565b92915050565b5f81519050620146e1816201194b565b92915050565b5f61010082840312156201470057620146ff62010f8b565b5b6201470d61010062011002565b90505f82015167ffffffffffffffff8111156201472f576201472e62011020565b5b6201473d8482850162013ff3565b5f83015250602082015167ffffffffffffffff81111562014763576201476262011020565b5b620147718482850162014689565b6020830152506040620147878482850162013e24565b60408301525060606201479d848285016201428a565b6060830152506080620147b3848285016201428a565b60808301525060a0620147c984828501620146bb565b60a08301525060c0620147df84828501620146bb565b60c08301525060e0620147f584828501620146d1565b60e08301525092915050565b5f6020828403121562014819576201481862010d2b565b5b5f82015167ffffffffffffffff81111562014839576201483862010d2f565b5b6201484784828501620146e7565b91505092915050565b5f81519050620148608162010f5c565b92915050565b5f8151905062014876816201137a565b92915050565b5f60a0828403121562014894576201489362010f8b565b5b620148a060a062011002565b90505f82015167ffffffffffffffff811115620148c257620148c162011020565b5b620148d08482850162013ff3565b5f830152506020620148e58482850162014850565b6020830152506040620148fb84828501620146bb565b60408301525060606201491184828501620146bb565b6060830152506080620149278482850162014866565b60808301525092915050565b5f602082840312156201494b576201494a62010d2b565b5b5f82015167ffffffffffffffff8111156201496b576201496a62010d2f565b5b62014979848285016201487c565b91505092915050565b5f6201498e82620113a9565b91506201499b83620113a9565b9250828203905060ff811115620149b757620149b66201292f565b5b92915050565b5f620149c98262010d94565b9150620149d683620113a9565b9250620149ed67ffffffffffffffff848462013297565b905092915050565b7f496e76616c6964206c65766572616765000000000000000000000000000000005f82015250565b5f62014a2b601083620133d1565b915062014a3882620149f5565b602082019050919050565b5f6020820190508181035f83015262014a5c8162014a1d565b9050919050565b7f496e76616c69642073697a6500000000000000000000000000000000000000005f82015250565b5f62014a99600c83620133d1565b915062014aa68262014a63565b602082019050919050565b5f6020820190508181035f83015262014aca8162014a8b565b9050919050565b7f496e76616c6964207072696365000000000000000000000000000000000000005f82015250565b5f62014b07600d83620133d1565b915062014b148262014ad1565b602082019050919050565b5f6020820190508181035f83015262014b388162014af9565b9050919050565b7f696e73756666696369656e7420706572702062616c616e636520666f722066655f8201527f6500000000000000000000000000000000000000000000000000000000000000602082015250565b5f62014b9b602183620133d1565b915062014ba88262014b3f565b604082019050919050565b5f6020820190508181035f83015262014bcc8162014b8d565b9050919050565b5f60408201905062014be85f830185620138fd565b62014bf7602083018462012013565b9392505050565b62014c098162012156565b811462014c14575f5ffd5b50565b5f8151905062014c278162014bfe565b92915050565b5f60a0828403121562014c455762014c4462010f8b565b5b62014c5160a062011002565b90505f62014c628482850162014c17565b5f83015250602062014c778482850162013e24565b602083015250604062014c8d8482850162014c17565b604083015250606062014ca38482850162014850565b606083015250608062014cb98482850162014866565b60808301525092915050565b5f60a0828403121562014cdd5762014cdc62010d2b565b5b5f62014cec8482850162014c2d565b91505092915050565b5f6020828403121562014d0d5762014d0c62010d2b565b5b5f62014d1c8482850162014866565b91505092915050565b5f6080828403121562014d3d5762014d3c62010f8b565b5b62014d49608062011002565b90505f62014d5a8482850162013e24565b5f83015250602062014d6f8482850162013e24565b602083015250604062014d858482850162013e24565b604083015250606062014d9b8482850162013e24565b60608301525092915050565b5f6080828403121562014dbf5762014dbe62010d2b565b5b5f62014dce8482850162014d25565b91505092915050565b5f6020828403121562014def5762014dee62010d2b565b5b5f82015167ffffffffffffffff81111562014e0f5762014e0e62010d2f565b5b62014e1d8482850162013ff3565b91505092915050565b5f82825260208201905092915050565b5f62014e428262013f51565b62014e4e818562014e26565b935062014e6081856020860162011c1f565b62014e6b8162010f8f565b840191505092915050565b5f6020820190508181035f83015262014e90818462014e36565b905092915050565b7f5b7b22746f223a22000000000000000000000000000000000000000000000000815250565b5f81905092915050565b5f62014ed48262011c05565b62014ee0818562014ebe565b935062014ef281856020860162011c1f565b80840191505092915050565b7f222c2264617461223a2200000000000000000000000000000000000000000000815250565b7f227d2c226c6174657374225d0000000000000000000000000000000000000000815250565b5f62014f568262014e98565b60088201915062014f68828562014ec8565b915062014f758262014efe565b600a8201915062014f87828462014ec8565b915062014f948262014f24565b600c820191508190509392505050565b7f3078000000000000000000000000000000000000000000000000000000000000815250565b5f62014fd68262014fa4565b60028201915062014fe8828462014ec8565b915081905092915050565b7f227d2c2200000000000000000000000000000000000000000000000000000000815250565b7f225d000000000000000000000000000000000000000000000000000000000000815250565b5f6201504b8262014e98565b6008820191506201505d828662014ec8565b91506201506a8262014efe565b600a820191506201507c828562014ec8565b9150620150898262014ff3565b6004820191506201509b828462014ec8565b9150620150a88262015019565b600282019150819050949350505050565b7f6574685f63616c6c0000000000000000000000000000000000000000000000005f82015250565b5f620150ef600883620133d1565b9150620150fc82620150b9565b602082019050919050565b5f620151138262011c05565b6201511f8185620133d1565b93506201513181856020860162011c1f565b6201513c8162010f8f565b840191505092915050565b5f6040820190508181035f8301526201516081620150e1565b9050818103602083015262015176818462015107565b905092915050565b5f67ffffffffffffffff8211156201519b576201519a62010f9f565b5b620151a68262010f8f565b9050602081019050919050565b5f620151c9620151c3846201517e565b62011002565b905082815260208101848484011115620151e857620151e762011028565b5b620151f584828562011c1f565b509392505050565b5f82601f83011262015214576201521362011024565b5b815162015226848260208601620151b3565b91505092915050565b5f6020828403121562015247576201524662010d2b565b5b5f82015167ffffffffffffffff81111562015267576201526662010d2f565b5b6201527584828501620151fd565b91505092915050565b5f604082019050620152935f83018562011bd9565b620152a26020830184620138fd565b9392505050565b5f60808284031215620152c157620152c062010f8b565b5b620152cd608062011002565b90505f620152de8482850162014c17565b5f830152506020620152f38482850162013e24565b6020830152506040620153098482850162013e24565b60408301525060606201531f8482850162014c17565b60608301525092915050565b5f6080828403121562015343576201534262010d2b565b5b5f6201535284828501620152a9565b91505092915050565b5f604082019050620153705f830185620138fd565b6201537f6020830184620138fd565b9392505050565b5f604082840312156201539e576201539d62010f8b565b5b620153aa604062011002565b90505f620153bb8482850162013e24565b5f830152506020620153d08482850162013e24565b60208301525092915050565b5f60408284031215620153f457620153f362010d2b565b5b5f620154038482850162015386565b91505092915050565b5f6020828403121562015424576201542362010f8b565b5b62015430602062011002565b90505f620154418482850162014866565b5f8301525092915050565b5f6020828403121562015464576201546362010d2b565b5b5f62015473848285016201540c565b91505092915050565b5f620154888262011da1565b91507fffffffffffffffffffffffffffffffffffffffffffffffffffffffffffffffff8203620154bd57620154bc6201292f565b5b600182019050919050565b5f620154d48262011da1565b9150620154e18362011da1565b925082620154f457620154f362012996565b5b828206905092915050565b5f6201550b82620113a9565b91506201551883620113a9565b9250828201905060ff8111156201553457620155336201292f565b5b92915050565b5f819050919050565b62015558620155528262011da1565b6201553a565b82525050565b5f6201556b828562013f5b565b915062015579828462015543565b6020820191508190509392505050565b5f620155958262011da1565b9150620155a28362011da1565b9250620155d17fffffffffffffffffffffffffffffffffffffffffffffffffffffffffffffffff848462013297565b905092915050565b7f73746453746f726167652066696e642853746453746f72616765293a205061635f8201527f6b656420736c6f742e2057652063616e2774206669742076616c75652067726560208201527f61746572207468616e2000000000000000000000000000000000000000000000604082015250565b5f6201565b604a8362014ebe565b91506201566882620155d9565b604a82019050919050565b5f6201567f826201564d565b91506201568d828462014ec8565b915081905092915050565b5f6020820190508181035f830152620156b2818462015107565b905092915050565b5f819050919050565b620156ce81620156ba565b82525050565b5f604082019050620156e95f830185620138fd565b620156f86020830184620156c3565b9392505050565b6201570a81620156ba565b811462015715575f5ffd5b50565b5f815190506201572881620156ff565b92915050565b5f6020828403121562015746576201574562010d2b565b5b5f620157558482850162015718565b91505092915050565b5f606082019050620157735f830186620138fd565b620157826020830185620156c3565b620157916040830184620156c3565b949350505050565b7f73746453746f726167652066696e642853746453746f72616765293a204661695f8201527f6c656420746f2077726974652076616c75652e00000000000000000000000000602082015250565b5f620157f5603383620133d1565b9150620158028262015799565b604082019050919050565b5f6020820190508181035f8301526201582681620157e7565b9050919050565b5f7fffffffff0000000000000000000000000000000000000000000000000000000082169050919050565b5f819050919050565b6201587662015870826201582d565b62015858565b82525050565b5f62015889828562015861565b6004820191506201589b828462013f5b565b91508190509392505050565b5f67ffffffffffffffff821115620158c457620158c362010f9f565b5b602082029050602081019050919050565b5f620158eb620158e584620158a7565b62011002565b9050808382526020820190506020840283018581111562015911576201591062011113565b5b835b818110156201593e578062015929888262015718565b84526020840193505060208101905062015913565b5050509392505050565b5f82601f8301126201595f576201595e62011024565b5b815162015971848260208601620158d5565b91505092915050565b5f5f6040838503121562015993576201599262010d2b565b5b5f83015167ffffffffffffffff811115620159b357620159b262010d2f565b5b620159c18582860162015948565b925050602083015167ffffffffffffffff811115620159e557620159e462010d2f565b5b620159f38582860162015948565b9150509250929050565b7f73746453746f726167652066696e642853746453746f72616765293a204e6f205f8201527f73746f726167652075736520646574656374656420666f72207461726765742e602082015250565b5f62015a59604083620133d1565b915062015a6682620159fd565b604082019050919050565b5f6020820190508181035f83015262015a8a8162015a4b565b9050919050565b62015a9c816201582d565b82525050565b5f60808201905062015ab75f830187620138fd565b62015ac6602083018662015a91565b62015ad56040830185620156c3565b62015ae4606083018462012689565b95945050505050565b7f73746453746f726167652066696e642853746453746f72616765293a20536c6f5f8201527f74287329206e6f7420666f756e642e0000000000000000000000000000000000602082015250565b5f62015b49602f83620133d1565b915062015b568262015aed565b604082019050919050565b5f6020820190508181035f83015262015b7a8162015b3b565b905091905056fea2646970667358221220b0ab973503833f2d2fac463e4707fb440d6fcdb2cec8df45f4b212583761e67b64736f6c63430008210033","linkReferences":{}},"methodIdentifiers":{"FEE_DENOMINATOR()":"d73792a9","HYPE_TOKEN_INDEX()":"faf2773a","USDC_TOKEN_INDEX()":"5e3dcdab","_getMaxLeverage(uint16)":"36d92dc6","_liquidateUser(address)":"ec1e4e01","coreUserExists(address)":"9dbfb13f","executeNativeTransfer(address,address,uint256)":"757428fb","executePerpLimitOrder(address,(uint32,bool,uint64,uint64,bool,uint8,uint128))":"6040b052","executeRawAction(address,uint24,bytes)":"158389c4","executeSpotLimitOrder(address,(uint32,bool,uint64,uint64,bool,uint8,uint128))":"132ce2d6","executeSpotSend(address,(address,uint64,uint64))":"35c4a8b1","executeStakingDeposit(address,(uint64))":"9c93e159","executeStakingWithdraw(address,(uint64))":"db2d1cb5","executeTokenDelegate(address,(address,uint64,bool))":"8dca414d","executeTokenTransfer(address,uint64,address,uint256)":"eb03dd6b","executeUsdClassTransfer(address,(uint64,bool))":"ea32ee88","executeVaultTransfer(address,(address,bool,uint64))":"9a6538b4","forceAccountActivation(address)":"0810bf02","forceDelegation(address,address,uint64,uint64)":"71291d1b","forcePerpBalance(address,uint64)":"ff1e91b5","forcePerpPositionLeverage(address,uint16,uint32)":"1246b2e6","forceSpotBalance(address,uint64,uint64)":"08c61686","forceStakingBalance(address,uint64)":"08dda1da","forceVaultEquity(address,address,uint64,uint64)":"7fa69383","isLiquidatable(address)":"042e02cf","liquidatePositions()":"6780a7d4","perpMakerFee()":"dfefb2e2","processPendingOrders()":"db40297c","processStakingWithdrawals()":"04aa1851","readAccountMarginSummary(uint16,address)":"f0f30167","readDelegations(address)":"1db9707c","readDelegatorSummary(address)":"cfdc2694","readMarkPx(uint32)":"e2e85831","readOraclePx(uint32)":"106b7799","readPerpAssetInfo(uint32)":"97bc0e94","readPerpBalance(address)":"507a97c3","readPosition(address,uint16)":"97fba546","readSpotBalance(address,uint64)":"012755c2","readSpotInfo(uint32)":"48bb769b","readSpotPx(uint32)":"99c9189d","readTokenInfo(uint32)":"b4fcd37c","readUserVaultEquity(address,address)":"180ed246","readWithdrawable(address)":"68ba8652","registerPerpAssetInfo(uint16,(string,uint32,uint8,uint8,bool))":"9898728c","registerSpotInfo(uint32,(string,uint64[2]))":"0dcb1548","registerTokenInfo(uint64)":"554e1108","registerTokenInfo(uint64,(string,uint64[],uint64,address,address,uint8,uint8,int8))":"32480ac9","registerValidator(address)":"9fca5169","setMarkPx(uint32,uint64)":"6272f20a","setMarkPx(uint32,uint64,bool)":"233cc86a","setPerpMakerFee(uint16)":"97fdd86a","setSpotMakerFee(uint16)":"629138f4","setSpotPx(uint32,uint64)":"94a0b771","setSpotPx(uint32,uint64,bool)":"ccd9349c","setStakingYieldIndex(uint256)":"c126d047","setUseRealL1Read(bool)":"fe95987c","setVaultMultiplier(address,uint256)":"55784c51","spotMakerFee()":"915711ba","tokenExists(uint32)":"2f9c29a2","useRealL1Read()":"7ea558c8"},"id":51}