{"abi":[{"type":"function","name":"increment","inputs":[],"outputs":[],"stateMutability":"nonpayable"},{"type":"function","name":"meow","inputs":[],"outputs":[{"name":"","type":"uint256","internalType":"uint256"}],"stateMutability":"view"},{"type":"function","name":"number","inputs":[],"outputs":[{"name":"","type":"uint256","internalType":"uint256"}],"stateMutability":"view"},{"type":"function","name":"setNumber","inputs":[{"name":"newNumber","type":"uint256","internalType":"uint256"}],"outputs":[],"stateMutability":"nonpayable"}],"bytecode":{"object":"0x6080604052348015600e575f5ffd5b506102108061001c5f395ff3fe608060405234801561000f575f5ffd5b506004361061004a575f3560e01c80633fb5c1cb1461004e5780638381f58a1461006a578063c5a5659914610088578063d09de08a146100a6575b5f5ffd5b61006860048036038101906100639190610113565b6100b0565b005b6100726100b9565b60405161007f919061014d565b60405180910390f35b6100906100be565b60405161009d919061014d565b60405180910390f35b6100ae6100c4565b005b805f8190555050565b5f5481565b60015481565b5f5f8154809291906100d590610193565b9190505550565b5f5ffd5b5f819050919050565b6100f2816100e0565b81146100fc575f5ffd5b50565b5f8135905061010d816100e9565b92915050565b5f60208284031215610128576101276100dc565b5b5f610135848285016100ff565b91505092915050565b610147816100e0565b82525050565b5f6020820190506101605f83018461013e565b92915050565b7f4e487b71000000000000000000000000000000000000000000000000000000005f52601160045260245ffd5b5f61019d826100e0565b91507fffffffffffffffffffffffffffffffffffffffffffffffffffffffffffffffff82036101cf576101ce610166565b5b60018201905091905056fea2646970667358221220ee1239136357d9271afe78386fd940b26a1ec5bfee4eabf21b29e2ebed7462a064736f6c63430008210033","linkReferences":{}},"methodIdentifiers":{"increment()":"d09de08a","meow()":"c5a56599","number()":"8381f58a","setNumber(uint256)":"3fb5c1cb"},"id":21}