{"abi":[{"type":"function","name":"batchSetTokenInfo","inputs":[{"name":"startIndex","type":"uint32","internalType":"uint32"},{"name":"endIndex","type":"uint32","internalType":"uint32"}],"outputs":[],"stateMutability":"nonpayable"},{"type":"function","name":"getTokenAddress","inputs":[{"name":"index","type":"uint32","internalType":"uint32"}],"outputs":[{"name":"","type":"address","internalType":"address"}],"stateMutability":"view"},{"type":"function","name":"getTokenIndex","inputs":[{"name":"evmContract","type":"address","internalType":"address"}],"outputs":[{"name":"index","type":"uint32","internalType":"uint32"}],"stateMutability":"view"},{"type":"function","name":"hasTokenIndex","inputs":[{"name":"evmContract","type":"address","internalType":"address"}],"outputs":[{"name":"","type":"bool","internalType":"bool"}],"stateMutability":"view"},{"type":"function","name":"setTokenInfo","inputs":[{"name":"tokenIndex","type":"uint32","internalType":"uint32"}],"outputs":[],"stateMutability":"nonpayable"},{"type":"error","name":"NoEvmContract","inputs":[{"name":"index","type":"uint32","internalType":"uint32"}]},{"type":"error","name":"PrecompileCallFailed","inputs":[]},{"type":"error","name":"TokenNotFound","inputs":[{"name":"evmContract","type":"address","internalType":"address"}]}],"bytecode":{"object":"0x6080604052348015600e575f5ffd5b50610bbc8061001c5f395ff3fe608060405234801561000f575f5ffd5b5060043610610055575f3560e01c806314848b9214610059578063543d7a191461007557806364552361146100a557806366c0bd24146100d55780637834ca2414610105575b5f5ffd5b610073600480360381019061006e9190610559565b610121565b005b61008f600480360381019061008a9190610597565b610196565b60405161009c9190610601565b60405180910390f35b6100bf60048036038101906100ba9190610644565b61027e565b6040516100cc9190610689565b60405180910390f35b6100ef60048036038101906100ea9190610644565b610314565b6040516100fc91906106b1565b60405180910390f35b61011f600480360381019061011a9190610597565b6103ef565b005b5f8290505b8163ffffffff168163ffffffff1611610191575f73ffffffffffffffffffffffffffffffffffffffff1661015982610196565b73ffffffffffffffffffffffffffffffffffffffff161461017e5761017d816103ef565b5b8080610189906106f7565b915050610126565b505050565b5f5f5f61080c73ffffffffffffffffffffffffffffffffffffffff16846040516020016101c391906106b1565b6040516020818303038152906040526040516101df9190610774565b5f60405180830381855afa9150503d805f8114610217576040519150601f19603f3d011682016040523d82523d5f602084013e61021c565b606091505b509150915081610258576040517ffd23ff6400000000000000000000000000000000000000000000000000000000815260040160405180910390fd5b5f8180602001905181019061026d9190610b3f565b905080608001519350505050919050565b5f5f5f5f8473ffffffffffffffffffffffffffffffffffffffff1673ffffffffffffffffffffffffffffffffffffffff1681526020019081526020015f206040518060400160405290815f82015f9054906101000a900463ffffffff1663ffffffff1663ffffffff1681526020015f820160049054906101000a900460ff16151515158152505090508060200151915050919050565b5f5f5f5f8473ffffffffffffffffffffffffffffffffffffffff1673ffffffffffffffffffffffffffffffffffffffff1681526020019081526020015f206040518060400160405290815f82015f9054906101000a900463ffffffff1663ffffffff1663ffffffff1681526020015f820160049054906101000a900460ff161515151581525050905080602001516103e357826040517fde6137d10000000000000000000000000000000000000000000000000000000081526004016103da9190610601565b60405180910390fd5b805f0151915050919050565b5f6103f982610196565b90505f73ffffffffffffffffffffffffffffffffffffffff168173ffffffffffffffffffffffffffffffffffffffff160361046b57816040517f4acd362b00000000000000000000000000000000000000000000000000000000815260040161046291906106b1565b60405180910390fd5b60405180604001604052808363ffffffff168152602001600115158152505f5f8373ffffffffffffffffffffffffffffffffffffffff1673ffffffffffffffffffffffffffffffffffffffff1681526020019081526020015f205f820151815f015f6101000a81548163ffffffff021916908363ffffffff1602179055506020820151815f0160046101000a81548160ff0219169083151502179055509050505050565b5f604051905090565b5f5ffd5b5f5ffd5b5f63ffffffff82169050919050565b61053881610520565b8114610542575f5ffd5b50565b5f813590506105538161052f565b92915050565b5f5f6040838503121561056f5761056e610518565b5b5f61057c85828601610545565b925050602061058d85828601610545565b9150509250929050565b5f602082840312156105ac576105ab610518565b5b5f6105b984828501610545565b91505092915050565b5f73ffffffffffffffffffffffffffffffffffffffff82169050919050565b5f6105eb826105c2565b9050919050565b6105fb816105e1565b82525050565b5f6020820190506106145f8301846105f2565b92915050565b610623816105e1565b811461062d575f5ffd5b50565b5f8135905061063e8161061a565b92915050565b5f6020828403121561065957610658610518565b5b5f61066684828501610630565b91505092915050565b5f8115159050919050565b6106838161066f565b82525050565b5f60208201905061069c5f83018461067a565b92915050565b6106ab81610520565b82525050565b5f6020820190506106c45f8301846106a2565b92915050565b7f4e487b71000000000000000000000000000000000000000000000000000000005f52601160045260245ffd5b5f61070182610520565b915063ffffffff8203610717576107166106ca565b5b600182019050919050565b5f81519050919050565b5f81905092915050565b8281835e5f83830152505050565b5f61074e82610722565b610758818561072c565b9350610768818560208601610736565b80840191505092915050565b5f61077f8284610744565b915081905092915050565b5f5ffd5b5f601f19601f8301169050919050565b7f4e487b71000000000000000000000000000000000000000000000000000000005f52604160045260245ffd5b6107d48261078e565b810181811067ffffffffffffffff821117156107f3576107f261079e565b5b80604052505050565b5f61080561050f565b905061081182826107cb565b919050565b5f5ffd5b5f5ffd5b5f5ffd5b5f67ffffffffffffffff82111561083c5761083b61079e565b5b6108458261078e565b9050602081019050919050565b5f61086461085f84610822565b6107fc565b9050828152602081018484840111156108805761087f61081e565b5b61088b848285610736565b509392505050565b5f82601f8301126108a7576108a661081a565b5b81516108b7848260208601610852565b91505092915050565b5f67ffffffffffffffff8211156108da576108d961079e565b5b602082029050602081019050919050565b5f5ffd5b5f67ffffffffffffffff82169050919050565b61090b816108ef565b8114610915575f5ffd5b50565b5f8151905061092681610902565b92915050565b5f61093e610939846108c0565b6107fc565b90508083825260208201905060208402830185811115610961576109606108eb565b5b835b8181101561098a57806109768882610918565b845260208401935050602081019050610963565b5050509392505050565b5f82601f8301126109a8576109a761081a565b5b81516109b884826020860161092c565b91505092915050565b5f815190506109cf8161061a565b92915050565b5f60ff82169050919050565b6109ea816109d5565b81146109f4575f5ffd5b50565b5f81519050610a05816109e1565b92915050565b5f815f0b9050919050565b610a1f81610a0b565b8114610a29575f5ffd5b50565b5f81519050610a3a81610a16565b92915050565b5f6101008284031215610a5657610a5561078a565b5b610a616101006107fc565b90505f82015167ffffffffffffffff811115610a8057610a7f610816565b5b610a8c84828501610893565b5f83015250602082015167ffffffffffffffff811115610aaf57610aae610816565b5b610abb84828501610994565b6020830152506040610acf84828501610918565b6040830152506060610ae3848285016109c1565b6060830152506080610af7848285016109c1565b60808301525060a0610b0b848285016109f7565b60a08301525060c0610b1f848285016109f7565b60c08301525060e0610b3384828501610a2c565b60e08301525092915050565b5f60208284031215610b5457610b53610518565b5b5f82015167ffffffffffffffff811115610b7157610b7061051c565b5b610b7d84828501610a40565b9150509291505056fea2646970667358221220483ee962f652da322d848731cc417e551b7228722515ac2916666afc354d34a564736f6c63430008210033","linkReferences":{}},"methodIdentifiers":{"batchSetTokenInfo(uint32,uint32)":"14848b92","getTokenAddress(uint32)":"543d7a19","getTokenIndex(address)":"66c0bd24","hasTokenIndex(address)":"64552361","setTokenInfo(uint32)":"7834ca24"},"id":48}